{
  "contractName": "ChainlinkOracle",
  "abi": [
    {
      "inputs": [
        {
          "internalType": "address",
          "name": "feed",
          "type": "address"
        }
      ],
      "name": "getPrice",
      "outputs": [
        {
          "internalType": "uint256",
          "name": "",
          "type": "uint256"
        }
      ],
      "stateMutability": "view",
      "type": "function",
      "constant": true
    }
  ],
  "bytecode": "0x608060405234801561001057600080fd5b50610488806100206000396000f3fe608060405234801561001057600080fd5b506004361061002b5760003560e01c806341976e0914610030575b600080fd5b61004361003e36600461026b565b610055565b60405190815260200160405180910390f35b60006001600160a01b0382166100a05760405162461bcd60e51b815260206004820152600b60248201526a10b332b2b216b2b93937b960a91b60448201526064015b60405180910390fd5b600080836001600160a01b031663feaf968c6040518163ffffffff1660e01b815260040160a06040518083038186803b1580156100dc57600080fd5b505afa1580156100f0573d6000803e3d6000fd5b505050506040513d601f19601f82011682018060405250810190610114919061029b565b50935050925050600082136101545760405162461bcd60e51b815260206004820152600660248201526521707269636560d01b6044820152606401610097565b600081116101915760405162461bcd60e51b815260206004820152600a60248201526902174696d655374616d760b41b6044820152606401610097565b6000846001600160a01b031663313ce5676040518163ffffffff1660e01b815260040160206040518083038186803b1580156101cc57600080fd5b505afa1580156101e0573d6000803e3d6000fd5b505050506040513d601f19601f8201168201806040525081019061020491906102eb565b905060008160ff166008146102405761022160ff8316600a610373565b61022f856305f5e10061041d565b610239919061030e565b9050610243565b50825b95945050505050565b805169ffffffffffffffffffff8116811461026657600080fd5b919050565b60006020828403121561027d57600080fd5b81356001600160a01b038116811461029457600080fd5b9392505050565b600080600080600060a086880312156102b357600080fd5b6102bc8661024c565b94506020860151935060408601519250606086015191506102df6080870161024c565b90509295509295909350565b6000602082840312156102fd57600080fd5b815160ff8116811461029457600080fd5b60008261032b57634e487b7160e01b600052601260045260246000fd5b500490565b600181815b8085111561036b5781600019048211156103515761035161043c565b8085161561035e57918102915b93841c9390800290610335565b509250929050565b6000610294838360008261038957506001610417565b8161039657506000610417565b81600181146103ac57600281146103b6576103d2565b6001915050610417565b60ff8411156103c7576103c761043c565b50506001821b610417565b5060208310610133831016604e8410600b84101617156103f5575081810a610417565b6103ff8383610330565b80600019048211156104135761041361043c565b0290505b92915050565b60008160001904831182151516156104375761043761043c565b500290565b634e487b7160e01b600052601160045260246000fdfea2646970667358221220ee1987fc19abbd38ee65ae56cfcd527d50625098a2d39d5ff90e385af6a508b664736f6c63430008070033",
  "immutableReferences": {},
  "source": "// SPDX-License-Identifier: MIT\npragma solidity ^0.8.0;\n\nimport \"@chainlink/contracts/src/v0.8/interfaces/AggregatorV2V3Interface.sol\";\n\ncontract ChainlinkOracle {\n\n    function getPrice(address feed) external view returns (uint256)  {\n        require(feed != address(0), '!feed-error');\n\n        (,int price,,uint timeStamp,) = AggregatorV3Interface(feed).latestRoundData();\n\n        require(price > 0, '!price');\n        require(timeStamp > 0, '!timeStamp');\n\n        uint8 decimals = AggregatorV3Interface(feed).decimals();\n\n        uint256 priceToReturn;\n        if (decimals != 8) {\n            priceToReturn = uint256(price) * (10**8) / (10**uint256(decimals));\n        } else {\n            priceToReturn = uint256(price);\n        }\n        return priceToReturn;\n    }\n}\n",
  "sourcePath": "/Users/me/workspace/PikaPerpV2/contracts/oracle/ChainlinkOracle.sol",
  "compiler": {
    "name": "solc",
    "version": "0.8.7+commit.e28d00a7.Emscripten.clang"
  },
  "schemaVersion": "3.4.11",
  "updatedAt": "2023-01-17T09:01:58.527Z",
  "networkType": "ethereum",
  "devdoc": {
    "kind": "dev",
    "methods": {},
    "version": 1
  },
  "userdoc": {
    "kind": "user",
    "methods": {},
    "version": 1
  }
}