{
  "contractName": "FeeCalculator",
  "abi": [
    {
      "inputs": [],
      "stateMutability": "nonpayable",
      "type": "constructor"
    },
    {
      "anonymous": false,
      "inputs": [
        {
          "indexed": false,
          "internalType": "address",
          "name": "account",
          "type": "address"
        },
        {
          "indexed": false,
          "internalType": "uint256",
          "name": "discount",
          "type": "uint256"
        }
      ],
      "name": "SetDiscountForAccount",
      "type": "event"
    },
    {
      "anonymous": false,
      "inputs": [
        {
          "indexed": false,
          "internalType": "bool",
          "name": "isDiscountEnabled",
          "type": "bool"
        }
      ],
      "name": "SetIsDiscountEnabled",
      "type": "event"
    },
    {
      "anonymous": false,
      "inputs": [
        {
          "indexed": false,
          "internalType": "address",
          "name": "keeper",
          "type": "address"
        }
      ],
      "name": "SetKeeper",
      "type": "event"
    },
    {
      "anonymous": false,
      "inputs": [
        {
          "indexed": false,
          "internalType": "address",
          "name": "owner",
          "type": "address"
        }
      ],
      "name": "SetOwner",
      "type": "event"
    },
    {
      "inputs": [],
      "name": "MAX_ACCOUNT_DISCOUNT",
      "outputs": [
        {
          "internalType": "uint256",
          "name": "",
          "type": "uint256"
        }
      ],
      "stateMutability": "view",
      "type": "function",
      "constant": true
    },
    {
      "inputs": [],
      "name": "MAX_SENDER_DISCOUNT",
      "outputs": [
        {
          "internalType": "uint256",
          "name": "",
          "type": "uint256"
        }
      ],
      "stateMutability": "view",
      "type": "function",
      "constant": true
    },
    {
      "inputs": [],
      "name": "PRICE_BASE",
      "outputs": [
        {
          "internalType": "uint256",
          "name": "",
          "type": "uint256"
        }
      ],
      "stateMutability": "view",
      "type": "function",
      "constant": true
    },
    {
      "inputs": [
        {
          "internalType": "address",
          "name": "",
          "type": "address"
        }
      ],
      "name": "accountFeeDiscount",
      "outputs": [
        {
          "internalType": "uint256",
          "name": "",
          "type": "uint256"
        }
      ],
      "stateMutability": "view",
      "type": "function",
      "constant": true
    },
    {
      "inputs": [],
      "name": "baseFee",
      "outputs": [
        {
          "internalType": "uint256",
          "name": "",
          "type": "uint256"
        }
      ],
      "stateMutability": "view",
      "type": "function",
      "constant": true
    },
    {
      "inputs": [],
      "name": "gov",
      "outputs": [
        {
          "internalType": "address",
          "name": "",
          "type": "address"
        }
      ],
      "stateMutability": "view",
      "type": "function",
      "constant": true
    },
    {
      "inputs": [],
      "name": "isDiscountEnabled",
      "outputs": [
        {
          "internalType": "bool",
          "name": "",
          "type": "bool"
        }
      ],
      "stateMutability": "view",
      "type": "function",
      "constant": true
    },
    {
      "inputs": [],
      "name": "keeper",
      "outputs": [
        {
          "internalType": "address",
          "name": "",
          "type": "address"
        }
      ],
      "stateMutability": "view",
      "type": "function",
      "constant": true
    },
    {
      "inputs": [],
      "name": "owner",
      "outputs": [
        {
          "internalType": "address",
          "name": "",
          "type": "address"
        }
      ],
      "stateMutability": "view",
      "type": "function",
      "constant": true
    },
    {
      "inputs": [
        {
          "internalType": "address",
          "name": "_gov",
          "type": "address"
        }
      ],
      "name": "setGov",
      "outputs": [],
      "stateMutability": "nonpayable",
      "type": "function"
    },
    {
      "inputs": [
        {
          "internalType": "address",
          "name": "token",
          "type": "address"
        },
        {
          "internalType": "uint256",
          "name": "productFee",
          "type": "uint256"
        },
        {
          "internalType": "address",
          "name": "account",
          "type": "address"
        },
        {
          "internalType": "address",
          "name": "sender",
          "type": "address"
        }
      ],
      "name": "getFee",
      "outputs": [
        {
          "internalType": "uint256",
          "name": "",
          "type": "uint256"
        }
      ],
      "stateMutability": "view",
      "type": "function",
      "constant": true
    },
    {
      "inputs": [
        {
          "internalType": "bool",
          "name": "_isDiscountEnabled",
          "type": "bool"
        }
      ],
      "name": "setIsDiscountEnabled",
      "outputs": [],
      "stateMutability": "nonpayable",
      "type": "function"
    },
    {
      "inputs": [
        {
          "internalType": "address",
          "name": "_account",
          "type": "address"
        },
        {
          "internalType": "uint256",
          "name": "_discount",
          "type": "uint256"
        }
      ],
      "name": "setDiscountForAccount",
      "outputs": [],
      "stateMutability": "nonpayable",
      "type": "function"
    },
    {
      "inputs": [
        {
          "internalType": "address",
          "name": "_owner",
          "type": "address"
        }
      ],
      "name": "setOwner",
      "outputs": [],
      "stateMutability": "nonpayable",
      "type": "function"
    },
    {
      "inputs": [
        {
          "internalType": "address",
          "name": "_keeper",
          "type": "address"
        }
      ],
      "name": "setKeeper",
      "outputs": [],
      "stateMutability": "nonpayable",
      "type": "function"
    }
  ],
  "bytecode": "0x6080604052600a6001556003805460ff60a01b1916905561138860055561232860065534801561002e57600080fd5b5060008054336001600160a01b03199182168117835560028054831682179055600380549092161790556106ff90819061006890396000f3fe608060405234801561001057600080fd5b50600436106100f55760003560e01c80637c163afe11610097578063bca2fd6511610066578063bca2fd65146101e1578063cfad57a2146101f4578063d6cf82a214610207578063e72a27291461021a57600080fd5b80637c163afe146101a95780638da5cb5b146101b2578063a31eb52c146101c5578063aced1661146101ce57600080fd5b80633f19a294116100d35780633f19a294146101565780636747525a1461017a5780636ef25c3a1461018d578063748747e61461019657600080fd5b806312d43a51146100fa57806313af40351461012a5780631ddd1bf61461013f575b600080fd5b60005461010d906001600160a01b031681565b6040516001600160a01b0390911681526020015b60405180910390f35b61013d6101383660046105a0565b61023a565b005b61014861271081565b604051908152602001610121565b60035461016a90600160a01b900460ff1681565b6040519015158152602001610121565b6101486101883660046105ec565b6102e6565b61014860015481565b61013d6101a43660046105a0565b610344565b61014860065481565b60025461010d906001600160a01b031681565b61014860055481565b60035461010d906001600160a01b031681565b61013d6101ef3660046105c2565b6103d5565b61013d6102023660046105a0565b610480565b61013d610215366004610639565b6104f4565b6101486102283660046105a0565b60046020526000908152604090205481565b6000546001600160a01b031633146102915760405162461bcd60e51b815260206004820152601560248201527423b7bb32b93730b136329d103337b93134b23232b760591b60448201526064015b60405180910390fd5b600280546001600160a01b0319166001600160a01b0383169081179091556040519081527f167d3e9c1016ab80e58802ca9da10ce5c6a0f4debc46a2e7a2cd9e56899a4fb5906020015b60405180910390a150565b6003546000908490600160a01b900460ff161561033b576001600160a01b03841660009081526004602052604090205461271090610324908261069c565b61032e908361067d565b610338919061065b565b90505b95945050505050565b6002546001600160a01b031633146103875760405162461bcd60e51b815260206004820152600660248201526510b7bbb732b960d11b6044820152606401610288565b600380546001600160a01b0319166001600160a01b0383169081179091556040519081527fefb5cfa1a8690c124332ab93324539c5c9c4be03f28aeb8be86f2d8a0c9fb99b906020016102db565b6003546001600160a01b031633146104195760405162461bcd60e51b815260206004820152600760248201526610b5b2b2b832b960c91b6044820152606401610288565b60055481111561042857600080fd5b6001600160a01b038216600081815260046020908152604091829020849055815192835282018390527fa88d0bb2c67ad88feba863baf44ef156a64f2f882af5f97b6d35fa5bc9810fb1910160405180910390a15050565b6000546001600160a01b031633146104d25760405162461bcd60e51b815260206004820152601560248201527423b7bb32b93730b136329d103337b93134b23232b760591b6044820152606401610288565b600080546001600160a01b0319166001600160a01b0392909216919091179055565b6002546001600160a01b031633146105375760405162461bcd60e51b815260206004820152600660248201526510b7bbb732b960d11b6044820152606401610288565b60038054821515600160a01b0260ff60a01b199091161790556040517fc5ad3476e87bd958ab76b44180492822bc4fd4daf725d2a6a394c55d9958a5ea906102db90831515815260200190565b80356001600160a01b038116811461059b57600080fd5b919050565b6000602082840312156105b257600080fd5b6105bb82610584565b9392505050565b600080604083850312156105d557600080fd5b6105de83610584565b946020939093013593505050565b6000806000806080858703121561060257600080fd5b61060b85610584565b93506020850135925061062060408601610584565b915061062e60608601610584565b905092959194509250565b60006020828403121561064b57600080fd5b813580151581146105bb57600080fd5b60008261067857634e487b7160e01b600052601260045260246000fd5b500490565b6000816000190483118215151615610697576106976106b3565b500290565b6000828210156106ae576106ae6106b3565b500390565b634e487b7160e01b600052601160045260246000fdfea26469706673582212206a602ab65f9b58e52ed0c803b3452da719ffc58c2f24c7d644756104a436d2da64736f6c63430008070033",
  "immutableReferences": {},
  "source": "// SPDX-License-Identifier: MIT\npragma solidity ^0.8.0;\n\nimport \"@openzeppelin/contracts/token/ERC20/IERC20.sol\";\nimport \"@openzeppelin/contracts/token/ERC20/utils/SafeERC20.sol\";\nimport \"@openzeppelin/contracts/access/Ownable.sol\";\nimport \"../oracle/IOracle.sol\";\nimport \"../access/Governable.sol\";\n\ncontract FeeCalculator is Governable {\n\n    uint256 public constant PRICE_BASE = 10000;\n    uint256 public baseFee = 10;\n    address public owner;\n    address public keeper;\n    bool public isDiscountEnabled = false;\n    mapping (address => uint256) public accountFeeDiscount;\n\n    uint256 public MAX_ACCOUNT_DISCOUNT = 5000; // 50%\n    uint256 public MAX_SENDER_DISCOUNT = 9000; // 90%\n\n    event SetIsDiscountEnabled(bool isDiscountEnabled);\n    event SetDiscountForAccount(address account, uint256 discount);\n    event SetOwner(address owner);\n    event SetKeeper(address keeper);\n\n    constructor() public {\n        owner = msg.sender;\n        keeper = msg.sender;\n    }\n\n    /**\n     * @notice Get the fee for a token for an account and sender.\n     * @param token the underlying token for a product\n     * @param productFee the default fee for a product\n     * @param account the account to open position for. Some accounts may have discount in fees.\n     * @param sender the sender of a transaction. Some senders may have discount in fees.\n     * @return the total fee rate.\n     */\n    function getFee(address token, uint256 productFee, address account, address sender) external view returns (uint256) {\n        uint256 fee = productFee;\n        if (isDiscountEnabled) {\n            fee = fee * (PRICE_BASE - accountFeeDiscount[account]) / PRICE_BASE;\n        }\n        return fee;\n    }\n\n    function setIsDiscountEnabled(bool _isDiscountEnabled) external onlyOwner {\n        isDiscountEnabled = _isDiscountEnabled;\n        emit SetIsDiscountEnabled(_isDiscountEnabled);\n    }\n\n    function setDiscountForAccount(address _account, uint256 _discount) external onlyKeeper {\n        require(_discount <= MAX_ACCOUNT_DISCOUNT);\n        accountFeeDiscount[_account] = _discount;\n        emit SetDiscountForAccount(_account, _discount);\n    }\n\n    function setOwner(address _owner) external onlyGov {\n        owner = _owner;\n        emit SetOwner(_owner);\n    }\n\n    function setKeeper(address _keeper) external onlyOwner {\n        keeper = _keeper;\n        emit SetKeeper(_keeper);\n    }\n\n    modifier onlyOwner() {\n        require(msg.sender == owner, \"!owner\");\n        _;\n    }\n\n    modifier onlyKeeper() {\n        require(msg.sender == keeper, \"!keeper\");\n        _;\n    }\n}\n",
  "sourcePath": "/Users/me/workspace/PikaPerpV2/contracts/perp/FeeCalculator.sol",
  "compiler": {
    "name": "solc",
    "version": "0.8.7+commit.e28d00a7.Emscripten.clang"
  },
  "schemaVersion": "3.4.11",
  "updatedAt": "2023-01-17T09:02:20.589Z",
  "networkType": "ethereum",
  "devdoc": {
    "kind": "dev",
    "methods": {
      "getFee(address,uint256,address,address)": {
        "params": {
          "account": "the account to open position for. Some accounts may have discount in fees.",
          "productFee": "the default fee for a product",
          "sender": "the sender of a transaction. Some senders may have discount in fees.",
          "token": "the underlying token for a product"
        },
        "returns": {
          "_0": "the total fee rate."
        }
      }
    },
    "version": 1
  },
  "userdoc": {
    "kind": "user",
    "methods": {
      "getFee(address,uint256,address,address)": {
        "notice": "Get the fee for a token for an account and sender."
      }
    },
    "version": 1
  }
}