{
  "contractName": "FundingManager",
  "abi": [
    {
      "inputs": [],
      "stateMutability": "nonpayable",
      "type": "constructor"
    },
    {
      "anonymous": false,
      "inputs": [
        {
          "indexed": false,
          "internalType": "uint256",
          "name": "productId",
          "type": "uint256"
        },
        {
          "indexed": false,
          "internalType": "uint256",
          "name": "fundingMultiplier",
          "type": "uint256"
        }
      ],
      "name": "FundingMultiplierSet",
      "type": "event"
    },
    {
      "anonymous": false,
      "inputs": [
        {
          "indexed": false,
          "internalType": "uint256",
          "name": "productId",
          "type": "uint256"
        },
        {
          "indexed": false,
          "internalType": "int256",
          "name": "fundingRate",
          "type": "int256"
        },
        {
          "indexed": false,
          "internalType": "int256",
          "name": "fundingChange",
          "type": "int256"
        },
        {
          "indexed": false,
          "internalType": "int256",
          "name": "cumulativeFunding",
          "type": "int256"
        }
      ],
      "name": "FundingUpdated",
      "type": "event"
    },
    {
      "anonymous": false,
      "inputs": [
        {
          "indexed": false,
          "internalType": "uint256",
          "name": "maxFundingRate",
          "type": "uint256"
        }
      ],
      "name": "MaxFundingRateSet",
      "type": "event"
    },
    {
      "anonymous": false,
      "inputs": [
        {
          "indexed": false,
          "internalType": "uint256",
          "name": "minFundingMultiplier",
          "type": "uint256"
        }
      ],
      "name": "MinFundingMultiplierSet",
      "type": "event"
    },
    {
      "anonymous": false,
      "inputs": [
        {
          "indexed": false,
          "internalType": "address",
          "name": "pikaPerp",
          "type": "address"
        }
      ],
      "name": "PikaPerpSet",
      "type": "event"
    },
    {
      "anonymous": false,
      "inputs": [
        {
          "indexed": false,
          "internalType": "address",
          "name": "owner",
          "type": "address"
        }
      ],
      "name": "UpdateOwner",
      "type": "event"
    },
    {
      "inputs": [],
      "name": "FUNDING_BASE",
      "outputs": [
        {
          "internalType": "uint256",
          "name": "",
          "type": "uint256"
        }
      ],
      "stateMutability": "view",
      "type": "function",
      "constant": true
    },
    {
      "inputs": [
        {
          "internalType": "uint256",
          "name": "",
          "type": "uint256"
        }
      ],
      "name": "cumulativeFundings",
      "outputs": [
        {
          "internalType": "int256",
          "name": "",
          "type": "int256"
        }
      ],
      "stateMutability": "view",
      "type": "function",
      "constant": true
    },
    {
      "inputs": [
        {
          "internalType": "uint256",
          "name": "",
          "type": "uint256"
        }
      ],
      "name": "fundingMultipliers",
      "outputs": [
        {
          "internalType": "uint256",
          "name": "",
          "type": "uint256"
        }
      ],
      "stateMutability": "view",
      "type": "function",
      "constant": true
    },
    {
      "inputs": [],
      "name": "gov",
      "outputs": [
        {
          "internalType": "address",
          "name": "",
          "type": "address"
        }
      ],
      "stateMutability": "view",
      "type": "function",
      "constant": true
    },
    {
      "inputs": [
        {
          "internalType": "uint256",
          "name": "",
          "type": "uint256"
        }
      ],
      "name": "lastUpdateTimes",
      "outputs": [
        {
          "internalType": "uint256",
          "name": "",
          "type": "uint256"
        }
      ],
      "stateMutability": "view",
      "type": "function",
      "constant": true
    },
    {
      "inputs": [],
      "name": "maxFundingRate",
      "outputs": [
        {
          "internalType": "uint256",
          "name": "",
          "type": "uint256"
        }
      ],
      "stateMutability": "view",
      "type": "function",
      "constant": true
    },
    {
      "inputs": [],
      "name": "minFundingMultiplier",
      "outputs": [
        {
          "internalType": "uint256",
          "name": "",
          "type": "uint256"
        }
      ],
      "stateMutability": "view",
      "type": "function",
      "constant": true
    },
    {
      "inputs": [],
      "name": "owner",
      "outputs": [
        {
          "internalType": "address",
          "name": "",
          "type": "address"
        }
      ],
      "stateMutability": "view",
      "type": "function",
      "constant": true
    },
    {
      "inputs": [],
      "name": "pikaPerp",
      "outputs": [
        {
          "internalType": "address",
          "name": "",
          "type": "address"
        }
      ],
      "stateMutability": "view",
      "type": "function",
      "constant": true
    },
    {
      "inputs": [
        {
          "internalType": "address",
          "name": "_gov",
          "type": "address"
        }
      ],
      "name": "setGov",
      "outputs": [],
      "stateMutability": "nonpayable",
      "type": "function"
    },
    {
      "inputs": [
        {
          "internalType": "uint256",
          "name": "_productId",
          "type": "uint256"
        }
      ],
      "name": "updateFunding",
      "outputs": [],
      "stateMutability": "nonpayable",
      "type": "function"
    },
    {
      "inputs": [
        {
          "internalType": "uint256",
          "name": "_productId",
          "type": "uint256"
        }
      ],
      "name": "getFundingRate",
      "outputs": [
        {
          "internalType": "int256",
          "name": "",
          "type": "int256"
        }
      ],
      "stateMutability": "view",
      "type": "function",
      "constant": true
    },
    {
      "inputs": [
        {
          "internalType": "uint256",
          "name": "_productId",
          "type": "uint256"
        }
      ],
      "name": "getFunding",
      "outputs": [
        {
          "internalType": "int256",
          "name": "",
          "type": "int256"
        }
      ],
      "stateMutability": "view",
      "type": "function",
      "constant": true
    },
    {
      "inputs": [
        {
          "internalType": "address",
          "name": "_pikaPerp",
          "type": "address"
        }
      ],
      "name": "setPikaPerp",
      "outputs": [],
      "stateMutability": "nonpayable",
      "type": "function"
    },
    {
      "inputs": [
        {
          "internalType": "uint256",
          "name": "_minFundingMultiplier",
          "type": "uint256"
        }
      ],
      "name": "setMinFundingMultiplier",
      "outputs": [],
      "stateMutability": "nonpayable",
      "type": "function"
    },
    {
      "inputs": [
        {
          "internalType": "uint256",
          "name": "_productId",
          "type": "uint256"
        },
        {
          "internalType": "uint256",
          "name": "_fundingMultiplier",
          "type": "uint256"
        }
      ],
      "name": "setFundingMultiplier",
      "outputs": [],
      "stateMutability": "nonpayable",
      "type": "function"
    },
    {
      "inputs": [
        {
          "internalType": "uint256",
          "name": "_maxFundingRate",
          "type": "uint256"
        }
      ],
      "name": "setMaxFundingRate",
      "outputs": [],
      "stateMutability": "nonpayable",
      "type": "function"
    },
    {
      "inputs": [
        {
          "internalType": "address",
          "name": "_owner",
          "type": "address"
        }
      ],
      "name": "setOwner",
      "outputs": [],
      "stateMutability": "nonpayable",
      "type": "function"
    }
  ],
  "bytecode": "0x608060405261001464e8d4a51000600a61005e565b60035561002764e8d4a51000600261005e565b60045534801561003657600080fd5b5060008054336001600160a01b0319918216811790925560028054909116909117905561008b565b600081600019048311821515161561008657634e487b7160e01b600052601160045260246000fd5b500290565b610b638061009a6000396000f3fe608060405234801561001057600080fd5b50600436106101165760003560e01c80638716574b116100a2578063bc1c36b211610071578063bc1c36b214610255578063cfad57a214610268578063db16e9891461027b578063ebed4bd414610284578063f71f02b4146102a457600080fd5b80638716574b146102065780638da5cb5b146102265780639f52a26114610239578063b72a7a0b1461024c57600080fd5b80633ff9fd35116100e95780633ff9fd35146101a15780636ea9f139146101b45780637db592e4146101c75780637faed202146101d357806384f0a7d2146101e657600080fd5b806312d43a511461011b57806313af40351461014b5780631980cd3514610160578063199d416d14610173575b600080fd5b60005461012e906001600160a01b031681565b6040516001600160a01b0390911681526020015b60405180910390f35b61015e610159366004610886565b6102b7565b005b60015461012e906001600160a01b031681565b610193610181366004610927565b60076020526000908152604090205481565b604051908152602001610142565b61015e6101af366004610927565b610363565b61015e6101c2366004610927565b6103c2565b61019364e8d4a5100081565b61015e6101e1366004610886565b61050b565b6101936101f4366004610927565b60066020526000908152604090205481565b610193610214366004610927565b60056020526000908152604090205481565b60025461012e906001600160a01b031681565b610193610247366004610927565b610583565b61019360045481565b61015e610263366004610927565b610713565b61015e610276366004610886565b610772565b61019360035481565b610193610292366004610927565b60009081526006602052604090205490565b61015e6102b2366004610959565b6107e6565b6000546001600160a01b0316331461030e5760405162461bcd60e51b815260206004820152601560248201527423b7bb32b93730b136329d103337b93134b23232b760591b60448201526064015b60405180910390fd5b600280546001600160a01b0319166001600160a01b0383169081179091556040519081527f84022644ce39de434e8f39c4398a3628815893104188274c37205d41c2d50967906020015b60405180910390a150565b6002546001600160a01b0316331461038d5760405162461bcd60e51b81526004016103059061097b565b60038190556040518181527f25bcf2f063284235d7ce0ba83d443985437995901d70d9f3249b7a7fe08ef98c90602001610358565b6001546001600160a01b0316331461041c5760405162461bcd60e51b815260206004820152601960248201527f46756e64696e674d616e616765723a202170696b6150657270000000000000006044820152606401610305565b600081815260076020526040902054610442576000908152600760205260409020429055565b600061044d82610583565b600083815260076020526040812054919250906301e13380906104709042610ad2565b61047a9084610a2e565b61048491906109ec565b6000848152600660205260409020549091506104a19082906109ab565b60008481526006602081815260408084209485556007825292839020429055908152915481518681529283018590528282018490526060830152517f759bd316dc8ca18e0ac79902950dc931ea307e2f1cf8626e3ff2ee9bc8bea9b09181900360800190a1505050565b6002546001600160a01b031633146105355760405162461bcd60e51b81526004016103059061097b565b600180546001600160a01b0319166001600160a01b0383169081179091556040519081527fd1667f7919d8cfc661d9cd6886419636f8979fb10f8388c1ce18dca5a8fb46fb90602001610358565b600154604051632e76c56d60e21b8152600481018390526000918291829182916001600160a01b039091169063b9db15b4906024016101206040518083038186803b1580156105d157600080fd5b505afa1580156105e5573d6000803e3d6000fd5b505050506040513d601f19601f8201168201806040525081019061060991906108a3565b50600154604051635828a43760e01b815260048101839052949b50929950975060009650506001600160a01b03169350635828a4379250602401905060206040518083038186803b15801561065d57600080fd5b505afa158015610671573d6000803e3d6000fd5b505050506040513d601f19601f820116820180604052508101906106959190610940565b905060006106b8600560008981526020019081526020016000205460045461085f565b9050838511156106f8576106ed82826106d18789610ad2565b6106db9190610ab3565b6106e59190610a1a565b600354610877565b979650505050505050565b61070782826106d18888610ad2565b6106ed90600019610a2e565b6002546001600160a01b0316331461073d5760405162461bcd60e51b81526004016103059061097b565b60048190556040518181527f4a6b166551f540a480c738d49f18d020abecc96b99c8b5c6a13e74dc8f33273590602001610358565b6000546001600160a01b031633146107c45760405162461bcd60e51b815260206004820152601560248201527423b7bb32b93730b136329d103337b93134b23232b760591b6044820152606401610305565b600080546001600160a01b0319166001600160a01b0392909216919091179055565b6002546001600160a01b031633146108105760405162461bcd60e51b81526004016103059061097b565b60008281526005602090815260409182902083905581518481529081018390527f6415f8a15417a40a85d11749abaa5dc72173c8b39bb0da56073ecc0aca560692910160405180910390a15050565b600081831161086e5781610870565b825b9392505050565b600081831061086e5781610870565b60006020828403121561089857600080fd5b813561087081610b15565b60008060008060008060008060006101208a8c0312156108c257600080fd5b89516108cd81610b15565b8099505060208a0151975060408a0151965060608a015180151581146108f257600080fd5b8096505060808a0151945060a08a0151935060c08a0151925060e08a015191506101008a015190509295985092959850929598565b60006020828403121561093957600080fd5b5035919050565b60006020828403121561095257600080fd5b5051919050565b6000806040838503121561096c57600080fd5b50508035926020909101359150565b602080825260169082015275233ab73234b733a6b0b730b3b2b91d1010b7bbb732b960511b604082015260600190565b600080821280156001600160ff1b03849003851316156109cd576109cd610ae9565b600160ff1b83900384128116156109e6576109e6610ae9565b50500190565b6000826109fb576109fb610aff565b600160ff1b821460001984141615610a1557610a15610ae9565b500590565b600082610a2957610a29610aff565b500490565b60006001600160ff1b0381841382841380821686840486111615610a5457610a54610ae9565b600160ff1b6000871282811687830589121615610a7357610a73610ae9565b60008712925087820587128484161615610a8f57610a8f610ae9565b87850587128184161615610aa557610aa5610ae9565b505050929093029392505050565b6000816000190483118215151615610acd57610acd610ae9565b500290565b600082821015610ae457610ae4610ae9565b500390565b634e487b7160e01b600052601160045260246000fd5b634e487b7160e01b600052601260045260246000fd5b6001600160a01b0381168114610b2a57600080fd5b5056fea2646970667358221220e9c9080648a876b7de5340bc2b2f5ed55d345a57f69944b1f3125f4ef5c99b0464736f6c63430008070033",
  "immutableReferences": {},
  "source": "pragma solidity ^0.8.0;\n\nimport \"./IPikaPerp.sol\";\nimport \"../access/Governable.sol\";\nimport \"@openzeppelin/contracts/utils/math/Math.sol\";\nimport \"@openzeppelin/contracts/utils/math/SignedSafeMath.sol\";\n\ncontract FundingManager is Governable {\n\n    address public pikaPerp;\n    address public owner;\n\n    constructor() public {\n        owner = msg.sender;\n    }\n\n    event UpdateOwner(address owner);\n\n    uint256 constant public FUNDING_BASE = 10**12;\n    uint256 public maxFundingRate = 10 * FUNDING_BASE;\n    uint256 public minFundingMultiplier = 2 * FUNDING_BASE;\n    mapping(uint256 => uint256) public fundingMultipliers;\n    mapping(uint256 => int256) public cumulativeFundings;\n    mapping(uint256 => uint256) public lastUpdateTimes;\n\n    event FundingUpdated(uint256 productId, int256 fundingRate, int256 fundingChange, int256 cumulativeFunding);\n    event PikaPerpSet(address pikaPerp);\n    event MinFundingMultiplierSet(uint256 minFundingMultiplier);\n    event FundingMultiplierSet(uint256 productId, uint256 fundingMultiplier);\n    event MaxFundingRateSet(uint256 maxFundingRate);\n\n    function updateFunding(uint256 _productId) external {\n        require(msg.sender == pikaPerp, \"FundingManager: !pikaPerp\");\n        if (lastUpdateTimes[_productId] == 0) {\n            lastUpdateTimes[_productId] = block.timestamp;\n            return;\n        }\n        int256 fundingRate = getFundingRate(_productId);\n        int256 fundingChange = fundingRate * int256(block.timestamp - lastUpdateTimes[_productId]) / int256(365 days);\n        cumulativeFundings[_productId] = cumulativeFundings[_productId] + fundingChange;\n        lastUpdateTimes[_productId] = block.timestamp;\n        emit FundingUpdated(_productId, fundingRate, fundingChange, cumulativeFundings[_productId]);\n    }\n\n    function getFundingRate(uint256 _productId) public view returns(int256) {\n        (,,,,uint256 openInterestLong, uint256 openInterestShort,,uint256 productWeight,) = IPikaPerp(pikaPerp).getProduct(_productId);\n        uint256 maxExposure = IPikaPerp(pikaPerp).getMaxExposure(productWeight);\n        uint256 fundingMultiplier = Math.max(fundingMultipliers[_productId], minFundingMultiplier);\n        if (openInterestLong > openInterestShort) {\n            return int256(Math.min((openInterestLong - openInterestShort) * fundingMultiplier / maxExposure, maxFundingRate));\n        } else {\n            return -1 * int256(Math.min((openInterestShort - openInterestLong) * fundingMultiplier / maxExposure, maxFundingRate));\n        }\n    }\n\n    function getFunding(uint256 _productId) external view returns(int256) {\n        return cumulativeFundings[_productId];\n    }\n\n    function setPikaPerp(address _pikaPerp) external onlyOwner {\n        pikaPerp = _pikaPerp;\n        emit PikaPerpSet(_pikaPerp);\n    }\n\n    function setMinFundingMultiplier(uint256 _minFundingMultiplier) external onlyOwner {\n        minFundingMultiplier = _minFundingMultiplier;\n        emit MinFundingMultiplierSet(_minFundingMultiplier);\n    }\n\n    function setFundingMultiplier(uint256 _productId, uint256 _fundingMultiplier) external onlyOwner {\n        fundingMultipliers[_productId] = _fundingMultiplier;\n        emit FundingMultiplierSet(_productId, _fundingMultiplier);\n    }\n\n    function setMaxFundingRate(uint256 _maxFundingRate) external onlyOwner {\n        maxFundingRate = _maxFundingRate;\n        emit MaxFundingRateSet(_maxFundingRate);\n    }\n\n    function setOwner(address _owner) external onlyGov {\n        owner = _owner;\n        emit UpdateOwner(_owner);\n    }\n\n    modifier onlyOwner() {\n        require(msg.sender == owner, \"FundingManager: !owner\");\n        _;\n    }\n\n}\n",
  "sourcePath": "/Users/me/workspace/PikaPerpV2/contracts/perp/FundingManager.sol",
  "compiler": {
    "name": "solc",
    "version": "0.8.7+commit.e28d00a7.Emscripten.clang"
  },
  "schemaVersion": "3.4.11",
  "updatedAt": "2023-01-17T09:01:58.535Z",
  "networkType": "ethereum",
  "devdoc": {
    "kind": "dev",
    "methods": {},
    "version": 1
  },
  "userdoc": {
    "kind": "user",
    "methods": {},
    "version": 1
  }
}