{
  "contractName": "Governable",
  "abi": [
    {
      "inputs": [],
      "stateMutability": "nonpayable",
      "type": "constructor"
    },
    {
      "inputs": [],
      "name": "gov",
      "outputs": [
        {
          "internalType": "address",
          "name": "",
          "type": "address"
        }
      ],
      "stateMutability": "view",
      "type": "function"
    },
    {
      "inputs": [
        {
          "internalType": "address",
          "name": "_gov",
          "type": "address"
        }
      ],
      "name": "setGov",
      "outputs": [],
      "stateMutability": "nonpayable",
      "type": "function"
    }
  ],
  "bytecode": "0x608060405234801561001057600080fd5b50600080546001600160a01b0319163317905561015d806100326000396000f3fe608060405234801561001057600080fd5b50600436106100365760003560e01c806312d43a511461003b578063cfad57a21461006a575b600080fd5b60005461004e906001600160a01b031681565b6040516001600160a01b03909116815260200160405180910390f35b61007d6100783660046100f7565b61007f565b005b6000546001600160a01b031633146100d55760405162461bcd60e51b815260206004820152601560248201527423b7bb32b93730b136329d103337b93134b23232b760591b604482015260640160405180910390fd5b600080546001600160a01b0319166001600160a01b0392909216919091179055565b60006020828403121561010957600080fd5b81356001600160a01b038116811461012057600080fd5b939250505056fea26469706673582212202e26f5515246f23ad30cffd97c6accea007af058a71aafff4d009a1747b9dae164736f6c63430008070033",
  "immutableReferences": {},
  "source": "// SPDX-License-Identifier: MIT\n\npragma solidity ^0.8.0;\n\ncontract Governable {\n    address public gov;\n\n    constructor() public {\n        gov = msg.sender;\n    }\n\n    modifier onlyGov() {\n        require(msg.sender == gov, \"Governable: forbidden\");\n        _;\n    }\n\n    function setGov(address _gov) external onlyGov {\n        gov = _gov;\n    }\n}",
  "sourcePath": "/Users/me/workspace/PikaPerpV2/contracts/access/Governable.sol",
  "compiler": {
    "name": "solc",
    "version": "0.8.7+commit.e28d00a7.Emscripten.clang"
  },
  "schemaVersion": "3.4.11",
  "updatedAt": "2023-01-14T09:54:29.003Z",
  "devdoc": {
    "kind": "dev",
    "methods": {},
    "version": 1
  },
  "userdoc": {
    "kind": "user",
    "methods": {},
    "version": 1
  }
}