{
  "contractName": "MockOracle",
  "abi": [
    {
      "inputs": [],
      "name": "price",
      "outputs": [
        {
          "internalType": "uint256",
          "name": "",
          "type": "uint256"
        }
      ],
      "stateMutability": "view",
      "type": "function"
    },
    {
      "inputs": [
        {
          "internalType": "uint256",
          "name": "_price",
          "type": "uint256"
        }
      ],
      "name": "setPrice",
      "outputs": [],
      "stateMutability": "nonpayable",
      "type": "function"
    },
    {
      "inputs": [
        {
          "internalType": "address",
          "name": "feed",
          "type": "address"
        }
      ],
      "name": "getPrice",
      "outputs": [
        {
          "internalType": "uint256",
          "name": "",
          "type": "uint256"
        }
      ],
      "stateMutability": "view",
      "type": "function"
    },
    {
      "inputs": [
        {
          "internalType": "address",
          "name": "feed",
          "type": "address"
        },
        {
          "internalType": "bool",
          "name": "isMax",
          "type": "bool"
        }
      ],
      "name": "getPrice",
      "outputs": [
        {
          "internalType": "uint256",
          "name": "",
          "type": "uint256"
        }
      ],
      "stateMutability": "view",
      "type": "function"
    },
    {
      "inputs": [
        {
          "internalType": "address",
          "name": "token",
          "type": "address"
        },
        {
          "internalType": "uint256",
          "name": "n",
          "type": "uint256"
        }
      ],
      "name": "getLastNPrices",
      "outputs": [
        {
          "internalType": "uint256[]",
          "name": "",
          "type": "uint256[]"
        }
      ],
      "stateMutability": "view",
      "type": "function"
    }
  ],
  "bytecode": "0x60806040526445d964b80060005534801561001957600080fd5b50610278806100296000396000f3fe608060405234801561001057600080fd5b50600436106100575760003560e01c8063352cddea1461005c57806341976e091461008557806376d69760146100a857806391b7f5ed146100be578063a035b1fe146100d3575b600080fd5b61006f61006a3660046101a5565b6100dc565b60405161007c91906101e8565b60405180910390f35b61009a610093366004610147565b5060005490565b60405190815260200161007c565b61009a6100b6366004610169565b505060005490565b6100d16100cc3660046101cf565b600055565b005b61009a60005481565b606060008267ffffffffffffffff8111156100f9576100f961022c565b604051908082528060200260200182016040528015610122578160200160208202803683370190505b50949350505050565b80356001600160a01b038116811461014257600080fd5b919050565b60006020828403121561015957600080fd5b6101628261012b565b9392505050565b6000806040838503121561017c57600080fd5b6101858361012b565b91506020830135801515811461019a57600080fd5b809150509250929050565b600080604083850312156101b857600080fd5b6101c18361012b565b946020939093013593505050565b6000602082840312156101e157600080fd5b5035919050565b6020808252825182820181905260009190848201906040850190845b8181101561022057835183529284019291840191600101610204565b50909695505050505050565b634e487b7160e01b600052604160045260246000fdfea2646970667358221220c8358b4b564e344511541ade028533ed13235b14262025a2851b24023fb629b364736f6c63430008070033",
  "immutableReferences": {},
  "source": "pragma solidity ^0.8.0;\n\nimport \"@chainlink/contracts/src/v0.8/interfaces/AggregatorV2V3Interface.sol\";\nimport \"./IOracle.sol\";\n\n// for unit testing only\ncontract MockOracle {\n    uint256 public price = 3000e8;\n\n    function setPrice(uint256 _price) external {\n        price = _price;\n    }\n\n    function getPrice(address feed) external view returns (uint256)  {\n        return price;\n    }\n\n    function getPrice(address feed, bool isMax) external view returns (uint256)  {\n        return price;\n    }\n\n    function getLastNPrices(address token, uint256 n) external view returns(uint256[] memory) {\n        uint[] memory prices = new uint[](n);\n        return prices;\n    }\n}\n",
  "sourcePath": "/Users/me/workspace/PikaPerpV2/contracts/oracle/MockOracle.sol",
  "compiler": {
    "name": "solc",
    "version": "0.8.7+commit.e28d00a7.Emscripten.clang"
  },
  "schemaVersion": "3.4.11",
  "updatedAt": "2023-01-14T09:54:29.009Z",
  "devdoc": {
    "kind": "dev",
    "methods": {},
    "version": 1
  },
  "userdoc": {
    "kind": "user",
    "methods": {},
    "version": 1
  }
}