{
  "contractName": "OrderBook",
  "abi": [
    {
      "inputs": [
        {
          "internalType": "address",
          "name": "_pikaPerp",
          "type": "address"
        },
        {
          "internalType": "address",
          "name": "_oracle",
          "type": "address"
        },
        {
          "internalType": "address",
          "name": "_collateralToken",
          "type": "address"
        },
        {
          "internalType": "uint256",
          "name": "_tokenBase",
          "type": "uint256"
        },
        {
          "internalType": "uint256",
          "name": "_minExecutionFee",
          "type": "uint256"
        },
        {
          "internalType": "address",
          "name": "_feeCalculator",
          "type": "address"
        }
      ],
      "stateMutability": "nonpayable",
      "type": "constructor"
    },
    {
      "anonymous": false,
      "inputs": [
        {
          "indexed": true,
          "internalType": "address",
          "name": "account",
          "type": "address"
        },
        {
          "indexed": false,
          "internalType": "uint256",
          "name": "orderIndex",
          "type": "uint256"
        },
        {
          "indexed": false,
          "internalType": "uint256",
          "name": "productId",
          "type": "uint256"
        },
        {
          "indexed": false,
          "internalType": "uint256",
          "name": "size",
          "type": "uint256"
        },
        {
          "indexed": false,
          "internalType": "bool",
          "name": "isLong",
          "type": "bool"
        },
        {
          "indexed": false,
          "internalType": "uint256",
          "name": "triggerPrice",
          "type": "uint256"
        },
        {
          "indexed": false,
          "internalType": "bool",
          "name": "triggerAboveThreshold",
          "type": "bool"
        },
        {
          "indexed": false,
          "internalType": "uint256",
          "name": "executionFee",
          "type": "uint256"
        },
        {
          "indexed": false,
          "internalType": "uint256",
          "name": "orderTimestamp",
          "type": "uint256"
        }
      ],
      "name": "CancelCloseOrder",
      "type": "event"
    },
    {
      "anonymous": false,
      "inputs": [
        {
          "indexed": true,
          "internalType": "address",
          "name": "account",
          "type": "address"
        },
        {
          "indexed": false,
          "internalType": "uint256",
          "name": "orderIndex",
          "type": "uint256"
        },
        {
          "indexed": false,
          "internalType": "uint256",
          "name": "productId",
          "type": "uint256"
        },
        {
          "indexed": false,
          "internalType": "uint256",
          "name": "margin",
          "type": "uint256"
        },
        {
          "indexed": false,
          "internalType": "uint256",
          "name": "leverage",
          "type": "uint256"
        },
        {
          "indexed": false,
          "internalType": "uint256",
          "name": "tradeFee",
          "type": "uint256"
        },
        {
          "indexed": false,
          "internalType": "bool",
          "name": "isLong",
          "type": "bool"
        },
        {
          "indexed": false,
          "internalType": "uint256",
          "name": "triggerPrice",
          "type": "uint256"
        },
        {
          "indexed": false,
          "internalType": "bool",
          "name": "triggerAboveThreshold",
          "type": "bool"
        },
        {
          "indexed": false,
          "internalType": "uint256",
          "name": "executionFee",
          "type": "uint256"
        },
        {
          "indexed": false,
          "internalType": "uint256",
          "name": "orderTimestamp",
          "type": "uint256"
        }
      ],
      "name": "CancelOpenOrder",
      "type": "event"
    },
    {
      "anonymous": false,
      "inputs": [
        {
          "indexed": true,
          "internalType": "address",
          "name": "account",
          "type": "address"
        },
        {
          "indexed": false,
          "internalType": "uint256",
          "name": "orderIndex",
          "type": "uint256"
        },
        {
          "indexed": false,
          "internalType": "uint256",
          "name": "productId",
          "type": "uint256"
        },
        {
          "indexed": false,
          "internalType": "uint256",
          "name": "size",
          "type": "uint256"
        },
        {
          "indexed": false,
          "internalType": "bool",
          "name": "isLong",
          "type": "bool"
        },
        {
          "indexed": false,
          "internalType": "uint256",
          "name": "triggerPrice",
          "type": "uint256"
        },
        {
          "indexed": false,
          "internalType": "bool",
          "name": "triggerAboveThreshold",
          "type": "bool"
        },
        {
          "indexed": false,
          "internalType": "uint256",
          "name": "executionFee",
          "type": "uint256"
        },
        {
          "indexed": false,
          "internalType": "uint256",
          "name": "orderTimestamp",
          "type": "uint256"
        }
      ],
      "name": "CreateCloseOrder",
      "type": "event"
    },
    {
      "anonymous": false,
      "inputs": [
        {
          "indexed": true,
          "internalType": "address",
          "name": "account",
          "type": "address"
        },
        {
          "indexed": false,
          "internalType": "uint256",
          "name": "orderIndex",
          "type": "uint256"
        },
        {
          "indexed": false,
          "internalType": "uint256",
          "name": "productId",
          "type": "uint256"
        },
        {
          "indexed": false,
          "internalType": "uint256",
          "name": "margin",
          "type": "uint256"
        },
        {
          "indexed": false,
          "internalType": "uint256",
          "name": "leverage",
          "type": "uint256"
        },
        {
          "indexed": false,
          "internalType": "uint256",
          "name": "tradeFee",
          "type": "uint256"
        },
        {
          "indexed": false,
          "internalType": "bool",
          "name": "isLong",
          "type": "bool"
        },
        {
          "indexed": false,
          "internalType": "uint256",
          "name": "triggerPrice",
          "type": "uint256"
        },
        {
          "indexed": false,
          "internalType": "bool",
          "name": "triggerAboveThreshold",
          "type": "bool"
        },
        {
          "indexed": false,
          "internalType": "uint256",
          "name": "executionFee",
          "type": "uint256"
        },
        {
          "indexed": false,
          "internalType": "uint256",
          "name": "orderTimestamp",
          "type": "uint256"
        }
      ],
      "name": "CreateOpenOrder",
      "type": "event"
    },
    {
      "anonymous": false,
      "inputs": [
        {
          "indexed": true,
          "internalType": "address",
          "name": "account",
          "type": "address"
        },
        {
          "indexed": false,
          "internalType": "uint256",
          "name": "orderIndex",
          "type": "uint256"
        },
        {
          "indexed": false,
          "internalType": "uint256",
          "name": "productId",
          "type": "uint256"
        },
        {
          "indexed": false,
          "internalType": "uint256",
          "name": "size",
          "type": "uint256"
        },
        {
          "indexed": false,
          "internalType": "bool",
          "name": "isLong",
          "type": "bool"
        },
        {
          "indexed": false,
          "internalType": "uint256",
          "name": "triggerPrice",
          "type": "uint256"
        },
        {
          "indexed": false,
          "internalType": "bool",
          "name": "triggerAboveThreshold",
          "type": "bool"
        },
        {
          "indexed": false,
          "internalType": "uint256",
          "name": "executionFee",
          "type": "uint256"
        },
        {
          "indexed": false,
          "internalType": "uint256",
          "name": "executionPrice",
          "type": "uint256"
        },
        {
          "indexed": false,
          "internalType": "uint256",
          "name": "orderTimestamp",
          "type": "uint256"
        }
      ],
      "name": "ExecuteCloseOrder",
      "type": "event"
    },
    {
      "anonymous": false,
      "inputs": [
        {
          "indexed": true,
          "internalType": "address",
          "name": "account",
          "type": "address"
        },
        {
          "indexed": false,
          "internalType": "uint256",
          "name": "orderIndex",
          "type": "uint256"
        },
        {
          "indexed": false,
          "internalType": "string",
          "name": "executionError",
          "type": "string"
        }
      ],
      "name": "ExecuteCloseOrderError",
      "type": "event"
    },
    {
      "anonymous": false,
      "inputs": [
        {
          "indexed": true,
          "internalType": "address",
          "name": "account",
          "type": "address"
        },
        {
          "indexed": false,
          "internalType": "uint256",
          "name": "orderIndex",
          "type": "uint256"
        },
        {
          "indexed": false,
          "internalType": "uint256",
          "name": "productId",
          "type": "uint256"
        },
        {
          "indexed": false,
          "internalType": "uint256",
          "name": "margin",
          "type": "uint256"
        },
        {
          "indexed": false,
          "internalType": "uint256",
          "name": "leverage",
          "type": "uint256"
        },
        {
          "indexed": false,
          "internalType": "uint256",
          "name": "tradeFee",
          "type": "uint256"
        },
        {
          "indexed": false,
          "internalType": "bool",
          "name": "isLong",
          "type": "bool"
        },
        {
          "indexed": false,
          "internalType": "uint256",
          "name": "triggerPrice",
          "type": "uint256"
        },
        {
          "indexed": false,
          "internalType": "bool",
          "name": "triggerAboveThreshold",
          "type": "bool"
        },
        {
          "indexed": false,
          "internalType": "uint256",
          "name": "executionFee",
          "type": "uint256"
        },
        {
          "indexed": false,
          "internalType": "uint256",
          "name": "executionPrice",
          "type": "uint256"
        },
        {
          "indexed": false,
          "internalType": "uint256",
          "name": "orderTimestamp",
          "type": "uint256"
        }
      ],
      "name": "ExecuteOpenOrder",
      "type": "event"
    },
    {
      "anonymous": false,
      "inputs": [
        {
          "indexed": true,
          "internalType": "address",
          "name": "account",
          "type": "address"
        },
        {
          "indexed": false,
          "internalType": "uint256",
          "name": "orderIndex",
          "type": "uint256"
        },
        {
          "indexed": false,
          "internalType": "string",
          "name": "executionError",
          "type": "string"
        }
      ],
      "name": "ExecuteOpenOrderError",
      "type": "event"
    },
    {
      "anonymous": false,
      "inputs": [
        {
          "indexed": false,
          "internalType": "address",
          "name": "admin",
          "type": "address"
        }
      ],
      "name": "UpdateAdmin",
      "type": "event"
    },
    {
      "anonymous": false,
      "inputs": [
        {
          "indexed": false,
          "internalType": "bool",
          "name": "allowPublicKeeper",
          "type": "bool"
        }
      ],
      "name": "UpdateAllowPublicKeeper",
      "type": "event"
    },
    {
      "anonymous": false,
      "inputs": [
        {
          "indexed": true,
          "internalType": "address",
          "name": "account",
          "type": "address"
        },
        {
          "indexed": false,
          "internalType": "uint256",
          "name": "orderIndex",
          "type": "uint256"
        },
        {
          "indexed": false,
          "internalType": "uint256",
          "name": "productId",
          "type": "uint256"
        },
        {
          "indexed": false,
          "internalType": "uint256",
          "name": "size",
          "type": "uint256"
        },
        {
          "indexed": false,
          "internalType": "bool",
          "name": "isLong",
          "type": "bool"
        },
        {
          "indexed": false,
          "internalType": "uint256",
          "name": "triggerPrice",
          "type": "uint256"
        },
        {
          "indexed": false,
          "internalType": "bool",
          "name": "triggerAboveThreshold",
          "type": "bool"
        },
        {
          "indexed": false,
          "internalType": "uint256",
          "name": "orderTimestamp",
          "type": "uint256"
        }
      ],
      "name": "UpdateCloseOrder",
      "type": "event"
    },
    {
      "anonymous": false,
      "inputs": [
        {
          "indexed": false,
          "internalType": "address",
          "name": "keeper",
          "type": "address"
        },
        {
          "indexed": false,
          "internalType": "bool",
          "name": "isAlive",
          "type": "bool"
        }
      ],
      "name": "UpdateKeeper",
      "type": "event"
    },
    {
      "anonymous": false,
      "inputs": [
        {
          "indexed": false,
          "internalType": "uint256",
          "name": "minExecutionFee",
          "type": "uint256"
        }
      ],
      "name": "UpdateMinExecutionFee",
      "type": "event"
    },
    {
      "anonymous": false,
      "inputs": [
        {
          "indexed": false,
          "internalType": "uint256",
          "name": "minTimeCancelDelay",
          "type": "uint256"
        }
      ],
      "name": "UpdateMinTimeCancelDelay",
      "type": "event"
    },
    {
      "anonymous": false,
      "inputs": [
        {
          "indexed": false,
          "internalType": "uint256",
          "name": "minTimeExecuteDelay",
          "type": "uint256"
        }
      ],
      "name": "UpdateMinTimeExecuteDelay",
      "type": "event"
    },
    {
      "anonymous": false,
      "inputs": [
        {
          "indexed": true,
          "internalType": "address",
          "name": "account",
          "type": "address"
        },
        {
          "indexed": false,
          "internalType": "uint256",
          "name": "orderIndex",
          "type": "uint256"
        },
        {
          "indexed": false,
          "internalType": "uint256",
          "name": "productId",
          "type": "uint256"
        },
        {
          "indexed": false,
          "internalType": "uint256",
          "name": "margin",
          "type": "uint256"
        },
        {
          "indexed": false,
          "internalType": "uint256",
          "name": "leverage",
          "type": "uint256"
        },
        {
          "indexed": false,
          "internalType": "uint256",
          "name": "tradeFee",
          "type": "uint256"
        },
        {
          "indexed": false,
          "internalType": "bool",
          "name": "isLong",
          "type": "bool"
        },
        {
          "indexed": false,
          "internalType": "uint256",
          "name": "triggerPrice",
          "type": "uint256"
        },
        {
          "indexed": false,
          "internalType": "bool",
          "name": "triggerAboveThreshold",
          "type": "bool"
        },
        {
          "indexed": false,
          "internalType": "uint256",
          "name": "orderTimestamp",
          "type": "uint256"
        }
      ],
      "name": "UpdateOpenOrder",
      "type": "event"
    },
    {
      "stateMutability": "payable",
      "type": "fallback"
    },
    {
      "inputs": [],
      "name": "BASE",
      "outputs": [
        {
          "internalType": "uint256",
          "name": "",
          "type": "uint256"
        }
      ],
      "stateMutability": "view",
      "type": "function"
    },
    {
      "inputs": [],
      "name": "FEE_BASE",
      "outputs": [
        {
          "internalType": "uint256",
          "name": "",
          "type": "uint256"
        }
      ],
      "stateMutability": "view",
      "type": "function"
    },
    {
      "inputs": [],
      "name": "admin",
      "outputs": [
        {
          "internalType": "address",
          "name": "",
          "type": "address"
        }
      ],
      "stateMutability": "view",
      "type": "function"
    },
    {
      "inputs": [],
      "name": "allowPublicKeeper",
      "outputs": [
        {
          "internalType": "bool",
          "name": "",
          "type": "bool"
        }
      ],
      "stateMutability": "view",
      "type": "function"
    },
    {
      "inputs": [
        {
          "internalType": "address",
          "name": "",
          "type": "address"
        },
        {
          "internalType": "uint256",
          "name": "",
          "type": "uint256"
        }
      ],
      "name": "closeOrders",
      "outputs": [
        {
          "internalType": "address",
          "name": "account",
          "type": "address"
        },
        {
          "internalType": "uint256",
          "name": "productId",
          "type": "uint256"
        },
        {
          "internalType": "uint256",
          "name": "size",
          "type": "uint256"
        },
        {
          "internalType": "bool",
          "name": "isLong",
          "type": "bool"
        },
        {
          "internalType": "uint256",
          "name": "triggerPrice",
          "type": "uint256"
        },
        {
          "internalType": "bool",
          "name": "triggerAboveThreshold",
          "type": "bool"
        },
        {
          "internalType": "uint256",
          "name": "executionFee",
          "type": "uint256"
        },
        {
          "internalType": "uint256",
          "name": "orderTimestamp",
          "type": "uint256"
        }
      ],
      "stateMutability": "view",
      "type": "function"
    },
    {
      "inputs": [
        {
          "internalType": "address",
          "name": "",
          "type": "address"
        }
      ],
      "name": "closeOrdersIndex",
      "outputs": [
        {
          "internalType": "uint256",
          "name": "",
          "type": "uint256"
        }
      ],
      "stateMutability": "view",
      "type": "function"
    },
    {
      "inputs": [],
      "name": "collateralToken",
      "outputs": [
        {
          "internalType": "address",
          "name": "",
          "type": "address"
        }
      ],
      "stateMutability": "view",
      "type": "function"
    },
    {
      "inputs": [],
      "name": "feeCalculator",
      "outputs": [
        {
          "internalType": "address",
          "name": "",
          "type": "address"
        }
      ],
      "stateMutability": "view",
      "type": "function"
    },
    {
      "inputs": [],
      "name": "gov",
      "outputs": [
        {
          "internalType": "address",
          "name": "",
          "type": "address"
        }
      ],
      "stateMutability": "view",
      "type": "function"
    },
    {
      "inputs": [
        {
          "internalType": "address",
          "name": "",
          "type": "address"
        }
      ],
      "name": "isKeeper",
      "outputs": [
        {
          "internalType": "bool",
          "name": "",
          "type": "bool"
        }
      ],
      "stateMutability": "view",
      "type": "function"
    },
    {
      "inputs": [],
      "name": "isKeeperCall",
      "outputs": [
        {
          "internalType": "bool",
          "name": "",
          "type": "bool"
        }
      ],
      "stateMutability": "view",
      "type": "function"
    },
    {
      "inputs": [],
      "name": "minExecutionFee",
      "outputs": [
        {
          "internalType": "uint256",
          "name": "",
          "type": "uint256"
        }
      ],
      "stateMutability": "view",
      "type": "function"
    },
    {
      "inputs": [],
      "name": "minTimeCancelDelay",
      "outputs": [
        {
          "internalType": "uint256",
          "name": "",
          "type": "uint256"
        }
      ],
      "stateMutability": "view",
      "type": "function"
    },
    {
      "inputs": [],
      "name": "minTimeExecuteDelay",
      "outputs": [
        {
          "internalType": "uint256",
          "name": "",
          "type": "uint256"
        }
      ],
      "stateMutability": "view",
      "type": "function"
    },
    {
      "inputs": [
        {
          "internalType": "address",
          "name": "",
          "type": "address"
        },
        {
          "internalType": "uint256",
          "name": "",
          "type": "uint256"
        }
      ],
      "name": "openOrders",
      "outputs": [
        {
          "internalType": "address",
          "name": "account",
          "type": "address"
        },
        {
          "internalType": "uint256",
          "name": "productId",
          "type": "uint256"
        },
        {
          "internalType": "uint256",
          "name": "margin",
          "type": "uint256"
        },
        {
          "internalType": "uint256",
          "name": "leverage",
          "type": "uint256"
        },
        {
          "internalType": "uint256",
          "name": "tradeFee",
          "type": "uint256"
        },
        {
          "internalType": "bool",
          "name": "isLong",
          "type": "bool"
        },
        {
          "internalType": "uint256",
          "name": "triggerPrice",
          "type": "uint256"
        },
        {
          "internalType": "bool",
          "name": "triggerAboveThreshold",
          "type": "bool"
        },
        {
          "internalType": "uint256",
          "name": "executionFee",
          "type": "uint256"
        },
        {
          "internalType": "uint256",
          "name": "orderTimestamp",
          "type": "uint256"
        }
      ],
      "stateMutability": "view",
      "type": "function"
    },
    {
      "inputs": [
        {
          "internalType": "address",
          "name": "",
          "type": "address"
        }
      ],
      "name": "openOrdersIndex",
      "outputs": [
        {
          "internalType": "uint256",
          "name": "",
          "type": "uint256"
        }
      ],
      "stateMutability": "view",
      "type": "function"
    },
    {
      "inputs": [],
      "name": "oracle",
      "outputs": [
        {
          "internalType": "address",
          "name": "",
          "type": "address"
        }
      ],
      "stateMutability": "view",
      "type": "function"
    },
    {
      "inputs": [],
      "name": "pikaPerp",
      "outputs": [
        {
          "internalType": "address",
          "name": "",
          "type": "address"
        }
      ],
      "stateMutability": "view",
      "type": "function"
    },
    {
      "inputs": [
        {
          "internalType": "address",
          "name": "_gov",
          "type": "address"
        }
      ],
      "name": "setGov",
      "outputs": [],
      "stateMutability": "nonpayable",
      "type": "function"
    },
    {
      "inputs": [],
      "name": "tokenBase",
      "outputs": [
        {
          "internalType": "uint256",
          "name": "",
          "type": "uint256"
        }
      ],
      "stateMutability": "view",
      "type": "function"
    },
    {
      "stateMutability": "payable",
      "type": "receive"
    },
    {
      "inputs": [
        {
          "internalType": "address",
          "name": "_oracle",
          "type": "address"
        }
      ],
      "name": "setOracle",
      "outputs": [],
      "stateMutability": "nonpayable",
      "type": "function"
    },
    {
      "inputs": [
        {
          "internalType": "address",
          "name": "_feeCalculator",
          "type": "address"
        }
      ],
      "name": "setFeeCalculator",
      "outputs": [],
      "stateMutability": "nonpayable",
      "type": "function"
    },
    {
      "inputs": [
        {
          "internalType": "uint256",
          "name": "_minExecutionFee",
          "type": "uint256"
        }
      ],
      "name": "setMinExecutionFee",
      "outputs": [],
      "stateMutability": "nonpayable",
      "type": "function"
    },
    {
      "inputs": [
        {
          "internalType": "uint256",
          "name": "_minTimeExecuteDelay",
          "type": "uint256"
        }
      ],
      "name": "setMinTimeExecuteDelay",
      "outputs": [],
      "stateMutability": "nonpayable",
      "type": "function"
    },
    {
      "inputs": [
        {
          "internalType": "uint256",
          "name": "_minTimeCancelDelay",
          "type": "uint256"
        }
      ],
      "name": "setMinTimeCancelDelay",
      "outputs": [],
      "stateMutability": "nonpayable",
      "type": "function"
    },
    {
      "inputs": [
        {
          "internalType": "bool",
          "name": "_allowPublicKeeper",
          "type": "bool"
        }
      ],
      "name": "setAllowPublicKeeper",
      "outputs": [],
      "stateMutability": "nonpayable",
      "type": "function"
    },
    {
      "inputs": [
        {
          "internalType": "address",
          "name": "_account",
          "type": "address"
        },
        {
          "internalType": "bool",
          "name": "_isActive",
          "type": "bool"
        }
      ],
      "name": "setKeeper",
      "outputs": [],
      "stateMutability": "nonpayable",
      "type": "function"
    },
    {
      "inputs": [
        {
          "internalType": "address",
          "name": "_admin",
          "type": "address"
        }
      ],
      "name": "setAdmin",
      "outputs": [],
      "stateMutability": "nonpayable",
      "type": "function"
    },
    {
      "inputs": [
        {
          "internalType": "address[]",
          "name": "tokens",
          "type": "address[]"
        },
        {
          "internalType": "uint256[]",
          "name": "prices",
          "type": "uint256[]"
        },
        {
          "internalType": "address[]",
          "name": "_openAddresses",
          "type": "address[]"
        },
        {
          "internalType": "uint256[]",
          "name": "_openOrderIndexes",
          "type": "uint256[]"
        },
        {
          "internalType": "address[]",
          "name": "_closeAddresses",
          "type": "address[]"
        },
        {
          "internalType": "uint256[]",
          "name": "_closeOrderIndexes",
          "type": "uint256[]"
        },
        {
          "internalType": "address payable",
          "name": "_feeReceiver",
          "type": "address"
        }
      ],
      "name": "executeOrdersWithPrices",
      "outputs": [],
      "stateMutability": "nonpayable",
      "type": "function"
    },
    {
      "inputs": [
        {
          "internalType": "address[]",
          "name": "_openAddresses",
          "type": "address[]"
        },
        {
          "internalType": "uint256[]",
          "name": "_openOrderIndexes",
          "type": "uint256[]"
        },
        {
          "internalType": "address[]",
          "name": "_closeAddresses",
          "type": "address[]"
        },
        {
          "internalType": "uint256[]",
          "name": "_closeOrderIndexes",
          "type": "uint256[]"
        },
        {
          "internalType": "address payable",
          "name": "_feeReceiver",
          "type": "address"
        }
      ],
      "name": "executeOrders",
      "outputs": [],
      "stateMutability": "nonpayable",
      "type": "function"
    },
    {
      "inputs": [
        {
          "internalType": "uint256[]",
          "name": "_openOrderIndexes",
          "type": "uint256[]"
        },
        {
          "internalType": "uint256[]",
          "name": "_closeOrderIndexes",
          "type": "uint256[]"
        }
      ],
      "name": "cancelMultiple",
      "outputs": [],
      "stateMutability": "nonpayable",
      "type": "function"
    },
    {
      "inputs": [
        {
          "internalType": "bool",
          "name": "_isLong",
          "type": "bool"
        },
        {
          "internalType": "bool",
          "name": "_triggerAboveThreshold",
          "type": "bool"
        },
        {
          "internalType": "uint256",
          "name": "_triggerPrice",
          "type": "uint256"
        },
        {
          "internalType": "uint256",
          "name": "_productId",
          "type": "uint256"
        }
      ],
      "name": "validatePositionOrderPrice",
      "outputs": [
        {
          "internalType": "uint256",
          "name": "",
          "type": "uint256"
        },
        {
          "internalType": "bool",
          "name": "",
          "type": "bool"
        }
      ],
      "stateMutability": "view",
      "type": "function"
    },
    {
      "inputs": [
        {
          "internalType": "address",
          "name": "_account",
          "type": "address"
        },
        {
          "internalType": "uint256",
          "name": "_orderIndex",
          "type": "uint256"
        }
      ],
      "name": "getCloseOrder",
      "outputs": [
        {
          "internalType": "uint256",
          "name": "productId",
          "type": "uint256"
        },
        {
          "internalType": "uint256",
          "name": "size",
          "type": "uint256"
        },
        {
          "internalType": "bool",
          "name": "isLong",
          "type": "bool"
        },
        {
          "internalType": "uint256",
          "name": "triggerPrice",
          "type": "uint256"
        },
        {
          "internalType": "bool",
          "name": "triggerAboveThreshold",
          "type": "bool"
        },
        {
          "internalType": "uint256",
          "name": "executionFee",
          "type": "uint256"
        },
        {
          "internalType": "uint256",
          "name": "orderTimestamp",
          "type": "uint256"
        }
      ],
      "stateMutability": "view",
      "type": "function"
    },
    {
      "inputs": [
        {
          "internalType": "address",
          "name": "_account",
          "type": "address"
        },
        {
          "internalType": "uint256",
          "name": "_orderIndex",
          "type": "uint256"
        }
      ],
      "name": "getOpenOrder",
      "outputs": [
        {
          "internalType": "uint256",
          "name": "productId",
          "type": "uint256"
        },
        {
          "internalType": "uint256",
          "name": "margin",
          "type": "uint256"
        },
        {
          "internalType": "uint256",
          "name": "leverage",
          "type": "uint256"
        },
        {
          "internalType": "bool",
          "name": "isLong",
          "type": "bool"
        },
        {
          "internalType": "uint256",
          "name": "triggerPrice",
          "type": "uint256"
        },
        {
          "internalType": "bool",
          "name": "triggerAboveThreshold",
          "type": "bool"
        },
        {
          "internalType": "uint256",
          "name": "executionFee",
          "type": "uint256"
        },
        {
          "internalType": "uint256",
          "name": "orderTimestamp",
          "type": "uint256"
        }
      ],
      "stateMutability": "view",
      "type": "function"
    },
    {
      "inputs": [
        {
          "internalType": "uint256",
          "name": "_productId",
          "type": "uint256"
        },
        {
          "internalType": "uint256",
          "name": "_margin",
          "type": "uint256"
        },
        {
          "internalType": "uint256",
          "name": "_leverage",
          "type": "uint256"
        },
        {
          "internalType": "bool",
          "name": "_isLong",
          "type": "bool"
        },
        {
          "internalType": "uint256",
          "name": "_triggerPrice",
          "type": "uint256"
        },
        {
          "internalType": "bool",
          "name": "_triggerAboveThreshold",
          "type": "bool"
        },
        {
          "internalType": "uint256",
          "name": "_executionFee",
          "type": "uint256"
        }
      ],
      "name": "createOpenOrder",
      "outputs": [],
      "stateMutability": "payable",
      "type": "function"
    },
    {
      "inputs": [
        {
          "internalType": "uint256",
          "name": "_orderIndex",
          "type": "uint256"
        },
        {
          "internalType": "uint256",
          "name": "_leverage",
          "type": "uint256"
        },
        {
          "internalType": "uint256",
          "name": "_triggerPrice",
          "type": "uint256"
        },
        {
          "internalType": "bool",
          "name": "_triggerAboveThreshold",
          "type": "bool"
        }
      ],
      "name": "updateOpenOrder",
      "outputs": [],
      "stateMutability": "nonpayable",
      "type": "function"
    },
    {
      "inputs": [
        {
          "internalType": "uint256",
          "name": "_orderIndex",
          "type": "uint256"
        }
      ],
      "name": "cancelOpenOrder",
      "outputs": [],
      "stateMutability": "nonpayable",
      "type": "function"
    },
    {
      "inputs": [
        {
          "internalType": "address",
          "name": "_address",
          "type": "address"
        },
        {
          "internalType": "uint256",
          "name": "_orderIndex",
          "type": "uint256"
        },
        {
          "internalType": "address payable",
          "name": "_feeReceiver",
          "type": "address"
        }
      ],
      "name": "executeOpenOrder",
      "outputs": [],
      "stateMutability": "nonpayable",
      "type": "function"
    },
    {
      "inputs": [
        {
          "internalType": "uint256",
          "name": "_productId",
          "type": "uint256"
        },
        {
          "internalType": "uint256",
          "name": "_size",
          "type": "uint256"
        },
        {
          "internalType": "bool",
          "name": "_isLong",
          "type": "bool"
        },
        {
          "internalType": "uint256",
          "name": "_triggerPrice",
          "type": "uint256"
        },
        {
          "internalType": "bool",
          "name": "_triggerAboveThreshold",
          "type": "bool"
        }
      ],
      "name": "createCloseOrder",
      "outputs": [],
      "stateMutability": "payable",
      "type": "function"
    },
    {
      "inputs": [
        {
          "internalType": "address",
          "name": "_address",
          "type": "address"
        },
        {
          "internalType": "uint256",
          "name": "_orderIndex",
          "type": "uint256"
        },
        {
          "internalType": "address payable",
          "name": "_feeReceiver",
          "type": "address"
        }
      ],
      "name": "executeCloseOrder",
      "outputs": [],
      "stateMutability": "nonpayable",
      "type": "function"
    },
    {
      "inputs": [
        {
          "internalType": "uint256",
          "name": "_orderIndex",
          "type": "uint256"
        }
      ],
      "name": "cancelCloseOrder",
      "outputs": [],
      "stateMutability": "nonpayable",
      "type": "function"
    },
    {
      "inputs": [
        {
          "internalType": "uint256",
          "name": "_orderIndex",
          "type": "uint256"
        },
        {
          "internalType": "uint256",
          "name": "_size",
          "type": "uint256"
        },
        {
          "internalType": "uint256",
          "name": "_triggerPrice",
          "type": "uint256"
        },
        {
          "internalType": "bool",
          "name": "_triggerAboveThreshold",
          "type": "bool"
        }
      ],
      "name": "updateCloseOrder",
      "outputs": [],
      "stateMutability": "nonpayable",
      "type": "function"
    }
  ],
  "bytecode": "0x60e0604052600d805461ffff191690553480156200001c57600080fd5b506040516200431f3803806200431f8339810160408190526200003f91620000cf565b60008054336001600160a01b0319918216811790925560018055600780548216909217909155606096871b6001600160601b03199081166080526008805483166001600160a01b039889161790559490961b90931660a05260c091909152600a556009805490931691161790556200013e565b80516001600160a01b0381168114620000ca57600080fd5b919050565b60008060008060008060c08789031215620000e957600080fd5b620000f487620000b2565b95506200010460208801620000b2565b94506200011460408801620000b2565b935060608701519250608087015191506200013260a08801620000b2565b90509295509295509295565b60805160601c60a05160601c60c0516141186200020760003960008181610813015281816112e90152818161138101528181612205015281816123120152818161258401526126d80152600081816107df015281816112ba0152818161134a015281816121d7015281816122570152818161252a0152818161266501526127290152600081816102b5015281816118ac015281816119cf01528181611b860152818161255001528181612687015281816126b2015281816127a20152612c2801526141186000f3fe60806040526004361061023d5760003560e01c8063a52a16631161012d578063e1b7117a116100b0578063ec342ad011610077578063ec342ad014610a40578063ecefc70514610a58578063ef594a2614610a6e578063f851a44014610a8d578063fc2cee6214610aad578063ff637e8114610acd57005b8063e1b7117a14610917578063e61f1fc91461092d578063e72006131461094d578063e734804314610960578063e95953041461098057005b8063ba256c17116100f4578063ba256c1714610855578063c9c261d81461088a578063cac0d531146108aa578063cfad57a2146108d7578063d1b9e853146108f757005b8063a52a1663146106b4578063b00eb9fe146107ad578063b2016bd4146107cd578063b61daaee14610801578063b6d56ea51461083557005b80636ba42aaa116101c0578063812538e111610187578063812538e11461060b5780638c66d04f1461062b578063977149181461064b5780639d4512f81461066b578063a26f4f9c1461068b578063a4c12eb71461069e57005b80636ba42aaa1461054e578063704b6c021461057e578063756306921461059e5780637adbf973146105cb5780637dc0d1d0146105eb57005b80633aa65b2a116102045780633aa65b2a146104a0578063447f0f40146104c05780635d7a97c1146104e057806362b2ad001461050057806363ae21031461052a57005b806302edf41e1461024657806312d43a51146102665780631980cd35146102a35780631e7cea80146102d75780631f808516146103b557005b3661024457005b005b34801561025257600080fd5b50610244610261366004613890565b610aed565b34801561027257600080fd5b50600054610286906001600160a01b031681565b6040516001600160a01b0390911681526020015b60405180910390f35b3480156102af57600080fd5b506102867f000000000000000000000000000000000000000000000000000000000000000081565b3480156102e357600080fd5b5061035d6102f23660046136e1565b6002602081815260009384526040808520909152918352912080546001820154928201546003830154600484015460058501546006860154600787015460088801546009909801546001600160a01b03909716989795969495939460ff93841694929390911691908a565b604080516001600160a01b03909b168b5260208b01999099529789019690965260608801949094526080870192909252151560a086015260c0850152151560e08401526101008301526101208201526101400161029a565b3480156103c157600080fd5b5061048c6103d03660046136e1565b6001600160a01b039182166000908152600260208181526040808420948452938152918390208351610140810185528154909516855260018101549285018390529081015492840183905260038101546060850181905260048201546080860152600582015460ff908116151560a08701819052600684015460c088018190526007850154909216151560e088018190526008850154610100890181905260099095015461012090980188905294979596929590949193919290565b60405161029a989796959493929190613e4e565b3480156104ac57600080fd5b506102446104bb366004613a7b565b610bc0565b3480156104cc57600080fd5b506102446104db3660046137ce565b610c26565b3480156104ec57600080fd5b506102446104fb366004613a7b565b611004565b34801561050c57600080fd5b50600d5461051a9060ff1681565b604051901515815260200161029a565b34801561053657600080fd5b50610540600a5481565b60405190815260200161029a565b34801561055a57600080fd5b5061051a61056936600461368b565b60066020526000908152604090205460ff1681565b34801561058a57600080fd5b5061024461059936600461368b565b611063565b3480156105aa57600080fd5b506105406105b936600461368b565b60036020526000908152604090205481565b3480156105d757600080fd5b506102446105e636600461368b565b611103565b3480156105f757600080fd5b50600854610286906001600160a01b031681565b34801561061757600080fd5b50610244610626366004613a7b565b61114f565b34801561063757600080fd5b5061024461064636600461368b565b611470565b34801561065757600080fd5b50610244610666366004613af5565b6114bc565b34801561067757600080fd5b506102446106863660046139fb565b611677565b610244610699366004613aad565b6116e2565b3480156106aa57600080fd5b50610540600b5481565b3480156106c057600080fd5b506107706106cf3660046136e1565b6001600160a01b039182166000908152600460208181526040808420948452938152918390208351610100810185528154909516855260018101549285018390526002810154938501849052600381015460ff90811615156060870181905292820154608087018190526005830154909116151560a08701819052600683015460c0880181905260079093015460e090970187905293969495929490939290565b6040805197885260208801969096529315159486019490945260608501919091521515608084015260a083019190915260c082015260e00161029a565b3480156107b957600080fd5b50600954610286906001600160a01b031681565b3480156107d957600080fd5b506102867f000000000000000000000000000000000000000000000000000000000000000081565b34801561080d57600080fd5b506105407f000000000000000000000000000000000000000000000000000000000000000081565b34801561084157600080fd5b5061024461085036600461370d565b61174c565b34801561086157600080fd5b50610875610870366004613a35565b611b7f565b6040805192835290151560208301520161029a565b34801561089657600080fd5b506102446108a5366004613a7b565b611dc4565b3480156108b657600080fd5b506105406108c536600461368b565b60056020526000908152604090205481565b3480156108e357600080fd5b506102446108f236600461368b565b611f8a565b34801561090357600080fd5b506102446109123660046136a8565b611ffe565b34801561092357600080fd5b50610540600c5481565b34801561093957600080fd5b50610244610948366004613af5565b61208b565b61024461095b366004613b36565b612165565b34801561096c57600080fd5b5061024461097b36600461370d565b612356565b34801561098c57600080fd5b506109f961099b3660046136e1565b60046020818152600093845260408085209091529183529120805460018201546002830154600384015494840154600585015460068601546007909601546001600160a01b03909516969395929460ff948516949293919092169188565b604080516001600160a01b03909916895260208901979097529587019490945291151560608601526080850152151560a084015260c083015260e08201526101000161029a565b348015610a4c57600080fd5b506105406305f5e10081565b348015610a6457600080fd5b5061054061271081565b348015610a7a57600080fd5b50600d5461051a90610100900460ff1681565b348015610a9957600080fd5b50600754610286906001600160a01b031681565b348015610ab957600080fd5b50610244610ac8366004613a7b565b612911565b348015610ad957600080fd5b50610244610ae8366004613997565b612970565b3360009081526006602052604090205460ff16610b465760405162461bcd60e51b815260206004820152601260248201527127b93232b92137b7b59d1010b5b2b2b832b960711b60448201526064015b60405180910390fd5b600854604051634352fa9f60e01b81526001600160a01b0390911690634352fa9f90610b78908a908a90600401613c65565b600060405180830381600087803b158015610b9257600080fd5b505af1158015610ba6573d6000803e3d6000fd5b50505050610bb78585858585610c26565b50505050505050565b6007546001600160a01b03163314610bea5760405162461bcd60e51b8152600401610b3d90613d84565b600b8190556040518181527f33dfff53e600bc27b95ffa86c059b3bb420a80f5b8817f116fcc89fb860a7764906020015b60405180910390a150565b83518551148015610c38575081518351145b610c845760405162461bcd60e51b815260206004820152601a60248201527f4f72646572426f6f6b3a206e6f742073616d65206c656e6774680000000000006044820152606401610b3d565b33600090815260066020526040812054600d805460ff90921615156101000261ff00199092169190911790555b8551811015610e4f57306001600160a01b031663e7348043878381518110610cdb57610cdb613fed565b6020026020010151878481518110610cf557610cf5613fed565b60209081029190910101516040516001600160e01b031960e085901b1681526001600160a01b03928316600482015260248101919091529085166044820152606401600060405180830381600087803b158015610d5157600080fd5b505af1925050508015610d62575060015b610e3d57610d6e614019565b806308c379a01415610e095750610d83614035565b80610d8e5750610e0b565b868281518110610da057610da0613fed565b60200260200101516001600160a01b03167ffd98dd8f3604278ace2700d1921c5ba53543f50dd441f78e73838d3c15dbcfc0878481518110610de457610de4613fed565b602002602001015183604051610dfb929190613e35565b60405180910390a250610e3d565b505b3d808015610e35576040519150601f19603f3d011682016040523d82523d6000602084013e610e3a565b606091505b50505b80610e4781613fbc565b915050610cb1565b5060005b8351811015610ff157306001600160a01b031663b6d56ea5858381518110610e7d57610e7d613fed565b6020026020010151858481518110610e9757610e97613fed565b60209081029190910101516040516001600160e01b031960e085901b1681526001600160a01b03928316600482015260248101919091529085166044820152606401600060405180830381600087803b158015610ef357600080fd5b505af1925050508015610f04575060015b610fdf57610f10614019565b806308c379a01415610fab5750610f25614035565b80610f305750610fad565b848281518110610f4257610f42613fed565b60200260200101516001600160a01b03167f69b3979d8828a0251b09c485d9bbca66a1bbdc0eea56ca6bfc8792577966b51b858481518110610f8657610f86613fed565b602002602001015183604051610f9d929190613e35565b60405180910390a250610fdf565b505b3d808015610fd7576040519150601f19603f3d011682016040523d82523d6000602084013e610fdc565b606091505b50505b80610fe981613fbc565b915050610e53565b5050600d805461ff001916905550505050565b6007546001600160a01b0316331461102e5760405162461bcd60e51b8152600401610b3d90613d84565b600c8190556040518181527f706123d2fe046e9aa89583c0214abd56210f60a460ddd1cdf14f4476ad18e00f90602001610c1b565b6000546001600160a01b031633146110b55760405162461bcd60e51b815260206004820152601560248201527423b7bb32b93730b136329d103337b93134b23232b760591b6044820152606401610b3d565b600780546001600160a01b0319166001600160a01b0383169081179091556040519081527fbfc8d7754fec5096becc28e0816011e8d0adcfe752ffa1c88924a7f88b00a41d90602001610c1b565b6007546001600160a01b0316331461112d5760405162461bcd60e51b8152600401610b3d90613d84565b600880546001600160a01b0319166001600160a01b0392909216919091179055565b6111576129f1565b33600090815260026020818152604080842085855282529283902083516101408101855281546001600160a01b031680825260018301549382019390935292810154938301939093526003830154606083015260048301546080830152600583015460ff908116151560a0840152600684015460c0840152600784015416151560e08301526008830154610100830152600990920154610120820152906112105760405162461bcd60e51b8152600401610b3d90613dfe565b42600c548261012001516112249190613ef3565b106112415760405162461bcd60e51b8152600401610b3d90613daf565b336000908152600260208181526040808420868552909152822080546001600160a01b031916815560018101839055908101829055600381018290556004810182905560058101805460ff1990811690915560068201839055600782018054909116905560088101829055600901556001600160a01b037f00000000000000000000000000000000000000000000000000000000000000001661137657611371336305f5e1007f0000000000000000000000000000000000000000000000000000000000000000846080015185604001518661010001516113229190613ef3565b61132c9190613ef3565b6113369190613f2d565b6113409190613f0b565b6001600160a01b037f0000000000000000000000000000000000000000000000000000000000000000169190612a4b565b6113e6565b6113b4336305f5e1007f00000000000000000000000000000000000000000000000000000000000000008460800151856040015161132c9190613ef3565b6113e66305f5e100826101000151670de0b6b3a76400006113d59190613f2d565b6113df9190613f0b565b3390612b08565b80600001516001600160a01b03167f9a2a76e95b4fb399ea62708929abcd7d8db15f3f676bdc616519c69ace7d75c78383602001518460400151856080015186606001518760a001518860c001518960e001518a61010001518b610120015160405161145b9a99989796959493929190613e86565b60405180910390a25061146d60018055565b50565b6007546001600160a01b0316331461149a5760405162461bcd60e51b8152600401610b3d90613d84565b600980546001600160a01b0319166001600160a01b0392909216919091179055565b6114c46129f1565b336000908152600260209081526040808320878452909152902080546001600160a01b03166115055760405162461bcd60e51b8152600401610b3d90613dfe565b838160030154146115ba5760018101548154600091612710918791611532916001600160a01b0316612c21565b61153c9190613f2d565b6115469190613f0b565b611554906305f5e100613ef3565b6305f5e1008360040154846002015461156d9190613ef3565b6115779190613f2d565b6115819190613f0b565b90506000818360020154846004015461159a9190613ef3565b6115a49190613f4c565b6002840192909255506004820155600381018490555b6006810183905560078101805460ff1916831515908117909155426009830181905560018301546002840154600385015460048601546005870154604080518d815260208101969096528501939093526060840191909152608083015260ff16151560a082015260c0810186905260e081019290925261010082015233907feb13ef7b8cd6449cb1a4c5fd877a2a43da81408cd6fdd71ba428f404f85af2c390610120015b60405180910390a25061167160018055565b50505050565b6007546001600160a01b031633146116a15760405162461bcd60e51b8152600401610b3d90613d84565b600d805460ff19168215159081179091556040519081527f3a848dad35c2d39a4aa6f931e59a2a49e4fc07c48c7613e4aec5330d8c195e8290602001610c1b565b6116ea6129f1565b6305f5e100600a54670de0b6b3a76400006117059190613f2d565b61170f9190613f0b565b34101561172e5760405162461bcd60e51b8152600401610b3d90613d3f565b61173c338686868686612d77565b61174560018055565b5050505050565b6117546129f1565b6001600160a01b0380841660009081526004602081815260408084208785528252928390208351610100810185528154909516808652600182015492860192909252600281015493850193909352600383015460ff908116151560608601529183015460808501526005830154909116151560a0840152600682015460c084015260079091015460e08301526117fc5760405162461bcd60e51b8152600401610b3d90613dfe565b33301480156118125750600d54610100900460ff165b8061182c57503360009081526006602052604090205460ff165b806118545750600d5460ff168015611854575042600b548260e001516118529190613ef3565b105b6118705760405162461bcd60e51b8152600401610b3d90613cef565b6020810151606082015160405163bc95baad60e01b81526001600160a01b038781166004830152602482019390935290151560448201526000917f0000000000000000000000000000000000000000000000000000000000000000169063bc95baad906064016101206040518083038186803b1580156118ef57600080fd5b505afa158015611903573d6000803e3d6000fd5b505050506040513d601f19601f820116820180604052508101906119279190613b9f565b5050505050505091505060006119508360600151158460a0015185608001518660200151611b7f565b506001600160a01b0380881660009081526004602081815260408084208b8552825280842080546001600160a01b0319168155600181018590556002810185905560038101805460ff199081169091559381018590556005810180549094169093556006830184905560079092019290925590860151908601519293507f00000000000000000000000000000000000000000000000000000000000000009091169163560fdef99189918690611a0b906305f5e10090613f2d565b611a159190613f0b565b60608801516040516001600160e01b031960e087901b1681526001600160a01b0390941660048501526024840192909252604483015215156064820152608401600060405180830381600087803b158015611a6f57600080fd5b505af1158015611a83573d6000803e3d6000fd5b50505050611ac16305f5e1008460c00151670de0b6b3a7640000611aa79190613f2d565b611ab19190613f0b565b6001600160a01b03861690612b08565b82600001516001600160a01b03167f120afede860107929bfe0f5c081331b41c9c03a150c214694e16ccd70dacec4b8685602001518660400151876060015188608001518960a001518a60c00151898c60e00151604051611b66999897969594939291909889526020890197909752604088019590955292151560608701526080860191909152151560a085015260c084015260e08301526101008201526101200190565b60405180910390a2505050611b7a60018055565b505050565b60008060007f00000000000000000000000000000000000000000000000000000000000000006001600160a01b031663b9db15b4856040518263ffffffff1660e01b8152600401611bd291815260200190565b6101206040518083038186803b158015611beb57600080fd5b505afa158015611bff573d6000803e3d6000fd5b505050506040513d601f19601f82011682018060405250810190611c23919061374f565b50505050505050509050600087611cbd576008546040516303b6b4bb60e51b81526001600160a01b03848116600483015260006024830152909116906376d697609060440160206040518083038186803b158015611c8057600080fd5b505afa158015611c94573d6000803e3d6000fd5b505050506040513d601f19601f82011682018060405250810190611cb89190613a94565b611d41565b6008546040516303b6b4bb60e51b81526001600160a01b03848116600483015260016024830152909116906376d697609060440160206040518083038186803b158015611d0957600080fd5b505afa158015611d1d573d6000803e3d6000fd5b505050506040513d601f19601f82011682018060405250810190611d419190613a94565b9050600087611d535786821115611d58565b868210155b905080611db65760405162461bcd60e51b815260206004820152602660248201527f4f72646572426f6f6b3a20696e76616c696420707269636520666f722065786560448201526531baba34b7b760d11b6064820152608401610b3d565b909890975095505050505050565b611dcc6129f1565b33600090815260046020818152604080842085855282529283902083516101008101855281546001600160a01b0316808252600183015493820193909352600282015494810194909452600381015460ff908116151560608601529281015460808501526005810154909216151560a0840152600682015460c084015260079091015460e0830152611e705760405162461bcd60e51b8152600401610b3d90613dfe565b42600c548260e00151611e839190613ef3565b10611ea05760405162461bcd60e51b8152600401610b3d90613daf565b336000908152600460208181526040808420868552909152822080546001600160a01b0319168155600181018390556002810183905560038101805460ff19908116909155918101839055600581018054909216909155600681018290556007015560c0810151611f23906305f5e100906113d590670de0b6b3a7640000613f2d565b80600001516001600160a01b03167f9db6f2ff1cc1e495de67073ec42e33411340ee47b90568500d6539b160a29a418383602001518460400151856060015186608001518760a001518860c001518960e0015160405161145b989796959493929190613e4e565b6000546001600160a01b03163314611fdc5760405162461bcd60e51b815260206004820152601560248201527423b7bb32b93730b136329d103337b93134b23232b760591b6044820152606401610b3d565b600080546001600160a01b0319166001600160a01b0392909216919091179055565b6007546001600160a01b031633146120285760405162461bcd60e51b8152600401610b3d90613d84565b6001600160a01b038216600081815260066020908152604091829020805460ff19168515159081179091558251938452908301527f465c356447ab4144076254f033e216e3ba04a16610457682ed579a7fdaebd776910160405180910390a15050565b6120936129f1565b336000908152600460209081526040808320878452909152902080546001600160a01b03166120d45760405162461bcd60e51b8152600401610b3d90613dfe565b600281018490556004810183905560058101805460ff1916831515908117909155426007830181905560018301546003840154604080518a81526020810193909352820188905260ff16151560608201526080810186905260a081019290925260c082015233907f8fccf609e07aba039e93fb6bc6770ca570aab62c3c7b65bf60981f650c88e9349060e00161165f565b61216d6129f1565b600a5481101561218f5760405162461bcd60e51b8152600401610b3d90613d3f565b60006121a16305f5e100612710613f2d565b86886121ad8b33612c21565b6121b79190613f2d565b6121c19190613f2d565b6121cb9190613f0b565b90506001600160a01b037f0000000000000000000000000000000000000000000000000000000000000000166122825761227d6305f5e1007f00000000000000000000000000000000000000000000000000000000000000008361222f8b87613ef3565b6122399190613ef3565b6122439190613f2d565b61224d9190613f0b565b6001600160a01b037f00000000000000000000000000000000000000000000000000000000000000001690612ef5565b61233b565b6305f5e10061229983670de0b6b3a7640000613f2d565b6122a39190613f0b565b34146123085760405162461bcd60e51b815260206004820152602e60248201527f4f72646572426f6f6b3a20696e636f727265637420657865637574696f6e206660448201526d1959481d1c985b9cd9995c9c995960921b6064820152608401610b3d565b61233b6305f5e1007f0000000000000000000000000000000000000000000000000000000000000000612239848b613ef3565b61234c338989848a8a8a8a8a612fcb565b50610bb760018055565b61235e6129f1565b6001600160a01b038084166000908152600260208181526040808420878552825292839020835161014081018552815490951680865260018201549286019290925291820154928401929092526003810154606084015260048101546080840152600581015460ff908116151560a0850152600682015460c0850152600782015416151560e08401526008810154610100840152600901546101208301526124185760405162461bcd60e51b8152600401610b3d90613dfe565b333014801561242e5750600d54610100900460ff165b8061244857503360009081526006602052604090205460ff165b806124715750600d5460ff168015612471575042600b5482610120015161246f9190613ef3565b105b61248d5760405162461bcd60e51b8152600401610b3d90613cef565b60006124ab8260a001518360e001518460c001518560200151611b7f565b506001600160a01b0386811660009081526002602081815260408084208a8552909152822080546001600160a01b031916815560018101839055908101829055600381018290556004810182905560058101805460ff1990811690915560068201839055600782018054909116905560088101829055600901559091507f000000000000000000000000000000000000000000000000000000000000000016612658577f00000000000000000000000000000000000000000000000000000000000000006001600160a01b031663be73ca576305f5e1007f0000000000000000000000000000000000000000000000000000000000000000856080015186604001516125b79190613ef3565b6125c19190613f2d565b6125cb9190613f0b565b602085015160408087015160a0880151606089015192516001600160e01b031960e088901b1681526001600160a01b038d1660048201526024810194909452604484019190915215156064830152608482015260a4016000604051808303818588803b15801561263a57600080fd5b505af115801561264e573d6000803e3d6000fd5b5050505050612801565b6126ad6001600160a01b037f0000000000000000000000000000000000000000000000000000000000000000167f00000000000000000000000000000000000000000000000000000000000000006000613154565b6127507f00000000000000000000000000000000000000000000000000000000000000006305f5e1007f00000000000000000000000000000000000000000000000000000000000000008560800151866040015161270b9190613ef3565b6127159190613f2d565b61271f9190613f0b565b6001600160a01b037f0000000000000000000000000000000000000000000000000000000000000000169190613154565b602082015160408084015160a08501516060860151925163be73ca5760e01b81526001600160a01b038a81166004830152602482019590955260448101929092521515606482015260848101919091527f00000000000000000000000000000000000000000000000000000000000000009091169063be73ca579060a401600060405180830381600087803b1580156127e857600080fd5b505af11580156127fc573d6000803e3d6000fd5b505050505b61283c6305f5e100836101000151670de0b6b3a76400006128229190613f2d565b61282c9190613f0b565b6001600160a01b03851690612b08565b81600001516001600160a01b03167f552ec17a33c55256db8da827abaf04ff010ad1d2155a3e23bce3516a14841ed08584602001518560400151866060015187608001518860a001518960c001518a60e001518b61010001518b8d61012001516040516128fe9b9a999897969594939291909a8b5260208b019990995260408a01979097526060890195909552608088019390935290151560a087015260c0860152151560e08501526101008401526101208301526101408201526101600190565b60405180910390a25050611b7a60018055565b6007546001600160a01b0316331461293b5760405162461bcd60e51b8152600401610b3d90613d84565b600a8190556040518181527fbde5eafdc37b81830d70124cddccaaa6d034e71dda3c8fc18a959ca76a7cbcfc90602001610c1b565b60005b82518110156129b05761299e83828151811061299157612991613fed565b602002602001015161114f565b806129a881613fbc565b915050612973565b5060005b8151811015611b7a576129df8282815181106129d2576129d2613fed565b6020026020010151611dc4565b806129e981613fbc565b9150506129b4565b60026001541415612a445760405162461bcd60e51b815260206004820152601f60248201527f5265656e7472616e637947756172643a207265656e7472616e742063616c6c006044820152606401610b3d565b6002600155565b8015611b7a576001600160a01b038316612af4576000826001600160a01b03168260405160006040518083038185875af1925050503d8060008114612aac576040519150601f19603f3d011682016040523d82523d6000602084013e612ab1565b606091505b50509050806116715760405162461bcd60e51b815260206004820152600f60248201526e151c985b9cd9995c8819985a5b1959608a1b6044820152606401610b3d565b611b7a6001600160a01b03841683836132ab565b80471015612b585760405162461bcd60e51b815260206004820152601d60248201527f416464726573733a20696e73756666696369656e742062616c616e63650000006044820152606401610b3d565b6000826001600160a01b03168260405160006040518083038185875af1925050503d8060008114612ba5576040519150601f19603f3d011682016040523d82523d6000602084013e612baa565b606091505b5050905080611b7a5760405162461bcd60e51b815260206004820152603a60248201527f416464726573733a20756e61626c6520746f2073656e642076616c75652c207260448201527f6563697069656e74206d617920686176652072657665727465640000000000006064820152608401610b3d565b60008060007f00000000000000000000000000000000000000000000000000000000000000006001600160a01b031663b9db15b4866040518263ffffffff1660e01b8152600401612c7491815260200190565b6101206040518083038186803b158015612c8d57600080fd5b505afa158015612ca1573d6000803e3d6000fd5b505050506040513d601f19601f82011682018060405250810190612cc5919061374f565b50506009546040516333a3a92d60e11b81526001600160a01b03808a166004830152602482018890528d81166044830152336064830152989a50959850969096169550636747525a94505060849092019150612d1e9050565b60206040518083038186803b158015612d3657600080fd5b505afa158015612d4a573d6000803e3d6000fd5b505050506040513d601f19601f82011682018060405250810190612d6e9190613a94565b95945050505050565b6001600160a01b038616600081815260056020908152604080832054815161010081018352948552918401899052830187905285151560608401526080830185905283151560a08401529160c08101670de0b6b3a7640000612ddd6305f5e10034613f2d565b612de79190613f0b565b8152426020909101529050612dfd8260016132db565b6001600160a01b03808a1660008181526005602081815260408084209690965560048082528684208985528252928690208751815496166001600160a01b03199096169590951785558601516001850155858501516002850155606086015160038501805491151560ff1992831617905560808701519285019290925560a086015190840180549115159190921617905560c0840151600683015560e084015160079092019190915590517f4b7920630827f4060619130c16cfeade9e09acde982dfb756acde56b9bfea3ae90612ee39085908b908b908b908b908b9034904290613e4e565b60405180910390a25050505050505050565b8015612fb2576001600160a01b038216612fb65780341015612f595760405162461bcd60e51b815260206004820152601a60248201527f556e6945524332303a206e6f7420656e6f7567682076616c75650000000000006044820152606401610b3d565b80341115612fb2576000612f6d34836132ee565b604051909150600090339083908381818185875af1925050503d8060008114612aac576040519150601f19603f3d011682016040523d82523d6000602084013e612ab1565b5050565b612fb26001600160a01b0383163330846132fa565b33600090815260036020908152604091829020548251610140810184526001600160a01b038d1681529182018b9052918101899052606081018790526080810188905285151560a082015260c0810185905283151560e082015261010081018390524261012082015261303f8260016132db565b6001600160a01b03808d1660008181526003602081815260408084209690965560028082528684208985528252928690208751815496166001600160a01b0319909616959095178555860151600185015585850151918401919091556060850151908301556080840151600483015560a084015160058301805491151560ff1992831617905560c0850151600684015560e085015160078401805491151591909216179055610100840151600883015561012084015160099092019190915590517fba5ae4318040e1d4b814ebb4614377b1e0fa7882bf98a28d63207d9d2b6253309061313f9085908e908e908d908f908e908e908e908e904290613e86565b60405180910390a25050505050505050505050565b8015806131dd5750604051636eb1769f60e11b81523060048201526001600160a01b03838116602483015284169063dd62ed3e9060440160206040518083038186803b1580156131a357600080fd5b505afa1580156131b7573d6000803e3d6000fd5b505050506040513d601f19601f820116820180604052508101906131db9190613a94565b155b6132485760405162461bcd60e51b815260206004820152603660248201527f5361666545524332303a20617070726f76652066726f6d206e6f6e2d7a65726f60448201527520746f206e6f6e2d7a65726f20616c6c6f77616e636560501b6064820152608401610b3d565b6040516001600160a01b038316602482015260448101829052611b7a90849063095ea7b360e01b906064015b60408051601f198184030181529190526020810180516001600160e01b03166001600160e01b031990931692909217909152613332565b6040516001600160a01b038316602482015260448101829052611b7a90849063a9059cbb60e01b90606401613274565b60006132e78284613ef3565b9392505050565b60006132e78284613f4c565b6040516001600160a01b03808516602483015283166044820152606481018290526116719085906323b872dd60e01b90608401613274565b6000613387826040518060400160405280602081526020017f5361666545524332303a206c6f772d6c6576656c2063616c6c206661696c6564815250856001600160a01b03166134049092919063ffffffff16565b805190915015611b7a57808060200190518101906133a59190613a18565b611b7a5760405162461bcd60e51b815260206004820152602a60248201527f5361666545524332303a204552433230206f7065726174696f6e20646964206e6044820152691bdd081cdd58d8d9595960b21b6064820152608401610b3d565b6060613413848460008561341b565b949350505050565b60608247101561347c5760405162461bcd60e51b815260206004820152602660248201527f416464726573733a20696e73756666696369656e742062616c616e636520666f6044820152651c8818d85b1b60d21b6064820152608401610b3d565b600080866001600160a01b031685876040516134989190613c49565b60006040518083038185875af1925050503d80600081146134d5576040519150601f19603f3d011682016040523d82523d6000602084013e6134da565b606091505b50915091506134eb878383876134f6565b979650505050505050565b6060831561356257825161355b576001600160a01b0385163b61355b5760405162461bcd60e51b815260206004820152601d60248201527f416464726573733a2063616c6c20746f206e6f6e2d636f6e74726163740000006044820152606401610b3d565b5081613413565b61341383838151156135775781518083602001fd5b8060405162461bcd60e51b8152600401610b3d9190613cdc565b803561359c816140bf565b919050565b600082601f8301126135b257600080fd5b813560206135bf82613ecf565b6040516135cc8282613f8f565b8381528281019150858301600585901b870184018810156135ec57600080fd5b60005b85811015613614578135613602816140bf565b845292840192908401906001016135ef565b5090979650505050505050565b600082601f83011261363257600080fd5b8135602061363f82613ecf565b60405161364c8282613f8f565b8381528281019150858301600585901b8701840188101561366c57600080fd5b60005b858110156136145781358452928401929084019060010161366f565b60006020828403121561369d57600080fd5b81356132e7816140bf565b600080604083850312156136bb57600080fd5b82356136c6816140bf565b915060208301356136d6816140d4565b809150509250929050565b600080604083850312156136f457600080fd5b82356136ff816140bf565b946020939093013593505050565b60008060006060848603121561372257600080fd5b833561372d816140bf565b9250602084013591506040840135613744816140bf565b809150509250925092565b60008060008060008060008060006101208a8c03121561376e57600080fd5b8951613779816140bf565b8099505060208a0151975060408a0151965060608a0151613799816140d4565b8096505060808a0151945060a08a0151935060c08a0151925060e08a015191506101008a015190509295985092959850929598565b600080600080600060a086880312156137e657600080fd5b853567ffffffffffffffff808211156137fe57600080fd5b61380a89838a016135a1565b9650602088013591508082111561382057600080fd5b61382c89838a01613621565b9550604088013591508082111561384257600080fd5b61384e89838a016135a1565b9450606088013591508082111561386457600080fd5b5061387188828901613621565b9250506080860135613882816140bf565b809150509295509295909350565b600080600080600080600060e0888a0312156138ab57600080fd5b873567ffffffffffffffff808211156138c357600080fd5b6138cf8b838c016135a1565b985060208a01359150808211156138e557600080fd5b6138f18b838c01613621565b975060408a013591508082111561390757600080fd5b6139138b838c016135a1565b965060608a013591508082111561392957600080fd5b6139358b838c01613621565b955060808a013591508082111561394b57600080fd5b6139578b838c016135a1565b945060a08a013591508082111561396d57600080fd5b5061397a8a828b01613621565b92505061398960c08901613591565b905092959891949750929550565b600080604083850312156139aa57600080fd5b823567ffffffffffffffff808211156139c257600080fd5b6139ce86838701613621565b935060208501359150808211156139e457600080fd5b506139f185828601613621565b9150509250929050565b600060208284031215613a0d57600080fd5b81356132e7816140d4565b600060208284031215613a2a57600080fd5b81516132e7816140d4565b60008060008060808587031215613a4b57600080fd5b8435613a56816140d4565b93506020850135613a66816140d4565b93969395505050506040820135916060013590565b600060208284031215613a8d57600080fd5b5035919050565b600060208284031215613aa657600080fd5b5051919050565b600080600080600060a08688031215613ac557600080fd5b85359450602086013593506040860135613ade816140d4565b9250606086013591506080860135613882816140d4565b60008060008060808587031215613b0b57600080fd5b8435935060208501359250604085013591506060850135613b2b816140d4565b939692955090935050565b600080600080600080600060e0888a031215613b5157600080fd5b8735965060208801359550604088013594506060880135613b71816140d4565b93506080880135925060a0880135613b88816140d4565b8092505060c0880135905092959891949750929550565b60008060008060008060008060006101208a8c031215613bbe57600080fd5b8951985060208a0151975060408a0151965060608a0151955060808a0151945060a08a0151613bec816140bf565b60c08b015160e08c01519195509350613c04816140d4565b809250506101008a015190509295985092959850929598565b60008151808452613c35816020860160208601613f63565b601f01601f19169290920160200192915050565b60008251613c5b818460208701613f63565b9190910192915050565b604080825283519082018190526000906020906060840190828701845b82811015613ca75781516001600160a01b031684529284019290840190600101613c82565b5050508381038285015284518082528583019183019060005b8181101561361457835183529284019291840191600101613cc0565b6020815260006132e76020830184613c1d565b60208082526030908201527f4f72646572426f6f6b3a206d696e2074696d6520657865637574652064656c6160408201526f1e481b9bdd081e595d081c185cdcd95960821b606082015260800190565b60208082526025908201527f4f72646572426f6f6b3a20696e73756666696369656e7420657865637574696f6040820152646e2066656560d81b606082015260800190565b60208082526011908201527027b93232b92137b7b59d1010b0b236b4b760791b604082015260600190565b6020808252602f908201527f4f72646572426f6f6b3a206d696e2074696d652063616e63656c2064656c617960408201526e081b9bdd081e595d081c185cdcd959608a1b606082015260800190565b6020808252601d908201527f4f72646572426f6f6b3a206e6f6e2d6578697374656e74206f72646572000000604082015260600190565b8281526040602082015260006134136040830184613c1d565b9788526020880196909652604087019490945291151560608601526080850152151560a084015260c083015260e08201526101000190565b998a5260208a0198909852604089019690965260608801949094526080870192909252151560a086015260c0850152151560e08401526101008301526101208201526101400190565b600067ffffffffffffffff821115613ee957613ee9614003565b5060051b60200190565b60008219821115613f0657613f06613fd7565b500190565b600082613f2857634e487b7160e01b600052601260045260246000fd5b500490565b6000816000190483118215151615613f4757613f47613fd7565b500290565b600082821015613f5e57613f5e613fd7565b500390565b60005b83811015613f7e578181015183820152602001613f66565b838111156116715750506000910152565b601f8201601f1916810167ffffffffffffffff81118282101715613fb557613fb5614003565b6040525050565b6000600019821415613fd057613fd0613fd7565b5060010190565b634e487b7160e01b600052601160045260246000fd5b634e487b7160e01b600052603260045260246000fd5b634e487b7160e01b600052604160045260246000fd5b600060033d11156140325760046000803e5060005160e01c5b90565b600060443d10156140435790565b6040516003193d81016004833e81513d67ffffffffffffffff816024840111818411171561407357505050505090565b828501915081518181111561408b5750505050505090565b843d87010160208285010111156140a55750505050505090565b6140b460208286010187613f8f565b509095945050505050565b6001600160a01b038116811461146d57600080fd5b801515811461146d57600080fdfea2646970667358221220416edf49e9313d6db2471d1bc3dc766ecb78c4a6bc191e33557e3a787fc3970864736f6c63430008070033",
  "immutableReferences": {
    "1700": [
      {
        "length": 32,
        "start": 693
      },
      {
        "length": 32,
        "start": 6316
      },
      {
        "length": 32,
        "start": 6607
      },
      {
        "length": 32,
        "start": 7046
      },
      {
        "length": 32,
        "start": 9552
      },
      {
        "length": 32,
        "start": 9863
      },
      {
        "length": 32,
        "start": 9906
      },
      {
        "length": 32,
        "start": 10146
      },
      {
        "length": 32,
        "start": 11304
      }
    ],
    "1702": [
      {
        "length": 32,
        "start": 2015
      },
      {
        "length": 32,
        "start": 4794
      },
      {
        "length": 32,
        "start": 4938
      },
      {
        "length": 32,
        "start": 8663
      },
      {
        "length": 32,
        "start": 8791
      },
      {
        "length": 32,
        "start": 9514
      },
      {
        "length": 32,
        "start": 9829
      },
      {
        "length": 32,
        "start": 10025
      }
    ],
    "1704": [
      {
        "length": 32,
        "start": 2067
      },
      {
        "length": 32,
        "start": 4841
      },
      {
        "length": 32,
        "start": 4993
      },
      {
        "length": 32,
        "start": 8709
      },
      {
        "length": 32,
        "start": 8978
      },
      {
        "length": 32,
        "start": 9604
      },
      {
        "length": 32,
        "start": 9944
      }
    ]
  },
  "source": "// SPDX-License-Identifier: MIT\n\npragma solidity ^0.8.0;\n\nimport \"@openzeppelin/contracts/utils/math/SafeMath.sol\";\nimport \"@openzeppelin/contracts/utils/math/SignedSafeMath.sol\";\nimport \"@openzeppelin/contracts/token/ERC20/IERC20.sol\";\nimport \"@openzeppelin/contracts/token/ERC20/utils/SafeERC20.sol\";\nimport \"@openzeppelin/contracts/security/ReentrancyGuard.sol\";\nimport \"../oracle/IOracle.sol\";\nimport '../lib/UniERC20.sol';\nimport \"./IPikaPerp.sol\";\nimport \"./PikaPerpV3.sol\";\nimport \"../access/Governable.sol\";\n\ncontract OrderBook is Governable, ReentrancyGuard {\n    using SafeMath for uint256;\n    using SafeERC20 for IERC20;\n    using UniERC20 for IERC20;\n    using Address for address payable;\n\n    struct OpenOrder {\n        address account;\n        uint256 productId;\n        uint256 margin;\n        uint256 leverage;\n        uint256 tradeFee;\n        bool isLong;\n        uint256 triggerPrice;\n        bool triggerAboveThreshold;\n        uint256 executionFee;\n        uint256 orderTimestamp;\n    }\n    struct CloseOrder {\n        address account;\n        uint256 productId;\n        uint256 size;\n        bool isLong;\n        uint256 triggerPrice;\n        bool triggerAboveThreshold;\n        uint256 executionFee;\n        uint256 orderTimestamp;\n    }\n\n    mapping (address => mapping(uint256 => OpenOrder)) public openOrders;\n    mapping (address => uint256) public openOrdersIndex;\n    mapping (address => mapping(uint256 => CloseOrder)) public closeOrders;\n    mapping (address => uint256) public closeOrdersIndex;\n    mapping (address => bool) public isKeeper;\n\n    address public immutable pikaPerp;\n    address public immutable collateralToken;\n    uint256 public immutable tokenBase;\n    address public admin;\n    address public oracle;\n    address public feeCalculator;\n    uint256 public minExecutionFee;\n    uint256 public minTimeExecuteDelay;\n    uint256 public minTimeCancelDelay;\n    bool public allowPublicKeeper = false;\n    bool public isKeeperCall = false;\n    uint256 public constant BASE = 1e8;\n    uint256 public constant FEE_BASE = 1e4;\n\n    event CreateOpenOrder(\n        address indexed account,\n        uint256 orderIndex,\n        uint256 productId,\n        uint256 margin,\n        uint256 leverage,\n        uint256 tradeFee,\n        bool isLong,\n        uint256 triggerPrice,\n        bool triggerAboveThreshold,\n        uint256 executionFee,\n        uint256 orderTimestamp\n    );\n    event CancelOpenOrder(\n        address indexed account,\n        uint256 orderIndex,\n        uint256 productId,\n        uint256 margin,\n        uint256 leverage,\n        uint256 tradeFee,\n        bool isLong,\n        uint256 triggerPrice,\n        bool triggerAboveThreshold,\n        uint256 executionFee,\n        uint256 orderTimestamp\n    );\n    event ExecuteOpenOrder(\n        address indexed account,\n        uint256 orderIndex,\n        uint256 productId,\n        uint256 margin,\n        uint256 leverage,\n        uint256 tradeFee,\n        bool isLong,\n        uint256 triggerPrice,\n        bool triggerAboveThreshold,\n        uint256 executionFee,\n        uint256 executionPrice,\n        uint256 orderTimestamp\n    );\n    event UpdateOpenOrder(\n        address indexed account,\n        uint256 orderIndex,\n        uint256 productId,\n        uint256 margin,\n        uint256 leverage,\n        uint256 tradeFee,\n        bool isLong,\n        uint256 triggerPrice,\n        bool triggerAboveThreshold,\n        uint256 orderTimestamp\n    );\n    event CreateCloseOrder(\n        address indexed account,\n        uint256 orderIndex,\n        uint256 productId,\n        uint256 size,\n        bool isLong,\n        uint256 triggerPrice,\n        bool triggerAboveThreshold,\n        uint256 executionFee,\n        uint256 orderTimestamp\n    );\n    event CancelCloseOrder(\n        address indexed account,\n        uint256 orderIndex,\n        uint256 productId,\n        uint256 size,\n        bool isLong,\n        uint256 triggerPrice,\n        bool triggerAboveThreshold,\n        uint256 executionFee,\n        uint256 orderTimestamp\n    );\n    event ExecuteCloseOrder(\n        address indexed account,\n        uint256 orderIndex,\n        uint256 productId,\n        uint256 size,\n        bool isLong,\n        uint256 triggerPrice,\n        bool triggerAboveThreshold,\n        uint256 executionFee,\n        uint256 executionPrice,\n        uint256 orderTimestamp\n    );\n    event UpdateCloseOrder(\n        address indexed account,\n        uint256 orderIndex,\n        uint256 productId,\n        uint256 size,\n        bool isLong,\n        uint256 triggerPrice,\n        bool triggerAboveThreshold,\n        uint256 orderTimestamp\n    );\n    event ExecuteOpenOrderError(address indexed account, uint256 orderIndex, string executionError);\n    event ExecuteCloseOrderError(address indexed account, uint256 orderIndex, string executionError);\n    event UpdateMinTimeExecuteDelay(uint256 minTimeExecuteDelay);\n    event UpdateMinTimeCancelDelay(uint256 minTimeCancelDelay);\n    event UpdateAllowPublicKeeper(bool allowPublicKeeper);\n    event UpdateMinExecutionFee(uint256 minExecutionFee);\n    event UpdateKeeper(address keeper, bool isAlive);\n    event UpdateAdmin(address admin);\n\n    modifier onlyAdmin() {\n        require(msg.sender == admin, \"OrderBook: !admin\");\n        _;\n    }\n\n    modifier onlyKeeper() {\n        require(isKeeper[msg.sender], \"OrderBook: !keeper\");\n        _;\n    }\n\n    constructor(\n        address _pikaPerp,\n        address _oracle,\n        address _collateralToken,\n        uint256 _tokenBase,\n        uint256 _minExecutionFee,\n        address _feeCalculator\n    ) public {\n        admin = msg.sender;\n        pikaPerp = _pikaPerp;\n        oracle = _oracle;\n        collateralToken = _collateralToken;\n        tokenBase = _tokenBase;\n        minExecutionFee = _minExecutionFee;\n        feeCalculator = _feeCalculator;\n    }\n\n    function setOracle(address _oracle) external onlyAdmin {\n        oracle = _oracle;\n    }\n\n    function setFeeCalculator(address _feeCalculator) external onlyAdmin {\n        feeCalculator = _feeCalculator;\n    }\n\n    function setMinExecutionFee(uint256 _minExecutionFee) external onlyAdmin {\n        minExecutionFee = _minExecutionFee;\n        emit UpdateMinExecutionFee(_minExecutionFee);\n    }\n\n    function setMinTimeExecuteDelay(uint256 _minTimeExecuteDelay) external onlyAdmin {\n        minTimeExecuteDelay = _minTimeExecuteDelay;\n        emit UpdateMinTimeExecuteDelay(_minTimeExecuteDelay);\n    }\n\n    function setMinTimeCancelDelay(uint256 _minTimeCancelDelay) external onlyAdmin {\n        minTimeCancelDelay = _minTimeCancelDelay;\n        emit UpdateMinTimeCancelDelay(_minTimeCancelDelay);\n    }\n\n    function setAllowPublicKeeper(bool _allowPublicKeeper) external onlyAdmin {\n        allowPublicKeeper = _allowPublicKeeper;\n        emit UpdateAllowPublicKeeper(_allowPublicKeeper);\n    }\n\n    function setKeeper(address _account, bool _isActive) external onlyAdmin {\n        isKeeper[_account] = _isActive;\n        emit UpdateKeeper(_account, _isActive);\n    }\n\n    function setAdmin(address _admin) external onlyGov {\n        admin = _admin;\n        emit UpdateAdmin(_admin);\n    }\n\n    function executeOrdersWithPrices(\n        address[] memory tokens,\n        uint256[] memory prices,\n        address[] memory _openAddresses,\n        uint256[] memory _openOrderIndexes,\n        address[] memory _closeAddresses,\n        uint256[] memory _closeOrderIndexes,\n        address payable _feeReceiver\n    ) external onlyKeeper {\n        IOracle(oracle).setPrices(tokens, prices);\n        executeOrders(_openAddresses, _openOrderIndexes, _closeAddresses, _closeOrderIndexes, _feeReceiver);\n    }\n\n    function executeOrders(\n        address[] memory _openAddresses,\n        uint256[] memory _openOrderIndexes,\n        address[] memory _closeAddresses,\n        uint256[] memory _closeOrderIndexes,\n        address payable _feeReceiver\n    ) public {\n        require(_openAddresses.length == _openOrderIndexes.length && _closeAddresses.length == _closeOrderIndexes.length, \"OrderBook: not same length\");\n        isKeeperCall = isKeeper[msg.sender];\n        for (uint256 i = 0; i < _openAddresses.length; i++) {\n            try this.executeOpenOrder(_openAddresses[i], _openOrderIndexes[i], _feeReceiver) {\n            } catch Error(string memory executionError) {\n                emit ExecuteOpenOrderError(_openAddresses[i], _openOrderIndexes[i], executionError);\n            } catch (bytes memory /*lowLevelData*/) {}\n        }\n        for (uint256 i = 0; i < _closeAddresses.length; i++) {\n            try this.executeCloseOrder(_closeAddresses[i], _closeOrderIndexes[i], _feeReceiver) {\n            } catch Error(string memory executionError) {\n                emit ExecuteCloseOrderError(_closeAddresses[i], _closeOrderIndexes[i], executionError);\n            } catch (bytes memory /*lowLevelData*/) {}\n        }\n        isKeeperCall = false;\n    }\n\n    function cancelMultiple(\n        uint256[] memory _openOrderIndexes,\n        uint256[] memory _closeOrderIndexes\n    ) external {\n        for (uint256 i = 0; i < _openOrderIndexes.length; i++) {\n            cancelOpenOrder(_openOrderIndexes[i]);\n        }\n        for (uint256 i = 0; i < _closeOrderIndexes.length; i++) {\n            cancelCloseOrder(_closeOrderIndexes[i]);\n        }\n    }\n\n    function validatePositionOrderPrice(\n        bool _isLong,\n        bool _triggerAboveThreshold,\n        uint256 _triggerPrice,\n        uint256 _productId\n    ) public view returns (uint256, bool) {\n        (address productToken,,,,,,,,) = IPikaPerp(pikaPerp).getProduct(_productId);\n        uint256 currentPrice = _isLong ? IOracle(oracle).getPrice(productToken, true) : IOracle(oracle).getPrice(productToken, false);\n        bool isPriceValid = _triggerAboveThreshold ? currentPrice >= _triggerPrice : currentPrice <= _triggerPrice;\n        require(isPriceValid, \"OrderBook: invalid price for execution\");\n        return (currentPrice, isPriceValid);\n    }\n\n    function getCloseOrder(address _account, uint256 _orderIndex) public view returns (\n        uint256 productId,\n        uint256 size,\n        bool isLong,\n        uint256 triggerPrice,\n        bool triggerAboveThreshold,\n        uint256 executionFee,\n        uint256 orderTimestamp\n    ) {\n        CloseOrder memory order = closeOrders[_account][_orderIndex];\n        return (\n        order.productId,\n        order.size,\n        order.isLong,\n        order.triggerPrice,\n        order.triggerAboveThreshold,\n        order.executionFee,\n        order.orderTimestamp\n        );\n    }\n\n    function getOpenOrder(address _account, uint256 _orderIndex) public view returns (\n        uint256 productId,\n        uint256 margin,\n        uint256 leverage,\n        bool isLong,\n        uint256 triggerPrice,\n        bool triggerAboveThreshold,\n        uint256 executionFee,\n        uint256 orderTimestamp\n    ) {\n        OpenOrder memory order = openOrders[_account][_orderIndex];\n        return (\n        order.productId,\n        order.margin,\n        order.leverage,\n        order.isLong,\n        order.triggerPrice,\n        order.triggerAboveThreshold,\n        order.executionFee,\n        order.orderTimestamp\n        );\n    }\n\n    function createOpenOrder(\n        uint256 _productId,\n        uint256 _margin,\n        uint256 _leverage,\n        bool _isLong,\n        uint256 _triggerPrice,\n        bool _triggerAboveThreshold,\n        uint256 _executionFee\n    ) external payable nonReentrant {\n        require(_executionFee >= minExecutionFee, \"OrderBook: insufficient execution fee\");\n\n        uint256 tradeFee = getTradeFeeRate(_productId, msg.sender) * _margin * _leverage / (FEE_BASE * BASE);\n        if (IERC20(collateralToken).isETH()) {\n            IERC20(collateralToken).uniTransferFromSenderToThis((_executionFee + _margin + tradeFee) * tokenBase / BASE);\n        } else {\n            require(msg.value == _executionFee * 1e18 / BASE, \"OrderBook: incorrect execution fee transferred\");\n            IERC20(collateralToken).uniTransferFromSenderToThis((_margin + tradeFee) * tokenBase / BASE);\n        }\n\n        _createOpenOrder(\n            msg.sender,\n            _productId,\n            _margin,\n            tradeFee,\n            _leverage,\n            _isLong,\n            _triggerPrice,\n            _triggerAboveThreshold,\n            _executionFee\n        );\n    }\n\n    function _createOpenOrder(\n        address _account,\n        uint256 _productId,\n        uint256 _margin,\n        uint256 _tradeFee,\n        uint256 _leverage,\n        bool _isLong,\n        uint256 _triggerPrice,\n        bool _triggerAboveThreshold,\n        uint256 _executionFee\n    ) private {\n        uint256 _orderIndex = openOrdersIndex[msg.sender];\n        OpenOrder memory order = OpenOrder(\n            _account,\n            _productId,\n            _margin,\n            _leverage,\n            _tradeFee,\n            _isLong,\n            _triggerPrice,\n            _triggerAboveThreshold,\n            _executionFee,\n            block.timestamp\n        );\n        openOrdersIndex[_account] = _orderIndex.add(1);\n        openOrders[_account][_orderIndex] = order;\n        emit CreateOpenOrder(\n            _account,\n            _orderIndex,\n            _productId,\n            _margin,\n            _leverage,\n            _tradeFee,\n            _isLong,\n            _triggerPrice,\n            _triggerAboveThreshold,\n            _executionFee,\n            block.timestamp\n        );\n    }\n\n    function updateOpenOrder(\n        uint256 _orderIndex,\n        uint256 _leverage,\n        uint256 _triggerPrice,\n        bool _triggerAboveThreshold\n    ) external nonReentrant {\n        OpenOrder storage order = openOrders[msg.sender][_orderIndex];\n        require(order.account != address(0), \"OrderBook: non-existent order\");\n        if (order.leverage != _leverage) {\n            uint256 margin = (order.margin + order.tradeFee) * BASE / (BASE + getTradeFeeRate(order.productId, order.account) * _leverage / 10**4);\n            uint256 tradeFee = order.tradeFee + order.margin - margin;\n            order.margin = margin;\n            order.tradeFee = tradeFee;\n            order.leverage = _leverage;\n        }\n        order.triggerPrice = _triggerPrice;\n        order.triggerAboveThreshold = _triggerAboveThreshold;\n        order.orderTimestamp = block.timestamp;\n\n        emit UpdateOpenOrder(\n            msg.sender,\n            _orderIndex,\n            order.productId,\n            order.margin,\n            order.leverage,\n            order.tradeFee,\n            order.isLong,\n            _triggerPrice,\n            _triggerAboveThreshold,\n            block.timestamp\n        );\n    }\n\n    function cancelOpenOrder(uint256 _orderIndex) public nonReentrant {\n        OpenOrder memory order = openOrders[msg.sender][_orderIndex];\n        require(order.account != address(0), \"OrderBook: non-existent order\");\n        require(order.orderTimestamp + minTimeCancelDelay < block.timestamp, \"OrderBook: min time cancel delay not yet passed\");\n\n        delete openOrders[msg.sender][_orderIndex];\n\n        if (IERC20(collateralToken).isETH()) {\n            IERC20(collateralToken).uniTransfer(msg.sender, (order.executionFee + order.margin + order.tradeFee) * tokenBase / BASE);\n        } else {\n            IERC20(collateralToken).uniTransfer(msg.sender, (order.margin + order.tradeFee) * tokenBase / BASE);\n            payable(msg.sender).sendValue(order.executionFee * 1e18 / BASE);\n        }\n\n        emit CancelOpenOrder(\n            order.account,\n            _orderIndex,\n            order.productId,\n            order.margin,\n            order.tradeFee,\n            order.leverage,\n            order.isLong,\n            order.triggerPrice,\n            order.triggerAboveThreshold,\n            order.executionFee,\n            order.orderTimestamp\n        );\n    }\n\n    function executeOpenOrder(address _address, uint256 _orderIndex, address payable _feeReceiver) public nonReentrant {\n        OpenOrder memory order = openOrders[_address][_orderIndex];\n        require(order.account != address(0), \"OrderBook: non-existent order\");\n        require((msg.sender == address(this) && isKeeperCall) || isKeeper[msg.sender] || (allowPublicKeeper && order.orderTimestamp + minTimeExecuteDelay < block.timestamp),\n            \"OrderBook: min time execute delay not yet passed\");\n        (uint256 currentPrice, ) = validatePositionOrderPrice(\n            order.isLong,\n            order.triggerAboveThreshold,\n            order.triggerPrice,\n            order.productId\n        );\n\n        delete openOrders[_address][_orderIndex];\n\n        if (IERC20(collateralToken).isETH()) {\n            IPikaPerp(pikaPerp).openPosition{value: (order.margin + order.tradeFee) * tokenBase / BASE }(_address, order.productId, order.margin, order.isLong, order.leverage);\n        } else {\n            IERC20(collateralToken).safeApprove(pikaPerp, 0);\n            IERC20(collateralToken).safeApprove(pikaPerp, (order.margin + order.tradeFee) * tokenBase / BASE);\n            IPikaPerp(pikaPerp).openPosition(_address, order.productId, order.margin, order.isLong, order.leverage);\n        }\n\n        // pay executor\n        _feeReceiver.sendValue(order.executionFee * 1e18 / BASE);\n\n        emit ExecuteOpenOrder(\n            order.account,\n            _orderIndex,\n            order.productId,\n            order.margin,\n            order.leverage,\n            order.tradeFee,\n            order.isLong,\n            order.triggerPrice,\n            order.triggerAboveThreshold,\n            order.executionFee,\n            currentPrice,\n            order.orderTimestamp\n        );\n    }\n\n    function createCloseOrder(\n        uint256 _productId,\n        uint256 _size,\n        bool _isLong,\n        uint256 _triggerPrice,\n        bool _triggerAboveThreshold\n    ) external payable nonReentrant {\n        require(msg.value >= minExecutionFee * 1e18 / BASE, \"OrderBook: insufficient execution fee\");\n\n        _createCloseOrder(\n            msg.sender,\n            _productId,\n            _size,\n            _isLong,\n            _triggerPrice,\n            _triggerAboveThreshold\n        );\n    }\n\n    function _createCloseOrder(\n        address _account,\n        uint256 _productId,\n        uint256 _size,\n        bool _isLong,\n        uint256 _triggerPrice,\n        bool _triggerAboveThreshold\n    ) private {\n        uint256 _orderIndex = closeOrdersIndex[_account];\n        CloseOrder memory order = CloseOrder(\n            _account,\n            _productId,\n            _size,\n            _isLong,\n            _triggerPrice,\n            _triggerAboveThreshold,\n            msg.value * BASE / 1e18,\n            block.timestamp\n        );\n        closeOrdersIndex[_account] = _orderIndex.add(1);\n        closeOrders[_account][_orderIndex] = order;\n\n        emit CreateCloseOrder(\n            _account,\n            _orderIndex,\n            _productId,\n            _size,\n            _isLong,\n            _triggerPrice,\n            _triggerAboveThreshold,\n            msg.value,\n            block.timestamp\n        );\n    }\n\n    function executeCloseOrder(address _address, uint256 _orderIndex, address payable _feeReceiver) public nonReentrant {\n        CloseOrder memory order = closeOrders[_address][_orderIndex];\n        require(order.account != address(0), \"OrderBook: non-existent order\");\n        require((msg.sender == address(this) && isKeeperCall) || isKeeper[msg.sender] || (allowPublicKeeper && order.orderTimestamp + minTimeExecuteDelay < block.timestamp),\n            \"OrderBook: min time execute delay not yet passed\");\n        (,uint256 leverage,,,,,,,) = IPikaPerp(pikaPerp).getPosition(_address, order.productId, order.isLong);\n        (uint256 currentPrice, ) = validatePositionOrderPrice(\n            !order.isLong,\n            order.triggerAboveThreshold,\n            order.triggerPrice,\n            order.productId\n        );\n\n        delete closeOrders[_address][_orderIndex];\n        IPikaPerp(pikaPerp).closePosition(_address, order.productId, order.size * BASE / leverage , order.isLong);\n\n        // pay executor\n        _feeReceiver.sendValue(order.executionFee * 1e18 / BASE);\n\n        emit ExecuteCloseOrder(\n            order.account,\n            _orderIndex,\n            order.productId,\n            order.size,\n            order.isLong,\n            order.triggerPrice,\n            order.triggerAboveThreshold,\n            order.executionFee,\n            currentPrice,\n            order.orderTimestamp\n        );\n    }\n\n    function cancelCloseOrder(uint256 _orderIndex) public nonReentrant {\n        CloseOrder memory order = closeOrders[msg.sender][_orderIndex];\n        require(order.account != address(0), \"OrderBook: non-existent order\");\n        require(order.orderTimestamp + minTimeCancelDelay < block.timestamp, \"OrderBook: min time cancel delay not yet passed\");\n\n        delete closeOrders[msg.sender][_orderIndex];\n\n        payable(msg.sender).sendValue(order.executionFee * 1e18 / BASE);\n\n        emit CancelCloseOrder(\n            order.account,\n            _orderIndex,\n            order.productId,\n            order.size,\n            order.isLong,\n            order.triggerPrice,\n            order.triggerAboveThreshold,\n            order.executionFee,\n            order.orderTimestamp\n        );\n    }\n\n    function updateCloseOrder(\n        uint256 _orderIndex,\n        uint256 _size,\n        uint256 _triggerPrice,\n        bool _triggerAboveThreshold\n    ) external nonReentrant {\n        CloseOrder storage order = closeOrders[msg.sender][_orderIndex];\n        require(order.account != address(0), \"OrderBook: non-existent order\");\n\n        order.size = _size;\n        order.triggerPrice = _triggerPrice;\n        order.triggerAboveThreshold = _triggerAboveThreshold;\n        order.orderTimestamp = block.timestamp;\n\n        emit UpdateCloseOrder(\n            msg.sender,\n            _orderIndex,\n            order.productId,\n            _size,\n            order.isLong,\n            _triggerPrice,\n            _triggerAboveThreshold,\n            block.timestamp\n        );\n    }\n\n    function getTradeFeeRate(uint256 _productId, address _account) private returns(uint256) {\n        (address productToken,,uint256 fee,,,,,,) = IPikaPerp(pikaPerp).getProduct(_productId);\n        return IFeeCalculator(feeCalculator).getFee(productToken, fee, _account, msg.sender);\n    }\n\n    fallback() external payable {}\n    receive() external payable {}\n}\n",
  "sourcePath": "/Users/me/workspace/PikaPerpV2/contracts/perp/OrderBook.sol",
  "compiler": {
    "name": "solc",
    "version": "0.8.7+commit.e28d00a7.Emscripten.clang"
  },
  "schemaVersion": "3.4.11",
  "updatedAt": "2023-01-15T16:37:38.160Z",
  "devdoc": {
    "kind": "dev",
    "methods": {},
    "version": 1
  },
  "userdoc": {
    "kind": "user",
    "methods": {},
    "version": 1
  }
}