{
  "contractName": "PikaPerpV3",
  "abi": [
    {
      "inputs": [
        {
          "internalType": "address",
          "name": "_token",
          "type": "address"
        },
        {
          "internalType": "uint256",
          "name": "_tokenBase",
          "type": "uint256"
        },
        {
          "internalType": "address",
          "name": "_oracle",
          "type": "address"
        },
        {
          "internalType": "address",
          "name": "_feeCalculator",
          "type": "address"
        },
        {
          "internalType": "address",
          "name": "_fundingManager",
          "type": "address"
        }
      ],
      "stateMutability": "nonpayable",
      "type": "constructor"
    },
    {
      "anonymous": false,
      "inputs": [
        {
          "indexed": true,
          "internalType": "uint256",
          "name": "positionId",
          "type": "uint256"
        },
        {
          "indexed": true,
          "internalType": "address",
          "name": "sender",
          "type": "address"
        },
        {
          "indexed": true,
          "internalType": "address",
          "name": "user",
          "type": "address"
        },
        {
          "indexed": false,
          "internalType": "uint256",
          "name": "margin",
          "type": "uint256"
        },
        {
          "indexed": false,
          "internalType": "uint256",
          "name": "newMargin",
          "type": "uint256"
        },
        {
          "indexed": false,
          "internalType": "uint256",
          "name": "newLeverage",
          "type": "uint256"
        }
      ],
      "name": "AddMargin",
      "type": "event"
    },
    {
      "anonymous": false,
      "inputs": [
        {
          "indexed": false,
          "internalType": "address",
          "name": "oracle",
          "type": "address"
        },
        {
          "indexed": false,
          "internalType": "address",
          "name": "feeCalculator",
          "type": "address"
        },
        {
          "indexed": false,
          "internalType": "address",
          "name": "fundingManager",
          "type": "address"
        }
      ],
      "name": "AddressesSet",
      "type": "event"
    },
    {
      "anonymous": false,
      "inputs": [
        {
          "indexed": true,
          "internalType": "uint256",
          "name": "positionId",
          "type": "uint256"
        },
        {
          "indexed": true,
          "internalType": "address",
          "name": "user",
          "type": "address"
        },
        {
          "indexed": true,
          "internalType": "uint256",
          "name": "productId",
          "type": "uint256"
        },
        {
          "indexed": false,
          "internalType": "uint256",
          "name": "price",
          "type": "uint256"
        },
        {
          "indexed": false,
          "internalType": "uint256",
          "name": "entryPrice",
          "type": "uint256"
        },
        {
          "indexed": false,
          "internalType": "uint256",
          "name": "margin",
          "type": "uint256"
        },
        {
          "indexed": false,
          "internalType": "uint256",
          "name": "leverage",
          "type": "uint256"
        },
        {
          "indexed": false,
          "internalType": "uint256",
          "name": "fee",
          "type": "uint256"
        },
        {
          "indexed": false,
          "internalType": "int256",
          "name": "pnl",
          "type": "int256"
        },
        {
          "indexed": false,
          "internalType": "int256",
          "name": "fundingPayment",
          "type": "int256"
        },
        {
          "indexed": false,
          "internalType": "bool",
          "name": "wasLiquidated",
          "type": "bool"
        }
      ],
      "name": "ClosePosition",
      "type": "event"
    },
    {
      "anonymous": false,
      "inputs": [
        {
          "indexed": false,
          "internalType": "address",
          "name": "newGov",
          "type": "address"
        }
      ],
      "name": "GovUpdated",
      "type": "event"
    },
    {
      "anonymous": false,
      "inputs": [
        {
          "indexed": false,
          "internalType": "address",
          "name": "newGuardian",
          "type": "address"
        }
      ],
      "name": "GuardianUpdated",
      "type": "event"
    },
    {
      "anonymous": false,
      "inputs": [
        {
          "indexed": true,
          "internalType": "uint256",
          "name": "positionId",
          "type": "uint256"
        },
        {
          "indexed": true,
          "internalType": "address",
          "name": "user",
          "type": "address"
        },
        {
          "indexed": true,
          "internalType": "uint256",
          "name": "productId",
          "type": "uint256"
        },
        {
          "indexed": false,
          "internalType": "bool",
          "name": "isLong",
          "type": "bool"
        },
        {
          "indexed": false,
          "internalType": "uint256",
          "name": "price",
          "type": "uint256"
        },
        {
          "indexed": false,
          "internalType": "uint256",
          "name": "oraclePrice",
          "type": "uint256"
        },
        {
          "indexed": false,
          "internalType": "uint256",
          "name": "margin",
          "type": "uint256"
        },
        {
          "indexed": false,
          "internalType": "uint256",
          "name": "leverage",
          "type": "uint256"
        },
        {
          "indexed": false,
          "internalType": "uint256",
          "name": "fee",
          "type": "uint256"
        },
        {
          "indexed": false,
          "internalType": "bool",
          "name": "isNextPrice",
          "type": "bool"
        },
        {
          "indexed": false,
          "internalType": "int256",
          "name": "funding",
          "type": "int256"
        }
      ],
      "name": "NewPosition",
      "type": "event"
    },
    {
      "anonymous": false,
      "inputs": [
        {
          "indexed": false,
          "internalType": "address",
          "name": "newOwner",
          "type": "address"
        }
      ],
      "name": "OwnerUpdated",
      "type": "event"
    },
    {
      "anonymous": false,
      "inputs": [
        {
          "indexed": false,
          "internalType": "address",
          "name": "to",
          "type": "address"
        },
        {
          "indexed": false,
          "internalType": "uint256",
          "name": "amount",
          "type": "uint256"
        }
      ],
      "name": "PikaRewardDistributed",
      "type": "event"
    },
    {
      "anonymous": false,
      "inputs": [
        {
          "indexed": true,
          "internalType": "uint256",
          "name": "positionId",
          "type": "uint256"
        },
        {
          "indexed": true,
          "internalType": "address",
          "name": "liquidator",
          "type": "address"
        },
        {
          "indexed": false,
          "internalType": "uint256",
          "name": "liquidatorReward",
          "type": "uint256"
        },
        {
          "indexed": false,
          "internalType": "uint256",
          "name": "remainingReward",
          "type": "uint256"
        }
      ],
      "name": "PositionLiquidated",
      "type": "event"
    },
    {
      "anonymous": false,
      "inputs": [
        {
          "indexed": false,
          "internalType": "uint256",
          "name": "productId",
          "type": "uint256"
        },
        {
          "components": [
            {
              "internalType": "address",
              "name": "productToken",
              "type": "address"
            },
            {
              "internalType": "uint72",
              "name": "maxLeverage",
              "type": "uint72"
            },
            {
              "internalType": "uint16",
              "name": "fee",
              "type": "uint16"
            },
            {
              "internalType": "bool",
              "name": "isActive",
              "type": "bool"
            },
            {
              "internalType": "uint64",
              "name": "openInterestLong",
              "type": "uint64"
            },
            {
              "internalType": "uint64",
              "name": "openInterestShort",
              "type": "uint64"
            },
            {
              "internalType": "uint32",
              "name": "minPriceChange",
              "type": "uint32"
            },
            {
              "internalType": "uint32",
              "name": "weight",
              "type": "uint32"
            },
            {
              "internalType": "uint64",
              "name": "reserve",
              "type": "uint64"
            }
          ],
          "indexed": false,
          "internalType": "struct PikaPerpV3.Product",
          "name": "product",
          "type": "tuple"
        }
      ],
      "name": "ProductAdded",
      "type": "event"
    },
    {
      "anonymous": false,
      "inputs": [
        {
          "indexed": false,
          "internalType": "uint256",
          "name": "productId",
          "type": "uint256"
        },
        {
          "components": [
            {
              "internalType": "address",
              "name": "productToken",
              "type": "address"
            },
            {
              "internalType": "uint72",
              "name": "maxLeverage",
              "type": "uint72"
            },
            {
              "internalType": "uint16",
              "name": "fee",
              "type": "uint16"
            },
            {
              "internalType": "bool",
              "name": "isActive",
              "type": "bool"
            },
            {
              "internalType": "uint64",
              "name": "openInterestLong",
              "type": "uint64"
            },
            {
              "internalType": "uint64",
              "name": "openInterestShort",
              "type": "uint64"
            },
            {
              "internalType": "uint32",
              "name": "minPriceChange",
              "type": "uint32"
            },
            {
              "internalType": "uint32",
              "name": "weight",
              "type": "uint32"
            },
            {
              "internalType": "uint64",
              "name": "reserve",
              "type": "uint64"
            }
          ],
          "indexed": false,
          "internalType": "struct PikaPerpV3.Product",
          "name": "product",
          "type": "tuple"
        }
      ],
      "name": "ProductUpdated",
      "type": "event"
    },
    {
      "anonymous": false,
      "inputs": [
        {
          "indexed": false,
          "internalType": "address",
          "name": "to",
          "type": "address"
        },
        {
          "indexed": false,
          "internalType": "uint256",
          "name": "amount",
          "type": "uint256"
        }
      ],
      "name": "ProtocolRewardDistributed",
      "type": "event"
    },
    {
      "anonymous": false,
      "inputs": [
        {
          "indexed": true,
          "internalType": "address",
          "name": "user",
          "type": "address"
        },
        {
          "indexed": true,
          "internalType": "address",
          "name": "receiver",
          "type": "address"
        },
        {
          "indexed": false,
          "internalType": "uint256",
          "name": "amount",
          "type": "uint256"
        },
        {
          "indexed": false,
          "internalType": "uint256",
          "name": "shares",
          "type": "uint256"
        },
        {
          "indexed": false,
          "internalType": "uint256",
          "name": "shareBalance",
          "type": "uint256"
        },
        {
          "indexed": false,
          "internalType": "bool",
          "name": "isFullRedeem",
          "type": "bool"
        }
      ],
      "name": "Redeemed",
      "type": "event"
    },
    {
      "anonymous": false,
      "inputs": [
        {
          "indexed": true,
          "internalType": "address",
          "name": "user",
          "type": "address"
        },
        {
          "indexed": false,
          "internalType": "uint256",
          "name": "amount",
          "type": "uint256"
        },
        {
          "indexed": false,
          "internalType": "uint256",
          "name": "shares",
          "type": "uint256"
        }
      ],
      "name": "Staked",
      "type": "event"
    },
    {
      "anonymous": false,
      "inputs": [
        {
          "indexed": false,
          "internalType": "address",
          "name": "to",
          "type": "address"
        },
        {
          "indexed": false,
          "internalType": "uint256",
          "name": "amount",
          "type": "uint256"
        }
      ],
      "name": "VaultRewardDistributed",
      "type": "event"
    },
    {
      "anonymous": false,
      "inputs": [
        {
          "components": [
            {
              "internalType": "uint128",
              "name": "cap",
              "type": "uint128"
            },
            {
              "internalType": "uint128",
              "name": "balance",
              "type": "uint128"
            },
            {
              "internalType": "uint96",
              "name": "staked",
              "type": "uint96"
            },
            {
              "internalType": "uint96",
              "name": "shares",
              "type": "uint96"
            },
            {
              "internalType": "uint64",
              "name": "stakingPeriod",
              "type": "uint64"
            }
          ],
          "indexed": false,
          "internalType": "struct PikaPerpV3.Vault",
          "name": "vault",
          "type": "tuple"
        }
      ],
      "name": "VaultUpdated",
      "type": "event"
    },
    {
      "inputs": [
        {
          "internalType": "address",
          "name": "",
          "type": "address"
        },
        {
          "internalType": "address",
          "name": "",
          "type": "address"
        }
      ],
      "name": "approvedManagers",
      "outputs": [
        {
          "internalType": "bool",
          "name": "",
          "type": "bool"
        }
      ],
      "stateMutability": "view",
      "type": "function",
      "constant": true
    },
    {
      "inputs": [],
      "name": "exposureMultiplier",
      "outputs": [
        {
          "internalType": "uint256",
          "name": "",
          "type": "uint256"
        }
      ],
      "stateMutability": "view",
      "type": "function",
      "constant": true
    },
    {
      "inputs": [],
      "name": "feeCalculator",
      "outputs": [
        {
          "internalType": "address",
          "name": "",
          "type": "address"
        }
      ],
      "stateMutability": "view",
      "type": "function",
      "constant": true
    },
    {
      "inputs": [],
      "name": "fundingManager",
      "outputs": [
        {
          "internalType": "address",
          "name": "",
          "type": "address"
        }
      ],
      "stateMutability": "view",
      "type": "function",
      "constant": true
    },
    {
      "inputs": [],
      "name": "gov",
      "outputs": [
        {
          "internalType": "address",
          "name": "",
          "type": "address"
        }
      ],
      "stateMutability": "view",
      "type": "function",
      "constant": true
    },
    {
      "inputs": [],
      "name": "guardian",
      "outputs": [
        {
          "internalType": "address",
          "name": "",
          "type": "address"
        }
      ],
      "stateMutability": "view",
      "type": "function",
      "constant": true
    },
    {
      "inputs": [],
      "name": "liquidationThreshold",
      "outputs": [
        {
          "internalType": "uint256",
          "name": "",
          "type": "uint256"
        }
      ],
      "stateMutability": "view",
      "type": "function",
      "constant": true
    },
    {
      "inputs": [
        {
          "internalType": "address",
          "name": "",
          "type": "address"
        }
      ],
      "name": "liquidators",
      "outputs": [
        {
          "internalType": "bool",
          "name": "",
          "type": "bool"
        }
      ],
      "stateMutability": "view",
      "type": "function",
      "constant": true
    },
    {
      "inputs": [
        {
          "internalType": "address",
          "name": "",
          "type": "address"
        }
      ],
      "name": "managers",
      "outputs": [
        {
          "internalType": "bool",
          "name": "",
          "type": "bool"
        }
      ],
      "stateMutability": "view",
      "type": "function",
      "constant": true
    },
    {
      "inputs": [],
      "name": "maxExposureMultiplier",
      "outputs": [
        {
          "internalType": "uint256",
          "name": "",
          "type": "uint256"
        }
      ],
      "stateMutability": "view",
      "type": "function",
      "constant": true
    },
    {
      "inputs": [],
      "name": "maxShift",
      "outputs": [
        {
          "internalType": "uint256",
          "name": "",
          "type": "uint256"
        }
      ],
      "stateMutability": "view",
      "type": "function",
      "constant": true
    },
    {
      "inputs": [],
      "name": "minMargin",
      "outputs": [
        {
          "internalType": "uint256",
          "name": "",
          "type": "uint256"
        }
      ],
      "stateMutability": "view",
      "type": "function",
      "constant": true
    },
    {
      "inputs": [],
      "name": "minProfitTime",
      "outputs": [
        {
          "internalType": "uint256",
          "name": "",
          "type": "uint256"
        }
      ],
      "stateMutability": "view",
      "type": "function",
      "constant": true
    },
    {
      "inputs": [
        {
          "internalType": "address",
          "name": "",
          "type": "address"
        }
      ],
      "name": "nextPriceManagers",
      "outputs": [
        {
          "internalType": "bool",
          "name": "",
          "type": "bool"
        }
      ],
      "stateMutability": "view",
      "type": "function",
      "constant": true
    },
    {
      "inputs": [],
      "name": "oracle",
      "outputs": [
        {
          "internalType": "address",
          "name": "",
          "type": "address"
        }
      ],
      "stateMutability": "view",
      "type": "function",
      "constant": true
    },
    {
      "inputs": [],
      "name": "owner",
      "outputs": [
        {
          "internalType": "address",
          "name": "",
          "type": "address"
        }
      ],
      "stateMutability": "view",
      "type": "function",
      "constant": true
    },
    {
      "inputs": [],
      "name": "pikaRewardDistributor",
      "outputs": [
        {
          "internalType": "address",
          "name": "",
          "type": "address"
        }
      ],
      "stateMutability": "view",
      "type": "function",
      "constant": true
    },
    {
      "inputs": [],
      "name": "pikaRewardRatio",
      "outputs": [
        {
          "internalType": "uint256",
          "name": "",
          "type": "uint256"
        }
      ],
      "stateMutability": "view",
      "type": "function",
      "constant": true
    },
    {
      "inputs": [],
      "name": "protocolRewardDistributor",
      "outputs": [
        {
          "internalType": "address",
          "name": "",
          "type": "address"
        }
      ],
      "stateMutability": "view",
      "type": "function",
      "constant": true
    },
    {
      "inputs": [],
      "name": "protocolRewardRatio",
      "outputs": [
        {
          "internalType": "uint256",
          "name": "",
          "type": "uint256"
        }
      ],
      "stateMutability": "view",
      "type": "function",
      "constant": true
    },
    {
      "inputs": [],
      "name": "shiftDivider",
      "outputs": [
        {
          "internalType": "uint256",
          "name": "",
          "type": "uint256"
        }
      ],
      "stateMutability": "view",
      "type": "function",
      "constant": true
    },
    {
      "inputs": [],
      "name": "totalOpenInterest",
      "outputs": [
        {
          "internalType": "uint256",
          "name": "",
          "type": "uint256"
        }
      ],
      "stateMutability": "view",
      "type": "function",
      "constant": true
    },
    {
      "inputs": [],
      "name": "totalWeight",
      "outputs": [
        {
          "internalType": "uint256",
          "name": "",
          "type": "uint256"
        }
      ],
      "stateMutability": "view",
      "type": "function",
      "constant": true
    },
    {
      "inputs": [],
      "name": "utilizationMultiplier",
      "outputs": [
        {
          "internalType": "uint256",
          "name": "",
          "type": "uint256"
        }
      ],
      "stateMutability": "view",
      "type": "function",
      "constant": true
    },
    {
      "inputs": [],
      "name": "vaultRewardDistributor",
      "outputs": [
        {
          "internalType": "address",
          "name": "",
          "type": "address"
        }
      ],
      "stateMutability": "view",
      "type": "function",
      "constant": true
    },
    {
      "inputs": [],
      "name": "vaultTokenReward",
      "outputs": [
        {
          "internalType": "address",
          "name": "",
          "type": "address"
        }
      ],
      "stateMutability": "view",
      "type": "function",
      "constant": true
    },
    {
      "inputs": [
        {
          "internalType": "uint256",
          "name": "amount",
          "type": "uint256"
        },
        {
          "internalType": "address",
          "name": "user",
          "type": "address"
        }
      ],
      "name": "stake",
      "outputs": [],
      "stateMutability": "payable",
      "type": "function",
      "payable": true
    },
    {
      "inputs": [
        {
          "internalType": "address",
          "name": "user",
          "type": "address"
        },
        {
          "internalType": "uint256",
          "name": "shares",
          "type": "uint256"
        },
        {
          "internalType": "address",
          "name": "receiver",
          "type": "address"
        }
      ],
      "name": "redeem",
      "outputs": [],
      "stateMutability": "nonpayable",
      "type": "function"
    },
    {
      "inputs": [
        {
          "internalType": "address",
          "name": "user",
          "type": "address"
        },
        {
          "internalType": "uint256",
          "name": "productId",
          "type": "uint256"
        },
        {
          "internalType": "uint256",
          "name": "margin",
          "type": "uint256"
        },
        {
          "internalType": "bool",
          "name": "isLong",
          "type": "bool"
        },
        {
          "internalType": "uint256",
          "name": "leverage",
          "type": "uint256"
        }
      ],
      "name": "openPosition",
      "outputs": [],
      "stateMutability": "payable",
      "type": "function",
      "payable": true
    },
    {
      "inputs": [
        {
          "internalType": "uint256",
          "name": "positionId",
          "type": "uint256"
        },
        {
          "internalType": "uint256",
          "name": "margin",
          "type": "uint256"
        }
      ],
      "name": "addMargin",
      "outputs": [],
      "stateMutability": "payable",
      "type": "function",
      "payable": true
    },
    {
      "inputs": [
        {
          "internalType": "address",
          "name": "user",
          "type": "address"
        },
        {
          "internalType": "uint256",
          "name": "productId",
          "type": "uint256"
        },
        {
          "internalType": "uint256",
          "name": "margin",
          "type": "uint256"
        },
        {
          "internalType": "bool",
          "name": "isLong",
          "type": "bool"
        }
      ],
      "name": "closePosition",
      "outputs": [],
      "stateMutability": "nonpayable",
      "type": "function"
    },
    {
      "inputs": [
        {
          "internalType": "uint256",
          "name": "positionId",
          "type": "uint256"
        },
        {
          "internalType": "uint256",
          "name": "margin",
          "type": "uint256"
        }
      ],
      "name": "closePositionWithId",
      "outputs": [],
      "stateMutability": "nonpayable",
      "type": "function"
    },
    {
      "inputs": [
        {
          "internalType": "uint256[]",
          "name": "positionIds",
          "type": "uint256[]"
        }
      ],
      "name": "liquidatePositions",
      "outputs": [],
      "stateMutability": "nonpayable",
      "type": "function"
    },
    {
      "inputs": [],
      "name": "distributeProtocolReward",
      "outputs": [
        {
          "internalType": "uint256",
          "name": "",
          "type": "uint256"
        }
      ],
      "stateMutability": "nonpayable",
      "type": "function"
    },
    {
      "inputs": [],
      "name": "distributePikaReward",
      "outputs": [
        {
          "internalType": "uint256",
          "name": "",
          "type": "uint256"
        }
      ],
      "stateMutability": "nonpayable",
      "type": "function"
    },
    {
      "inputs": [],
      "name": "distributeVaultReward",
      "outputs": [
        {
          "internalType": "uint256",
          "name": "",
          "type": "uint256"
        }
      ],
      "stateMutability": "nonpayable",
      "type": "function"
    },
    {
      "inputs": [],
      "name": "getPendingPikaReward",
      "outputs": [
        {
          "internalType": "uint256",
          "name": "",
          "type": "uint256"
        }
      ],
      "stateMutability": "view",
      "type": "function",
      "constant": true
    },
    {
      "inputs": [],
      "name": "getPendingProtocolReward",
      "outputs": [
        {
          "internalType": "uint256",
          "name": "",
          "type": "uint256"
        }
      ],
      "stateMutability": "view",
      "type": "function",
      "constant": true
    },
    {
      "inputs": [],
      "name": "getPendingVaultReward",
      "outputs": [
        {
          "internalType": "uint256",
          "name": "",
          "type": "uint256"
        }
      ],
      "stateMutability": "view",
      "type": "function",
      "constant": true
    },
    {
      "inputs": [],
      "name": "getVault",
      "outputs": [
        {
          "components": [
            {
              "internalType": "uint128",
              "name": "cap",
              "type": "uint128"
            },
            {
              "internalType": "uint128",
              "name": "balance",
              "type": "uint128"
            },
            {
              "internalType": "uint96",
              "name": "staked",
              "type": "uint96"
            },
            {
              "internalType": "uint96",
              "name": "shares",
              "type": "uint96"
            },
            {
              "internalType": "uint64",
              "name": "stakingPeriod",
              "type": "uint64"
            }
          ],
          "internalType": "struct PikaPerpV3.Vault",
          "name": "",
          "type": "tuple"
        }
      ],
      "stateMutability": "view",
      "type": "function",
      "constant": true
    },
    {
      "inputs": [
        {
          "internalType": "uint256",
          "name": "productId",
          "type": "uint256"
        }
      ],
      "name": "getProduct",
      "outputs": [
        {
          "internalType": "address",
          "name": "",
          "type": "address"
        },
        {
          "internalType": "uint256",
          "name": "",
          "type": "uint256"
        },
        {
          "internalType": "uint256",
          "name": "",
          "type": "uint256"
        },
        {
          "internalType": "bool",
          "name": "",
          "type": "bool"
        },
        {
          "internalType": "uint256",
          "name": "",
          "type": "uint256"
        },
        {
          "internalType": "uint256",
          "name": "",
          "type": "uint256"
        },
        {
          "internalType": "uint256",
          "name": "",
          "type": "uint256"
        },
        {
          "internalType": "uint256",
          "name": "",
          "type": "uint256"
        },
        {
          "internalType": "uint256",
          "name": "",
          "type": "uint256"
        }
      ],
      "stateMutability": "view",
      "type": "function",
      "constant": true
    },
    {
      "inputs": [
        {
          "internalType": "address",
          "name": "account",
          "type": "address"
        },
        {
          "internalType": "uint256",
          "name": "productId",
          "type": "uint256"
        },
        {
          "internalType": "bool",
          "name": "isLong",
          "type": "bool"
        }
      ],
      "name": "getPositionId",
      "outputs": [
        {
          "internalType": "uint256",
          "name": "",
          "type": "uint256"
        }
      ],
      "stateMutability": "pure",
      "type": "function",
      "constant": true
    },
    {
      "inputs": [
        {
          "internalType": "address",
          "name": "account",
          "type": "address"
        },
        {
          "internalType": "uint256",
          "name": "productId",
          "type": "uint256"
        },
        {
          "internalType": "bool",
          "name": "isLong",
          "type": "bool"
        }
      ],
      "name": "getPosition",
      "outputs": [
        {
          "internalType": "uint256",
          "name": "",
          "type": "uint256"
        },
        {
          "internalType": "uint256",
          "name": "",
          "type": "uint256"
        },
        {
          "internalType": "uint256",
          "name": "",
          "type": "uint256"
        },
        {
          "internalType": "uint256",
          "name": "",
          "type": "uint256"
        },
        {
          "internalType": "uint256",
          "name": "",
          "type": "uint256"
        },
        {
          "internalType": "address",
          "name": "",
          "type": "address"
        },
        {
          "internalType": "uint256",
          "name": "",
          "type": "uint256"
        },
        {
          "internalType": "bool",
          "name": "",
          "type": "bool"
        },
        {
          "internalType": "int256",
          "name": "",
          "type": "int256"
        }
      ],
      "stateMutability": "view",
      "type": "function",
      "constant": true
    },
    {
      "inputs": [
        {
          "internalType": "uint256[]",
          "name": "positionIds",
          "type": "uint256[]"
        }
      ],
      "name": "getPositions",
      "outputs": [
        {
          "components": [
            {
              "internalType": "uint64",
              "name": "productId",
              "type": "uint64"
            },
            {
              "internalType": "uint64",
              "name": "leverage",
              "type": "uint64"
            },
            {
              "internalType": "uint64",
              "name": "price",
              "type": "uint64"
            },
            {
              "internalType": "uint64",
              "name": "oraclePrice",
              "type": "uint64"
            },
            {
              "internalType": "uint128",
              "name": "margin",
              "type": "uint128"
            },
            {
              "internalType": "int128",
              "name": "funding",
              "type": "int128"
            },
            {
              "internalType": "address",
              "name": "owner",
              "type": "address"
            },
            {
              "internalType": "bool",
              "name": "isLong",
              "type": "bool"
            },
            {
              "internalType": "bool",
              "name": "isNextPrice",
              "type": "bool"
            },
            {
              "internalType": "uint80",
              "name": "timestamp",
              "type": "uint80"
            }
          ],
          "internalType": "struct PikaPerpV3.Position[]",
          "name": "_positions",
          "type": "tuple[]"
        }
      ],
      "stateMutability": "view",
      "type": "function",
      "constant": true
    },
    {
      "inputs": [
        {
          "internalType": "uint256",
          "name": "productWeight",
          "type": "uint256"
        }
      ],
      "name": "getMaxExposure",
      "outputs": [
        {
          "internalType": "uint256",
          "name": "",
          "type": "uint256"
        }
      ],
      "stateMutability": "view",
      "type": "function",
      "constant": true
    },
    {
      "inputs": [],
      "name": "getTotalShare",
      "outputs": [
        {
          "internalType": "uint256",
          "name": "",
          "type": "uint256"
        }
      ],
      "stateMutability": "view",
      "type": "function",
      "constant": true
    },
    {
      "inputs": [
        {
          "internalType": "address",
          "name": "stakeOwner",
          "type": "address"
        }
      ],
      "name": "getShare",
      "outputs": [
        {
          "internalType": "uint256",
          "name": "",
          "type": "uint256"
        }
      ],
      "stateMutability": "view",
      "type": "function",
      "constant": true
    },
    {
      "inputs": [
        {
          "internalType": "address",
          "name": "stakeOwner",
          "type": "address"
        }
      ],
      "name": "getStake",
      "outputs": [
        {
          "components": [
            {
              "internalType": "address",
              "name": "owner",
              "type": "address"
            },
            {
              "internalType": "uint96",
              "name": "amount",
              "type": "uint96"
            },
            {
              "internalType": "uint128",
              "name": "shares",
              "type": "uint128"
            },
            {
              "internalType": "uint128",
              "name": "timestamp",
              "type": "uint128"
            }
          ],
          "internalType": "struct PikaPerpV3.Stake",
          "name": "",
          "type": "tuple"
        }
      ],
      "stateMutability": "view",
      "type": "function",
      "constant": true
    },
    {
      "inputs": [
        {
          "components": [
            {
              "internalType": "uint128",
              "name": "cap",
              "type": "uint128"
            },
            {
              "internalType": "uint128",
              "name": "balance",
              "type": "uint128"
            },
            {
              "internalType": "uint96",
              "name": "staked",
              "type": "uint96"
            },
            {
              "internalType": "uint96",
              "name": "shares",
              "type": "uint96"
            },
            {
              "internalType": "uint64",
              "name": "stakingPeriod",
              "type": "uint64"
            }
          ],
          "internalType": "struct PikaPerpV3.Vault",
          "name": "_vault",
          "type": "tuple"
        }
      ],
      "name": "updateVault",
      "outputs": [],
      "stateMutability": "nonpayable",
      "type": "function"
    },
    {
      "inputs": [
        {
          "internalType": "uint256",
          "name": "productId",
          "type": "uint256"
        },
        {
          "components": [
            {
              "internalType": "address",
              "name": "productToken",
              "type": "address"
            },
            {
              "internalType": "uint72",
              "name": "maxLeverage",
              "type": "uint72"
            },
            {
              "internalType": "uint16",
              "name": "fee",
              "type": "uint16"
            },
            {
              "internalType": "bool",
              "name": "isActive",
              "type": "bool"
            },
            {
              "internalType": "uint64",
              "name": "openInterestLong",
              "type": "uint64"
            },
            {
              "internalType": "uint64",
              "name": "openInterestShort",
              "type": "uint64"
            },
            {
              "internalType": "uint32",
              "name": "minPriceChange",
              "type": "uint32"
            },
            {
              "internalType": "uint32",
              "name": "weight",
              "type": "uint32"
            },
            {
              "internalType": "uint64",
              "name": "reserve",
              "type": "uint64"
            }
          ],
          "internalType": "struct PikaPerpV3.Product",
          "name": "_product",
          "type": "tuple"
        }
      ],
      "name": "addProduct",
      "outputs": [],
      "stateMutability": "nonpayable",
      "type": "function"
    },
    {
      "inputs": [
        {
          "internalType": "uint256",
          "name": "productId",
          "type": "uint256"
        },
        {
          "components": [
            {
              "internalType": "address",
              "name": "productToken",
              "type": "address"
            },
            {
              "internalType": "uint72",
              "name": "maxLeverage",
              "type": "uint72"
            },
            {
              "internalType": "uint16",
              "name": "fee",
              "type": "uint16"
            },
            {
              "internalType": "bool",
              "name": "isActive",
              "type": "bool"
            },
            {
              "internalType": "uint64",
              "name": "openInterestLong",
              "type": "uint64"
            },
            {
              "internalType": "uint64",
              "name": "openInterestShort",
              "type": "uint64"
            },
            {
              "internalType": "uint32",
              "name": "minPriceChange",
              "type": "uint32"
            },
            {
              "internalType": "uint32",
              "name": "weight",
              "type": "uint32"
            },
            {
              "internalType": "uint64",
              "name": "reserve",
              "type": "uint64"
            }
          ],
          "internalType": "struct PikaPerpV3.Product",
          "name": "_product",
          "type": "tuple"
        }
      ],
      "name": "updateProduct",
      "outputs": [],
      "stateMutability": "nonpayable",
      "type": "function"
    },
    {
      "inputs": [
        {
          "internalType": "address",
          "name": "_protocolRewardDistributor",
          "type": "address"
        },
        {
          "internalType": "address",
          "name": "_pikaRewardDistributor",
          "type": "address"
        },
        {
          "internalType": "address",
          "name": "_vaultRewardDistributor",
          "type": "address"
        },
        {
          "internalType": "address",
          "name": "_vaultTokenReward",
          "type": "address"
        }
      ],
      "name": "setDistributors",
      "outputs": [],
      "stateMutability": "nonpayable",
      "type": "function"
    },
    {
      "inputs": [
        {
          "internalType": "address",
          "name": "_manager",
          "type": "address"
        },
        {
          "internalType": "bool",
          "name": "_isActive",
          "type": "bool"
        }
      ],
      "name": "setManager",
      "outputs": [],
      "stateMutability": "nonpayable",
      "type": "function"
    },
    {
      "inputs": [
        {
          "internalType": "address",
          "name": "_manager",
          "type": "address"
        },
        {
          "internalType": "bool",
          "name": "_isActive",
          "type": "bool"
        }
      ],
      "name": "setAccountManager",
      "outputs": [],
      "stateMutability": "nonpayable",
      "type": "function"
    },
    {
      "inputs": [
        {
          "internalType": "uint256",
          "name": "_protocolRewardRatio",
          "type": "uint256"
        },
        {
          "internalType": "uint256",
          "name": "_pikaRewardRatio",
          "type": "uint256"
        }
      ],
      "name": "setRewardRatio",
      "outputs": [],
      "stateMutability": "nonpayable",
      "type": "function"
    },
    {
      "inputs": [
        {
          "internalType": "uint256",
          "name": "_minMargin",
          "type": "uint256"
        }
      ],
      "name": "setMinMargin",
      "outputs": [],
      "stateMutability": "nonpayable",
      "type": "function"
    },
    {
      "inputs": [
        {
          "internalType": "bool",
          "name": "_isTradeEnabled",
          "type": "bool"
        }
      ],
      "name": "setTradeEnabled",
      "outputs": [],
      "stateMutability": "nonpayable",
      "type": "function"
    },
    {
      "inputs": [
        {
          "internalType": "uint256",
          "name": "_maxShift",
          "type": "uint256"
        },
        {
          "internalType": "uint256",
          "name": "_minProfitTime",
          "type": "uint256"
        },
        {
          "internalType": "bool",
          "name": "_canUserStake",
          "type": "bool"
        },
        {
          "internalType": "bool",
          "name": "_allowPublicLiquidator",
          "type": "bool"
        },
        {
          "internalType": "bool",
          "name": "_isManagerOnlyForOpen",
          "type": "bool"
        },
        {
          "internalType": "bool",
          "name": "_isManagerOnlyForClose",
          "type": "bool"
        },
        {
          "internalType": "uint256",
          "name": "_exposureMultiplier",
          "type": "uint256"
        },
        {
          "internalType": "uint256",
          "name": "_utilizationMultiplier",
          "type": "uint256"
        },
        {
          "internalType": "uint256",
          "name": "_maxExposureMultiplier",
          "type": "uint256"
        },
        {
          "internalType": "uint256",
          "name": "_liquidationBounty",
          "type": "uint256"
        },
        {
          "internalType": "uint256",
          "name": "_liquidationThreshold",
          "type": "uint256"
        },
        {
          "internalType": "uint256",
          "name": "_shiftDivider",
          "type": "uint256"
        }
      ],
      "name": "setParameters",
      "outputs": [],
      "stateMutability": "nonpayable",
      "type": "function"
    },
    {
      "inputs": [
        {
          "internalType": "address",
          "name": "_oracle",
          "type": "address"
        },
        {
          "internalType": "address",
          "name": "_feeCalculator",
          "type": "address"
        },
        {
          "internalType": "address",
          "name": "_fundingManager",
          "type": "address"
        }
      ],
      "name": "setAddresses",
      "outputs": [],
      "stateMutability": "nonpayable",
      "type": "function"
    },
    {
      "inputs": [
        {
          "internalType": "address",
          "name": "_liquidator",
          "type": "address"
        },
        {
          "internalType": "bool",
          "name": "_isActive",
          "type": "bool"
        }
      ],
      "name": "setLiquidator",
      "outputs": [],
      "stateMutability": "nonpayable",
      "type": "function"
    },
    {
      "inputs": [
        {
          "internalType": "address",
          "name": "_nextPriceManager",
          "type": "address"
        },
        {
          "internalType": "bool",
          "name": "_isActive",
          "type": "bool"
        }
      ],
      "name": "setNextPriceManager",
      "outputs": [],
      "stateMutability": "nonpayable",
      "type": "function"
    },
    {
      "inputs": [
        {
          "internalType": "address",
          "name": "_owner",
          "type": "address"
        }
      ],
      "name": "setOwner",
      "outputs": [],
      "stateMutability": "nonpayable",
      "type": "function"
    },
    {
      "inputs": [
        {
          "internalType": "address",
          "name": "_guardian",
          "type": "address"
        }
      ],
      "name": "setGuardian",
      "outputs": [],
      "stateMutability": "nonpayable",
      "type": "function"
    },
    {
      "inputs": [
        {
          "internalType": "address",
          "name": "_gov",
          "type": "address"
        }
      ],
      "name": "setGov",
      "outputs": [],
      "stateMutability": "nonpayable",
      "type": "function"
    },
    {
      "inputs": [],
      "name": "pauseTrading",
      "outputs": [],
      "stateMutability": "nonpayable",
      "type": "function"
    }
  ],
  "bytecode": "0x60806040526107d0600e55610bb8600f55620493e0601055615460601155612710601381905560145560036015819055611388601655611f40601755601c55601d805464ffffffffff1916620100011790553480156200005e57600080fd5b5060405162005ddc38038062005ddc83398101604081905262000081916200013b565b600160008190558054336001600160a01b0319918216811790925560028054821683179055600380548216831790556004805482166001600160a01b03988916179055600c9590955560058054861694871694909417909355600a8054851692861692909217909155600b8054841691909416179092556006805482168317905560078054821683179055600880549091169091179055620001a2565b80516001600160a01b03811681146200013657600080fd5b919050565b600080600080600060a086880312156200015457600080fd5b6200015f866200011e565b94506020860151935062000176604087016200011e565b925062000186606087016200011e565b915062000196608087016200011e565b90509295509295909350565b615c2a80620001b26000396000f3fe6080604052600436106103cd5760003560e01c80637f47a102116101fd578063bc95baad11610118578063d48788b9116100ab578063e19a60e11161007a578063e19a60e114610e73578063ef88f45614610e89578063f90cdb3614610ea9578063fbb48bc114610ed9578063fdff9b4d14610eee57600080fd5b8063d48788b914610e07578063d5c73dab14610e27578063d65fe35514610e3d578063d9ac422514610e5d57600080fd5b8063cd84db09116100e7578063cd84db0914610d9e578063cfad57a214610dbe578063d41194b814610dde578063d468e2a914610df157600080fd5b8063bc95baad14610ce6578063bdced6d514610d55578063be73ca5714610d6b578063bed5755414610d7e57600080fd5b806396c82e5711610190578063a5e90eee1161015f578063a5e90eee14610b40578063b00eb9fe14610b60578063b7eddbe714610b80578063b9db15b414610bb057600080fd5b806396c82e5714610ad457806396f7938414610aea578063a0448fc514610b0a578063a082cdd214610b2057600080fd5b80638c10ad1b116101cc5780638c10ad1b146109775780638d928af81461098c5780638da5cb5b14610a9457806392187a2714610ab457600080fd5b80637f47a102146108ce57806381a3daca14610921578063841a4b51146109415780638a0dac4a1461095757600080fd5b80634031234c116102ed5780635b382989116102805780636e20c3b41161024f5780636e20c3b41461078a5780637a7664601461079f5780637acb77571461089b5780637dc0d1d0146108ae57600080fd5b80635b3829891461071e5780635c833bfd146107345780635f3b2180146107545780636a04dd221461076a57600080fd5b80634c723c28116102bc5780634c723c28146106915780634d452ec0146106be578063560fdef9146106de5780635828a437146106fe57600080fd5b80634031234c146105f95780634453a3741461060f578063452a93201461062f5780634b3ab9c51461064f57600080fd5b80631ea8c3a71161036557806339c294be1161033457806339c294be146105895780633bec2bf31461059f5780633ee19763146105bf5780633f06cd66146105d457600080fd5b80631ea8c3a7146105115780631fbeef4e146105345780632cc2734114610549578063363bf9641461056957600080fd5b806312d43a51116103a157806312d43a511461049157806313af4035146104b157806316ebb015146104d15780631ba93844146104f157600080fd5b80621b7934146103d257806304baed9e146103f45780630cf7d564146104315780631031e36e1461047c575b600080fd5b3480156103de57600080fd5b506103f26103ed3660046155c7565b610f1e565b005b34801561040057600080fd5b50600b54610414906001600160a01b031681565b6040516001600160a01b0390911681526020015b60405180910390f35b34801561043d57600080fd5b5061046c61044c366004615144565b602660209081526000928352604080842090915290825290205460ff1681565b6040519015158152602001610428565b34801561048857600080fd5b506103f2610f49565b34801561049d57600080fd5b50600354610414906001600160a01b031681565b3480156104bd57600080fd5b506103f26104cc366004615129565b610f9f565b3480156104dd57600080fd5b506103f26104ec3660046154ee565b610ffc565b3480156104fd57600080fd5b50600854610414906001600160a01b031681565b34801561051d57600080fd5b506105266113d0565b604051908152602001610428565b34801561054057600080fd5b50610526611498565b34801561055557600080fd5b506103f26105643660046154b2565b611556565b34801561057557600080fd5b506103f2610584366004615177565b611563565b34801561059557600080fd5b50610526600d5481565b3480156105ab57600080fd5b506103f26105ba3660046153c4565b6115e7565b3480156105cb57600080fd5b50610526611634565b3480156105e057600080fd5b50601f54600160601b90046001600160601b0316610526565b34801561060557600080fd5b5061052660175481565b34801561061b57600080fd5b506103f261062a36600461520e565b61165a565b34801561063b57600080fd5b50600254610414906001600160a01b031681565b34801561065b57600080fd5b5061052661066a366004615129565b6001600160a01b03166000908152602160205260409020600101546001600160801b031690565b34801561069d57600080fd5b506106b16106ac366004615350565b61168d565b6040516104289190615741565b3480156106ca57600080fd5b506103f26106d9366004615350565b61185b565b3480156106ea57600080fd5b506103f26106f93660046152b8565b611951565b34801561070a57600080fd5b506105266107193660046154b2565b61196b565b34801561072a57600080fd5b5061052660145481565b34801561074057600080fd5b506103f261074f366004615245565b6119bc565b34801561076057600080fd5b50610526600e5481565b34801561077657600080fd5b506103f261078536600461520e565b611dcb565b34801561079657600080fd5b50610526611dfe565b3480156107ab57600080fd5b506108496107ba366004615129565b604080516080810182526000808252602082018190529181018290526060810191909152506001600160a01b03908116600090815260216020908152604091829020825160808101845281549485168152600160a01b9094046001600160601b031691840191909152600101546001600160801b0380821692840192909252600160801b900416606082015290565b6040805182516001600160a01b031681526020808401516001600160601b031690820152828201516001600160801b039081169282019290925260609283015190911691810191909152608001610428565b6103f26108a93660046154cb565b611e15565b3480156108ba57600080fd5b50600554610414906001600160a01b031681565b3480156108da57600080fd5b506103f26108e936600461520e565b3360009081526026602090815260408083206001600160a01b0395909516835293905291909120805460ff1916911515919091179055565b34801561092d57600080fd5b50600754610414906001600160a01b031681565b34801561094d57600080fd5b5061052660135481565b34801561096357600080fd5b506103f2610972366004615129565b61224d565b34801561098357600080fd5b506105266122a3565b34801561099857600080fd5b50610a2d6040805160a081018252600080825260208201819052918101829052606081018290526080810191909152506040805160a081018252601e546001600160801b038082168352600160801b909104166020820152601f546001600160601b0380821693830193909352600160601b81049092166060820152600160c01b9091046001600160401b0316608082015290565b6040516104289190600060a0820190506001600160801b038084511683528060208501511660208401525060408301516001600160601b03808216604085015280606086015116606085015250506001600160401b03608084015116608083015292915050565b348015610aa057600080fd5b50600154610414906001600160a01b031681565b348015610ac057600080fd5b506103f2610acf3660046154ee565b6122ba565b348015610ae057600080fd5b5061052660125481565b348015610af657600080fd5b506103f2610b053660046155e9565b61247b565b348015610b1657600080fd5b5061052660105481565b348015610b2c57600080fd5b506103f2610b3b3660046151ba565b612546565b348015610b4c57600080fd5b506103f2610b5b36600461520e565b61259e565b348015610b6c57600080fd5b50600a54610414906001600160a01b031681565b348015610b8c57600080fd5b5061046c610b9b366004615129565b60246020526000908152604090205460ff1681565b348015610bbc57600080fd5b50610c98610bcb3660046154b2565b6000908152602080805260409182902082516101208101845281546001600160a01b038116808352600160a01b8083046001600160481b0316958401869052600160e81b830461ffff16968401879052600160f81b90920460ff161515606084018190526001909401546001600160401b0380821660808601819052600160401b8304821660a08701819052600160801b840463ffffffff90811660c089018190529685041660e08801819052600160c01b90940490921661010090960186905292989697969294909392565b604080516001600160a01b03909a168a5260208a0198909852968801959095529215156060870152608086019190915260a085015260c084015260e083015261010082015261012001610428565b348015610cf257600080fd5b50610d06610d01366004615278565b6125d1565b60408051998a5260208a019890985296880195909552606087019390935260808601919091526001600160a01b031660a085015260c0840152151560e083015261010082015261012001610428565b348015610d6157600080fd5b50610526601c5481565b6103f2610d79366004615300565b612833565b348015610d8a57600080fd5b50600654610414906001600160a01b031681565b348015610daa57600080fd5b506103f2610db93660046155c7565b613171565b348015610dca57600080fd5b506103f2610dd9366004615129565b61372a565b6103f2610dec3660046155c7565b613780565b348015610dfd57600080fd5b50610526601b5481565b348015610e1357600080fd5b50600954610414906001600160a01b031681565b348015610e3357600080fd5b5061052660155481565b348015610e4957600080fd5b50610526610e58366004615278565b61397b565b348015610e6957600080fd5b5061052660115481565b348015610e7f57600080fd5b50610526600f5481565b348015610e9557600080fd5b506103f2610ea4366004615417565b6139d2565b348015610eb557600080fd5b5061046c610ec4366004615129565b60236020526000908152604090205460ff1681565b348015610ee557600080fd5b50610526613aea565b348015610efa57600080fd5b5061046c610f09366004615129565b60256020526000908152604090205460ff1681565b610f26613ba8565b612710610f338284615944565b1115610f3e57600080fd5b600e91909155600f55565b6002546001600160a01b03163314610f915760405162461bcd60e51b81526020600482015260066024820152650859dd585c9960d21b60448201526064015b60405180910390fd5b601d805462ff00ff19169055565b610fa7613bed565b600180546001600160a01b0319166001600160a01b0383169081179091556040519081527f4ffd725fc4a22075e9ec71c59edf9c38cdeb588a91b24fc5b61388c5be41282b906020015b60405180910390a150565b611004613ba8565b6000821161104c5760405162461bcd60e51b81526020600482015260156024820152740726571756972652070726f647563744964203e203605c1b6044820152606401610f88565b6000828152602080805260409182902082516101208101845281546001600160a01b0381168252600160a01b8082046001600160481b0316948301859052600160e81b820461ffff1695830195909552600160f81b900460ff16151560608201526001909101546001600160401b038082166080840152600160401b8204811660a0840152600160801b820463ffffffff90811660c085015294820490941660e0830152600160c01b900490921661010083015215801561112757506111176305f5e1006001615a67565b82602001516001600160481b0316115b801561113c575081516001600160a01b031615155b61114557600080fd5b60405180610120016040528083600001516001600160a01b0316815260200183602001516001600160481b03168152602001836040015161ffff16815260200160011515815260200160006001600160401b0316815260200160006001600160401b031681526020018360c0015163ffffffff1681526020018360e0015163ffffffff1681526020018361010001516001600160401b03168152506020600085815260200190815260200160002060008201518160000160006101000a8154816001600160a01b0302191690836001600160a01b0316021790555060208201518160000160146101000a8154816001600160481b0302191690836001600160481b03160217905550604082015181600001601d6101000a81548161ffff021916908361ffff160217905550606082015181600001601f6101000a81548160ff02191690831515021790555060808201518160010160006101000a8154816001600160401b0302191690836001600160401b0316021790555060a08201518160010160086101000a8154816001600160401b0302191690836001600160401b0316021790555060c08201518160010160106101000a81548163ffffffff021916908363ffffffff16021790555060e08201518160010160146101000a81548163ffffffff021916908363ffffffff1602179055506101008201518160010160186101000a8154816001600160401b0302191690836001600160401b031602179055509050508160e0015163ffffffff166012546113819190615944565b60125560008381526020805260409081902090517fae1599937d786915756d636f19bbbde0f7561e39f29395e714035fee6eb8a655916113c39186919061588c565b60405180910390a1505050565b6007546000906001600160a01b031633146113fd5760405162461bcd60e51b8152600401610f889061586d565b60006305f5e100600c546019546114149190615a67565b61141e91906159ce565b6019549091501561149357600060195560075460045461144b916001600160a01b03918216911683613c30565b600754604080516001600160a01b039092168252602082018390527f304116b7df0fff49d35547e731489e0e2f288bf99c5293f5fb4697671108280d91015b60405180910390a15b919050565b6006546000906001600160a01b031633146114c55760405162461bcd60e51b8152600401610f889061586d565b60006305f5e100600c546018546114dc9190615a67565b6114e691906159ce565b60185490915015611493576000601855600654600454611513916001600160a01b03918216911683613c30565b600654604080516001600160a01b039092168252602082018390527ffbbb21b60e499f2366d8f9dbdb1884e047dcf008673ee2c189b6153bfacc06e8910161148a565b61155e613ba8565b600d55565b61156b613ba8565b600580546001600160a01b038581166001600160a01b03199283168117909355600a80548683169084168117909155600b8054928616929093168217909255604080519384526020840192909252908201527ffa46f045092280873921fe7e8bd94f64c996911a0bae60b09d487935b9117e7a906060016113c3565b6001546001600160a01b031633148061160f57503360009081526025602052604090205460ff165b61161857600080fd5b601d8054911515620100000262ff000019909216919091179055565b60006305f5e100600c54601a5461164b9190615a67565b61165591906159ce565b905090565b611662613ba8565b6001600160a01b03919091166000908152602360205260409020805460ff1916911515919091179055565b606081806001600160401b038111156116a8576116a8615bcd565b60405190808252806020026020018201604052801561172757816020015b604080516101408101825260008082526020808301829052928201819052606082018190526080820181905260a0820181905260c0820181905260e08201819052610100820181905261012082015282526000199092019101816116c65790505b50915060005b81811015611853576022600086868481811061174b5761174b615bb7565b6020908102929092013583525081810192909252604090810160002081516101408101835281546001600160401b038082168352600160401b8204811695830195909552600160801b808204861694830194909452600160c01b9004909316606084015260018101546001600160801b038116608085015291909104600f90810b810b900b60a0830152600201546001600160a01b03811660c083015260ff600160a01b82048116151560e0840152600160a81b82041615156101008301526001600160501b03600160b01b90910416610120820152835184908390811061183557611835615bb7565b6020026020010181905250808061184b90615b70565b91505061172d565b505092915050565b3360009081526023602052604090205460ff16806118805750601d54610100900460ff165b6118ba5760405162461bcd60e51b815260206004820152600b60248201526a10b634b8bab4b230ba37b960a91b6044820152606401610f88565b6000805b828110156119115760008484838181106118da576118da615bb7565b90506020020135905060006118ee82613c93565b90506118fa8185615944565b93505050808061190990615b70565b9150506118be565b50801561194c5761194c336305f5e100600c548461192f9190615a67565b61193991906159ce565b6004546001600160a01b03169190613c30565b505050565b61196561195f85858461397b565b83613171565b50505050565b601254601354601e54600092612710929091611998908690600160801b90046001600160801b0316615a67565b6119a29190615a67565b6119ac91906159ce565b6119b691906159ce565b92915050565b601f54600160601b90046001600160601b031682118015906119f457506001600160a01b0383163314806119f457506119f483614119565b611a2a5760405162461bcd60e51b81526020600482015260076024820152662172656465656d60c81b6044820152606401610f88565b6001600160a01b038316600090815260216020526040902060018101546001600160801b03168310801590611a6a5760018201546001600160801b031693505b6001820154600090611a8c90600160801b90046001600160801b031642615aed565b601f54909150600160c01b90046001600160401b03168111611ada5760405162461bcd60e51b8152602060048201526007602482015266085c195c9a5bd960ca1b6044820152606401610f88565b601f54601e54600091600160601b90046001600160601b031690611b0e90600160801b90046001600160801b031688615a67565b611b1891906159ce565b600185015485549192506000916001600160801b0390911690611b4b90600160a01b90046001600160601b031689615a67565b611b5591906159ce565b855490915081908690601490611b7c908490600160a01b90046001600160601b0316615b24565b92506101000a8154816001600160601b0302191690836001600160601b03160217905550868560010160008282829054906101000a90046001600160801b0316611bc69190615ac5565b92506101000a8154816001600160801b0302191690836001600160801b0316021790555080601e60010160008282829054906101000a90046001600160601b0316611c119190615b24565b92506101000a8154816001600160601b0302191690836001600160601b0316021790555086601e600101600c8282829054906101000a90046001600160601b0316611c5c9190615b24565b92506101000a8154816001600160601b0302191690836001600160601b0316021790555081601e60000160108282829054906101000a90046001600160801b0316611ca79190615ac5565b82546101009290920a6001600160801b03818102199093169183160217909155601454601e546127109350611ce492600160801b90910416615a67565b611cee91906159ce565b601b541115611d2b5760405162461bcd60e51b8152602060048201526009602482015268085d5d1a5b1a5e995960ba1b6044820152606401610f88565b8315611d51576001600160a01b0388166000908152602160205260408120818155600101555b611d68866305f5e100600c548561192f9190615a67565b604080518281526020810189905290810183905284151560608201526001600160a01b0380881691908a16907f30206d71da61810927dedb2756551723d7c2db787080c7b18eee56883a6b8ce89060800160405180910390a35050505050505050565b611dd3613ba8565b6001600160a01b03919091166000908152602460205260409020805460ff1916911515919091179055565b60006305f5e100600c5460195461164b9190615a67565b611e1d61415d565b601d5460ff1680611e3857506001546001600160a01b031633145b8015611e5a5750336001600160a01b0382161480611e5a5750611e5a81614119565b611e8f5760405162461bcd60e51b8152602060048201526006602482015265217374616b6560d01b6044820152606401610f88565b611ec533306305f5e100600c5486611ea79190615a67565b611eb191906159ce565b6004546001600160a01b03169291906141b7565b601e54601f546001600160801b0390911690611eeb9084906001600160601b0316615944565b1115611f225760405162461bcd60e51b8152600401610f88906020808252600490820152630216361760e41b604082015260600190565b601f546000906001600160601b0316611f3b5782611f77565b601e54601f54600160801b9091046001600160801b031690611f6d90600160601b90046001600160601b031685615a67565b611f7791906159ce565b601e80549192508491601090611f9e908490600160801b90046001600160801b0316615919565b92506101000a8154816001600160801b0302191690836001600160801b0316021790555082601e60010160008282829054906101000a90046001600160601b0316611fe9919061597e565b92506101000a8154816001600160601b0302191690836001600160601b0316021790555080601e600101600c8282829054906101000a90046001600160601b0316612034919061597e565b82546101009290920a6001600160601b038181021990931691831602179091556001600160a01b038416600090815260216020526040902054600160a01b9004161515905061210357604080516080810182526001600160a01b038085168083526001600160601b0380881660208086019182526001600160801b0380891687890190815242821660608901908152600096875260219093529790942095519151909216600160a01b029316929092178355925190518316600160801b029216919091176001909101556121fa565b6001600160a01b0382166000908152602160205260409020805484919060149061213e908490600160a01b90046001600160601b031661597e565b82546001600160601b039182166101009390930a9283029190920219909116179055506001600160a01b038216600090815260216020526040812060010180548392906121959084906001600160801b0316615919565b92506101000a8154816001600160801b0302191690836001600160801b031602179055506121c282614119565b6121fa576001600160a01b038216600090815260216020526040902060010180546001600160801b03428116600160801b0291161790555b60408051848152602081018390526001600160a01b038416917f1449c6dd7851abc30abf37f57715f492010519147cc2652fbc38202c18a6ee90910160405180910390a2506122496001600055565b5050565b612255613bed565b600280546001600160a01b0319166001600160a01b0383169081179091556040519081527f6bb7ff33e730289800c62ad882105a144a74010d2bdbb9a942544a3005ad55bf90602001610ff1565b60006305f5e100600c5460185461164b9190615a67565b6122c2613ba8565b600082116122cf57600080fd5b600082815260208052604090208054600160a01b90046001600160481b03161580159061231757506123066305f5e1006001615a67565b82602001516001600160481b031610155b801561232c575081516001600160a01b031615155b61233557600080fd5b815181546020840151604085015160608601516001600160a01b039094166001600160e81b031990931692909217600160a01b6001600160481b039092168202176001600160e81b0316600160e81b61ffff909316929092026001600160f81b031691909117600160f81b9215159290920291909117825560c083015160018301805463ffffffff60801b1916600160801b63ffffffff93841602179081905560e0850151601254908316936123f093920490911690615aed565b6123fa9190615944565b60125560e08201516001820180546101008501516001600160401b0316600160c01b026001600160c01b0363ffffffff909416600160a01b02939093166001600160a01b03909116179190911790556040517f9df0507ff2ae29bd255288700609934436e327efda151e41849aa6bdd84dde27906113c3908590849061588c565b612483613ba8565b620f42408c111580156124995750620151808b11155b80156124a55750600081115b80156124b2575061138882115b80156124be5750600084115b6124c757600080fd5b60109b909b55601199909955601d80549515156401000000000264ff00000000199715156301000000029790971664ffff000000199815156101000261ff00199a15159a909a1661ffff199097169690961798909817969096169390931793909317909455601393909355601455601591909155601655601755601c55565b61254e613ba8565b600680546001600160a01b039586166001600160a01b0319918216179091556007805494861694821694909417909355600880549285169284169290921790915560098054919093169116179055565b6125a6613ba8565b6001600160a01b03919091166000908152602560205260409020805460ff1916911515919091179055565b600080600080600080600080600080602260006125ef8f8f8f61397b565b8152602001908152602001600020604051806101400160405290816000820160009054906101000a90046001600160401b03166001600160401b03166001600160401b031681526020016000820160089054906101000a90046001600160401b03166001600160401b03166001600160401b031681526020016000820160109054906101000a90046001600160401b03166001600160401b03166001600160401b031681526020016000820160189054906101000a90046001600160401b03166001600160401b03166001600160401b031681526020016001820160009054906101000a90046001600160801b03166001600160801b03166001600160801b031681526020016001820160109054906101000a9004600f0b600f0b600f0b81526020016002820160009054906101000a90046001600160a01b03166001600160a01b03166001600160a01b031681526020016002820160149054906101000a900460ff161515151581526020016002820160159054906101000a900460ff161515151581526020016002820160169054906101000a90046001600160501b03166001600160501b03166001600160501b031681525050905080600001516001600160401b031681602001516001600160401b031682604001516001600160401b031683606001516001600160401b031684608001516001600160801b03168560c001518661012001516001600160501b03168760e001518860a0015180600f0b90509950995099509950995099509950995099505093979b92969a50939750939750565b61283b61415d565b61284485614119565b8061286c5750601d546301000000900460ff1615801561286c57506001600160a01b03851633145b6128885760405162461bcd60e51b8152600401610f889061584b565b601d5462010000900460ff166128cb5760405162461bcd60e51b815260206004820152600860248201526708595b98589b195960c21b6044820152606401610f88565b600d5483101580156128e357506001600160401b0383105b6129195760405162461bcd60e51b815260206004820152600760248201526610b6b0b933b4b760c91b6044820152606401610f88565b6129286305f5e1006001615a67565b8110156129605760405162461bcd60e51b8152600401610f889060208082526004908201526310b632bb60e11b604082015260600190565b600084815260208052604090208054600160f81b900460ff166129af5760405162461bcd60e51b81526020600482015260076024820152662161637469766560c81b6044820152606401610f88565b8054600160a01b90046001600160481b03168211156129fb5760405162461bcd60e51b815260206004820152600860248201526710b6b0bc16b632bb60c11b6044820152606401610f88565b8054600a54600091612a2d918791869161ffff600160e81b830416916001600160a01b03908116918d913391166141ef565b9050612a5233306305f5e100600c54858a612a489190615944565b611ea79190615a67565b612a5b816142c6565b81546001830154600091612ad7916001600160a01b039091169087906001600160401b0380821691600160401b810490911690612aa490600160a01b900463ffffffff1661196b565b6001890154600160c01b90046001600160401b03166305f5e100612ac88c8f615a67565b612ad291906159ce565b614362565b9050612afe876305f5e100612aec878a615a67565b612af691906159ce565b87600161452c565b600b54604051633afb52f560e21b8152600481018990526000916001600160a01b03169063ebed4bd49060240160206040518083038186803b158015612b4357600080fd5b505afa158015612b57573d6000803e3d6000fd5b505050506040513d601f19601f82011682018060405250810190612b7b91906153fe565b9050600060226000612b8e8c8c8b61397b565b8152602081019190915260400160002060018101549091506001600160801b031615612d8b57612bbe8689615a67565b81546001830154612be891600160401b90046001600160401b0316906001600160801b0316615a67565b612bf29190615944565b83612bfd888b615a67565b612c079190615a67565b825460018401546001600160401b03600160801b8304811692612c3e92600160401b909104909116906001600160801b0316615a67565b612c489190615a67565b612c529190615944565b612c5c91906159ce565b9250612c688689615a67565b81546001830154612c9291600160401b90046001600160401b0316906001600160801b03166159e2565b612c9c91906158d8565b82612ca7888b615a67565b612cb191906159e2565b60018301548354600160801b8204600f90810b900b91612cea91600160401b90046001600160401b0316906001600160801b03166159e2565b612cf491906159e2565b612cfe91906158d8565b612d0891906159a0565b6001820154909250612d249089906001600160801b0316615944565b612d2e878a615a67565b82546001840154612d5891600160401b90046001600160401b0316906001600160801b0316615a67565b612d629190615944565b612d6c91906159ce565b6001820154909650612d889089906001600160801b0316615944565b97505b60408051610140810182526001600160401b038b811682528881166020830152851681830152600554875492516341976e0960e01b81526001600160a01b039384166004820152919260608401929116906341976e099060240160206040518083038186803b158015612dfd57600080fd5b505afa158015612e11573d6000803e3d6000fd5b505050506040513d601f19601f82011682018060405250810190612e3591906153fe565b6001600160401b031681526001600160801b03808b166020830152600f85900b60408301526001600160a01b038d1660608301528915156080830152600184015460a0909201911615612eb5576002830154600160a81b900460ff1615612eae573360009081526024602052604090205460ff16612ec9565b6000612ec9565b3360009081526024602052604090205460ff165b15158152602001426001600160501b031681525060226000612eec8d8d8c61397b565b8152602080820192909252604090810160002083518154938501519285015160608601516001600160401b03908116600160c01b026001600160c01b03928216600160801b908102939093166001600160801b03968316600160401b026001600160801b0319909816929094169190911795909517841691909117939093178155608084015160a0850151600f0b83169093029290911691909117600182015560c08201516002909101805460e0840151610100850151610120909501516001600160501b0316600160b01b026001600160b01b03951515600160a81b02959095166001600160a81b03911515600160a01b026001600160a81b03199093166001600160a01b03958616179290921716179290921790915589908b166130138c838b61397b565b60055488546040516341976e0960e01b81526001600160a01b0391821660048201527ff0179f06d5592030053869d8d0ae508420786cda1b88f04f1611215f029a35ab928d928a929116906341976e099060240160206040518083038186803b15801561307f57600080fd5b505afa158015613093573d6000803e3d6000fd5b505050506040513d601f19601f820116820180604052508101906130b791906153fe565b60018801548f908e908d906001600160801b0316156131035760028b0154600160a81b900460ff16156130fc573360009081526024602052604090205460ff16613117565b6000613117565b3360009081526024602052604090205460ff165b6040805197151588526020880196909652948601939093526060850191909152608084015260a0830152151560c082015260e081018790526101000160405180910390a4505050505061316a6001600055565b5050505050565b61317961415d565b6000828152602260205260409020600281015461319e906001600160a01b0316614119565b806131cb5750601d54640100000000900460ff161580156131cb575060028101546001600160a01b031633145b6132005760405162461bcd60e51b815260206004820152600660248201526521636c6f736560d01b6044820152606401610f88565b80546001600160401b03166000908152602080526040812060018301549091906001600160801b0316841061324257506001808301546001600160801b031693505b8154600284015460018401546000926132c9926001600160a01b0390911691600160a01b9182900460ff1615916001600160401b0380831692600160401b810490911691613296910463ffffffff1661196b565b60018901548a546001600160401b03600160c01b9092048216916305f5e10091612ac891600160401b909104168e615a67565b8454909150613316906001600160401b03808216916305f5e100916132f691600160401b90041689615a67565b61330091906159ce565b6002870154600160a01b900460ff16600061452c565b600b5460028501548554600187015460009361336e936001600160a01b0390911692600160a01b90910460ff16916001600160401b0380831692600160401b900416908b90600160801b9004600f90810b900b6148bf565b6002860154865491925060009183916133af91600160a01b90910460ff1690600160801b81046001600160401b0390811691600160401b9004168b88614a40565b6133b99190615a86565b9050600080821280156133f15750612710601754896133d89190615a67565b6133e291906159ce565b6133ee836000196159e2565b10155b1561341d5760018701546001600160801b03169750613412886000196159e2565b915060019050613539565b6000821380156134fd57506002870154875460055488546040516341976e0960e01b81526001600160a01b0391821660048201526134fb94600160a01b810460ff1694600160b01b9091046001600160501b031693600160c01b9091046001600160401b03169216906341976e099060240160206040518083038186803b1580156134a757600080fd5b505afa1580156134bb573d6000803e3d6000fd5b505050506040513d601f19601f820116820180604052508101906134df91906153fe565b60018b0154601154600160801b90910463ffffffff1690614b50565b155b801561352f57506002870154600160a81b900460ff16158061352f57503360009081526024602052604090205460ff16155b1561353957600091505b604080516101408101825288546001600160401b038082168352600160401b820481166020840152600160801b808304821694840194909452600160c01b90910416606082015260018901546001600160801b038116608083015291909104600f90810b810b900b60a082015260028801546001600160a01b0380821660c0840152600160a01b820460ff908116151560e0850152600160a81b8304161515610100840152600160b01b9091046001600160501b031661012083015287546000926136149286928d91600160e81b820461ffff169116614beb565b885460028a0154604080518981526001600160401b03600160801b8504811660208301529181018e9052600160401b8404821660608201526080810185905260a0810188905260c0810189905286151560e0820152939450909116916001600160a01b03909116908c907f980658f6b65b51ce7d353bc2f9110e33617a69ab8dd85ed76e70546542ebea25906101000160405180910390a485156136d35760008a81526022602052604081208181556001810182905560020155613718565b6001880180548a91906000906136f39084906001600160801b0316615ac5565b92506101000a8154816001600160801b0302191690836001600160801b031602179055505b50505050505050506122496001600055565b613732613bed565b600380546001600160a01b0319166001600160a01b0383169081179091556040519081527fb49a738bf7c18189b8cd3a6cd9d2b44045ca8070a4fa7e9db46ecfcbedee6bd990602001610ff1565b61378861415d565b6137a033306305f5e100600c5485611ea79190615a67565b600d548110156137dc5760405162461bcd60e51b815260206004820152600760248201526610b6b0b933b4b760c91b6044820152606401610f88565b600082815260226020526040902060028101546001600160a01b031633148061381757506002810154613817906001600160a01b0316614119565b6138335760405162461bcd60e51b8152600401610f889061584b565b600181015460009061384f9084906001600160801b0316615944565b600183015483549192506000918391613883916001600160801b0390911690600160401b90046001600160401b0316615a67565b61388d91906159ce565b905061389e6305f5e1006001615a67565b8110156138d85760405162461bcd60e51b815260206004820152600860248201526710b637bb96b632bb60c11b6044820152606401610f88565b6001830180546001600160801b0319166001600160801b038416179055825467ffffffffffffffff60401b1916600160401b6001600160401b03831602178355600283015460408051868152602081018590529081018390526001600160a01b0390911690339087907f52886499ee3ba77a4723fcad28056225444bfac6cfd378dbfbca0d67af42c4d89060600160405180910390a45050506122496001600055565b6040516bffffffffffffffffffffffff19606085901b1660208201526034810183905281151560f81b60548201526000906055016040516020818303038152906040528051906020012060001c90505b9392505050565b6139da613ba8565b80516001600160801b031615801590613a005750600081608001516001600160401b0316115b8015613a1b575062278d0081608001516001600160401b0316105b613a375760405162461bcd60e51b8152600401610f889061584b565b8051601e80546001600160801b039092166001600160801b0319909216821790819055608080840151601f80546001600160401b03909216600160c01b026001600160c01b0383168117918290556040805196875294841c60208701526001600160601b039283169083161793850193909352606083811c9091169084015260c09190911c908201527f2d9cc21237ea57f9e0e36a44c912e0029cbd58e3fd16cd8fdee450927308cb839060a001610ff1565b6008546000906001600160a01b03163314613b175760405162461bcd60e51b8152600401610f889061586d565b60006305f5e100600c54601a54613b2e9190615a67565b613b3891906159ce565b601a5490915015611493576000601a55600854600454613b65916001600160a01b03918216911683613c30565b600854604080516001600160a01b039092168252602082018390527f19ffdf6391d49bb1730b3f4d19c279b1275dddf2a4e981af93b1099c111369e6910161148a565b6001546001600160a01b03163314613beb5760405162461bcd60e51b815260206004820152600660248201526510b7bbb732b960d11b6044820152606401610f88565b565b6003546001600160a01b03163314613beb5760405162461bcd60e51b8152600401610f889060208082526004908201526310b3b7bb60e11b604082015260600190565b6040516001600160a01b03831660248201526044810182905261194c90849063a9059cbb60e01b906064015b60408051601f198184030181529190526020810180516001600160e01b03166001600160e01b031990931692909217909152614e36565b600081815260226020526040812080546001600160401b0316613cb95750600092915050565b80546001600160401b03166000908152602080526040808220600554815492516341976e0960e01b81526001600160a01b03938416600482015291939216906341976e099060240160206040518083038186803b158015613d1957600080fd5b505afa158015613d2d573d6000803e3d6000fd5b505050506040513d601f19601f82011682018060405250810190613d5191906153fe565b83546001850154919250600091613d90916001600160401b03808216926305f5e100926132f692600160401b90910416906001600160801b0316615a67565b600b54600285015485546001870154600093613df1936001600160a01b0390911692600160a01b90910460ff16916001600160401b0380831692600160401b900416906001600160801b03811690600160801b9004600f90810b900b6148bf565b6002860154865460018801549293506000928492613e4092600160a01b90910460ff1691600160801b82046001600160401b0390811692600160401b900416906001600160801b031689614a40565b613e4a9190615a86565b9050600081128015613e8e5750601754600187015461271091613e75916001600160801b0316615a67565b613e7f91906159ce565b613e8b826000196159e2565b10155b613ec75760405162461bcd60e51b815260206004820152600a602482015269216c697175696461746560b01b6044820152606401610f88565b613ed3816000196159e2565b60018701546001600160801b03161115613fae576000613ef5826000196159e2565b601654600189015491925061271091613f189084906001600160801b0316615aed565b613f229190615a67565b613f2c91906159ce565b60018801549098508890613f4a9083906001600160801b0316615aed565b613f549190615aed565b9350613f5f846142c6565b601e8054829190601090613f84908490600160801b90046001600160801b0316615919565b92506101000a8154816001600160801b0302191690836001600160801b0316021790555050613ffe565b6001860154601e80546001600160801b0392831692601091613fd9918591600160801b900416615919565b92506101000a8154816001600160801b0302191690836001600160801b031602179055505b8554600287015460018801546001600160401b03808416936001600160a01b03909316928c927f980658f6b65b51ce7d353bc2f9110e33617a69ab8dd85ed76e70546542ebea25928a92600160801b81048216926001600160801b031691600160401b909104166000614073836000196159e2565b604080519687526020870195909552938501929092526060840152608083015260a082015260c08101879052600160e08201526101000160405180910390a460008881526022602090815260408083208381556001810184905560020192909255815189815290810185905233918a917f6f7734c2b603545392ede46279193d0b944bffb5d4c822bb78cd37eb6c2aadc9910160405180910390a3505050505050919050565b3360009081526025602052604081205460ff1680156119b65750506001600160a01b0316600090815260266020908152604080832033845290915290205460ff1690565b600260005414156141b05760405162461bcd60e51b815260206004820152601f60248201527f5265656e7472616e637947756172643a207265656e7472616e742063616c6c006044820152606401610f88565b6002600055565b6040516001600160a01b03808516602483015283166044820152606481018290526119659085906323b872dd60e01b90608401613c5c565b6040516333a3a92d60e11b81526001600160a01b03858116600483015260248201879052848116604483015283811660648301526000918291841690636747525a9060840160206040518083038186803b15801561424c57600080fd5b505afa158015614260573d6000803e3d6000fd5b505050506040513d601f19601f8201168201806040525081019061428491906153fe565b9050612710816305f5e1006142998b8d615a67565b6142a391906159ce565b6142ad9190615a67565b6142b791906159ce565b9150505b979650505050505050565b612710600e54826142d79190615a67565b6142e191906159ce565b6018546142ee9190615944565b601855600f54612710906143029083615a67565b61430c91906159ce565b6019546143199190615944565b601955600f54600e5461271091906143319083615aed565b61433b9190615aed565b6143459083615a67565b61434f91906159ce565b601a5461435c9190615944565b601a5550565b6005546040516341976e0960e01b81526001600160a01b03898116600483015260009283929116906341976e099060240160206040518083038186803b1580156143ab57600080fd5b505afa1580156143bf573d6000803e3d6000fd5b505050506040513d601f19601f820116820180604052508101906143e391906153fe565b9050600085601054888a6143f79190615a86565b61440191906159e2565b61440b91906159a0565b905088156144ba576000846305f5e100876144268382615aed565b6144308a80615a67565b61443a91906159ce565b6144449190615aed565b61444e9190615a67565b61445891906159ce565b9050600082121561448b57601c54614472836000196159e2565b61447c91906159ce565b6144869082615aed565b614495565b6144958282615944565b90506305f5e1006144a68285615a67565b6144b091906159ce565b93505050506142bb565b6000846305f5e1006144cc8289615944565b6144d68980615a67565b6144e091906159ce565b6144ea9089615aed565b6144f49190615a67565b6144fe91906159ce565b905060008212156145155761447c826000196159e2565b601c5461452290836159ce565b6144959082615944565b600b54604051636ea9f13960e01b8152600481018690526001600160a01b0390911690636ea9f13990602401600060405180830381600087803b15801561457257600080fd5b505af1158015614586573d6000803e3d6000fd5b50505060008581526020805260409020905081156147d75783601b546145ac9190615944565b601b5560018101546000906145cd90600160a01b900463ffffffff1661196b565b601454601e54919250612710916145f49190600160801b90046001600160801b0316615a67565b6145fe91906159ce565b601b54111580156146475750806015546146189190615a67565b6001830154869061463b906001600160401b03600160401b820481169116615944565b6146459190615944565b105b61467c5760405162461bcd60e51b8152602060048201526006602482015265216d61784f4960d01b6044820152606401610f88565b831561472157600182015461469b9086906001600160401b031661595c565b60018301805467ffffffffffffffff19166001600160401b0392831617908190556146cf91600160401b9091041682615944565b60018301546001600160401b0316111561471c5760405162461bcd60e51b815260206004820152600e60248201526d216578706f737572652d6c6f6e6760901b6044820152606401610f88565b6147d1565b6001820154614741908690600160401b90046001600160401b031661595c565b6001830180546001600160401b03928316600160401b0267ffffffffffffffff60401b198216811790925561477c9291821691161782615944565b6001830154600160401b90046001600160401b031611156147d15760405162461bcd60e51b815260206004820152600f60248201526e08595e1c1bdcdd5c994b5cda1bdc9d608a1b6044820152606401610f88565b5061316a565b83601b546147e59190615aed565b601b5582156148635760018101546001600160401b0316841161484b576001810180548591906000906148229084906001600160401b0316615b04565b92506101000a8154816001600160401b0302191690836001600160401b0316021790555061316a565b60018101805467ffffffffffffffff1916905561316a565b6001810154600160401b90046001600160401b031684116148a457838160010160088282829054906101000a90046001600160401b03166148229190615b04565b600101805467ffffffffffffffff60401b1916905550505050565b60008561497e576148d964e8d4a510006305f5e100615a67565b604051633afb52f560e21b8152600481018790526001600160a01b0389169063ebed4bd49060240160206040518083038186803b15801561491957600080fd5b505afa15801561492d573d6000803e3d6000fd5b505050506040513d601f19601f8201168201806040525081019061495191906153fe565b61495b9084615a86565b6149658686615a67565b61496f91906159e2565b61497991906159a0565b614a33565b61499164e8d4a510006305f5e100615a67565b604051633afb52f560e21b81526004810187905283906001600160a01b038a169063ebed4bd49060240160206040518083038186803b1580156149d357600080fd5b505afa1580156149e7573d6000803e3d6000fd5b505050506040513d601f19601f82011682018060405250810190614a0b91906153fe565b614a159190615a86565b614a1f8686615a67565b614a2991906159e2565b614a3391906159a0565b90505b9695505050505050565b60008060008715614ad457868410614a91576305f5e10087614a628187615aed565b614a6c8989615a67565b614a769190615a67565b614a8091906159ce565b614a8a91906159ce565b9050614b27565b6305f5e10087614aa18682615aed565b614aab8989615a67565b614ab59190615a67565b614abf91906159ce565b614ac991906159ce565b905060019150614b27565b86841115614aec576305f5e10087614aa18187615aed565b6305f5e10087614afc8682615aed565b614b068989615a67565b614b109190615a67565b614b1a91906159ce565b614b2491906159ce565b90505b8115614b4057614b39816000196159e2565b9250614b44565b8092505b50505b95945050505050565b6000614b5c8287615944565b421115614b6b57506001614a36565b868015614b975750612710614b808482615944565b614b8a9087615a67565b614b9491906159ce565b84115b15614ba457506001614a36565b86158015614bd15750612710614bba8482615aed565b614bc49087615a67565b614bce91906159ce565b84105b15614bde57506001614a36565b5060009695505050505050565b600080614c238587602001516001600160401b031686868a60c0015133600a60009054906101000a90046001600160a01b03166141ef565b90506000614c318289615a86565b90506000811215614d22576000614c4a826000196159e2565b905086811015614cc857614c7a8860c001516305f5e100600c54848b614c709190615aed565b61192f9190615a67565b601e8054829190601090614c9f908490600160801b90046001600160801b0316615919565b92506101000a8154816001600160801b0302191690836001600160801b03160217905550614d1c565b601e8054889190601090614ced908490600160801b90046001600160801b0316615919565b92506101000a8154816001600160801b0302191690836001600160801b03160217905550829350505050614b47565b50614dd6565b601e548190600160801b90046001600160801b0316811115614d6f5760405162461bcd60e51b8152600401610f88906020808252600490820152630858985b60e21b604082015260600190565b601e8054829190601090614d94908490600160801b90046001600160801b0316615ac5565b92506101000a8154816001600160801b0302191690836001600160801b03160217905550614dd48860c001516305f5e100600c54848b614c709190615944565b505b614ddf826142c6565b601e8054839190601090614e04908490600160801b90046001600160801b0316615ac5565b92506101000a8154816001600160801b0302191690836001600160801b03160217905550819250505095945050505050565b6000614e8b826040518060400160405280602081526020017f5361666545524332303a206c6f772d6c6576656c2063616c6c206661696c6564815250856001600160a01b0316614f089092919063ffffffff16565b80519091501561194c5780806020019051810190614ea991906153e1565b61194c5760405162461bcd60e51b815260206004820152602a60248201527f5361666545524332303a204552433230206f7065726174696f6e20646964206e6044820152691bdd081cdd58d8d9595960b21b6064820152608401610f88565b6060614f178484600085614f1f565b949350505050565b606082471015614f805760405162461bcd60e51b815260206004820152602660248201527f416464726573733a20696e73756666696369656e742062616c616e636520666f6044820152651c8818d85b1b60d21b6064820152608401610f88565b600080866001600160a01b03168587604051614f9c9190615725565b60006040518083038185875af1925050503d8060008114614fd9576040519150601f19603f3d011682016040523d82523d6000602084013e614fde565b606091505b50915091506142bb878383876060831561505657825161504f576001600160a01b0385163b61504f5760405162461bcd60e51b815260206004820152601d60248201527f416464726573733a2063616c6c20746f206e6f6e2d636f6e74726163740000006044820152606401610f88565b5081614f17565b614f17838381511561506b5781518083602001fd5b8060405162461bcd60e51b8152600401610f889190615818565b80356001600160a01b038116811461149357600080fd5b803561149381615be3565b80356001600160801b038116811461149357600080fd5b803561ffff8116811461149357600080fd5b803563ffffffff8116811461149357600080fd5b80356001600160401b038116811461149357600080fd5b80356001600160481b038116811461149357600080fd5b80356001600160601b038116811461149357600080fd5b60006020828403121561513b57600080fd5b6139cb82615085565b6000806040838503121561515757600080fd5b61516083615085565b915061516e60208401615085565b90509250929050565b60008060006060848603121561518c57600080fd5b61519584615085565b92506151a360208501615085565b91506151b160408501615085565b90509250925092565b600080600080608085870312156151d057600080fd5b6151d985615085565b93506151e760208601615085565b92506151f560408601615085565b915061520360608601615085565b905092959194509250565b6000806040838503121561522157600080fd5b61522a83615085565b9150602083013561523a81615be3565b809150509250929050565b60008060006060848603121561525a57600080fd5b61526384615085565b9250602084013591506151b160408501615085565b60008060006060848603121561528d57600080fd5b61529684615085565b92506020840135915060408401356152ad81615be3565b809150509250925092565b600080600080608085870312156152ce57600080fd5b6152d785615085565b9350602085013592506040850135915060608501356152f581615be3565b939692955090935050565b600080600080600060a0868803121561531857600080fd5b61532186615085565b94506020860135935060408601359250606086013561533f81615be3565b949793965091946080013592915050565b6000806020838503121561536357600080fd5b82356001600160401b038082111561537a57600080fd5b818501915085601f83011261538e57600080fd5b81358181111561539d57600080fd5b8660208260051b85010111156153b257600080fd5b60209290920196919550909350505050565b6000602082840312156153d657600080fd5b81356139cb81615be3565b6000602082840312156153f357600080fd5b81516139cb81615be3565b60006020828403121561541057600080fd5b5051919050565b600060a0828403121561542957600080fd5b60405160a081018181106001600160401b038211171561545957634e487b7160e01b600052604160045260246000fd5b604052615465836150a7565b8152615473602084016150a7565b602082015261548460408401615112565b604082015261549560608401615112565b60608201526154a6608084016150e4565b60808201529392505050565b6000602082840312156154c457600080fd5b5035919050565b600080604083850312156154de57600080fd5b8235915061516e60208401615085565b60008082840361014081121561550357600080fd5b8335925061012080601f198301121561551b57600080fd5b6155236158a1565b915061553160208601615085565b825261553f604086016150fb565b6020830152615550606086016150be565b60408301526155616080860161509c565b606083015261557260a086016150e4565b608083015261558360c086016150e4565b60a083015261559460e086016150d0565b60c08301526101006155a78187016150d0565b60e08401526155b78287016150e4565b9083015250919491935090915050565b600080604083850312156155da57600080fd5b50508035926020909101359150565b6000806000806000806000806000806000806101808d8f03121561560c57600080fd5b8c359b5060208d01359a5060408d013561562581615be3565b995060608d013561563581615be3565b985060808d013561564581615be3565b975060a08d013561565581615be3565b9b9e9a9d50989b979a969996985050505060c08501359460e0810135946101008201359450610120820135935061014082013592506101609091013590565b80546001600160a01b038116835260a081901c6001600160481b0316602084015260e881901c61ffff1660408401526156d4606084018260f81c15159052565b5060018101546001600160401b038082166080850152604082901c811660a08501525063ffffffff608082901c811660c085015260a082901c811660e08501525060c081901c610100840152505050565b60008251615737818460208701615b44565b9190910192915050565b602080825282518282018190526000919060409081850190868401855b8281101561580b57815180516001600160401b0390811686528782015181168887015286820151811687870152606080830151909116908601526080808201516001600160801b03169086015260a080820151600f0b9086015260c0808201516001600160a01b03169086015260e08082015115159086015261010080820151151590860152610120908101516001600160501b031690850152610140909301929085019060010161575e565b5091979650505050505050565b6020815260008251806020840152615837816040850160208701615b44565b601f01601f19169190910160400192915050565b60208082526008908201526708585b1b1bddd95960c21b604082015260600190565b60208082526005908201526408591a5cdd60da1b604082015260600190565b82815261014081016139cb6020830184615694565b60405161012081016001600160401b03811182821017156158d257634e487b7160e01b600052604160045260246000fd5b60405290565b600080821280156001600160ff1b03849003851316156158fa576158fa615b8b565b600160ff1b839003841281161561591357615913615b8b565b50500190565b60006001600160801b0380831681851680830382111561593b5761593b615b8b565b01949350505050565b6000821982111561595757615957615b8b565b500190565b60006001600160401b0380831681851680830382111561593b5761593b615b8b565b60006001600160601b0380831681851680830382111561593b5761593b615b8b565b6000826159af576159af615ba1565b600160ff1b8214600019841416156159c9576159c9615b8b565b500590565b6000826159dd576159dd615ba1565b500490565b60006001600160ff1b0381841382841380821686840486111615615a0857615a08615b8b565b600160ff1b6000871282811687830589121615615a2757615a27615b8b565b60008712925087820587128484161615615a4357615a43615b8b565b87850587128184161615615a5957615a59615b8b565b505050929093029392505050565b6000816000190483118215151615615a8157615a81615b8b565b500290565b60008083128015600160ff1b850184121615615aa457615aa4615b8b565b6001600160ff1b0384018313811615615abf57615abf615b8b565b50500390565b60006001600160801b0383811690831681811015615ae557615ae5615b8b565b039392505050565b600082821015615aff57615aff615b8b565b500390565b60006001600160401b0383811690831681811015615ae557615ae5615b8b565b60006001600160601b0383811690831681811015615ae557615ae5615b8b565b60005b83811015615b5f578181015183820152602001615b47565b838111156119655750506000910152565b6000600019821415615b8457615b84615b8b565b5060010190565b634e487b7160e01b600052601160045260246000fd5b634e487b7160e01b600052601260045260246000fd5b634e487b7160e01b600052603260045260246000fd5b634e487b7160e01b600052604160045260246000fd5b8015158114615bf157600080fd5b5056fea2646970667358221220bb28121f999f8375fc7de4ba825633e2de09598a06bce801169347872d45e0fb64736f6c63430008070033",
  "immutableReferences": {},
  "source": "// SPDX-License-Identifier: BUSL-1.1\npragma solidity ^0.8.0;\n\nimport \"@openzeppelin/contracts/token/ERC20/IERC20.sol\";\nimport \"@openzeppelin/contracts/token/ERC20/utils/SafeERC20.sol\";\nimport \"@openzeppelin/contracts/security/ReentrancyGuard.sol\";\nimport '../oracle/IOracle.sol';\nimport './IPikaPerp.sol';\nimport './IFundingManager.sol';\nimport './IFeeCalculator.sol';\n/* import '../staking/IVaultReward.sol'; */\n\ncontract PikaPerpV3 is ReentrancyGuard {\n    using SafeERC20 for IERC20;\n    // All amounts are stored with 8 decimals\n\n    // Structs\n\n    struct Vault {\n        // 32 bytes\n        uint128 cap; // Maximum capacity. 16 bytes\n        uint128 balance; // 16 bytes\n        // 32 bytes\n        uint96 staked; // Total staked by users. 12 bytes\n        uint96 shares; // Total ownership shares. 12 bytes\n        uint64 stakingPeriod; // Time required to lock stake (seconds). 8 bytes\n    }\n\n    struct Stake {\n        // 32 bytes\n        address owner; // 20 bytes\n        uint96 amount; // 12 bytes\n        // 32 bytes\n        uint128 shares; // 16 bytes\n        uint128 timestamp; // 16 bytes\n    }\n\n    struct Product {\n        // 32 bytes\n        address productToken;\n        uint72 maxLeverage;\n        uint16 fee; // In bps. 0.5% = 50.\n        bool isActive;\n        // 32 bytes\n        uint64 openInterestLong;\n        uint64 openInterestShort;\n        uint32 minPriceChange; // 1.5%, the minimum oracle price up change for trader to close trade with profit\n        uint32 weight; // share of the max exposure\n        uint64 reserve; // Virtual reserve used to calculate slippage\n    }\n\n    struct Position {\n        // 32 bytes\n        uint64 productId;\n        uint64 leverage;\n        uint64 price;\n        uint64 oraclePrice;\n        // 32 bytes\n        uint128 margin;\n        int128 funding;\n        // 32 bytes\n        address owner;\n        bool isLong;\n        bool isNextPrice;\n        uint80 timestamp;\n    }\n\n    // Variables\n\n    address public owner;\n    address public guardian;\n    address public gov;\n    address private token;\n    address public oracle;\n    address public protocolRewardDistributor;\n    address public pikaRewardDistributor;\n    address public vaultRewardDistributor;\n    address public vaultTokenReward;\n    address public feeCalculator;\n    address public fundingManager;\n    uint256 private tokenBase;\n    uint256 public minMargin;\n    uint256 public protocolRewardRatio = 2000;  // 20%\n    uint256 public pikaRewardRatio = 3000;  // 30%\n    uint256 public maxShift = 0.003e8; // max shift (shift is used adjust the price to balance the longs and shorts)\n    uint256 public minProfitTime = 6 hours; // the time window where minProfit is effective\n    uint256 public totalWeight; // total exposure weights of all product\n    uint256 public exposureMultiplier = 10000; // exposure multiplier\n    uint256 public utilizationMultiplier = 10000; // exposure multiplier\n    uint256 public maxExposureMultiplier = 3; // total open interest of a product should not exceed maxExposureMultiplier * maxExposure\n    uint256 private liquidationBounty = 5000; // In bps. 5000 = 50%\n    uint256 public liquidationThreshold = 8000; // In bps. 8000 = 80%\n    uint256 private pendingProtocolReward; // protocol reward collected\n    uint256 private pendingPikaReward; // pika reward collected\n    uint256 private pendingVaultReward; // vault reward collected\n    uint256 public totalOpenInterest;\n    uint256 public shiftDivider = 3;\n    bool private canUserStake = true;\n    bool private allowPublicLiquidator = false;\n    bool private isTradeEnabled = true;\n    bool private isManagerOnlyForOpen = false;\n    bool private isManagerOnlyForClose = false;\n    Vault private vault;\n    uint256 private constant BASE = 10**8;\n    uint256 private constant FUNDING_BASE = 10**12;\n\n    mapping(uint256 => Product) private products;\n    mapping(address => Stake) private stakes;\n    mapping(uint256 => Position) private positions;\n    mapping (address => bool) public liquidators;\n    mapping (address => bool) public nextPriceManagers;\n    mapping (address => bool) public managers;\n    mapping (address => mapping (address => bool)) public approvedManagers;\n    // Events\n\n    event Staked(\n        address indexed user,\n        uint256 amount,\n        uint256 shares\n    );\n    event Redeemed(\n        address indexed user,\n        address indexed receiver,\n        uint256 amount,\n        uint256 shares,\n        uint256 shareBalance,\n        bool isFullRedeem\n    );\n    event NewPosition(\n        uint256 indexed positionId,\n        address indexed user,\n        uint256 indexed productId,\n        bool isLong,\n        uint256 price,\n        uint256 oraclePrice,\n        uint256 margin,\n        uint256 leverage,\n        uint256 fee,\n        bool isNextPrice,\n        int256 funding\n    );\n\n    event AddMargin(\n        uint256 indexed positionId,\n        address indexed sender,\n        address indexed user,\n        uint256 margin,\n        uint256 newMargin,\n        uint256 newLeverage\n    );\n    event ClosePosition(\n        uint256 indexed positionId,\n        address indexed user,\n        uint256 indexed productId,\n        uint256 price,\n        uint256 entryPrice,\n        uint256 margin,\n        uint256 leverage,\n        uint256 fee,\n        int256 pnl,\n        int256 fundingPayment,\n        bool wasLiquidated\n    );\n    event PositionLiquidated(\n        uint256 indexed positionId,\n        address indexed liquidator,\n        uint256 liquidatorReward,\n        uint256 remainingReward\n    );\n    event ProtocolRewardDistributed(\n        address to,\n        uint256 amount\n    );\n    event PikaRewardDistributed(\n        address to,\n        uint256 amount\n    );\n    event VaultRewardDistributed(\n        address to,\n        uint256 amount\n    );\n    event VaultUpdated(\n        Vault vault\n    );\n    event ProductAdded(\n        uint256 productId,\n        Product product\n    );\n    event ProductUpdated(\n        uint256 productId,\n        Product product\n    );\n    event AddressesSet(\n        address oracle,\n        address feeCalculator,\n        address fundingManager\n    );\n    event OwnerUpdated(\n        address newOwner\n    );\n    event GuardianUpdated(\n        address newGuardian\n    );\n    event GovUpdated(\n        address newGov\n    );\n\n    // Constructor\n\n    constructor(address _token, uint256 _tokenBase, address _oracle, address _feeCalculator, address _fundingManager) {\n        owner = msg.sender;\n        guardian = msg.sender;\n        gov = msg.sender;\n        token = _token;\n        tokenBase = _tokenBase;\n        oracle = _oracle;\n        feeCalculator = _feeCalculator;\n        fundingManager = _fundingManager;\n\n        // TODO: temp setters\n        protocolRewardDistributor = msg.sender;\n        pikaRewardDistributor = msg.sender;\n        vaultRewardDistributor = msg.sender;\n    }\n\n    // Methods\n\n    function stake(uint256 amount, address user) external payable nonReentrant {\n        require((canUserStake || msg.sender == owner) && (msg.sender == user || _validateManager(user)), \"!stake\");\n        /* IVaultReward(vaultRewardDistributor).updateReward(user); */\n        /* IVaultReward(vaultTokenReward).updateReward(user); */\n        IERC20(token).safeTransferFrom(msg.sender, address(this), amount * tokenBase / BASE);\n        require(uint256(vault.staked) + amount <= uint256(vault.cap), \"!cap\");\n        uint256 shares = vault.staked > 0 ? amount * uint256(vault.shares) / uint256(vault.balance) : amount;\n        vault.balance += uint128(amount);\n        vault.staked += uint96(amount);\n        vault.shares += uint96(shares);\n\n        if (stakes[user].amount == 0) {\n            stakes[user] = Stake({\n            owner: user,\n            amount: uint96(amount),\n            shares: uint128(shares),\n            timestamp: uint128(block.timestamp)\n            });\n        } else {\n            stakes[user].amount += uint96(amount);\n            stakes[user].shares += uint128(shares);\n            if (!_validateManager(user)) {\n                stakes[user].timestamp = uint128(block.timestamp);\n            }\n        }\n\n        emit Staked(\n            user,\n            amount,\n            shares\n        );\n\n    }\n\n    function redeem(\n        address user,\n        uint256 shares,\n        address receiver\n    ) external {\n\n        require(shares <= uint256(vault.shares) && (user == msg.sender || _validateManager(user)), \"!redeem\");\n\n        /* IVaultReward(vaultRewardDistributor).updateReward(user); */\n        /* IVaultReward(vaultTokenReward).updateReward(user); */\n        Stake storage _stake = stakes[user];\n        bool isFullRedeem = shares >= uint256(_stake.shares);\n        if (isFullRedeem) {\n            shares = uint256(_stake.shares);\n        }\n\n        uint256 timeDiff = block.timestamp - uint256(_stake.timestamp);\n        require(timeDiff > uint256(vault.stakingPeriod), \"!period\");\n\n        uint256 shareBalance = shares * uint256(vault.balance) / uint256(vault.shares);\n\n        uint256 amount = shares * _stake.amount / uint256(_stake.shares);\n\n        _stake.amount -= uint96(amount);\n        _stake.shares -= uint128(shares);\n        vault.staked -= uint96(amount);\n        vault.shares -= uint96(shares);\n        vault.balance -= uint128(shareBalance);\n\n        require(totalOpenInterest <= uint256(vault.balance) * utilizationMultiplier / (10**4), \"!utilized\");\n\n        if (isFullRedeem) {\n            delete stakes[user];\n        }\n        IERC20(token).safeTransfer(receiver, shareBalance * tokenBase / BASE);\n\n        emit Redeemed(\n            user,\n            receiver,\n            amount,\n            shares,\n            shareBalance,\n            isFullRedeem\n        );\n    }\n\n    function openPosition(\n        address user,\n        uint256 productId,\n        uint256 margin,\n        bool isLong,\n        uint256 leverage\n    ) public payable nonReentrant {\n        require(_validateManager(user) || (!isManagerOnlyForOpen && user == msg.sender), \"!allowed\");\n        require(isTradeEnabled, \"!enabled\");\n        // Check params\n        require(margin >= minMargin && margin < type(uint64).max, \"!margin\");\n        require(leverage >= 1 * BASE, \"!lev\");\n\n        // Check product\n        Product storage product = products[productId];\n        require(product.isActive, \"!active\");\n        require(leverage <= uint256(product.maxLeverage), \"!max-lev\");\n\n        // Transfer margin plus fee\n        uint256 tradeFee = _getTradeFee(margin, leverage, uint256(product.fee), product.productToken, user, msg.sender, feeCalculator);\n        IERC20(token).safeTransferFrom(msg.sender, address(this), (margin + tradeFee) * tokenBase / BASE);\n        \n        _updatePendingRewards(tradeFee);\n\n        uint256 price = _calculatePrice(product.productToken, isLong, product.openInterestLong, product.openInterestShort,\n            getMaxExposure(uint256(product.weight)), uint256(product.reserve), margin * leverage / BASE);\n\n        _updateFundingAndOpenInterest(productId, margin * leverage / BASE, isLong, true);\n        int256 funding = IFundingManager(fundingManager).getFunding(productId);\n\n        Position storage position = positions[getPositionId(user, productId, isLong)];\n        if (position.margin > 0) {\n            price = (uint256(position.margin) * position.leverage * uint256(position.price) + margin * leverage * price) /\n                (uint256(position.margin) * position.leverage + margin * leverage);\n            funding = (int256(uint256(position.margin)) * int256(uint256(position.leverage)) * int256(position.funding) + int256(margin * leverage) * funding) /\n                (int256(uint256(position.margin)) * int256(uint256(position.leverage)) + int256(margin * leverage));\n            leverage = (uint256(position.margin) * uint256(position.leverage) + margin * leverage) / (uint256(position.margin) + margin);\n            margin = uint256(position.margin) + margin;\n        }\n\n        positions[getPositionId(user, productId, isLong)] = Position({\n        owner: user,\n        productId: uint64(productId),\n        margin: uint128(margin),\n        leverage: uint64(leverage),\n        price: uint64(price),\n        oraclePrice: uint64(IOracle(oracle).getPrice(product.productToken)),\n        timestamp: uint80(block.timestamp),\n        isLong: isLong,\n        // if no existing position, isNextPrice depends on if sender is a nextPriceManager,\n        // else it is false if either existing position's isNextPrice is false or the current new position sender is not a nextPriceManager\n        isNextPrice: position.margin == 0 ? nextPriceManagers[msg.sender] : (!position.isNextPrice ? false : nextPriceManagers[msg.sender]),\n        funding: int128(funding)\n        });\n        emit NewPosition(\n            getPositionId(user, productId, isLong),\n            user,\n            productId,\n            isLong,\n            price,\n            IOracle(oracle).getPrice(product.productToken),\n            margin,\n            leverage,\n            tradeFee,\n            position.margin == 0 ? nextPriceManagers[msg.sender] : (!position.isNextPrice ? false : nextPriceManagers[msg.sender]),\n            funding\n        );\n    }\n\n    // Add margin to Position with positionId\n    function addMargin(uint256 positionId, uint256 margin) external payable nonReentrant {\n\n        IERC20(token).safeTransferFrom(msg.sender, address(this), margin * tokenBase / BASE);\n\n        // Check params\n        require(margin >= minMargin, \"!margin\");\n\n        // Check position\n        Position storage position = positions[positionId];\n        require(msg.sender == position.owner || _validateManager(position.owner), \"!allowed\");\n\n        // New position params\n        uint256 newMargin = uint256(position.margin) + margin;\n        uint256 newLeverage = uint256(position.leverage) * uint256(position.margin) / newMargin;\n        require(newLeverage >= 1 * BASE, \"!low-lev\");\n\n        position.margin = uint128(newMargin);\n        position.leverage = uint64(newLeverage);\n\n        emit AddMargin(\n            positionId,\n            msg.sender,\n            position.owner,\n            margin,\n            newMargin,\n            newLeverage\n        );\n\n    }\n\n    function closePosition(\n        address user,\n        uint256 productId,\n        uint256 margin,\n        bool isLong\n    ) external {\n        return closePositionWithId(getPositionId(user, productId, isLong), margin);\n    }\n\n    // Closes position from Position with id = positionId\n    function closePositionWithId(\n        uint256 positionId,\n        uint256 margin\n    ) public nonReentrant {\n        // Check position\n        Position storage position = positions[positionId];\n        require(_validateManager(position.owner) || (!isManagerOnlyForClose && msg.sender == position.owner), \"!close\");\n\n        // Check product\n        Product storage product = products[uint256(position.productId)];\n\n        bool isFullClose;\n        if (margin >= uint256(position.margin)) {\n            margin = uint256(position.margin);\n            isFullClose = true;\n        }\n\n        uint256 price = _calculatePrice(product.productToken, !position.isLong, product.openInterestLong, product.openInterestShort,\n            getMaxExposure(uint256(product.weight)), uint256(product.reserve), margin * position.leverage / BASE);\n\n        _updateFundingAndOpenInterest(uint256(position.productId), margin * uint256(position.leverage) / BASE, position.isLong, false);\n        int256 fundingPayment = _getFundingPayment(fundingManager, position.isLong, position.productId, position.leverage, margin, position.funding);\n        int256 pnl = _getPnl(position.isLong, uint256(position.price), uint256(position.leverage), margin, price) - fundingPayment;\n        bool isLiquidatable;\n        if (pnl < 0 && uint256(-1 * pnl) >= margin * liquidationThreshold / (10**4)) {\n            margin = uint256(position.margin);\n            pnl = -1 * int256(uint256(position.margin));\n            isLiquidatable = true;\n        } else {\n            // front running protection: if oracle price up change is smaller than threshold and minProfitTime has not passed\n            // and either open or close order is not using next oracle price, the pnl is be set to 0\n            if (pnl > 0 && !_canTakeProfit(position.isLong, uint256(position.timestamp), uint256(position.oraclePrice),\n                IOracle(oracle).getPrice(product.productToken), product.minPriceChange, minProfitTime) && (!position.isNextPrice || !nextPriceManagers[msg.sender])) {\n                pnl = 0;\n            }\n        }\n\n        uint256 totalFee = _updateVaultAndGetFee(pnl, position, margin, uint256(product.fee), product.productToken);\n\n        emit ClosePosition(\n            positionId,\n            position.owner,\n            uint256(position.productId),\n            price,\n            uint256(position.price),\n            margin,\n            uint256(position.leverage),\n            totalFee,\n            pnl,\n            fundingPayment,\n            isLiquidatable\n        );\n\n        if (isFullClose) {\n            delete positions[positionId];\n        } else {\n            position.margin -= uint128(margin);\n        }\n    }\n\n    function _updateVaultAndGetFee(\n        int256 pnl,\n        Position memory position,\n        uint256 margin,\n        uint256 fee,\n        address productToken\n    ) private returns(uint256) {\n        uint256 totalFee = _getTradeFee(margin, uint256(position.leverage), fee, productToken, position.owner, msg.sender, feeCalculator);\n        int256 pnlAfterFee = pnl - int256(totalFee);\n        // Update vault\n        if (pnlAfterFee < 0) {\n            uint256 _pnlAfterFee = uint256(-1 * pnlAfterFee);\n            if (_pnlAfterFee < margin) {\n                IERC20(token).safeTransfer(position.owner, (margin - _pnlAfterFee) * tokenBase / BASE);\n                vault.balance += uint128(_pnlAfterFee);\n            } else {\n                vault.balance += uint128(margin);\n                return totalFee;\n            }\n\n        } else {\n            uint256 _pnlAfterFee = uint256(pnlAfterFee);\n            // Check vault\n            require(uint256(vault.balance) >= _pnlAfterFee, \"!bal\");\n            vault.balance -= uint128(_pnlAfterFee);\n\n            IERC20(token).safeTransfer(position.owner, (margin + _pnlAfterFee) * tokenBase / BASE);\n        }\n\n        _updatePendingRewards(totalFee);\n        vault.balance -= uint128(totalFee);\n\n        return totalFee;\n    }\n\n    // Liquidate positionIds\n    function liquidatePositions(uint256[] calldata positionIds) external {\n        require(liquidators[msg.sender] || allowPublicLiquidator, \"!liquidator\");\n\n        uint256 totalLiquidatorReward;\n        for (uint256 i = 0; i < positionIds.length; i++) {\n            uint256 positionId = positionIds[i];\n            uint256 liquidatorReward = liquidatePosition(positionId);\n            totalLiquidatorReward = totalLiquidatorReward + liquidatorReward;\n        }\n        if (totalLiquidatorReward > 0) {\n            IERC20(token).safeTransfer(msg.sender, totalLiquidatorReward * tokenBase / BASE);\n        }\n    }\n\n\n    function liquidatePosition(\n        uint256 positionId\n    ) private returns(uint256 liquidatorReward) {\n        Position storage position = positions[positionId];\n        if (position.productId == 0) {\n            return 0;\n        }\n        Product storage product = products[uint256(position.productId)];\n        uint256 price = IOracle(oracle).getPrice(product.productToken); // use oracle price for liquidation\n\n        uint256 remainingReward;\n        _updateFundingAndOpenInterest(uint256(position.productId), uint256(position.margin) * uint256(position.leverage) / BASE, position.isLong, false);\n        int256 fundingPayment = _getFundingPayment(fundingManager, position.isLong, position.productId, position.leverage, position.margin, position.funding);\n        int256 pnl = _getPnl(position.isLong, position.price, position.leverage, position.margin, price) - fundingPayment;\n        // can only liquidate if negative pnl and lose is greater than margin * liquidation threshold\n        require(\n            pnl < 0 && uint256(-1 * pnl) >= uint256(position.margin) * liquidationThreshold / (10**4),\n            \"!liquidate\"\n        );\n        if (uint256(position.margin) > uint256(-1*pnl)) {\n            uint256 _pnl = uint256(-1*pnl);\n            liquidatorReward = (uint256(position.margin) - _pnl) * liquidationBounty / (10**4);\n            remainingReward = uint256(position.margin) - _pnl - liquidatorReward;\n            _updatePendingRewards(remainingReward);\n            vault.balance += uint128(_pnl);\n        } else {\n            vault.balance += uint128(position.margin);\n        }\n\n        emit ClosePosition(\n            positionId,\n            position.owner,\n            uint256(position.productId),\n            price,\n            uint256(position.price),\n            uint256(position.margin),\n            uint256(position.leverage),\n            0,\n            -1*int256(uint256(position.margin)),\n            fundingPayment,\n            true\n        );\n\n        delete positions[positionId];\n\n        emit PositionLiquidated(\n            positionId,\n            msg.sender,\n            liquidatorReward,\n            remainingReward\n        );\n\n        return liquidatorReward;\n    }\n\n    function _updatePendingRewards(uint256 reward) private {\n        pendingProtocolReward = pendingProtocolReward + (reward * protocolRewardRatio / (10**4));\n        pendingPikaReward = pendingPikaReward + (reward * pikaRewardRatio / (10**4));\n        pendingVaultReward = pendingVaultReward + (reward * (10**4 - protocolRewardRatio - pikaRewardRatio) / (10**4));\n    }\n\n    function _updateFundingAndOpenInterest(uint256 productId, uint256 amount, bool isLong, bool isIncrease) private {\n        IFundingManager(fundingManager).updateFunding(productId);\n        Product storage product = products[productId];\n        if (isIncrease) {\n            totalOpenInterest = totalOpenInterest + amount;\n            uint256 maxExposure = getMaxExposure(uint256(product.weight));\n            require(totalOpenInterest <= uint256(vault.balance) * utilizationMultiplier / 10**4 &&\n                uint256(product.openInterestLong) + uint256(product.openInterestShort) + amount < maxExposureMultiplier * maxExposure, \"!maxOI\");\n            if (isLong) {\n                product.openInterestLong = product.openInterestLong + uint64(amount);\n                require(uint256(product.openInterestLong) <= uint256(maxExposure) + uint256(product.openInterestShort), \"!exposure-long\");\n            } else {\n                product.openInterestShort = product.openInterestShort + uint64(amount);\n                require(uint256(product.openInterestShort) <= uint256(maxExposure) + uint256(product.openInterestLong), \"!exposure-short\");\n            }\n        } else {\n            totalOpenInterest = totalOpenInterest - amount;\n            if (isLong) {\n                if (uint256(product.openInterestLong) >= amount) {\n                    product.openInterestLong -= uint64(amount);\n                } else {\n                    product.openInterestLong = 0;\n                }\n            } else {\n                if (uint256(product.openInterestShort) >= amount) {\n                    product.openInterestShort -= uint64(amount);\n                } else {\n                    product.openInterestShort = 0;\n                }\n            }\n        }\n    }\n\n    function _validateManager(address account) private view returns(bool) {\n        return managers[msg.sender] && approvedManagers[account][msg.sender];\n    }\n\n    function distributeProtocolReward() external returns(uint256) {\n        require(msg.sender == protocolRewardDistributor, \"!dist\");\n        uint256 _pendingProtocolReward = pendingProtocolReward * tokenBase / BASE;\n        if (pendingProtocolReward > 0) {\n            pendingProtocolReward = 0;\n            IERC20(token).safeTransfer(protocolRewardDistributor, _pendingProtocolReward);\n            emit ProtocolRewardDistributed(protocolRewardDistributor, _pendingProtocolReward);\n        }\n        return _pendingProtocolReward;\n    }\n\n    function distributePikaReward() external returns(uint256) {\n        require(msg.sender == pikaRewardDistributor, \"!dist\");\n        uint256 _pendingPikaReward = pendingPikaReward * tokenBase / BASE;\n        if (pendingPikaReward > 0) {\n            pendingPikaReward = 0;\n            IERC20(token).safeTransfer(pikaRewardDistributor, _pendingPikaReward);\n            emit PikaRewardDistributed(pikaRewardDistributor, _pendingPikaReward);\n        }\n        return _pendingPikaReward;\n    }\n\n    function distributeVaultReward() external returns(uint256) {\n        require(msg.sender == vaultRewardDistributor, \"!dist\");\n        uint256 _pendingVaultReward = pendingVaultReward * tokenBase / BASE;\n        if (pendingVaultReward > 0) {\n            pendingVaultReward = 0;\n            IERC20(token).safeTransfer(vaultRewardDistributor, _pendingVaultReward);\n            emit VaultRewardDistributed(vaultRewardDistributor, _pendingVaultReward);\n        }\n        return _pendingVaultReward;\n    }\n\n    // Getters\n\n    function getPendingPikaReward() external view returns(uint256) {\n        return pendingPikaReward * tokenBase / BASE;\n    }\n\n    function getPendingProtocolReward() external view returns(uint256) {\n        return pendingProtocolReward * tokenBase / BASE;\n    }\n\n    function getPendingVaultReward() external view returns(uint256) {\n        return pendingVaultReward * tokenBase / BASE;\n    }\n\n    function getVault() external view returns(Vault memory) {\n        return vault;\n    }\n\n    function getProduct(uint256 productId) external view returns (\n        address,uint256,uint256,bool,uint256,uint256,uint256,uint256,uint256\n    ) {\n        Product memory product = products[productId];\n        return (\n        product.productToken,\n        uint256(product.maxLeverage),\n        uint256(product.fee),\n        product.isActive,\n        uint256(product.openInterestLong),\n        uint256(product.openInterestShort),\n        uint256(product.minPriceChange),\n        uint256(product.weight),\n        uint256(product.reserve));\n    }\n\n    function getPositionId(\n        address account,\n        uint256 productId,\n        bool isLong\n    ) public pure returns (uint256) {\n        return uint256(keccak256(abi.encodePacked(account, productId, isLong)));\n    }\n\n    function getPosition(\n        address account,\n        uint256 productId,\n        bool isLong\n    ) external view returns (\n        uint256,uint256,uint256,uint256,uint256,address,uint256,bool,int256\n    ) {\n        Position memory position = positions[getPositionId(account, productId, isLong)];\n        return(\n        uint256(position.productId),\n        uint256(position.leverage),\n        uint256(position.price),\n        uint256(position.oraclePrice),\n        uint256(position.margin),\n        position.owner,\n        uint256(position.timestamp),\n        position.isLong,\n        position.funding);\n    }\n\n    function getPositions(uint256[] calldata positionIds) external view returns(Position[] memory _positions) {\n        uint256 length = positionIds.length;\n        _positions = new Position[](length);\n        for (uint256 i = 0; i < length; i++) {\n            _positions[i] = positions[positionIds[i]];\n        }\n    }\n\n    function getMaxExposure(uint256 productWeight) public view returns(uint256) {\n        return uint256(vault.balance) * productWeight * exposureMultiplier / uint256(totalWeight) / (10**4);\n    }\n\n    function getTotalShare() external view returns(uint256) {\n        return uint256(vault.shares);\n    }\n\n    function getShare(address stakeOwner) external view returns(uint256) {\n        return uint256(stakes[stakeOwner].shares);\n    }\n\n    function getStake(address stakeOwner) external view returns(Stake memory) {\n        return stakes[stakeOwner];\n    }\n\n    // Private methods\n\n    function _canTakeProfit(\n        bool isLong,\n        uint256 positionTimestamp,\n        uint256 positionOraclePrice,\n        uint256 oraclePrice,\n        uint256 minPriceChange,\n        uint256 minProfitTime\n    ) internal view returns(bool) {\n        if (block.timestamp > positionTimestamp + minProfitTime) {\n            return true;\n        } else if (isLong && oraclePrice > positionOraclePrice * (10**4 + minPriceChange) / (10**4)) {\n            return true;\n        } else if (!isLong && oraclePrice < positionOraclePrice * (10**4 - minPriceChange) / (10**4)) {\n            return true;\n        }\n        return false;\n    }\n\n    function _getPnl(\n        bool isLong,\n        uint256 positionPrice,\n        uint256 positionLeverage,\n        uint256 margin,\n        uint256 price\n    ) internal view returns(int256 _pnl) {\n        bool pnlIsNegative;\n        uint256 pnl;\n        if (isLong) {\n            if (price >= positionPrice) {\n                pnl = margin * positionLeverage * (price - positionPrice) / positionPrice / BASE;\n            } else {\n                pnl = margin * positionLeverage * (positionPrice - price) / positionPrice / BASE;\n                pnlIsNegative = true;\n            }\n        } else {\n            if (price > positionPrice) {\n                pnl = margin * positionLeverage * (price - positionPrice) / positionPrice / BASE;\n                pnlIsNegative = true;\n            } else {\n                pnl = margin * positionLeverage * (positionPrice - price) / positionPrice / BASE;\n            }\n        }\n\n        if (pnlIsNegative) {\n            _pnl = -1 * int256(pnl);\n        } else {\n            _pnl = int256(pnl);\n        }\n\n        return _pnl;\n    }\n\n    function _getFundingPayment(\n        address fundingManager,\n        bool isLong,\n        uint256 productId,\n        uint256 positionLeverage,\n        uint256 margin,\n        int256 funding\n    ) internal view returns(int256) {\n        return isLong ? int256(margin * positionLeverage) * (IFundingManager(fundingManager).getFunding(productId) - funding) / int256(BASE * FUNDING_BASE) :\n            int256(margin * positionLeverage) * (funding - IFundingManager(fundingManager).getFunding(productId)) / int256(BASE * FUNDING_BASE);\n    }\n\n    function _getTradeFee(\n        uint256 margin,\n        uint256 leverage,\n        uint256 productFee,\n        address productToken,\n        address user,\n        address sender,\n        address feeCalculator\n    ) internal view returns(uint256) {\n        uint256 fee = IFeeCalculator(feeCalculator).getFee(productToken, productFee, user, sender);\n        return margin * leverage / BASE * fee / 10**4;\n    }\n\n    function _calculatePrice(\n        address productToken,\n        bool isLong,\n        uint256 openInterestLong,\n        uint256 openInterestShort,\n        uint256 maxExposure,\n        uint256 reserve,\n        uint256 amount\n    ) private view returns(uint256) {\n        uint256 oraclePrice = IOracle(oracle).getPrice(productToken);\n        int256 shift = (int256(openInterestLong) - int256(openInterestShort)) * int256(maxShift) / int256(maxExposure);\n        if (isLong) {\n            uint256 slippage = (reserve * reserve / (reserve - amount) - reserve) * BASE / amount;\n            slippage = shift >= 0 ? slippage + uint256(shift) : slippage - (uint256(-1 * shift) / shiftDivider);\n            return oraclePrice * slippage / BASE;\n        } else {\n            uint256 slippage = (reserve - (reserve * reserve) / (reserve + amount)) * BASE / amount;\n            slippage = shift >= 0 ? slippage + (uint256(shift) / shiftDivider) : slippage - uint256(-1 * shift);\n            return oraclePrice * slippage / BASE;\n        }\n    }\n\n    // Owner methods\n\n    function updateVault(Vault memory _vault) external {\n        onlyOwner();\n        require(_vault.cap > 0 && _vault.stakingPeriod > 0 && _vault.stakingPeriod < 30 days, \"!allowed\");\n\n        vault.cap = _vault.cap;\n        vault.stakingPeriod = _vault.stakingPeriod;\n\n        emit VaultUpdated(vault);\n    }\n\n    function addProduct(uint256 productId, Product memory _product) external {\n        onlyOwner();\n        require(productId > 0, \"require productId > 0\");\n        Product memory product = products[productId];\n\n        require(product.maxLeverage == 0 && _product.maxLeverage > 1 * BASE && _product.productToken != address(0));\n\n        products[productId] = Product({\n        productToken: _product.productToken,\n        maxLeverage: _product.maxLeverage,\n        fee: _product.fee,\n        isActive: true,\n        openInterestLong: 0,\n        openInterestShort: 0,\n        minPriceChange: _product.minPriceChange,\n        weight: _product.weight,\n        reserve: _product.reserve\n        });\n        totalWeight = totalWeight + _product.weight;\n\n        emit ProductAdded(productId, products[productId]);\n    }\n\n    function updateProduct(uint256 productId, Product memory _product) external {\n        onlyOwner();\n        require(productId > 0);\n        Product storage product = products[productId];\n\n        require(product.maxLeverage > 0 && _product.maxLeverage >= 1 * BASE && _product.productToken != address(0));\n\n        product.productToken = _product.productToken;\n        product.maxLeverage = _product.maxLeverage;\n        product.fee = _product.fee;\n        product.isActive = _product.isActive;\n        product.minPriceChange = _product.minPriceChange;\n        totalWeight = totalWeight - product.weight + _product.weight;\n        product.weight = _product.weight;\n        product.reserve = _product.reserve;\n\n        emit ProductUpdated(productId, product);\n\n    }\n\n    function setDistributors(\n        address _protocolRewardDistributor,\n        address _pikaRewardDistributor,\n        address _vaultRewardDistributor,\n        address _vaultTokenReward\n    ) external {\n        onlyOwner();\n        protocolRewardDistributor = _protocolRewardDistributor;\n        pikaRewardDistributor = _pikaRewardDistributor;\n        vaultRewardDistributor = _vaultRewardDistributor;\n        vaultTokenReward = _vaultTokenReward;\n    }\n\n    function setManager(address _manager, bool _isActive) external {\n        onlyOwner();\n        managers[_manager] = _isActive;\n    }\n\n    function setAccountManager(address _manager, bool _isActive) external {\n        approvedManagers[msg.sender][_manager] = _isActive;\n    }\n\n    function setRewardRatio(uint256 _protocolRewardRatio, uint256 _pikaRewardRatio) external {\n        onlyOwner();\n        require(_protocolRewardRatio + _pikaRewardRatio <= 10000);\n        protocolRewardRatio = _protocolRewardRatio;\n        pikaRewardRatio = _pikaRewardRatio;\n    }\n\n    function setMinMargin(uint256 _minMargin) external {\n        onlyOwner();\n        minMargin = _minMargin;\n    }\n\n    function setTradeEnabled(bool _isTradeEnabled) external {\n        require(msg.sender == owner || managers[msg.sender]);\n        isTradeEnabled = _isTradeEnabled;\n    }\n\n    function setParameters(\n        uint256 _maxShift,\n        uint256 _minProfitTime,\n        bool _canUserStake,\n        bool _allowPublicLiquidator,\n        bool _isManagerOnlyForOpen,\n        bool _isManagerOnlyForClose,\n        uint256 _exposureMultiplier,\n        uint256 _utilizationMultiplier,\n        uint256 _maxExposureMultiplier,\n        uint256 _liquidationBounty,\n        uint256 _liquidationThreshold,\n        uint256 _shiftDivider\n    ) external {\n        onlyOwner();\n        require(_maxShift <= 0.01e8 && _minProfitTime <= 24 hours && _shiftDivider > 0 && _liquidationThreshold > 5000 && _maxExposureMultiplier > 0);\n        maxShift = _maxShift;\n        minProfitTime = _minProfitTime;\n        canUserStake = _canUserStake;\n        allowPublicLiquidator = _allowPublicLiquidator;\n        isManagerOnlyForOpen = _isManagerOnlyForOpen;\n        isManagerOnlyForClose = _isManagerOnlyForClose;\n        exposureMultiplier = _exposureMultiplier;\n        utilizationMultiplier = _utilizationMultiplier;\n        maxExposureMultiplier = _maxExposureMultiplier;\n        liquidationBounty = _liquidationBounty;\n        liquidationThreshold = _liquidationThreshold;\n        shiftDivider = _shiftDivider;\n    }\n\n    function setAddresses(address _oracle, address _feeCalculator, address _fundingManager) external {\n        onlyOwner();\n        oracle = _oracle;\n        feeCalculator = _feeCalculator;\n        fundingManager = _fundingManager;\n        emit AddressesSet(_oracle, _feeCalculator, _fundingManager);\n    }\n\n    function setLiquidator(address _liquidator, bool _isActive) external {\n        onlyOwner();\n        liquidators[_liquidator] = _isActive;\n    }\n\n    function setNextPriceManager(address _nextPriceManager, bool _isActive) external {\n        onlyOwner();\n        nextPriceManagers[_nextPriceManager] = _isActive;\n    }\n\n    function setOwner(address _owner) external {\n        onlyGov();\n        owner = _owner;\n        emit OwnerUpdated(_owner);\n    }\n\n    function setGuardian(address _guardian) external {\n        onlyGov();\n        guardian = _guardian;\n        emit GuardianUpdated(_guardian);\n    }\n\n    function setGov(address _gov) external {\n        onlyGov();\n        gov = _gov;\n        emit GovUpdated(_gov);\n    }\n\n    function pauseTrading() external {\n        require(msg.sender == guardian, \"!guard\");\n        isTradeEnabled = false;\n        canUserStake = false;\n    }\n\n    function onlyOwner() private {\n        require(msg.sender == owner, \"!owner\");\n    }\n\n    function onlyGov() private {\n        require(msg.sender == gov, \"!gov\");\n    }\n\n}\n",
  "sourcePath": "/Users/me/workspace/PikaPerpV2/contracts/perp/PikaPerpV3.sol",
  "compiler": {
    "name": "solc",
    "version": "0.8.7+commit.e28d00a7.Emscripten.clang"
  },
  "schemaVersion": "3.4.11",
  "updatedAt": "2023-01-17T09:02:22.389Z",
  "networkType": "ethereum",
  "devdoc": {
    "kind": "dev",
    "methods": {},
    "version": 1
  },
  "userdoc": {
    "kind": "user",
    "methods": {},
    "version": 1
  }
}