{
  "contractName": "Pika",
  "abi": [
    {
      "inputs": [
        {
          "internalType": "string",
          "name": "name",
          "type": "string"
        },
        {
          "internalType": "string",
          "name": "symbol",
          "type": "string"
        },
        {
          "internalType": "uint256",
          "name": "totalSupply",
          "type": "uint256"
        },
        {
          "internalType": "address",
          "name": "beneficiary",
          "type": "address"
        },
        {
          "internalType": "address",
          "name": "gov",
          "type": "address"
        }
      ],
      "stateMutability": "nonpayable",
      "type": "constructor"
    },
    {
      "anonymous": false,
      "inputs": [
        {
          "indexed": true,
          "internalType": "address",
          "name": "owner",
          "type": "address"
        },
        {
          "indexed": true,
          "internalType": "address",
          "name": "spender",
          "type": "address"
        },
        {
          "indexed": false,
          "internalType": "uint256",
          "name": "value",
          "type": "uint256"
        }
      ],
      "name": "Approval",
      "type": "event"
    },
    {
      "anonymous": false,
      "inputs": [
        {
          "indexed": true,
          "internalType": "bytes32",
          "name": "role",
          "type": "bytes32"
        },
        {
          "indexed": true,
          "internalType": "bytes32",
          "name": "previousAdminRole",
          "type": "bytes32"
        },
        {
          "indexed": true,
          "internalType": "bytes32",
          "name": "newAdminRole",
          "type": "bytes32"
        }
      ],
      "name": "RoleAdminChanged",
      "type": "event"
    },
    {
      "anonymous": false,
      "inputs": [
        {
          "indexed": true,
          "internalType": "bytes32",
          "name": "role",
          "type": "bytes32"
        },
        {
          "indexed": true,
          "internalType": "address",
          "name": "account",
          "type": "address"
        },
        {
          "indexed": true,
          "internalType": "address",
          "name": "sender",
          "type": "address"
        }
      ],
      "name": "RoleGranted",
      "type": "event"
    },
    {
      "anonymous": false,
      "inputs": [
        {
          "indexed": true,
          "internalType": "bytes32",
          "name": "role",
          "type": "bytes32"
        },
        {
          "indexed": true,
          "internalType": "address",
          "name": "account",
          "type": "address"
        },
        {
          "indexed": true,
          "internalType": "address",
          "name": "sender",
          "type": "address"
        }
      ],
      "name": "RoleRevoked",
      "type": "event"
    },
    {
      "anonymous": false,
      "inputs": [
        {
          "indexed": true,
          "internalType": "address",
          "name": "from",
          "type": "address"
        },
        {
          "indexed": true,
          "internalType": "address",
          "name": "to",
          "type": "address"
        },
        {
          "indexed": false,
          "internalType": "uint256",
          "name": "value",
          "type": "uint256"
        }
      ],
      "name": "Transfer",
      "type": "event"
    },
    {
      "anonymous": false,
      "inputs": [
        {
          "indexed": false,
          "internalType": "bool",
          "name": "transfersAllowed",
          "type": "bool"
        }
      ],
      "name": "TransfersAllowed",
      "type": "event"
    },
    {
      "inputs": [],
      "name": "ADMIN_ROLE",
      "outputs": [
        {
          "internalType": "bytes32",
          "name": "",
          "type": "bytes32"
        }
      ],
      "stateMutability": "view",
      "type": "function"
    },
    {
      "inputs": [],
      "name": "DEFAULT_ADMIN_ROLE",
      "outputs": [
        {
          "internalType": "bytes32",
          "name": "",
          "type": "bytes32"
        }
      ],
      "stateMutability": "view",
      "type": "function"
    },
    {
      "inputs": [],
      "name": "MINTER_ROLE",
      "outputs": [
        {
          "internalType": "bytes32",
          "name": "",
          "type": "bytes32"
        }
      ],
      "stateMutability": "view",
      "type": "function"
    },
    {
      "inputs": [],
      "name": "TRANSFER_ROLE",
      "outputs": [
        {
          "internalType": "bytes32",
          "name": "",
          "type": "bytes32"
        }
      ],
      "stateMutability": "view",
      "type": "function"
    },
    {
      "inputs": [
        {
          "internalType": "address",
          "name": "owner",
          "type": "address"
        },
        {
          "internalType": "address",
          "name": "spender",
          "type": "address"
        }
      ],
      "name": "allowance",
      "outputs": [
        {
          "internalType": "uint256",
          "name": "",
          "type": "uint256"
        }
      ],
      "stateMutability": "view",
      "type": "function"
    },
    {
      "inputs": [
        {
          "internalType": "address",
          "name": "spender",
          "type": "address"
        },
        {
          "internalType": "uint256",
          "name": "amount",
          "type": "uint256"
        }
      ],
      "name": "approve",
      "outputs": [
        {
          "internalType": "bool",
          "name": "",
          "type": "bool"
        }
      ],
      "stateMutability": "nonpayable",
      "type": "function"
    },
    {
      "inputs": [
        {
          "internalType": "address",
          "name": "account",
          "type": "address"
        }
      ],
      "name": "balanceOf",
      "outputs": [
        {
          "internalType": "uint256",
          "name": "",
          "type": "uint256"
        }
      ],
      "stateMutability": "view",
      "type": "function"
    },
    {
      "inputs": [
        {
          "internalType": "uint256",
          "name": "amount",
          "type": "uint256"
        }
      ],
      "name": "burn",
      "outputs": [],
      "stateMutability": "nonpayable",
      "type": "function"
    },
    {
      "inputs": [
        {
          "internalType": "address",
          "name": "account",
          "type": "address"
        },
        {
          "internalType": "uint256",
          "name": "amount",
          "type": "uint256"
        }
      ],
      "name": "burnFrom",
      "outputs": [],
      "stateMutability": "nonpayable",
      "type": "function"
    },
    {
      "inputs": [],
      "name": "decimals",
      "outputs": [
        {
          "internalType": "uint8",
          "name": "",
          "type": "uint8"
        }
      ],
      "stateMutability": "view",
      "type": "function"
    },
    {
      "inputs": [
        {
          "internalType": "address",
          "name": "spender",
          "type": "address"
        },
        {
          "internalType": "uint256",
          "name": "subtractedValue",
          "type": "uint256"
        }
      ],
      "name": "decreaseAllowance",
      "outputs": [
        {
          "internalType": "bool",
          "name": "",
          "type": "bool"
        }
      ],
      "stateMutability": "nonpayable",
      "type": "function"
    },
    {
      "inputs": [
        {
          "internalType": "bytes32",
          "name": "role",
          "type": "bytes32"
        }
      ],
      "name": "getRoleAdmin",
      "outputs": [
        {
          "internalType": "bytes32",
          "name": "",
          "type": "bytes32"
        }
      ],
      "stateMutability": "view",
      "type": "function"
    },
    {
      "inputs": [
        {
          "internalType": "bytes32",
          "name": "role",
          "type": "bytes32"
        },
        {
          "internalType": "address",
          "name": "account",
          "type": "address"
        }
      ],
      "name": "grantRole",
      "outputs": [],
      "stateMutability": "nonpayable",
      "type": "function"
    },
    {
      "inputs": [
        {
          "internalType": "bytes32",
          "name": "role",
          "type": "bytes32"
        },
        {
          "internalType": "address",
          "name": "account",
          "type": "address"
        }
      ],
      "name": "hasRole",
      "outputs": [
        {
          "internalType": "bool",
          "name": "",
          "type": "bool"
        }
      ],
      "stateMutability": "view",
      "type": "function"
    },
    {
      "inputs": [
        {
          "internalType": "address",
          "name": "spender",
          "type": "address"
        },
        {
          "internalType": "uint256",
          "name": "addedValue",
          "type": "uint256"
        }
      ],
      "name": "increaseAllowance",
      "outputs": [
        {
          "internalType": "bool",
          "name": "",
          "type": "bool"
        }
      ],
      "stateMutability": "nonpayable",
      "type": "function"
    },
    {
      "inputs": [],
      "name": "name",
      "outputs": [
        {
          "internalType": "string",
          "name": "",
          "type": "string"
        }
      ],
      "stateMutability": "view",
      "type": "function"
    },
    {
      "inputs": [
        {
          "internalType": "bytes32",
          "name": "role",
          "type": "bytes32"
        },
        {
          "internalType": "address",
          "name": "account",
          "type": "address"
        }
      ],
      "name": "renounceRole",
      "outputs": [],
      "stateMutability": "nonpayable",
      "type": "function"
    },
    {
      "inputs": [
        {
          "internalType": "bytes32",
          "name": "role",
          "type": "bytes32"
        },
        {
          "internalType": "address",
          "name": "account",
          "type": "address"
        }
      ],
      "name": "revokeRole",
      "outputs": [],
      "stateMutability": "nonpayable",
      "type": "function"
    },
    {
      "inputs": [
        {
          "internalType": "bytes4",
          "name": "interfaceId",
          "type": "bytes4"
        }
      ],
      "name": "supportsInterface",
      "outputs": [
        {
          "internalType": "bool",
          "name": "",
          "type": "bool"
        }
      ],
      "stateMutability": "view",
      "type": "function"
    },
    {
      "inputs": [],
      "name": "symbol",
      "outputs": [
        {
          "internalType": "string",
          "name": "",
          "type": "string"
        }
      ],
      "stateMutability": "view",
      "type": "function"
    },
    {
      "inputs": [],
      "name": "totalSupply",
      "outputs": [
        {
          "internalType": "uint256",
          "name": "",
          "type": "uint256"
        }
      ],
      "stateMutability": "view",
      "type": "function"
    },
    {
      "inputs": [
        {
          "internalType": "address",
          "name": "to",
          "type": "address"
        },
        {
          "internalType": "uint256",
          "name": "amount",
          "type": "uint256"
        }
      ],
      "name": "transfer",
      "outputs": [
        {
          "internalType": "bool",
          "name": "",
          "type": "bool"
        }
      ],
      "stateMutability": "nonpayable",
      "type": "function"
    },
    {
      "inputs": [
        {
          "internalType": "address",
          "name": "from",
          "type": "address"
        },
        {
          "internalType": "address",
          "name": "to",
          "type": "address"
        },
        {
          "internalType": "uint256",
          "name": "amount",
          "type": "uint256"
        }
      ],
      "name": "transferFrom",
      "outputs": [
        {
          "internalType": "bool",
          "name": "",
          "type": "bool"
        }
      ],
      "stateMutability": "nonpayable",
      "type": "function"
    },
    {
      "inputs": [],
      "name": "transfersAllowed",
      "outputs": [
        {
          "internalType": "bool",
          "name": "",
          "type": "bool"
        }
      ],
      "stateMutability": "view",
      "type": "function"
    },
    {
      "inputs": [
        {
          "internalType": "address",
          "name": "_recipient",
          "type": "address"
        },
        {
          "internalType": "uint256",
          "name": "_amount",
          "type": "uint256"
        }
      ],
      "name": "mint",
      "outputs": [],
      "stateMutability": "nonpayable",
      "type": "function"
    },
    {
      "inputs": [
        {
          "internalType": "bool",
          "name": "_transfersAllowed",
          "type": "bool"
        }
      ],
      "name": "setTransfersAllowed",
      "outputs": [],
      "stateMutability": "nonpayable",
      "type": "function"
    }
  ],
  "bytecode": "0x60806040526006805460ff191690553480156200001b57600080fd5b5060405162001aac38038062001aac8339810160408190526200003e9162000518565b845185908590620000579060049060208501906200039e565b5080516200006d9060059060208401906200039e565b5050506200008282846200012660201b60201c565b620000ae7ff0887ba65ee2024ea881d91b74c2450ef19e1557f03bed3ea9f16b037cbe2dc983620001fe565b620000c960008051602062001a8c83398151915283620001fe565b620000e460008051602062001a6c83398151915283620001fe565b6200010e60008051602062001a8c83398151915260008051602062001a6c8339815191526200020a565b6200011b600082620001fe565b50505050506200062b565b6001600160a01b038216620001825760405162461bcd60e51b815260206004820152601f60248201527f45524332303a206d696e7420746f20746865207a65726f20616464726573730060448201526064015b60405180910390fd5b620001906000838362000255565b8060036000828254620001a49190620005b1565b90915550506001600160a01b0382166000818152600160209081526040808320805486019055518481527fddf252ad1be2c89b69c2b068fc378daa952ba7f163c4a11628f55a4df523b3ef910160405180910390a35b5050565b620001fa8282620002fe565b600082815260208190526040808220600101805490849055905190918391839186917fbd79b86ffe0ab8e8776151514217cd7cacd52c909f66475c3af44e129f0b00ff9190a4505050565b600654839060ff16806200027057506001600160a01b038116155b80620002aa57503360009081527ff91e470529b134f53cc2423ec75956ab0a7129d1d45a3368b85317e275ac733d602052604090205460ff165b620002f85760405162461bcd60e51b815260206004820152601c60248201527f50494b413a206e6f207472616e736665722070726976696c6567657300000000604482015260640162000179565b50505050565b6000828152602081815260408083206001600160a01b038516845290915290205460ff16620001fa576000828152602081815260408083206001600160a01b03851684529091529020805460ff191660011790556200035a3390565b6001600160a01b0316816001600160a01b0316837f2f8788117e7eff1d82e926ec794901d17c78024a50270940304540a733656f0d60405160405180910390a45050565b828054620003ac90620005d8565b90600052602060002090601f016020900481019282620003d057600085556200041b565b82601f10620003eb57805160ff19168380011785556200041b565b828001600101855582156200041b579182015b828111156200041b578251825591602001919060010190620003fe565b50620004299291506200042d565b5090565b5b808211156200042957600081556001016200042e565b80516001600160a01b03811681146200045c57600080fd5b919050565b600082601f8301126200047357600080fd5b81516001600160401b038082111562000490576200049062000615565b604051601f8301601f19908116603f01168101908282118183101715620004bb57620004bb62000615565b81604052838152602092508683858801011115620004d857600080fd5b600091505b83821015620004fc5785820183015181830184015290820190620004dd565b838211156200050e5760008385830101525b9695505050505050565b600080600080600060a086880312156200053157600080fd5b85516001600160401b03808211156200054957600080fd5b6200055789838a0162000461565b965060208801519150808211156200056e57600080fd5b506200057d8882890162000461565b94505060408601519250620005956060870162000444565b9150620005a56080870162000444565b90509295509295909350565b60008219821115620005d357634e487b7160e01b600052601160045260246000fd5b500190565b600181811c90821680620005ed57607f821691505b602082108114156200060f57634e487b7160e01b600052602260045260246000fd5b50919050565b634e487b7160e01b600052604160045260246000fd5b611431806200063b6000396000f3fe608060405234801561001057600080fd5b506004361061018e5760003560e01c806370a08231116100de578063a457c2d711610097578063d539139311610071578063d53913931461037b578063d547741f146103a2578063dd62ed3e146103b5578063f3cd1c28146103c857600080fd5b8063a457c2d714610348578063a9059cbb1461035b578063b0660c3d1461036e57600080fd5b806370a08231146102c257806375b238fc146102eb57806379cc67901461031257806391d148541461032557806395d89b4114610338578063a217fddf1461034057600080fd5b8063248a9ca31161014b57806336568abe1161012557806336568abe14610276578063395093511461028957806340c10f191461029c57806342966c68146102af57600080fd5b8063248a9ca31461022f5780632f2ff15d14610252578063313ce5671461026757600080fd5b806301ffc9a71461019357806306fdde03146101bb578063095ea7b3146101d057806318160ddd146101e3578063206b60f9146101f557806323b872dd1461021c575b600080fd5b6101a66101a1366004611232565b6103db565b60405190151581526020015b60405180910390f35b6101c3610412565b6040516101b291906112d1565b6101a66101de3660046111aa565b6104a4565b6003545b6040519081526020016101b2565b6101e77f9143236d81225394f3bd65b44e6e29fdf4d7ba0773d9bb3f5cc15eb80ba3777781565b6101a661022a36600461116e565b6104bc565b6101e761023d3660046111f6565b60009081526020819052604090206001015490565b61026561026036600461120f565b6104e0565b005b604051601281526020016101b2565b61026561028436600461120f565b61050a565b6101a66102973660046111aa565b61058d565b6102656102aa3660046111aa565b6105af565b6102656102bd3660046111f6565b610623565b6101e76102d0366004611120565b6001600160a01b031660009081526001602052604090205490565b6101e77fdf8b4c520ffe197c5343c6f5aec59570151ef9a492f2c624fd45ddde6135ec4281565b6102656103203660046111aa565b610630565b6101a661033336600461120f565b610645565b6101c361066e565b6101e7600081565b6101a66103563660046111aa565b61067d565b6101a66103693660046111aa565b6106f8565b6006546101a69060ff1681565b6101e77ff0887ba65ee2024ea881d91b74c2450ef19e1557f03bed3ea9f16b037cbe2dc981565b6102656103b036600461120f565b610706565b6101e76103c336600461113b565b61072b565b6102656103d63660046111d4565b610756565b60006001600160e01b03198216637965db0b60e01b148061040c57506301ffc9a760e01b6001600160e01b03198316145b92915050565b6060600480546104219061137e565b80601f016020809104026020016040519081016040528092919081815260200182805461044d9061137e565b801561049a5780601f1061046f5761010080835404028352916020019161049a565b820191906000526020600020905b81548152906001019060200180831161047d57829003601f168201915b5050505050905090565b6000336104b281858561080c565b5060019392505050565b6000336104ca858285610930565b6104d58585856109aa565b506001949350505050565b6000828152602081905260409020600101546104fb81610b60565b6105058383610b6a565b505050565b6001600160a01b038116331461057f5760405162461bcd60e51b815260206004820152602f60248201527f416363657373436f6e74726f6c3a2063616e206f6e6c792072656e6f756e636560448201526e103937b632b9903337b91039b2b63360891b60648201526084015b60405180910390fd5b6105898282610bee565b5050565b6000336104b28185856105a0838361072b565b6105aa9190611304565b61080c565b6105d97ff0887ba65ee2024ea881d91b74c2450ef19e1557f03bed3ea9f16b037cbe2dc933610645565b6106195760405162461bcd60e51b81526020600482015260116024820152702824a5a09d1037b7363c9036b4b73a32b960791b6044820152606401610576565b6105898282610c53565b61062d3382610d20565b50565b61063b823383610930565b6105898282610d20565b6000918252602082815260408084206001600160a01b0393909316845291905290205460ff1690565b6060600580546104219061137e565b6000338161068b828661072b565b9050838110156106eb5760405162461bcd60e51b815260206004820152602560248201527f45524332303a2064656372656173656420616c6c6f77616e63652062656c6f77604482015264207a65726f60d81b6064820152608401610576565b6104d5828686840361080c565b6000336104b28185856109aa565b60008281526020819052604090206001015461072181610b60565b6105058383610bee565b6001600160a01b03918216600090815260026020908152604080832093909416825291909152205490565b6107807fdf8b4c520ffe197c5343c6f5aec59570151ef9a492f2c624fd45ddde6135ec4233610645565b6107bf5760405162461bcd60e51b815260206004820152601060248201526f2824a5a09d1037b7363c9030b236b4b760811b6044820152606401610576565b6006805460ff191682151590811790915560405160ff909116151581527f5854ddf9a9b69cf8f2802ec78fb8d6bbf299e949955d9361212e652f4fec0e829060200160405180910390a150565b6001600160a01b03831661086e5760405162461bcd60e51b8152602060048201526024808201527f45524332303a20617070726f76652066726f6d20746865207a65726f206164646044820152637265737360e01b6064820152608401610576565b6001600160a01b0382166108cf5760405162461bcd60e51b815260206004820152602260248201527f45524332303a20617070726f766520746f20746865207a65726f206164647265604482015261737360f01b6064820152608401610576565b6001600160a01b0383811660008181526002602090815260408083209487168084529482529182902085905590518481527f8c5be1e5ebec7d5bd14f71427d1e84f3dd0314c0f7b2291e5b200ac8c7c3b925910160405180910390a3505050565b600061093c848461072b565b905060001981146109a457818110156109975760405162461bcd60e51b815260206004820152601d60248201527f45524332303a20696e73756666696369656e7420616c6c6f77616e63650000006044820152606401610576565b6109a4848484840361080c565b50505050565b6001600160a01b038316610a0e5760405162461bcd60e51b815260206004820152602560248201527f45524332303a207472616e736665722066726f6d20746865207a65726f206164604482015264647265737360d81b6064820152608401610576565b6001600160a01b038216610a705760405162461bcd60e51b815260206004820152602360248201527f45524332303a207472616e7366657220746f20746865207a65726f206164647260448201526265737360e81b6064820152608401610576565b610a7b838383610e60565b6001600160a01b03831660009081526001602052604090205481811015610af35760405162461bcd60e51b815260206004820152602660248201527f45524332303a207472616e7366657220616d6f756e7420657863656564732062604482015265616c616e636560d01b6064820152608401610576565b6001600160a01b0380851660008181526001602052604080822086860390559286168082529083902080548601905591517fddf252ad1be2c89b69c2b068fc378daa952ba7f163c4a11628f55a4df523b3ef90610b539086815260200190565b60405180910390a36109a4565b61062d8133610ef6565b610b748282610645565b610589576000828152602081815260408083206001600160a01b03851684529091529020805460ff19166001179055610baa3390565b6001600160a01b0316816001600160a01b0316837f2f8788117e7eff1d82e926ec794901d17c78024a50270940304540a733656f0d60405160405180910390a45050565b610bf88282610645565b15610589576000828152602081815260408083206001600160a01b0385168085529252808320805460ff1916905551339285917ff6391f5c32d9c69d2a47ea670b442974b53935d1edc7fd64eb21e047a839171b9190a45050565b6001600160a01b038216610ca95760405162461bcd60e51b815260206004820152601f60248201527f45524332303a206d696e7420746f20746865207a65726f2061646472657373006044820152606401610576565b610cb560008383610e60565b8060036000828254610cc79190611304565b90915550506001600160a01b0382166000818152600160209081526040808320805486019055518481527fddf252ad1be2c89b69c2b068fc378daa952ba7f163c4a11628f55a4df523b3ef910160405180910390a35050565b6001600160a01b038216610d805760405162461bcd60e51b815260206004820152602160248201527f45524332303a206275726e2066726f6d20746865207a65726f206164647265736044820152607360f81b6064820152608401610576565b610d8c82600083610e60565b6001600160a01b03821660009081526001602052604090205481811015610e005760405162461bcd60e51b815260206004820152602260248201527f45524332303a206275726e20616d6f756e7420657863656564732062616c616e604482015261636560f01b6064820152608401610576565b6001600160a01b03831660008181526001602090815260408083208686039055600380548790039055518581529192917fddf252ad1be2c89b69c2b068fc378daa952ba7f163c4a11628f55a4df523b3ef910160405180910390a3505050565b600654839060ff1680610e7a57506001600160a01b038116155b80610eaa5750610eaa7f9143236d81225394f3bd65b44e6e29fdf4d7ba0773d9bb3f5cc15eb80ba3777733610645565b6109a45760405162461bcd60e51b815260206004820152601c60248201527f50494b413a206e6f207472616e736665722070726976696c65676573000000006044820152606401610576565b610f008282610645565b61058957610f0d81610f4f565b610f18836020610f61565b604051602001610f2992919061125c565b60408051601f198184030181529082905262461bcd60e51b8252610576916004016112d1565b606061040c6001600160a01b03831660145b60606000610f7083600261131c565b610f7b906002611304565b67ffffffffffffffff811115610f9357610f936113e5565b6040519080825280601f01601f191660200182016040528015610fbd576020820181803683370190505b509050600360fc1b81600081518110610fd857610fd86113cf565b60200101906001600160f81b031916908160001a905350600f60fb1b81600181518110611007576110076113cf565b60200101906001600160f81b031916908160001a905350600061102b84600261131c565b611036906001611304565b90505b60018111156110ae576f181899199a1a9b1b9c1cb0b131b232b360811b85600f166010811061106a5761106a6113cf565b1a60f81b828281518110611080576110806113cf565b60200101906001600160f81b031916908160001a90535060049490941c936110a781611367565b9050611039565b5083156110fd5760405162461bcd60e51b815260206004820181905260248201527f537472696e67733a20686578206c656e67746820696e73756666696369656e746044820152606401610576565b9392505050565b80356001600160a01b038116811461111b57600080fd5b919050565b60006020828403121561113257600080fd5b6110fd82611104565b6000806040838503121561114e57600080fd5b61115783611104565b915061116560208401611104565b90509250929050565b60008060006060848603121561118357600080fd5b61118c84611104565b925061119a60208501611104565b9150604084013590509250925092565b600080604083850312156111bd57600080fd5b6111c683611104565b946020939093013593505050565b6000602082840312156111e657600080fd5b813580151581146110fd57600080fd5b60006020828403121561120857600080fd5b5035919050565b6000806040838503121561122257600080fd5b8235915061116560208401611104565b60006020828403121561124457600080fd5b81356001600160e01b0319811681146110fd57600080fd5b7f416363657373436f6e74726f6c3a206163636f756e742000000000000000000081526000835161129481601785016020880161133b565b7001034b99036b4b9b9b4b733903937b6329607d1b60179184019182015283516112c581602884016020880161133b565b01602801949350505050565b60208152600082518060208401526112f081604085016020870161133b565b601f01601f19169190910160400192915050565b60008219821115611317576113176113b9565b500190565b6000816000190483118215151615611336576113366113b9565b500290565b60005b8381101561135657818101518382015260200161133e565b838111156109a45750506000910152565b600081611376576113766113b9565b506000190190565b600181811c9082168061139257607f821691505b602082108114156113b357634e487b7160e01b600052602260045260246000fd5b50919050565b634e487b7160e01b600052601160045260246000fd5b634e487b7160e01b600052603260045260246000fd5b634e487b7160e01b600052604160045260246000fdfea2646970667358221220b34563b8961210f9e24d71b41fccdb872ac4a30448ef202cef98571ed5ef6ea664736f6c63430008070033df8b4c520ffe197c5343c6f5aec59570151ef9a492f2c624fd45ddde6135ec429143236d81225394f3bd65b44e6e29fdf4d7ba0773d9bb3f5cc15eb80ba37777",
  "immutableReferences": {},
  "source": "pragma solidity ^0.8.0;\n\nimport \"@openzeppelin/contracts/token/ERC20/ERC20.sol\";\nimport \"@openzeppelin/contracts/token/ERC20/extensions/ERC20Burnable.sol\";\nimport \"@openzeppelin/contracts/access/AccessControl.sol\";\n\n/** @title VePika\n    @notice The contract is used for both Pika and esPika. Pika is a transferable token,\n    and esPika is a non-transferable token which can be linearly vested to PIKA token via vesting contract.\n */\ncontract Pika is AccessControl, ERC20, ERC20Burnable {\n    /// @dev The identifier of the role which maintains other roles.\n    bytes32 public constant ADMIN_ROLE = keccak256(\"ADMIN\");\n    /// @dev The identifier of the role which allows accounts to mint tokens.\n    bytes32 public constant MINTER_ROLE = keccak256(\"MINTER\");\n    /// @dev The identifier of the role which allows special transfer privileges.\n    bytes32 public constant TRANSFER_ROLE = keccak256(\"TRANSFER\");\n\n    /// @dev bool flag of whether transfer is currently allowed for all people.\n    bool public transfersAllowed = false;\n\n    constructor(\n        string memory name,\n        string memory symbol,\n        uint256 totalSupply,\n        address beneficiary,\n        address gov\n    ) ERC20(name, symbol) {\n        // We are minting initialSupply number of tokens\n        _mint(beneficiary, totalSupply);\n        // Add beneficiary as minter\n        _setupRole(MINTER_ROLE, beneficiary);\n        // Add beneficiary as transferer\n        _setupRole(TRANSFER_ROLE, beneficiary);\n        // Add beneficiary as admin\n        _setupRole(ADMIN_ROLE, beneficiary);\n        // Set ADMIN role as admin of transfer role\n        _setRoleAdmin(TRANSFER_ROLE, ADMIN_ROLE);\n        // Set default admin role: it will be able to grant and revoke any roles\n        _setupRole(DEFAULT_ADMIN_ROLE, gov);\n    }\n\n    /// @dev A modifier which checks that the caller has the minter role.\n    modifier onlyMinter() {\n        require(hasRole(MINTER_ROLE, msg.sender), \"PIKA: only minter\");\n        _;\n    }\n\n    /// @dev A modifier which checks that the caller has the admin role.\n    modifier onlyAdmin() {\n        require(hasRole(ADMIN_ROLE, msg.sender), \"PIKA: only admin\");\n        _;\n    }\n\n    /// @dev A modifier which checks that the caller has transfer privileges.\n    modifier onlyTransferer(address from) {\n        require(\n            transfersAllowed ||\n            from == address(0) ||\n            hasRole(TRANSFER_ROLE, msg.sender),\n            \"PIKA: no transfer privileges\"\n        );\n        _;\n    }\n\n    /// @dev Mints tokens to a recipient.\n    ///\n    /// This function reverts if the caller does not have the minter role.\n    function mint(address _recipient, uint256 _amount) external onlyMinter {\n        _mint(_recipient, _amount);\n    }\n\n    /// @dev Toggles transfer allowed flag.\n    ///\n    /// This function reverts if the caller does not have the admin role.\n    function setTransfersAllowed(bool _transfersAllowed) external onlyAdmin {\n        transfersAllowed = _transfersAllowed;\n        emit TransfersAllowed(transfersAllowed);\n    }\n\n    /// @dev Hook that is called before any transfer of tokens.\n    function _beforeTokenTransfer(\n        address from,\n        address to,\n        uint256 amount\n    ) internal virtual override onlyTransferer(from) {}\n\n    /// @dev Emitted when transfer toggle is switched\n    event TransfersAllowed(bool transfersAllowed);\n}",
  "sourcePath": "/Users/me/workspace/PikaPerpV2/contracts/token/Pika.sol",
  "compiler": {
    "name": "solc",
    "version": "0.8.7+commit.e28d00a7.Emscripten.clang"
  },
  "schemaVersion": "3.4.11",
  "updatedAt": "2023-01-14T09:54:29.112Z",
  "devdoc": {
    "events": {
      "TransfersAllowed(bool)": {
        "details": "Emitted when transfer toggle is switched"
      }
    },
    "kind": "dev",
    "methods": {
      "allowance(address,address)": {
        "details": "See {IERC20-allowance}."
      },
      "approve(address,uint256)": {
        "details": "See {IERC20-approve}. NOTE: If `amount` is the maximum `uint256`, the allowance is not updated on `transferFrom`. This is semantically equivalent to an infinite approval. Requirements: - `spender` cannot be the zero address."
      },
      "balanceOf(address)": {
        "details": "See {IERC20-balanceOf}."
      },
      "burn(uint256)": {
        "details": "Destroys `amount` tokens from the caller. See {ERC20-_burn}."
      },
      "burnFrom(address,uint256)": {
        "details": "Destroys `amount` tokens from `account`, deducting from the caller's allowance. See {ERC20-_burn} and {ERC20-allowance}. Requirements: - the caller must have allowance for ``accounts``'s tokens of at least `amount`."
      },
      "decimals()": {
        "details": "Returns the number of decimals used to get its user representation. For example, if `decimals` equals `2`, a balance of `505` tokens should be displayed to a user as `5.05` (`505 / 10 ** 2`). Tokens usually opt for a value of 18, imitating the relationship between Ether and Wei. This is the value {ERC20} uses, unless this function is overridden; NOTE: This information is only used for _display_ purposes: it in no way affects any of the arithmetic of the contract, including {IERC20-balanceOf} and {IERC20-transfer}."
      },
      "decreaseAllowance(address,uint256)": {
        "details": "Atomically decreases the allowance granted to `spender` by the caller. This is an alternative to {approve} that can be used as a mitigation for problems described in {IERC20-approve}. Emits an {Approval} event indicating the updated allowance. Requirements: - `spender` cannot be the zero address. - `spender` must have allowance for the caller of at least `subtractedValue`."
      },
      "getRoleAdmin(bytes32)": {
        "details": "Returns the admin role that controls `role`. See {grantRole} and {revokeRole}. To change a role's admin, use {_setRoleAdmin}."
      },
      "grantRole(bytes32,address)": {
        "details": "Grants `role` to `account`. If `account` had not been already granted `role`, emits a {RoleGranted} event. Requirements: - the caller must have ``role``'s admin role. May emit a {RoleGranted} event."
      },
      "hasRole(bytes32,address)": {
        "details": "Returns `true` if `account` has been granted `role`."
      },
      "increaseAllowance(address,uint256)": {
        "details": "Atomically increases the allowance granted to `spender` by the caller. This is an alternative to {approve} that can be used as a mitigation for problems described in {IERC20-approve}. Emits an {Approval} event indicating the updated allowance. Requirements: - `spender` cannot be the zero address."
      },
      "mint(address,uint256)": {
        "details": "Mints tokens to a recipient. This function reverts if the caller does not have the minter role."
      },
      "name()": {
        "details": "Returns the name of the token."
      },
      "renounceRole(bytes32,address)": {
        "details": "Revokes `role` from the calling account. Roles are often managed via {grantRole} and {revokeRole}: this function's purpose is to provide a mechanism for accounts to lose their privileges if they are compromised (such as when a trusted device is misplaced). If the calling account had been revoked `role`, emits a {RoleRevoked} event. Requirements: - the caller must be `account`. May emit a {RoleRevoked} event."
      },
      "revokeRole(bytes32,address)": {
        "details": "Revokes `role` from `account`. If `account` had been granted `role`, emits a {RoleRevoked} event. Requirements: - the caller must have ``role``'s admin role. May emit a {RoleRevoked} event."
      },
      "setTransfersAllowed(bool)": {
        "details": "Toggles transfer allowed flag. This function reverts if the caller does not have the admin role."
      },
      "supportsInterface(bytes4)": {
        "details": "See {IERC165-supportsInterface}."
      },
      "symbol()": {
        "details": "Returns the symbol of the token, usually a shorter version of the name."
      },
      "totalSupply()": {
        "details": "See {IERC20-totalSupply}."
      },
      "transfer(address,uint256)": {
        "details": "See {IERC20-transfer}. Requirements: - `to` cannot be the zero address. - the caller must have a balance of at least `amount`."
      },
      "transferFrom(address,address,uint256)": {
        "details": "See {IERC20-transferFrom}. Emits an {Approval} event indicating the updated allowance. This is not required by the EIP. See the note at the beginning of {ERC20}. NOTE: Does not update the allowance if the current allowance is the maximum `uint256`. Requirements: - `from` and `to` cannot be the zero address. - `from` must have a balance of at least `amount`. - the caller must have allowance for ``from``'s tokens of at least `amount`."
      }
    },
    "stateVariables": {
      "ADMIN_ROLE": {
        "details": "The identifier of the role which maintains other roles."
      },
      "MINTER_ROLE": {
        "details": "The identifier of the role which allows accounts to mint tokens."
      },
      "TRANSFER_ROLE": {
        "details": "The identifier of the role which allows special transfer privileges."
      },
      "transfersAllowed": {
        "details": "bool flag of whether transfer is currently allowed for all people."
      }
    },
    "title": "VePika",
    "version": 1
  },
  "userdoc": {
    "kind": "user",
    "methods": {},
    "notice": "The contract is used for both Pika and esPika. Pika is a transferable token, and esPika is a non-transferable token which can be linearly vested to PIKA token via vesting contract.",
    "version": 1
  }
}