{
  "contractName": "PikaPriceFeed",
  "abi": [
    {
      "inputs": [],
      "stateMutability": "nonpayable",
      "type": "constructor"
    },
    {
      "anonymous": false,
      "inputs": [
        {
          "indexed": false,
          "internalType": "uint256",
          "name": "maxPriceDiff",
          "type": "uint256"
        }
      ],
      "name": "DefaultMaxPriceDiffSet",
      "type": "event"
    },
    {
      "anonymous": false,
      "inputs": [
        {
          "indexed": false,
          "internalType": "uint256",
          "name": "defaultSpread",
          "type": "uint256"
        }
      ],
      "name": "DefaultSpreadSet",
      "type": "event"
    },
    {
      "anonymous": false,
      "inputs": [
        {
          "indexed": false,
          "internalType": "uint256",
          "name": "delta",
          "type": "uint256"
        },
        {
          "indexed": false,
          "internalType": "uint256",
          "name": "decay",
          "type": "uint256"
        }
      ],
      "name": "DeltaAndDecaySet",
      "type": "event"
    },
    {
      "anonymous": false,
      "inputs": [
        {
          "indexed": false,
          "internalType": "address",
          "name": "voter",
          "type": "address"
        }
      ],
      "name": "DisableFastOracle",
      "type": "event"
    },
    {
      "anonymous": false,
      "inputs": [
        {
          "indexed": false,
          "internalType": "address",
          "name": "voter",
          "type": "address"
        }
      ],
      "name": "EnableFastOracle",
      "type": "event"
    },
    {
      "anonymous": false,
      "inputs": [
        {
          "indexed": false,
          "internalType": "bool",
          "name": "isChainlinkOnlySet",
          "type": "bool"
        }
      ],
      "name": "IsChainlinkOnlySet",
      "type": "event"
    },
    {
      "anonymous": false,
      "inputs": [
        {
          "indexed": false,
          "internalType": "bool",
          "name": "isPikaOracleOnlySet",
          "type": "bool"
        }
      ],
      "name": "IsPikaOracleOnlySet",
      "type": "event"
    },
    {
      "anonymous": false,
      "inputs": [
        {
          "indexed": false,
          "internalType": "bool",
          "name": "isSpreadEnabled",
          "type": "bool"
        }
      ],
      "name": "IsSpreadEnabledSet",
      "type": "event"
    },
    {
      "anonymous": false,
      "inputs": [
        {
          "indexed": false,
          "internalType": "address",
          "name": "keeper",
          "type": "address"
        },
        {
          "indexed": false,
          "internalType": "bool",
          "name": "isActive",
          "type": "bool"
        }
      ],
      "name": "KeeperSet",
      "type": "event"
    },
    {
      "anonymous": false,
      "inputs": [
        {
          "indexed": false,
          "internalType": "address",
          "name": "token",
          "type": "address"
        },
        {
          "indexed": false,
          "internalType": "uint256",
          "name": "maxPriceDiff",
          "type": "uint256"
        }
      ],
      "name": "MaxPriceDiffSet",
      "type": "event"
    },
    {
      "anonymous": false,
      "inputs": [
        {
          "indexed": false,
          "internalType": "uint256",
          "name": "minVoteCount",
          "type": "uint256"
        }
      ],
      "name": "MinVoteCountSet",
      "type": "event"
    },
    {
      "anonymous": false,
      "inputs": [
        {
          "indexed": false,
          "internalType": "uint256",
          "name": "priceDuration",
          "type": "uint256"
        }
      ],
      "name": "PriceDurationSet",
      "type": "event"
    },
    {
      "anonymous": false,
      "inputs": [
        {
          "indexed": false,
          "internalType": "address",
          "name": "token",
          "type": "address"
        },
        {
          "indexed": false,
          "internalType": "uint256",
          "name": "price",
          "type": "uint256"
        },
        {
          "indexed": false,
          "internalType": "uint256",
          "name": "timestamp",
          "type": "uint256"
        }
      ],
      "name": "PriceSet",
      "type": "event"
    },
    {
      "anonymous": false,
      "inputs": [
        {
          "indexed": false,
          "internalType": "address",
          "name": "owner",
          "type": "address"
        }
      ],
      "name": "SetOwner",
      "type": "event"
    },
    {
      "anonymous": false,
      "inputs": [
        {
          "indexed": false,
          "internalType": "address",
          "name": "token",
          "type": "address"
        },
        {
          "indexed": false,
          "internalType": "uint256",
          "name": "spread",
          "type": "uint256"
        }
      ],
      "name": "SpreadSet",
      "type": "event"
    },
    {
      "anonymous": false,
      "inputs": [
        {
          "indexed": false,
          "internalType": "uint256",
          "name": "updateInterval",
          "type": "uint256"
        }
      ],
      "name": "UpdateIntervalSet",
      "type": "event"
    },
    {
      "anonymous": false,
      "inputs": [
        {
          "indexed": false,
          "internalType": "address",
          "name": "voter",
          "type": "address"
        },
        {
          "indexed": false,
          "internalType": "bool",
          "name": "isActive",
          "type": "bool"
        }
      ],
      "name": "VoterSet",
      "type": "event"
    },
    {
      "inputs": [],
      "name": "MAX_PRICE_DURATION",
      "outputs": [
        {
          "internalType": "uint256",
          "name": "",
          "type": "uint256"
        }
      ],
      "stateMutability": "view",
      "type": "function"
    },
    {
      "inputs": [],
      "name": "PRICE_BASE",
      "outputs": [
        {
          "internalType": "uint256",
          "name": "",
          "type": "uint256"
        }
      ],
      "stateMutability": "view",
      "type": "function"
    },
    {
      "inputs": [],
      "name": "decay",
      "outputs": [
        {
          "internalType": "uint256",
          "name": "",
          "type": "uint256"
        }
      ],
      "stateMutability": "view",
      "type": "function"
    },
    {
      "inputs": [],
      "name": "defaultMaxPriceDiff",
      "outputs": [
        {
          "internalType": "uint256",
          "name": "",
          "type": "uint256"
        }
      ],
      "stateMutability": "view",
      "type": "function"
    },
    {
      "inputs": [],
      "name": "defaultSpread",
      "outputs": [
        {
          "internalType": "uint256",
          "name": "",
          "type": "uint256"
        }
      ],
      "stateMutability": "view",
      "type": "function"
    },
    {
      "inputs": [],
      "name": "delta",
      "outputs": [
        {
          "internalType": "uint256",
          "name": "",
          "type": "uint256"
        }
      ],
      "stateMutability": "view",
      "type": "function"
    },
    {
      "inputs": [],
      "name": "disableFastOracleVote",
      "outputs": [
        {
          "internalType": "uint256",
          "name": "",
          "type": "uint256"
        }
      ],
      "stateMutability": "view",
      "type": "function"
    },
    {
      "inputs": [
        {
          "internalType": "address",
          "name": "",
          "type": "address"
        }
      ],
      "name": "disableFastOracleVotes",
      "outputs": [
        {
          "internalType": "bool",
          "name": "",
          "type": "bool"
        }
      ],
      "stateMutability": "view",
      "type": "function"
    },
    {
      "inputs": [],
      "name": "gov",
      "outputs": [
        {
          "internalType": "address",
          "name": "",
          "type": "address"
        }
      ],
      "stateMutability": "view",
      "type": "function"
    },
    {
      "inputs": [],
      "name": "isChainlinkOnly",
      "outputs": [
        {
          "internalType": "bool",
          "name": "",
          "type": "bool"
        }
      ],
      "stateMutability": "view",
      "type": "function"
    },
    {
      "inputs": [],
      "name": "isPikaOracleOnly",
      "outputs": [
        {
          "internalType": "bool",
          "name": "",
          "type": "bool"
        }
      ],
      "stateMutability": "view",
      "type": "function"
    },
    {
      "inputs": [],
      "name": "isSpreadEnabled",
      "outputs": [
        {
          "internalType": "bool",
          "name": "",
          "type": "bool"
        }
      ],
      "stateMutability": "view",
      "type": "function"
    },
    {
      "inputs": [
        {
          "internalType": "address",
          "name": "",
          "type": "address"
        }
      ],
      "name": "keepers",
      "outputs": [
        {
          "internalType": "bool",
          "name": "",
          "type": "bool"
        }
      ],
      "stateMutability": "view",
      "type": "function"
    },
    {
      "inputs": [],
      "name": "lastUpdatedTime",
      "outputs": [
        {
          "internalType": "uint256",
          "name": "",
          "type": "uint256"
        }
      ],
      "stateMutability": "view",
      "type": "function"
    },
    {
      "inputs": [
        {
          "internalType": "address",
          "name": "",
          "type": "address"
        }
      ],
      "name": "maxPriceDiffs",
      "outputs": [
        {
          "internalType": "uint256",
          "name": "",
          "type": "uint256"
        }
      ],
      "stateMutability": "view",
      "type": "function"
    },
    {
      "inputs": [],
      "name": "minVoteCount",
      "outputs": [
        {
          "internalType": "uint256",
          "name": "",
          "type": "uint256"
        }
      ],
      "stateMutability": "view",
      "type": "function"
    },
    {
      "inputs": [],
      "name": "priceDuration",
      "outputs": [
        {
          "internalType": "uint256",
          "name": "",
          "type": "uint256"
        }
      ],
      "stateMutability": "view",
      "type": "function"
    },
    {
      "inputs": [
        {
          "internalType": "address",
          "name": "",
          "type": "address"
        }
      ],
      "name": "priceMap",
      "outputs": [
        {
          "internalType": "uint256",
          "name": "",
          "type": "uint256"
        }
      ],
      "stateMutability": "view",
      "type": "function"
    },
    {
      "inputs": [
        {
          "internalType": "address",
          "name": "_gov",
          "type": "address"
        }
      ],
      "name": "setGov",
      "outputs": [],
      "stateMutability": "nonpayable",
      "type": "function"
    },
    {
      "inputs": [
        {
          "internalType": "address",
          "name": "",
          "type": "address"
        }
      ],
      "name": "spreads",
      "outputs": [
        {
          "internalType": "uint256",
          "name": "",
          "type": "uint256"
        }
      ],
      "stateMutability": "view",
      "type": "function"
    },
    {
      "inputs": [],
      "name": "updateInterval",
      "outputs": [
        {
          "internalType": "uint256",
          "name": "",
          "type": "uint256"
        }
      ],
      "stateMutability": "view",
      "type": "function"
    },
    {
      "inputs": [
        {
          "internalType": "address",
          "name": "",
          "type": "address"
        }
      ],
      "name": "voters",
      "outputs": [
        {
          "internalType": "bool",
          "name": "",
          "type": "bool"
        }
      ],
      "stateMutability": "view",
      "type": "function"
    },
    {
      "inputs": [
        {
          "internalType": "address",
          "name": "token",
          "type": "address"
        }
      ],
      "name": "shouldHaveSpread",
      "outputs": [
        {
          "internalType": "bool",
          "name": "",
          "type": "bool"
        }
      ],
      "stateMutability": "view",
      "type": "function"
    },
    {
      "inputs": [],
      "name": "shouldUpdatePrice",
      "outputs": [
        {
          "internalType": "bool",
          "name": "",
          "type": "bool"
        }
      ],
      "stateMutability": "view",
      "type": "function"
    },
    {
      "inputs": [
        {
          "internalType": "address",
          "name": "token",
          "type": "address"
        }
      ],
      "name": "shouldUpdatePriceForToken",
      "outputs": [
        {
          "internalType": "bool",
          "name": "",
          "type": "bool"
        }
      ],
      "stateMutability": "view",
      "type": "function"
    },
    {
      "inputs": [
        {
          "internalType": "address[]",
          "name": "tokens",
          "type": "address[]"
        }
      ],
      "name": "shouldUpdatePriceForTokens",
      "outputs": [
        {
          "internalType": "bool",
          "name": "",
          "type": "bool"
        }
      ],
      "stateMutability": "view",
      "type": "function"
    },
    {
      "inputs": [
        {
          "internalType": "address",
          "name": "token",
          "type": "address"
        }
      ],
      "name": "getPrice",
      "outputs": [
        {
          "internalType": "uint256",
          "name": "",
          "type": "uint256"
        }
      ],
      "stateMutability": "view",
      "type": "function"
    },
    {
      "inputs": [
        {
          "internalType": "address",
          "name": "token",
          "type": "address"
        },
        {
          "internalType": "bool",
          "name": "isMax",
          "type": "bool"
        }
      ],
      "name": "getPrice",
      "outputs": [
        {
          "internalType": "uint256",
          "name": "",
          "type": "uint256"
        }
      ],
      "stateMutability": "view",
      "type": "function"
    },
    {
      "inputs": [
        {
          "internalType": "address",
          "name": "token",
          "type": "address"
        }
      ],
      "name": "getPriceAndSource",
      "outputs": [
        {
          "internalType": "uint256",
          "name": "",
          "type": "uint256"
        },
        {
          "internalType": "bool",
          "name": "",
          "type": "bool"
        }
      ],
      "stateMutability": "view",
      "type": "function"
    },
    {
      "inputs": [
        {
          "internalType": "address",
          "name": "token",
          "type": "address"
        }
      ],
      "name": "getChainlinkPrice",
      "outputs": [
        {
          "internalType": "uint256",
          "name": "priceToReturn",
          "type": "uint256"
        },
        {
          "internalType": "uint256",
          "name": "chainlinkTimestamp",
          "type": "uint256"
        }
      ],
      "stateMutability": "view",
      "type": "function"
    },
    {
      "inputs": [
        {
          "internalType": "address[]",
          "name": "tokens",
          "type": "address[]"
        }
      ],
      "name": "getPrices",
      "outputs": [
        {
          "internalType": "uint256[]",
          "name": "",
          "type": "uint256[]"
        }
      ],
      "stateMutability": "view",
      "type": "function"
    },
    {
      "inputs": [
        {
          "internalType": "address",
          "name": "token",
          "type": "address"
        },
        {
          "internalType": "uint256",
          "name": "n",
          "type": "uint256"
        }
      ],
      "name": "getLastNPrices",
      "outputs": [
        {
          "internalType": "uint256[]",
          "name": "",
          "type": "uint256[]"
        }
      ],
      "stateMutability": "view",
      "type": "function"
    },
    {
      "inputs": [
        {
          "internalType": "address[]",
          "name": "tokens",
          "type": "address[]"
        },
        {
          "internalType": "uint256[]",
          "name": "prices",
          "type": "uint256[]"
        }
      ],
      "name": "setPrices",
      "outputs": [],
      "stateMutability": "nonpayable",
      "type": "function"
    },
    {
      "inputs": [],
      "name": "disableFastOracle",
      "outputs": [],
      "stateMutability": "nonpayable",
      "type": "function"
    },
    {
      "inputs": [],
      "name": "enableFastOracle",
      "outputs": [],
      "stateMutability": "nonpayable",
      "type": "function"
    },
    {
      "inputs": [
        {
          "internalType": "uint256",
          "name": "_minVoteCount",
          "type": "uint256"
        }
      ],
      "name": "setMinVoteCount",
      "outputs": [],
      "stateMutability": "nonpayable",
      "type": "function"
    },
    {
      "inputs": [
        {
          "internalType": "uint256",
          "name": "_priceDuration",
          "type": "uint256"
        }
      ],
      "name": "setPriceDuration",
      "outputs": [],
      "stateMutability": "nonpayable",
      "type": "function"
    },
    {
      "inputs": [
        {
          "internalType": "uint256",
          "name": "_updateInterval",
          "type": "uint256"
        }
      ],
      "name": "setUpdatedInterval",
      "outputs": [],
      "stateMutability": "nonpayable",
      "type": "function"
    },
    {
      "inputs": [
        {
          "internalType": "uint256",
          "name": "_defaultMaxPriceDiff",
          "type": "uint256"
        }
      ],
      "name": "setDefaultMaxPriceDiff",
      "outputs": [],
      "stateMutability": "nonpayable",
      "type": "function"
    },
    {
      "inputs": [
        {
          "internalType": "address",
          "name": "_token",
          "type": "address"
        },
        {
          "internalType": "uint256",
          "name": "_maxPriceDiff",
          "type": "uint256"
        }
      ],
      "name": "setMaxPriceDiff",
      "outputs": [],
      "stateMutability": "nonpayable",
      "type": "function"
    },
    {
      "inputs": [
        {
          "internalType": "address",
          "name": "_keeper",
          "type": "address"
        },
        {
          "internalType": "bool",
          "name": "_isActive",
          "type": "bool"
        }
      ],
      "name": "setKeeper",
      "outputs": [],
      "stateMutability": "nonpayable",
      "type": "function"
    },
    {
      "inputs": [
        {
          "internalType": "address",
          "name": "_voter",
          "type": "address"
        },
        {
          "internalType": "bool",
          "name": "_isActive",
          "type": "bool"
        }
      ],
      "name": "setVoter",
      "outputs": [],
      "stateMutability": "nonpayable",
      "type": "function"
    },
    {
      "inputs": [
        {
          "internalType": "bool",
          "name": "_isChainlinkOnly",
          "type": "bool"
        }
      ],
      "name": "setIsChainlinkOnly",
      "outputs": [],
      "stateMutability": "nonpayable",
      "type": "function"
    },
    {
      "inputs": [
        {
          "internalType": "bool",
          "name": "_isPikaOracleOnly",
          "type": "bool"
        }
      ],
      "name": "setIsPikaOracleOnly",
      "outputs": [],
      "stateMutability": "nonpayable",
      "type": "function"
    },
    {
      "inputs": [
        {
          "internalType": "uint256",
          "name": "_delta",
          "type": "uint256"
        },
        {
          "internalType": "uint256",
          "name": "_decay",
          "type": "uint256"
        }
      ],
      "name": "setDeltaAndDecay",
      "outputs": [],
      "stateMutability": "nonpayable",
      "type": "function"
    },
    {
      "inputs": [
        {
          "internalType": "bool",
          "name": "_isSpreadEnabled",
          "type": "bool"
        }
      ],
      "name": "setIsSpreadEnabled",
      "outputs": [],
      "stateMutability": "nonpayable",
      "type": "function"
    },
    {
      "inputs": [
        {
          "internalType": "uint256",
          "name": "_defaultSpread",
          "type": "uint256"
        }
      ],
      "name": "setDefaultSpread",
      "outputs": [],
      "stateMutability": "nonpayable",
      "type": "function"
    },
    {
      "inputs": [
        {
          "internalType": "address",
          "name": "_token",
          "type": "address"
        },
        {
          "internalType": "uint256",
          "name": "_spread",
          "type": "uint256"
        }
      ],
      "name": "setSpread",
      "outputs": [],
      "stateMutability": "nonpayable",
      "type": "function"
    },
    {
      "inputs": [
        {
          "internalType": "address",
          "name": "_owner",
          "type": "address"
        }
      ],
      "name": "setOwner",
      "outputs": [],
      "stateMutability": "nonpayable",
      "type": "function"
    }
  ],
  "bytecode": "0x608060405261025860035560786004556002600c55600e805462ffffff191690556014600f5561232860105566470de4df820000601155601e60125534801561004757600080fd5b50600080546001600160a01b03199081163390811783556001805490921681178255825260096020526040909120805460ff191690911790556120e08061008f6000396000f3fe608060405234801561001057600080fd5b50600436106102bb5760003560e01c806366a6693911610182578063ce7d49a6116100e9578063dbd0a2e7116100a2578063e9c594ad1161007c578063e9c594ad1461065a578063eaa8972914610662578063f15674d714610682578063fd2c80ae1461068f57600080fd5b8063dbd0a2e714610621578063df017c4f14610634578063e1f174fb1461064757600080fd5b8063ce7d49a61461059a578063ce98dfa8146105c2578063cfad57a2146105d5578063d1b9e853146105e8578063d340396c146105fb578063da3209bf1461060e57600080fd5b8063a3ec138d1161013b578063a3ec138d14610523578063acfd8c3014610546578063ba9ac3b71461054e578063bd58fe5614610561578063bf85689514610589578063ca6dd1501461059257600080fd5b806366a66939146104b1578063695d4184146104c45780636b14fcd6146104d757806376d69760146104ea57806383e2cd2d146104fd5780638fb5a4821461051057600080fd5b806341976e091161022657806353bfb7d2116101df57806353bfb7d21461045757806354fac919146104605780635dc3c0ba146104695780636245a0541461048c578063658ca8e714610495578063668d3d65146104a857600080fd5b806341976e09146103e2578063419de026146103f557806341ce15c2146104085780634352fa9f1461041157806344c231931461042457806348f6b7411461043757600080fd5b80631ddd1bf6116102785780631ddd1bf61461035a57806326bd553d14610363578063352cddea146103835780633bbd64bc146103a3578063407bc73f146103c657806340be2883146103d957600080fd5b806303cd2571146102c05780630de93781146102dc57806312b495a8146102f157806312d43a51146102fa57806313af4035146103255780631738c65c14610338575b600080fd5b6102c960035481565b6040519081526020015b60405180910390f35b6102ef6102ea366004611ba7565b610698565b005b6102c9600f5481565b60005461030d906001600160a01b031681565b6040516001600160a01b0390911681526020016102d3565b6102ef610333366004611b59565b610724565b600e5461034a90610100900460ff1681565b60405190151581526020016102d3565b6102c961271081565b6102c9610371366004611b59565b60076020526000908152604090205481565b610396610391366004611ba7565b6107cb565b6040516102d39190611e0e565b61034a6103b1366004611b59565b60096020526000908152604090205460ff1681565b6102ef6103d4366004611d60565b610aa3565b6102c9600c5481565b6102c96103f0366004611b59565b610b02565b6102ef610403366004611ba7565b610b16565b6102c960125481565b6102ef61041f366004611c83565b610bd1565b6102ef610432366004611d60565b610d49565b6102c9610445366004611b59565b60066020526000908152604090205481565b6102c960115481565b6102c960105481565b61034a610477366004611b59565b600b6020526000908152604090205460ff1681565b6102c9600d5481565b6102ef6104a3366004611d60565b610deb565b6102c961070881565b61034a6104bf366004611bd1565b610e4a565b600e5461034a9062010000900460ff1681565b6102ef6104e5366004611d60565b610edc565b6102c96104f8366004611b74565b610f7b565b61034a61050b366004611b59565b61104e565b61039661051e366004611c46565b61107f565b61034a610531366004611b59565b600a6020526000908152604090205460ff1681565b61034a61112d565b6102ef61055c366004611d45565b611146565b61057461056f366004611b59565b6111c1565b604080519283526020830191909152016102d3565b6102c960025481565b6102ef6113b5565b6105ad6105a8366004611b59565b6114af565b604080519283529015156020830152016102d3565b6102ef6105d0366004611d45565b61160e565b6102ef6105e3366004611b59565b611683565b6102ef6105f6366004611b74565b6116f7565b61034a610609366004611b59565b61177d565b6102ef61061c366004611d45565b6117b8565b6102ef61062f366004611d79565b611829565b6102ef610642366004611d60565b611893565b6102ef610655366004611b74565b6118f2565b6102ef611978565b6102c9610670366004611b59565b60056020526000908152604090205481565b600e5461034a9060ff1681565b6102c960045481565b6001546001600160a01b031633146106cb5760405162461bcd60e51b81526004016106c290611e52565b60405180910390fd5b6001600160a01b038216600081815260076020908152604091829020849055815192835282018390527f2d5ef9b0cb34a616c375dc41007f7cd5f0faca3f1d08b648df785be6390e11f091015b60405180910390a15050565b6000546001600160a01b031633146107765760405162461bcd60e51b815260206004820152601560248201527423b7bb32b93730b136329d103337b93134b23232b760591b60448201526064016106c2565b600180546001600160a01b0319166001600160a01b0383169081179091556040519081527f167d3e9c1016ab80e58802ca9da10ce5c6a0f4debc46a2e7a2cd9e56899a4fb5906020015b60405180910390a150565b60606001600160a01b0383166108115760405162461bcd60e51b815260206004820152600b60248201526a10b332b2b216b2b93937b960a91b60448201526064016106c2565b60008267ffffffffffffffff81111561082c5761082c612094565b604051908082528060200260200182016040528015610855578160200160208202803683370190505b5090506000846001600160a01b031663313ce5676040518163ffffffff1660e01b815260040160206040518083038186803b15801561089357600080fd5b505afa1580156108a7573d6000803e3d6000fd5b505050506040513d601f19601f820116820180604052508101906108cb9190611deb565b90506000856001600160a01b031663feaf968c6040518163ffffffff1660e01b815260040160a06040518083038186803b15801561090857600080fd5b505afa15801561091c573d6000803e3d6000fd5b505050506040513d601f19601f820116820180604052508101906109409190611d9b565b50505050905060005b85811015610a965760006001600160a01b038816639a6fc8f561096c8486612022565b6040516001600160e01b031960e084901b16815269ffffffffffffffffffff909116600482015260240160a06040518083038186803b1580156109ae57600080fd5b505afa1580156109c2573d6000803e3d6000fd5b505050506040513d601f19601f820116820180604052508101906109e69190611d9b565b50505091505060008113610a255760405162461bcd60e51b815260206004820152600660248201526521707269636560d01b60448201526064016106c2565b60008460ff16600814610a5f57610a4060ff8616600a611f44565b610a4e836305f5e100611fec565b610a589190611edf565b9050610a62565b50805b80868481518110610a7557610a7561207e565b60200260200101818152505050508080610a8e9061204d565b915050610949565b5091925050505b92915050565b6001546001600160a01b03163314610acd5760405162461bcd60e51b81526004016106c290611e52565b60048190556040518181527f06a60a6a9bd26df0b38af118b3bfbf636cfe2705ef44a124c5baa2502c68c666906020016107c0565b600080610b0e836114af565b509392505050565b6001546001600160a01b03163314610b405760405162461bcd60e51b81526004016106c290611e52565b666a94d74f4300008110610b805760405162461bcd60e51b8152602060048201526007602482015266746f6f2062696760c81b60448201526064016106c2565b6001600160a01b038216600081815260066020908152604091829020849055815192835282018390527fc6cfe9beb856639c4aedf4b8a068c978062f042347bda6eeeb71122a06e942fe9101610718565b3360009081526009602052604090205460ff16610c1b5760405162461bcd60e51b8152602060048201526008602482015267216b65657065727360c01b60448201526064016106c2565b8051825114610c565760405162461bcd60e51b8152602060048201526007602482015266042d8cadccee8d60cb1b60448201526064016106c2565b60005b8251811015610d40576000838281518110610c7657610c7661207e565b60200260200101519050828281518110610c9257610c9261207e565b6020908102919091018101516001600160a01b0383166000908152600583526040808220929092556008909252902042905582517fd9359f6744c286382115ed720fc5e2e5da40d7aa33113ed0f1a3a4557c87ae40908290859085908110610cfc57610cfc61207e565b602090810291909101810151604080516001600160a01b03909416845291830152429082015260600160405180910390a15080610d388161204d565b915050610c59565b50504260025550565b6001546001600160a01b03163314610d735760405162461bcd60e51b81526004016106c290611e52565b610708811115610db65760405162461bcd60e51b815260206004820152600e60248201526d10b83934b1b2a23ab930ba34b7b760911b60448201526064016106c2565b60038190556040518181527faae603f964fc53413c0d185db74230b99137c662c6e21ccd59e55990fcd51097906020016107c0565b6001546001600160a01b03163314610e155760405162461bcd60e51b81526004016106c290611e52565b600c8190556040518181527f2ccdd3902dbf7bb1eb87a44a596a5e91355b8f7a9c3e5f0b2c0d95d999067e8f906020016107c0565b6000805b82811015610ed2574260045460086000878786818110610e7057610e7061207e565b9050602002016020810190610e859190611b59565b6001600160a01b03166001600160a01b0316815260200190815260200160002054610eb09190611ec7565b1015610ec0576001915050610a9d565b80610eca8161204d565b915050610e4e565b5060009392505050565b6001546001600160a01b03163314610f065760405162461bcd60e51b81526004016106c290611e52565b666a94d74f4300008110610f465760405162461bcd60e51b8152602060048201526007602482015266746f6f2062696760c81b60448201526064016106c2565b60118190556040518181527f059d2b139b2c3687c7c5484afad23259b0520f9481a8b917b2ca75e9d8e357d0906020016107c0565b6000806000610f89856114af565b600e54919350915062010000900460ff1680610fa25750805b80610fb15750600c54600d5410155b15610b0e576001600160a01b03851660009081526007602052604081205415610ff2576001600160a01b038616600090815260076020526040902054610ff6565b6012545b9050846110235761271061100a828261200b565b6110149085611fec565b61101e9190611edf565b611044565b6127106110308282611ec7565b61103a9085611fec565b6110449190611edf565b9350505050610a9d565b6004546001600160a01b038216600090815260086020526040812054909142916110789190611ec7565b1092915050565b60606000825167ffffffffffffffff81111561109d5761109d612094565b6040519080825280602002602001820160405280156110c6578160200160208202803683370190505b50905060005b8351811015611126576110f78482815181106110ea576110ea61207e565b6020026020010151610b02565b8282815181106111095761110961207e565b60209081029190910101528061111e8161204d565b9150506110cc565b5092915050565b6000426004546002546111409190611ec7565b10905090565b6001546001600160a01b031633146111705760405162461bcd60e51b81526004016106c290611e52565b600e805461ff0019166101008315158102919091179182905560405160ff9190920416151581527f40c0a55e30f4418ff663e46680209ac47a8ba56a135fefd05384117aab450e00906020016107c0565b6000806001600160a01b0383166112085760405162461bcd60e51b815260206004820152600b60248201526a10b332b2b216b2b93937b960a91b60448201526064016106c2565b600080846001600160a01b031663feaf968c6040518163ffffffff1660e01b815260040160a06040518083038186803b15801561124457600080fd5b505afa158015611258573d6000803e3d6000fd5b505050506040513d601f19601f8201168201806040525081019061127c9190611d9b565b50935050925050600082136112bc5760405162461bcd60e51b815260206004820152600660248201526521707269636560d01b60448201526064016106c2565b600081116112f95760405162461bcd60e51b815260206004820152600a60248201526902174696d655374616d760b41b60448201526064016106c2565b6000856001600160a01b031663313ce5676040518163ffffffff1660e01b815260040160206040518083038186803b15801561133457600080fd5b505afa158015611348573d6000803e3d6000fd5b505050506040513d601f19601f8201168201806040525081019061136c9190611deb565b90508193508060ff166008146113a95761138a60ff8216600a611f44565b611398846305f5e100611fec565b6113a29190611edf565b94506113ad565b8294505b505050915091565b336000908152600a602052604090205460ff166113fd5760405162461bcd60e51b815260206004820152600660248201526510bb37ba32b960d11b60448201526064016106c2565b336000908152600b602052604090205460ff161561144d5760405162461bcd60e51b815260206004820152600d60248201526c185b1c9958591e481d9bdd1959609a1b60448201526064016106c2565b336000908152600b60205260409020805460ff19166001908117909155600d5461147691611ec7565b600d556040513381527fd04220b4b74741673631b166295bb6f1c8f1371ecc44f4b878093b24948ae3ee906020015b60405180910390a1565b6000806000806114be856111c1565b600e54919350915060ff168061152c5750600e54610100900460ff1615801561152c57506003546001600160a01b03861660009081526008602052604090205461150791611a6a565b4211801561152c57506001600160a01b03851660009081526008602052604090205481115b1561153c57509360019350915050565b6001600160a01b03851660009081526005602052604081205490838211611588576115838461157d670de0b6b3a76400006115778387611a76565b90611a82565b90611a8e565b6115a2565b6115a28461157d670de0b6b3a76400006115778684611a76565b6001600160a01b03881660009081526006602052604081205491925090156115e2576001600160a01b0388166000908152600660205260409020546115e6565b6011545b9050808211156115ff5750929660019650945050505050565b50909660009650945050505050565b6001546001600160a01b031633146116385760405162461bcd60e51b81526004016106c290611e52565b600e8054821515620100000262ff0000199091161790556040517f6c0cb64e5d260cc47a1ea64398a932541c60472ce94dc487536f4293e53c04b9906107c090831515815260200190565b6000546001600160a01b031633146116d55760405162461bcd60e51b815260206004820152601560248201527423b7bb32b93730b136329d103337b93134b23232b760591b60448201526064016106c2565b600080546001600160a01b0319166001600160a01b0392909216919091179055565b6001546001600160a01b031633146117215760405162461bcd60e51b81526004016106c290611e52565b6001600160a01b038216600081815260096020908152604091829020805460ff19168515159081179091558251938452908301527f8dd62d4e1f60b96148552898e743aa2b571686baa26f4f1b647565dc3996c1a79101610718565b600080611789836114af565b600e5490925062010000900460ff169050806117a25750805b806117b15750600c54600d5410155b9392505050565b6001546001600160a01b031633146117e25760405162461bcd60e51b81526004016106c290611e52565b600e805460ff191682151590811790915560405160ff909116151581527f1de4009ffeed59089b78dfcc86c467a69a1f088673ab3133482f357fb15d3958906020016107c0565b6001546001600160a01b031633146118535760405162461bcd60e51b81526004016106c290611e52565b600f829055601081905560408051838152602081018390527f12b03d9d0c361bdac0e2512be47c0f2ed4b28996d8405e2f3178f23447552c029101610718565b6001546001600160a01b031633146118bd5760405162461bcd60e51b81526004016106c290611e52565b60128190556040518181527febd7469950ccdf722c62c34900b47e189e1e06935064e002b4b7a56a834a90a1906020016107c0565b6001546001600160a01b0316331461191c5760405162461bcd60e51b81526004016106c290611e52565b6001600160a01b0382166000818152600a6020908152604091829020805460ff19168515159081179091558251938452908301527fd4042c5d41e8f745237a14a4da0665c5024a9fdd5e986a292dc5904f090dccdf9101610718565b336000908152600a602052604090205460ff166119c05760405162461bcd60e51b815260206004820152600660248201526510bb37ba32b960d11b60448201526064016106c2565b336000908152600b602052604090205460ff16611a115760405162461bcd60e51b815260206004820152600f60248201526e185b1c9958591e48195b98589b1959608a1b60448201526064016106c2565b336000908152600b60205260409020805460ff19169055600d54611a379060019061200b565b600d556040513381527f0dbb7c2b2dc33de0583531c2aae82bd270cb2cd1a12921ebfca824d2ceca6449906020016114a5565b60006117b18284611ec7565b60006117b1828461200b565b60006117b18284611fec565b60006117b18284611edf565b80356001600160a01b0381168114611ab157600080fd5b919050565b600082601f830112611ac757600080fd5b81356020611adc611ad783611ea3565b611e72565b80838252828201915082860187848660051b8901011115611afc57600080fd5b60005b85811015611b2257611b1082611a9a565b84529284019290840190600101611aff565b5090979650505050505050565b80358015158114611ab157600080fd5b805169ffffffffffffffffffff81168114611ab157600080fd5b600060208284031215611b6b57600080fd5b6117b182611a9a565b60008060408385031215611b8757600080fd5b611b9083611a9a565b9150611b9e60208401611b2f565b90509250929050565b60008060408385031215611bba57600080fd5b611bc383611a9a565b946020939093013593505050565b60008060208385031215611be457600080fd5b823567ffffffffffffffff80821115611bfc57600080fd5b818501915085601f830112611c1057600080fd5b813581811115611c1f57600080fd5b8660208260051b8501011115611c3457600080fd5b60209290920196919550909350505050565b600060208284031215611c5857600080fd5b813567ffffffffffffffff811115611c6f57600080fd5b611c7b84828501611ab6565b949350505050565b60008060408385031215611c9657600080fd5b823567ffffffffffffffff80821115611cae57600080fd5b611cba86838701611ab6565b9350602091508185013581811115611cd157600080fd5b85019050601f81018613611ce457600080fd5b8035611cf2611ad782611ea3565b80828252848201915084840189868560051b8701011115611d1257600080fd5b600094505b83851015611d35578035835260019490940193918501918501611d17565b5080955050505050509250929050565b600060208284031215611d5757600080fd5b6117b182611b2f565b600060208284031215611d7257600080fd5b5035919050565b60008060408385031215611d8c57600080fd5b50508035926020909101359150565b600080600080600060a08688031215611db357600080fd5b611dbc86611b3f565b9450602086015193506040860151925060608601519150611ddf60808701611b3f565b90509295509295909350565b600060208284031215611dfd57600080fd5b815160ff811681146117b157600080fd5b6020808252825182820181905260009190848201906040850190845b81811015611e4657835183529284019291840191600101611e2a565b50909695505050505050565b60208082526006908201526510b7bbb732b960d11b604082015260600190565b604051601f8201601f1916810167ffffffffffffffff81118282101715611e9b57611e9b612094565b604052919050565b600067ffffffffffffffff821115611ebd57611ebd612094565b5060051b60200190565b60008219821115611eda57611eda612068565b500190565b600082611efc57634e487b7160e01b600052601260045260246000fd5b500490565b600181815b80851115611f3c578160001904821115611f2257611f22612068565b80851615611f2f57918102915b93841c9390800290611f06565b509250929050565b60006117b18383600082611f5a57506001610a9d565b81611f6757506000610a9d565b8160018114611f7d5760028114611f8757611fa3565b6001915050610a9d565b60ff841115611f9857611f98612068565b50506001821b610a9d565b5060208310610133831016604e8410600b8410161715611fc6575081810a610a9d565b611fd08383611f01565b8060001904821115611fe457611fe4612068565b029392505050565b600081600019048311821515161561200657612006612068565b500290565b60008282101561201d5761201d612068565b500390565b600069ffffffffffffffffffff8381169083168181101561204557612045612068565b039392505050565b600060001982141561206157612061612068565b5060010190565b634e487b7160e01b600052601160045260246000fd5b634e487b7160e01b600052603260045260246000fd5b634e487b7160e01b600052604160045260246000fdfea2646970667358221220921c9e5ac21c8a2e90f1e52d142df582b196e67b34c1ca32174c6a643ef03cc364736f6c63430008070033",
  "immutableReferences": {},
  "source": "// SPDX-License-Identifier: MIT\npragma solidity ^0.8.0;\n\nimport \"@openzeppelin/contracts/utils/math/SafeMath.sol\";\nimport \"@openzeppelin/contracts/access/Ownable.sol\";\nimport \"@chainlink/contracts/src/v0.8/interfaces/AggregatorV2V3Interface.sol\";\nimport \"../access/Governable.sol\";\n\ncontract PikaPriceFeed is Governable {\n    using SafeMath for uint256;\n\n    address owner;\n    uint256 public lastUpdatedTime;\n    uint256 public priceDuration = 600; // 10 mins\n    uint256 public updateInterval = 120; // 2 mins\n    mapping (address => uint256) public priceMap;\n    mapping (address => uint256) public maxPriceDiffs;\n    mapping (address => uint256) public spreads;\n    mapping (address => uint256) lastUpdatedTimes;\n    mapping(address => bool) public keepers;\n    mapping (address => bool) public voters;\n    mapping (address => bool) public disableFastOracleVotes;\n    uint256 public minVoteCount = 2;\n    uint256 public disableFastOracleVote;\n    bool public isChainlinkOnly = false;\n    bool public isPikaOracleOnly = false;\n    bool public isSpreadEnabled = false;\n    uint256 public delta = 20; // 20bp\n    uint256 public decay = 9000; // 0.9\n    uint256 public defaultMaxPriceDiff = 2e16; // 2%\n    uint256 public defaultSpread = 30; // 0.3%\n\n    event PriceSet(address token, uint256 price, uint256 timestamp);\n    event PriceDurationSet(uint256 priceDuration);\n    event UpdateIntervalSet(uint256 updateInterval);\n    event DefaultMaxPriceDiffSet(uint256 maxPriceDiff);\n    event MaxPriceDiffSet(address token, uint256 maxPriceDiff);\n    event KeeperSet(address keeper, bool isActive);\n    event VoterSet(address voter, bool isActive);\n    event DeltaAndDecaySet(uint256 delta, uint256 decay);\n    event IsSpreadEnabledSet(bool isSpreadEnabled);\n    event DefaultSpreadSet(uint256 defaultSpread);\n    event SpreadSet(address token, uint256 spread);\n    event IsChainlinkOnlySet(bool isChainlinkOnlySet);\n    event IsPikaOracleOnlySet(bool isPikaOracleOnlySet);\n    event SetOwner(address owner);\n    event DisableFastOracle(address voter);\n    event EnableFastOracle(address voter);\n    event MinVoteCountSet(uint256 minVoteCount);\n\n    uint256 public constant MAX_PRICE_DURATION = 30 minutes;\n    uint256 public constant PRICE_BASE = 10000;\n\n    constructor() {\n        owner = msg.sender;\n        keepers[msg.sender] = true;\n    }\n\n    function getPrice(address token, bool isMax) external view returns (uint256) {\n        (uint256 price, bool isChainlink) = getPriceAndSource(token);\n        if (isSpreadEnabled || isChainlink || disableFastOracleVote >= minVoteCount) {\n            uint256 spread = spreads[token] == 0 ? defaultSpread : spreads[token];\n            return isMax ? price * (PRICE_BASE + spread) / PRICE_BASE : price * (PRICE_BASE - spread) / PRICE_BASE;\n        }\n        return price;\n    }\n\n    function shouldHaveSpread(address token) external view returns (bool) {\n        (,bool isChainlink) = getPriceAndSource(token);\n        return isSpreadEnabled || isChainlink || disableFastOracleVote >= minVoteCount;\n    }\n\n    function shouldUpdatePrice() external view returns (bool) {\n        return lastUpdatedTime + updateInterval < block.timestamp;\n    }\n\n    function shouldUpdatePriceForToken(address token) external view returns (bool) {\n        return lastUpdatedTimes[token] + updateInterval < block.timestamp;\n    }\n\n    function shouldUpdatePriceForTokens(address[] calldata tokens) external view returns (bool) {\n        for (uint256 i = 0; i < tokens.length; i++) {\n            if (lastUpdatedTimes[tokens[i]] + updateInterval < block.timestamp) {\n                return true;\n            }\n        }\n        return false;\n    }\n\n    function getPrice(address token) public view returns (uint256) {\n        (uint256 price,) = getPriceAndSource(token);\n        return price;\n    }\n\n    function getPriceAndSource(address token) public view returns (uint256, bool) {\n        (uint256 chainlinkPrice, uint256 chainlinkTimestamp) = getChainlinkPrice(token);\n        if (isChainlinkOnly || (!isPikaOracleOnly && (block.timestamp > lastUpdatedTimes[token].add(priceDuration) && chainlinkTimestamp > lastUpdatedTimes[token]))) {\n            return (chainlinkPrice, true);\n        }\n        uint256 pikaPrice = priceMap[token];\n        uint256 priceDiff = pikaPrice > chainlinkPrice ? (pikaPrice.sub(chainlinkPrice)).mul(1e18).div(chainlinkPrice) :\n            (chainlinkPrice.sub(pikaPrice)).mul(1e18).div(chainlinkPrice);\n        uint256 maxPriceDiff = maxPriceDiffs[token] == 0 ? defaultMaxPriceDiff : maxPriceDiffs[token];\n        if (priceDiff > maxPriceDiff) {\n            return (chainlinkPrice, true);\n        }\n        return (pikaPrice, false);\n    }\n\n    function getChainlinkPrice(address token) public view returns (uint256 priceToReturn, uint256 chainlinkTimestamp) {\n        require(token != address(0), '!feed-error');\n\n        (,int256 price,,uint256 timeStamp,) = AggregatorV3Interface(token).latestRoundData();\n\n        require(price > 0, '!price');\n        require(timeStamp > 0, '!timeStamp');\n        uint8 decimals = AggregatorV3Interface(token).decimals();\n        chainlinkTimestamp = timeStamp;\n        if (decimals != 8) {\n            priceToReturn = uint256(price) * (10**8) / (10**uint256(decimals));\n        } else {\n            priceToReturn = uint256(price);\n        }\n    }\n\n    function getPrices(address[] memory tokens) external view returns (uint256[] memory){\n        uint256[] memory curPrices = new uint256[](tokens.length);\n        for (uint256 i = 0; i < tokens.length; i++) {\n            curPrices[i] = getPrice(tokens[i]);\n        }\n        return curPrices;\n    }\n\n    function getLastNPrices(address token, uint256 n) external view returns(uint256[] memory) {\n        require(token != address(0), '!feed-error');\n\n        uint256[] memory prices = new uint256[](n);\n        uint8 decimals = AggregatorV3Interface(token).decimals();\n        (uint80 roundId,,,,) = AggregatorV3Interface(token).latestRoundData();\n\n        for (uint256 i = 0; i < n; i++) {\n            (,int256 price,,,) = AggregatorV3Interface(token).getRoundData(roundId - uint80(i));\n            require(price > 0, '!price');\n            uint256 priceToReturn;\n            if (decimals != 8) {\n                priceToReturn = uint256(price) * (10**8) / (10**uint256(decimals));\n            } else {\n                priceToReturn = uint256(price);\n            }\n            prices[i] = priceToReturn;\n        }\n        return prices;\n    }\n\n    function setPrices(address[] memory tokens, uint256[] memory prices) external onlyKeeper {\n        require(tokens.length == prices.length, \"!length\");\n        for (uint256 i = 0; i < tokens.length; i++) {\n            address token = tokens[i];\n            priceMap[token] = prices[i];\n            lastUpdatedTimes[token] = block.timestamp;\n            emit PriceSet(token, prices[i], block.timestamp);\n        }\n        lastUpdatedTime = block.timestamp;\n    }\n\n    function disableFastOracle() external onlyVoter {\n        require(!disableFastOracleVotes[msg.sender], \"already voted\");\n        disableFastOracleVotes[msg.sender] = true;\n        disableFastOracleVote = disableFastOracleVote + 1;\n\n        emit DisableFastOracle(msg.sender);\n    }\n\n    function enableFastOracle() external onlyVoter {\n        require(disableFastOracleVotes[msg.sender], \"already enabled\");\n        disableFastOracleVotes[msg.sender] = false;\n        disableFastOracleVote = disableFastOracleVote - 1;\n\n        emit EnableFastOracle(msg.sender);\n    }\n\n    function setMinVoteCount(uint256 _minVoteCount) external onlyOwner {\n        minVoteCount = _minVoteCount;\n\n        emit MinVoteCountSet(_minVoteCount);\n    }\n\n    function setPriceDuration(uint256 _priceDuration) external onlyOwner {\n        require(_priceDuration <= MAX_PRICE_DURATION, \"!priceDuration\");\n        priceDuration = _priceDuration;\n        emit PriceDurationSet(_priceDuration);\n    }\n\n    function setUpdatedInterval(uint256 _updateInterval) external onlyOwner {\n        updateInterval = _updateInterval;\n        emit UpdateIntervalSet(_updateInterval);\n    }\n\n    function setDefaultMaxPriceDiff(uint256 _defaultMaxPriceDiff) external onlyOwner {\n        require(_defaultMaxPriceDiff < 3e16, \"too big\"); // must be smaller than 3%\n        defaultMaxPriceDiff = _defaultMaxPriceDiff;\n        emit DefaultMaxPriceDiffSet(_defaultMaxPriceDiff);\n    }\n\n    function setMaxPriceDiff(address _token, uint256 _maxPriceDiff) external onlyOwner {\n        require(_maxPriceDiff < 3e16, \"too big\"); // must be smaller than 3%\n        maxPriceDiffs[_token] = _maxPriceDiff;\n        emit MaxPriceDiffSet(_token, _maxPriceDiff);\n    }\n\n    function setKeeper(address _keeper, bool _isActive) external onlyOwner {\n        keepers[_keeper] = _isActive;\n        emit KeeperSet(_keeper, _isActive);\n    }\n\n    function setVoter(address _voter, bool _isActive) external onlyOwner {\n        voters[_voter] = _isActive;\n        emit VoterSet(_voter, _isActive);\n    }\n\n    function setIsChainlinkOnly(bool _isChainlinkOnly) external onlyOwner {\n        isChainlinkOnly = _isChainlinkOnly;\n        emit IsChainlinkOnlySet(isChainlinkOnly);\n    }\n\n    function setIsPikaOracleOnly(bool _isPikaOracleOnly) external onlyOwner {\n        isPikaOracleOnly = _isPikaOracleOnly;\n        emit IsPikaOracleOnlySet(isPikaOracleOnly);\n    }\n\n    function setDeltaAndDecay(uint256 _delta, uint256 _decay) external onlyOwner {\n        delta = _delta;\n        decay = _decay;\n        emit DeltaAndDecaySet(delta, decay);\n    }\n\n    function setIsSpreadEnabled(bool _isSpreadEnabled) external onlyOwner {\n        isSpreadEnabled = _isSpreadEnabled;\n        emit IsSpreadEnabledSet(_isSpreadEnabled);\n    }\n\n    function setDefaultSpread(uint256 _defaultSpread) external onlyOwner {\n        defaultSpread = _defaultSpread;\n        emit DefaultSpreadSet(_defaultSpread);\n    }\n\n    function setSpread(address _token, uint256 _spread) external onlyOwner {\n        spreads[_token] = _spread;\n        emit SpreadSet(_token, _spread);\n    }\n\n    function setOwner(address _owner) external onlyGov {\n        owner = _owner;\n        emit SetOwner(_owner);\n    }\n\n    modifier onlyVoter() {\n        require(voters[msg.sender], \"!voter\");\n        _;\n    }\n\n    modifier onlyKeeper() {\n        require(keepers[msg.sender], \"!keepers\");\n        _;\n    }\n\n    modifier onlyOwner() {\n        require(msg.sender == owner, \"!owner\");\n        _;\n    }\n}\n",
  "sourcePath": "/Users/me/workspace/PikaPerpV2/contracts/oracle/PikaPriceFeed.sol",
  "compiler": {
    "name": "solc",
    "version": "0.8.7+commit.e28d00a7.Emscripten.clang"
  },
  "schemaVersion": "3.4.11",
  "updatedAt": "2023-01-14T09:54:29.010Z",
  "devdoc": {
    "kind": "dev",
    "methods": {},
    "version": 1
  },
  "userdoc": {
    "kind": "user",
    "methods": {},
    "version": 1
  }
}