{
  "contractName": "PikaMine",
  "abi": [
    {
      "anonymous": false,
      "inputs": [
        {
          "indexed": true,
          "internalType": "address",
          "name": "user",
          "type": "address"
        },
        {
          "indexed": true,
          "internalType": "uint256",
          "name": "index",
          "type": "uint256"
        },
        {
          "indexed": false,
          "internalType": "uint256",
          "name": "amount",
          "type": "uint256"
        },
        {
          "indexed": false,
          "internalType": "uint256",
          "name": "lpAmount",
          "type": "uint256"
        },
        {
          "indexed": false,
          "internalType": "enum PikaMine.Lock",
          "name": "lock",
          "type": "uint8"
        }
      ],
      "name": "Deposit",
      "type": "event"
    },
    {
      "anonymous": false,
      "inputs": [
        {
          "indexed": false,
          "internalType": "uint8",
          "name": "version",
          "type": "uint8"
        }
      ],
      "name": "Initialized",
      "type": "event"
    },
    {
      "anonymous": false,
      "inputs": [
        {
          "indexed": false,
          "internalType": "address",
          "name": "gov",
          "type": "address"
        }
      ],
      "name": "SetGov",
      "type": "event"
    },
    {
      "anonymous": false,
      "inputs": [
        {
          "indexed": false,
          "internalType": "address",
          "name": "admin",
          "type": "address"
        }
      ],
      "name": "SetOwner",
      "type": "event"
    },
    {
      "anonymous": false,
      "inputs": [
        {
          "indexed": true,
          "internalType": "address",
          "name": "user",
          "type": "address"
        },
        {
          "indexed": true,
          "internalType": "uint256",
          "name": "index",
          "type": "uint256"
        },
        {
          "indexed": false,
          "internalType": "uint256",
          "name": "amount",
          "type": "uint256"
        },
        {
          "indexed": false,
          "internalType": "uint256",
          "name": "lpAmount",
          "type": "uint256"
        }
      ],
      "name": "Withdraw",
      "type": "event"
    },
    {
      "inputs": [],
      "name": "DAY",
      "outputs": [
        {
          "internalType": "uint256",
          "name": "",
          "type": "uint256"
        }
      ],
      "stateMutability": "view",
      "type": "function"
    },
    {
      "inputs": [],
      "name": "NINE_MONTHS",
      "outputs": [
        {
          "internalType": "uint256",
          "name": "",
          "type": "uint256"
        }
      ],
      "stateMutability": "view",
      "type": "function"
    },
    {
      "inputs": [],
      "name": "ONE",
      "outputs": [
        {
          "internalType": "uint256",
          "name": "",
          "type": "uint256"
        }
      ],
      "stateMutability": "view",
      "type": "function"
    },
    {
      "inputs": [],
      "name": "ONE_MONTH",
      "outputs": [
        {
          "internalType": "uint256",
          "name": "",
          "type": "uint256"
        }
      ],
      "stateMutability": "view",
      "type": "function"
    },
    {
      "inputs": [],
      "name": "ONE_WEEK",
      "outputs": [
        {
          "internalType": "uint256",
          "name": "",
          "type": "uint256"
        }
      ],
      "stateMutability": "view",
      "type": "function"
    },
    {
      "inputs": [],
      "name": "SIX_MONTHS",
      "outputs": [
        {
          "internalType": "uint256",
          "name": "",
          "type": "uint256"
        }
      ],
      "stateMutability": "view",
      "type": "function"
    },
    {
      "inputs": [],
      "name": "THREE_MONTHS",
      "outputs": [
        {
          "internalType": "uint256",
          "name": "",
          "type": "uint256"
        }
      ],
      "stateMutability": "view",
      "type": "function"
    },
    {
      "inputs": [],
      "name": "TWELVE_MONTHS",
      "outputs": [
        {
          "internalType": "uint256",
          "name": "",
          "type": "uint256"
        }
      ],
      "stateMutability": "view",
      "type": "function"
    },
    {
      "inputs": [],
      "name": "TWO_WEEKS",
      "outputs": [
        {
          "internalType": "uint256",
          "name": "",
          "type": "uint256"
        }
      ],
      "stateMutability": "view",
      "type": "function"
    },
    {
      "inputs": [
        {
          "internalType": "address",
          "name": "",
          "type": "address"
        }
      ],
      "name": "currentId",
      "outputs": [
        {
          "internalType": "uint256",
          "name": "",
          "type": "uint256"
        }
      ],
      "stateMutability": "view",
      "type": "function"
    },
    {
      "inputs": [],
      "name": "gov",
      "outputs": [
        {
          "internalType": "address",
          "name": "",
          "type": "address"
        }
      ],
      "stateMutability": "view",
      "type": "function"
    },
    {
      "inputs": [],
      "name": "owner",
      "outputs": [
        {
          "internalType": "address",
          "name": "",
          "type": "address"
        }
      ],
      "stateMutability": "view",
      "type": "function"
    },
    {
      "inputs": [],
      "name": "pika",
      "outputs": [
        {
          "internalType": "contract IERC20Upgradeable",
          "name": "",
          "type": "address"
        }
      ],
      "stateMutability": "view",
      "type": "function"
    },
    {
      "inputs": [],
      "name": "pikaTotalDeposits",
      "outputs": [
        {
          "internalType": "uint256",
          "name": "",
          "type": "uint256"
        }
      ],
      "stateMutability": "view",
      "type": "function"
    },
    {
      "inputs": [
        {
          "internalType": "uint256",
          "name": "",
          "type": "uint256"
        }
      ],
      "name": "rewardPools",
      "outputs": [
        {
          "internalType": "address",
          "name": "",
          "type": "address"
        }
      ],
      "stateMutability": "view",
      "type": "function"
    },
    {
      "inputs": [],
      "name": "totalLpToken",
      "outputs": [
        {
          "internalType": "uint256",
          "name": "",
          "type": "uint256"
        }
      ],
      "stateMutability": "view",
      "type": "function"
    },
    {
      "inputs": [],
      "name": "unlockAll",
      "outputs": [
        {
          "internalType": "bool",
          "name": "",
          "type": "bool"
        }
      ],
      "stateMutability": "view",
      "type": "function"
    },
    {
      "inputs": [
        {
          "internalType": "address",
          "name": "",
          "type": "address"
        },
        {
          "internalType": "uint256",
          "name": "",
          "type": "uint256"
        }
      ],
      "name": "userInfo",
      "outputs": [
        {
          "internalType": "uint256",
          "name": "depositAmount",
          "type": "uint256"
        },
        {
          "internalType": "uint256",
          "name": "lpAmount",
          "type": "uint256"
        },
        {
          "internalType": "uint256",
          "name": "lockedUntil",
          "type": "uint256"
        },
        {
          "internalType": "enum PikaMine.Lock",
          "name": "lock",
          "type": "uint8"
        }
      ],
      "stateMutability": "view",
      "type": "function"
    },
    {
      "inputs": [
        {
          "internalType": "address",
          "name": "_pika",
          "type": "address"
        }
      ],
      "name": "initialize",
      "outputs": [],
      "stateMutability": "nonpayable",
      "type": "function"
    },
    {
      "inputs": [
        {
          "internalType": "address",
          "name": "_user",
          "type": "address"
        }
      ],
      "name": "getAllUserDepositIds",
      "outputs": [
        {
          "internalType": "uint256[]",
          "name": "",
          "type": "uint256[]"
        }
      ],
      "stateMutability": "view",
      "type": "function"
    },
    {
      "inputs": [
        {
          "internalType": "enum PikaMine.Lock",
          "name": "_lock",
          "type": "uint8"
        }
      ],
      "name": "getLockBoost",
      "outputs": [
        {
          "internalType": "uint256",
          "name": "boost",
          "type": "uint256"
        },
        {
          "internalType": "uint256",
          "name": "timelock",
          "type": "uint256"
        }
      ],
      "stateMutability": "pure",
      "type": "function"
    },
    {
      "inputs": [],
      "name": "isUnlocked",
      "outputs": [
        {
          "internalType": "bool",
          "name": "",
          "type": "bool"
        }
      ],
      "stateMutability": "view",
      "type": "function"
    },
    {
      "inputs": [
        {
          "internalType": "uint256",
          "name": "_amount",
          "type": "uint256"
        },
        {
          "internalType": "enum PikaMine.Lock",
          "name": "_lock",
          "type": "uint8"
        }
      ],
      "name": "deposit",
      "outputs": [],
      "stateMutability": "nonpayable",
      "type": "function"
    },
    {
      "inputs": [
        {
          "internalType": "uint256",
          "name": "_amount",
          "type": "uint256"
        },
        {
          "internalType": "uint256",
          "name": "_depositId",
          "type": "uint256"
        }
      ],
      "name": "withdraw",
      "outputs": [
        {
          "internalType": "bool",
          "name": "",
          "type": "bool"
        }
      ],
      "stateMutability": "nonpayable",
      "type": "function"
    },
    {
      "inputs": [],
      "name": "withdrawAll",
      "outputs": [],
      "stateMutability": "nonpayable",
      "type": "function"
    },
    {
      "inputs": [
        {
          "internalType": "address[]",
          "name": "_rewardPools",
          "type": "address[]"
        }
      ],
      "name": "setRewardPools",
      "outputs": [],
      "stateMutability": "nonpayable",
      "type": "function"
    },
    {
      "inputs": [
        {
          "internalType": "address",
          "name": "_owner",
          "type": "address"
        }
      ],
      "name": "setOwner",
      "outputs": [],
      "stateMutability": "nonpayable",
      "type": "function"
    },
    {
      "inputs": [
        {
          "internalType": "address",
          "name": "_gov",
          "type": "address"
        }
      ],
      "name": "setGov",
      "outputs": [],
      "stateMutability": "nonpayable",
      "type": "function"
    },
    {
      "inputs": [],
      "name": "toggleUnlockAll",
      "outputs": [],
      "stateMutability": "nonpayable",
      "type": "function"
    },
    {
      "inputs": [
        {
          "internalType": "address",
          "name": "_account",
          "type": "address"
        },
        {
          "internalType": "uint256",
          "name": "_depositId",
          "type": "uint256"
        }
      ],
      "name": "unlocked",
      "outputs": [
        {
          "internalType": "uint256",
          "name": "amount",
          "type": "uint256"
        }
      ],
      "stateMutability": "view",
      "type": "function"
    },
    {
      "inputs": [
        {
          "internalType": "address",
          "name": "_account",
          "type": "address"
        }
      ],
      "name": "unlockedAll",
      "outputs": [
        {
          "internalType": "uint256",
          "name": "amount",
          "type": "uint256"
        }
      ],
      "stateMutability": "view",
      "type": "function"
    },
    {
      "inputs": [
        {
          "internalType": "address",
          "name": "_account",
          "type": "address"
        },
        {
          "internalType": "uint256",
          "name": "_depositId",
          "type": "uint256"
        }
      ],
      "name": "deposited",
      "outputs": [
        {
          "internalType": "uint256",
          "name": "",
          "type": "uint256"
        }
      ],
      "stateMutability": "view",
      "type": "function"
    },
    {
      "inputs": [
        {
          "internalType": "address",
          "name": "_account",
          "type": "address"
        }
      ],
      "name": "depositedAll",
      "outputs": [
        {
          "internalType": "uint256",
          "name": "depositedAllAmount",
          "type": "uint256"
        }
      ],
      "stateMutability": "view",
      "type": "function"
    }
  ],
  "bytecode": "0x608060405234801561001057600080fd5b50611bbe806100206000396000f3fe608060405234801561001057600080fd5b50600436106101fb5760003560e01c80637c4a485c1161011a578063b546fbf9116100ad578063c4d66de81161007c578063c4d66de81461047a578063cd24b0a31461048d578063cfad57a2146104a1578063ecbefab7146104b4578063f7cad733146104bc57600080fd5b8063b546fbf914610447578063ba579c741461045a578063bc168ecb14610462578063c2ee3a081461046b57600080fd5b80638da5cb5b116100e95780638da5cb5b1461040f5780638e6f6b7714610422578063934d1fa41461042c578063976f8eaa1461043457600080fd5b80637c4a485c146103d75780638380edb7146103e2578063853828b6146103f457806389448c54146103fc57600080fd5b806327cfe8561161019257806347ea2c0b1161016157806347ea2c0b14610373578063654cfdff14610386578063688e89c114610399578063695dbf97146103cf57600080fd5b806327cfe8561461032b5780632aa6453414610335578063441a3e701461033d57806346abf3911461036057600080fd5b806320988cef116101ce57806320988cef1461028d57806321ce919d146102a55780632299b8fa146102f857806325dd82a91461031857600080fd5b80630a4d467c146102005780630dd4117a1461022d57806312d43a511461024d57806313af403514610278575b600080fd5b61021361020e3660046118e6565b6104c5565b604080519283526020830191909152015b60405180910390f35b61024061023b3660046117b3565b610632565b60405161022491906119a6565b603754610260906001600160a01b031681565b6040516001600160a01b039091168152602001610224565b61028b6102863660046117b3565b61065c565b005b61029762278d0081565b604051908152602001610224565b6102e86102b33660046117ce565b603960209081526000928352604080842090915290825290208054600182015460028301546003909301549192909160ff1684565b6040516102249493929190611a38565b6102976103063660046117b3565b603b6020526000908152604090205481565b6102976103263660046117ce565b6106f4565b6102976201518081565b61028b610759565b61035061034b366004611946565b61086f565b6040519015158152602001610224565b61026061036e366004611901565b610afd565b61028b6103813660046117f8565b610b27565b61028b61039436600461191a565b610b81565b6102976103a73660046117ce565b6001600160a01b03919091166000908152603960209081526040808320938352929052205490565b610297610d40565b6102976301e1338081565b603354600160a01b900460ff16610350565b61028b610d51565b61029761040a3660046117b3565b610daf565b603654610260906001600160a01b031681565b61029762093a8081565b610297610e34565b6102976104423660046117b3565b610e42565b603354610260906001600160a01b031681565b610297610edb565b61029760345481565b610297670de0b6b3a764000081565b61028b6104883660046117b3565b610ee9565b60335461035090600160a01b900460ff1681565b61028b6104af3660046117b3565b611028565b6102976110b9565b61029760355481565b600080808360058111156104db576104db611b30565b14156104f5575066b1a2bc2ec500009262093a8092509050565b600183600581111561050957610509611b30565b1415610524575067016345785d8a00009262278d0092509050565b600283600581111561053857610538611b30565b141561055e576702c68af0bb14000061055562278d006003611a9d565b91509150915091565b600383600581111561057257610572611b30565b141561058f5767058d15e17628000061055562278d006006611a9d565b60048360058111156105a3576105a3611b30565b14156105c057670905438e6001000061055562278d006009611a9d565b60058360058111156105d4576105d4611b30565b14156105f05750670de0b6b3a7640000926301e1338092509050565b60405162461bcd60e51b8152602060048201526012602482015271496e76616c6964206c6f636b2076616c756560701b60448201526064015b60405180910390fd5b6001600160a01b0381166000908152603a60205260409020606090610656906110c7565b92915050565b6037546001600160a01b0316331461069f5760405162461bcd60e51b81526004016106299060208082526004908201526310b3b7bb60e11b604082015260600190565b603680546001600160a01b0319166001600160a01b0383169081179091556040519081527f167d3e9c1016ab80e58802ca9da10ce5c6a0f4debc46a2e7a2cd9e56899a4fb5906020015b60405180910390a150565b6001600160a01b038216600090815260396020908152604080832084845290915281206003810154600282015460ff909116904210158061073e5750603354600160a01b900460ff165b1561074c5781549250610751565b600092505b505092915050565b6036546001600160a01b0316331461079c5760405162461bcd60e51b815260206004820152600660248201526510b7bbb732b960d11b6044820152606401610629565b60005b60385481101561083557603881815481106107bc576107bc611b5c565b60009182526020909120015460405163632447c960e01b81523360048201526001600160a01b039091169063632447c990602401600060405180830381600087803b15801561080a57600080fd5b505af115801561081e573d6000803e3d6000fd5b50505050808061082d90611aff565b91505061079f565b50603354600160a01b900460ff1661084e576001610851565b60005b60338054911515600160a01b0260ff60a01b19909216919091179055565b6000805b603854811015610909576038818154811061089057610890611b5c565b60009182526020909120015460405163632447c960e01b81523360048201526001600160a01b039091169063632447c990602401600060405180830381600087803b1580156108de57600080fd5b505af11580156108f2573d6000803e3d6000fd5b50505050808061090190611aff565b915050610873565b506109126110db565b336000908152603960209081526040808320858452909152902080548061093e57600092505050610af4565b8085111561094a578094505b603354600160a01b900460ff166109cb5781600201544210156109af5760405162461bcd60e51b815260206004820152601860248201527f506f736974696f6e206973207374696c6c206c6f636b656400000000000000006044820152606401610629565b60006109bb33866106f4565b9050808611156109c9578095505b505b6000816109e0670de0b6b3a764000088611a9d565b6109ea9190611a7b565b90506000670de0b6b3a7640000828560010154610a079190611a9d565b610a119190611a7b565b90508060346000828254610a259190611abc565b925050819055508660356000828254610a3e9190611abc565b9091555050835487908590600090610a57908490611abc565b9250508190555080846001016000828254610a729190611abc565b90915550508354158015610a8857506001840154155b15610a9757610a973387611135565b603354610aae906001600160a01b03163389611197565b6040805188815260208101839052879133917f02f25270a4d87bea75db541cdfe559334a275b4a233520ed6c0a2429667cca94910160405180910390a360019450505050505b61065660018055565b60388181548110610b0d57600080fd5b6000918252602090912001546001600160a01b0316905081565b6036546001600160a01b03163314610b6a5760405162461bcd60e51b815260206004820152600660248201526510b7bbb732b960d11b6044820152606401610629565b8051610b7d90603890602084019061170e565b5050565b60005b603854811015610c1a5760388181548110610ba157610ba1611b5c565b60009182526020909120015460405163632447c960e01b81523360048201526001600160a01b039091169063632447c990602401600060405180830381600087803b158015610bef57600080fd5b505af1158015610c03573d6000803e3d6000fd5b505050508080610c1290611aff565b915050610b84565b50610c236110db565b603354610c3b906001600160a01b03163330856111ff565b600080610c473361123d565b91509150600080610c57856104c5565b90925090506000670de0b6b3a7640000610c718489611a9d565b610c7b9190611a7b565b90508660356000828254610c8f9190611a63565b925050819055508060346000828254610ca89190611a63565b909155505086855560018501819055610cc18242611a63565b600286015560038501805487919060ff19166001836005811115610ce757610ce7611b30565b021790555083336001600160a01b03167fd3b8abedf9b219788ce9c4431056d7d4b83973b9f7072ac174e1fe2479d1a2e789848a604051610d2a93929190611a1d565b60405180910390a35050505050610b7d60018055565b610d4e62278d006009611a9d565b81565b336000908152603a60205260408120610d69906110c7565b905060005b8151811015610b7d57610d9c600019838381518110610d8f57610d8f611b5c565b602002602001015161086f565b5080610da781611aff565b915050610d6e565b6001600160a01b0381166000908152603a602052604081208190610dd2906112b9565b905060005b81811015610e2d576001600160a01b0384166000908152603a60205260408120610e0190836112c3565b9050610e0d85826106f4565b610e179085611a63565b9350508080610e2590611aff565b915050610dd7565b5050919050565b610d4e62093a806002611a9d565b6001600160a01b0381166000908152603a602052604081208190610e65906112b9565b905060005b81811015610e2d576001600160a01b0384166000908152603a60205260408120610e9490836112c3565b6001600160a01b0386166000908152603960209081526040808320848452909152902054909150610ec59085611a63565b9350508080610ed390611aff565b915050610e6a565b610d4e62278d006006611a9d565b600054610100900460ff1615808015610f095750600054600160ff909116105b80610f235750303b158015610f23575060005460ff166001145b610f865760405162461bcd60e51b815260206004820152602e60248201527f496e697469616c697a61626c653a20636f6e747261637420697320616c72656160448201526d191e481a5b9a5d1a585b1a5e995960921b6064820152608401610629565b6000805460ff191660011790558015610fa9576000805461ff0019166101001790555b60368054336001600160a01b03199182168117909255603780548216909217909155603380549091166001600160a01b0384161790558015610b7d576000805461ff0019169055604051600181527f7f26b83ff96e1f2b6a682f133852f6798a09c465da95921460cefb38474024989060200160405180910390a15050565b6037546001600160a01b0316331461106b5760405162461bcd60e51b81526004016106299060208082526004908201526310b3b7bb60e11b604082015260600190565b603780546001600160a01b0319166001600160a01b0383169081179091556040519081527f91a8c1cc2d4a3bb60738481947a00cbb9899c822916694cf8bb1d68172fdcd54906020016106e9565b610d4e62278d006003611a9d565b606060006110d4836112cf565b9392505050565b6002600154141561112e5760405162461bcd60e51b815260206004820152601f60248201527f5265656e7472616e637947756172643a207265656e7472616e742063616c6c006044820152606401610629565b6002600155565b6001600160a01b0382166000908152603a60205260409020611157908261132b565b610b7d5760405162461bcd60e51b81526020600482015260116024820152706465706f7369744964202165786973747360781b6044820152606401610629565b6040516001600160a01b0383166024820152604481018290526111fa90849063a9059cbb60e01b906064015b60408051601f198184030181529190526020810180516001600160e01b03166001600160e01b031990931692909217909152611337565b505050565b6040516001600160a01b03808516602483015283166044820152606481018290526112379085906323b872dd60e01b906084016111c3565b50505050565b6001600160a01b0381166000908152603b602052604081208054829190829061126590611aff565b91829055506001600160a01b0384166000908152603a6020526040902090915061128f9082611409565b506001600160a01b0390921660009081526039602090815260408083208584529091529020929050565b6000610656825490565b60006110d48383611415565b60608160000180548060200260200160405190810160405280929190818152602001828054801561131f57602002820191906000526020600020905b81548152602001906001019080831161130b575b50505050509050919050565b60006110d4838361143f565b600061138c826040518060400160405280602081526020017f5361666545524332303a206c6f772d6c6576656c2063616c6c206661696c6564815250856001600160a01b03166115329092919063ffffffff16565b8051909150156111fa57808060200190518101906113aa91906118c4565b6111fa5760405162461bcd60e51b815260206004820152602a60248201527f5361666545524332303a204552433230206f7065726174696f6e20646964206e6044820152691bdd081cdd58d8d9595960b21b6064820152608401610629565b60006110d48383611549565b600082600001828154811061142c5761142c611b5c565b9060005260206000200154905092915050565b60008181526001830160205260408120548015611528576000611463600183611abc565b855490915060009061147790600190611abc565b90508181146114dc57600086600001828154811061149757611497611b5c565b90600052602060002001549050808760000184815481106114ba576114ba611b5c565b6000918252602080832090910192909255918252600188019052604090208390555b85548690806114ed576114ed611b46565b600190038181906000526020600020016000905590558560010160008681526020019081526020016000206000905560019350505050610656565b6000915050610656565b60606115418484600085611598565b949350505050565b600081815260018301602052604081205461159057508154600181810184556000848152602080822090930184905584548482528286019093526040902091909155610656565b506000610656565b6060824710156115f95760405162461bcd60e51b815260206004820152602660248201527f416464726573733a20696e73756666696369656e742062616c616e636520666f6044820152651c8818d85b1b60d21b6064820152608401610629565b600080866001600160a01b03168587604051611615919061198a565b60006040518083038185875af1925050503d8060008114611652576040519150601f19603f3d011682016040523d82523d6000602084013e611657565b606091505b509150915061166887838387611673565b979650505050505050565b606083156116df5782516116d8576001600160a01b0385163b6116d85760405162461bcd60e51b815260206004820152601d60248201527f416464726573733a2063616c6c20746f206e6f6e2d636f6e74726163740000006044820152606401610629565b5081611541565b61154183838151156116f45781518083602001fd5b8060405162461bcd60e51b815260040161062991906119ea565b828054828255906000526020600020908101928215611763579160200282015b8281111561176357825182546001600160a01b0319166001600160a01b0390911617825560209092019160019091019061172e565b5061176f929150611773565b5090565b5b8082111561176f5760008155600101611774565b80356001600160a01b038116811461179f57600080fd5b919050565b80356006811061179f57600080fd5b6000602082840312156117c557600080fd5b6110d482611788565b600080604083850312156117e157600080fd5b6117ea83611788565b946020939093013593505050565b6000602080838503121561180b57600080fd5b823567ffffffffffffffff8082111561182357600080fd5b818501915085601f83011261183757600080fd5b81358181111561184957611849611b72565b8060051b604051601f19603f8301168101818110858211171561186e5761186e611b72565b604052828152858101935084860182860187018a101561188d57600080fd5b600095505b838610156118b7576118a381611788565b855260019590950194938601938601611892565b5098975050505050505050565b6000602082840312156118d657600080fd5b815180151581146110d457600080fd5b6000602082840312156118f857600080fd5b6110d4826117a4565b60006020828403121561191357600080fd5b5035919050565b6000806040838503121561192d57600080fd5b8235915061193d602084016117a4565b90509250929050565b6000806040838503121561195957600080fd5b50508035926020909101359150565b6006811061198657634e487b7160e01b600052602160045260246000fd5b9052565b6000825161199c818460208701611ad3565b9190910192915050565b6020808252825182820181905260009190848201906040850190845b818110156119de578351835292840192918401916001016119c2565b50909695505050505050565b6020815260008251806020840152611a09816040850160208701611ad3565b601f01601f19169190910160400192915050565b83815260208101839052606081016115416040830184611968565b848152602081018490526040810183905260808101611a5a6060830184611968565b95945050505050565b60008219821115611a7657611a76611b1a565b500190565b600082611a9857634e487b7160e01b600052601260045260246000fd5b500490565b6000816000190483118215151615611ab757611ab7611b1a565b500290565b600082821015611ace57611ace611b1a565b500390565b60005b83811015611aee578181015183820152602001611ad6565b838111156112375750506000910152565b6000600019821415611b1357611b13611b1a565b5060010190565b634e487b7160e01b600052601160045260246000fd5b634e487b7160e01b600052602160045260246000fd5b634e487b7160e01b600052603160045260246000fd5b634e487b7160e01b600052603260045260246000fd5b634e487b7160e01b600052604160045260246000fdfea26469706673582212203e70a1715e0c39ee1fde5cddc424851d473ad0d771c0282cfb19a6b88da0c4be64736f6c63430008070033",
  "immutableReferences": {},
  "source": "// SPDX-License-Identifier: MIT\npragma solidity ^0.8.0;\n\nimport '@openzeppelin/contracts-upgradeable/token/ERC20/IERC20Upgradeable.sol';\nimport '@openzeppelin/contracts-upgradeable/utils/structs/EnumerableSetUpgradeable.sol';\nimport '@openzeppelin/contracts-upgradeable/utils/math/SafeCastUpgradeable.sol';\nimport '@openzeppelin/contracts-upgradeable/token/ERC20/utils/SafeERC20Upgradeable.sol';\nimport \"@openzeppelin/contracts-upgradeable/proxy/utils/Initializable.sol\";\nimport '@openzeppelin/contracts-upgradeable/access/AccessControlEnumerableUpgradeable.sol';\nimport '@openzeppelin/contracts-upgradeable/security/ReentrancyGuardUpgradeable.sol';\nimport './IVaultReward.sol';\n\n/** @title VePika\n    @notice Support locking PIKA to earn trading fee and token rewards. The longer the lock, the higher the weight\n    the staker. The weight is also manifested as vePIKA balance.\n */\ncontract PikaMine is Initializable, ReentrancyGuardUpgradeable {\n    using EnumerableSetUpgradeable for EnumerableSetUpgradeable.AddressSet;\n    using EnumerableSetUpgradeable for EnumerableSetUpgradeable.UintSet;\n\n    using SafeERC20Upgradeable for IERC20Upgradeable;\n    using SafeCastUpgradeable for uint256;\n    using SafeCastUpgradeable for int256;\n\n    enum Lock { oneWeek, oneMonth, threeMonths, sixMonths, nineMonths, twelveMonths }\n\n    struct UserInfo {\n        uint256 depositAmount;\n        uint256 lpAmount;\n        uint256 lockedUntil;\n        Lock lock;\n    }\n\n    uint256 public constant DAY = 1 days;\n    uint256 public constant ONE_WEEK = 7 days;\n    uint256 public constant TWO_WEEKS = ONE_WEEK * 2;\n    uint256 public constant ONE_MONTH = 30 days;\n    uint256 public constant THREE_MONTHS = ONE_MONTH * 3;\n    uint256 public constant SIX_MONTHS = ONE_MONTH * 6;\n    uint256 public constant NINE_MONTHS = ONE_MONTH * 9;\n    uint256 public constant TWELVE_MONTHS = 365 days;\n    uint256 public constant ONE = 1e18;\n\n    // Pika token addr\n    IERC20Upgradeable public pika;\n\n    bool public unlockAll;\n\n    uint256 public totalLpToken;\n    uint256 public pikaTotalDeposits;\n\n    address public owner;\n    address public gov;\n    // these can be pools for usdc vault fee reward, eth vault fee reward and token reward\n    address[] public rewardPools;\n\n    /// @notice user => depositId => UserInfo\n    mapping (address => mapping (uint256 => UserInfo)) public userInfo;\n    /// @notice user => depositId[]\n    mapping (address => EnumerableSetUpgradeable.UintSet) private allUserDepositIds;\n    /// @notice user => deposit index\n    mapping (address => uint256) public currentId;\n\n    event Deposit(address indexed user, uint256 indexed index, uint256 amount, uint256 lpAmount, Lock lock);\n    event Withdraw(address indexed user, uint256 indexed index, uint256 amount, uint256 lpAmount);\n    event SetOwner(address admin);\n    event SetGov(address gov);\n\n    function initialize(address _pika) external initializer {\n        owner = msg.sender;\n        gov = msg.sender;\n        pika = IERC20Upgradeable(_pika);\n    }\n\n    function getAllUserDepositIds(address _user) public view returns (uint256[] memory) {\n        return allUserDepositIds[_user].values();\n    }\n\n    function getLockBoost(Lock _lock) public pure returns (uint256 boost, uint256 timelock) {\n        if (_lock == Lock.oneWeek) {\n            // 5%\n            return (5e16, ONE_WEEK);\n        } else if (_lock == Lock.oneMonth) {\n            // 10%\n            return (10e16, ONE_MONTH);\n        } else if (_lock == Lock.threeMonths) {\n            // 20%\n            return (20e16, THREE_MONTHS);\n        } else if (_lock == Lock.sixMonths) {\n            // 40%\n            return (40e16, SIX_MONTHS);\n        } else if (_lock == Lock.nineMonths) {\n            // 65%\n            return (65e16, NINE_MONTHS);\n        } else if (_lock == Lock.twelveMonths) {\n            // 100%\n            return (100e16, TWELVE_MONTHS);\n        } else {\n            revert(\"Invalid lock value\");\n        }\n    }\n\n    function isUnlocked() public view returns(bool) {\n        return unlockAll;\n    }\n\n    function deposit(uint256 _amount, Lock _lock) public updateRewards nonReentrant {\n        pika.safeTransferFrom(msg.sender, address(this), _amount);\n\n        (UserInfo storage user, uint256 depositId) = _addDeposit(msg.sender);\n        (uint256 lockBoost, uint256 timelock) = getLockBoost(_lock);\n        uint256 lpAmount = _amount * lockBoost / ONE;\n        pikaTotalDeposits += _amount;\n        totalLpToken += lpAmount;\n\n        user.depositAmount = _amount;\n        user.lpAmount = lpAmount;\n        user.lockedUntil = block.timestamp + timelock;\n        user.lock = _lock;\n\n        emit Deposit(msg.sender, depositId, _amount, lpAmount, _lock);\n    }\n\n    function withdraw(uint256 _amount, uint256 _depositId) public updateRewards nonReentrant returns (bool) {\n        UserInfo storage user = userInfo[msg.sender][_depositId];\n        uint256 depositAmount = user.depositAmount;\n        if (depositAmount == 0) return false;\n\n        if (_amount > depositAmount) {\n            _amount = depositAmount;\n        }\n        // anyone can withdraw if kill swith was used\n        if (!unlockAll) {\n            require(block.timestamp >= user.lockedUntil, \"Position is still locked\");\n            uint256 unlockedAmount = unlocked(msg.sender, _depositId);\n            if (_amount > unlockedAmount) {\n                _amount = unlockedAmount;\n            }\n        }\n\n        // Effects\n        uint256 ratio = _amount * ONE / depositAmount;\n        uint256 lpAmount = user.lpAmount * ratio / ONE;\n\n        totalLpToken -= lpAmount;\n        pikaTotalDeposits -= _amount;\n\n        user.depositAmount -= _amount;\n        user.lpAmount -= lpAmount;\n\n        if (user.depositAmount == 0 && user.lpAmount == 0) {\n            _removeDeposit(msg.sender, _depositId);\n        }\n\n        // Interactions\n        pika.safeTransfer(msg.sender, _amount);\n\n        emit Withdraw(msg.sender, _depositId, _amount, lpAmount);\n\n        return true;\n    }\n\n    function withdrawAll() public {\n        uint256[] memory depositIds = allUserDepositIds[msg.sender].values();\n        for (uint256 i = 0; i < depositIds.length; i++) {\n            withdraw(type(uint256).max, depositIds[i]);\n        }\n    }\n\n    function setRewardPools(address[] memory _rewardPools) external onlyOwner {\n        rewardPools = _rewardPools;\n    }\n\n    function setOwner(address _owner) external onlyGov {\n        owner = _owner;\n        emit SetOwner(_owner);\n    }\n\n    function setGov(address _gov) external onlyGov {\n        gov = _gov;\n        emit SetGov(_gov);\n    }\n\n    /// @notice EMERGENCY ONLY\n    function toggleUnlockAll() external onlyOwner updateRewards {\n        unlockAll = unlockAll ? false : true;\n    }\n\n    function unlocked(address _account, uint256 _depositId) public view returns (uint256 amount) {\n        UserInfo storage user = userInfo[_account][_depositId];\n        Lock _lock = user.lock;\n\n        if (block.timestamp >= user.lockedUntil || unlockAll) {\n            amount = user.depositAmount;\n        } else {\n            amount = 0;\n        }\n    }\n\n    function unlockedAll(address _account) external view returns (uint256 amount) {\n        amount = 0;\n        uint256 len = allUserDepositIds[_account].length();\n        for (uint256 i = 0; i < len; i++) {\n            uint256 depositId = allUserDepositIds[_account].at(i);\n            amount += unlocked(_account, depositId);\n        }\n    }\n\n    function deposited(address _account, uint256 _depositId) public view returns(uint256) {\n        return userInfo[_account][_depositId].depositAmount;\n    }\n\n    function depositedAll(address _account) external view returns(uint256 depositedAllAmount) {\n        depositedAllAmount = 0;\n        uint256 len = allUserDepositIds[_account].length();\n        for (uint256 i = 0; i < len; i++) {\n            uint256 depositId = allUserDepositIds[_account].at(i);\n            depositedAllAmount += deposited(_account, depositId);\n        }\n    }\n\n    function _addDeposit(address _user) internal returns (UserInfo storage user, uint256 newDepositId) {\n        // start depositId from 1\n        newDepositId = ++currentId[_user];\n        allUserDepositIds[_user].add(newDepositId);\n        user = userInfo[_user][newDepositId];\n    }\n\n    function _removeDeposit(address _user, uint256 _depositId) internal {\n        require(allUserDepositIds[_user].remove(_depositId), 'depositId !exists');\n    }\n\n    modifier updateRewards() {\n        for (uint256 i = 0; i < rewardPools.length; i++) {\n            IVaultReward(rewardPools[i]).updateReward(msg.sender);\n        }\n        _;\n    }\n\n    modifier onlyGov() {\n        require(msg.sender == gov, \"!gov\");\n        _;\n    }\n\n    modifier onlyOwner() {\n        require(msg.sender == owner, \"!owner\");\n        _;\n    }\n}",
  "sourcePath": "/Users/me/workspace/PikaPerpV2/contracts/staking/PikaMine.sol",
  "compiler": {
    "name": "solc",
    "version": "0.8.7+commit.e28d00a7.Emscripten.clang"
  },
  "schemaVersion": "3.4.11",
  "updatedAt": "2023-01-14T09:54:29.084Z",
  "devdoc": {
    "kind": "dev",
    "methods": {},
    "title": "VePika",
    "version": 1
  },
  "userdoc": {
    "kind": "user",
    "methods": {
      "currentId(address)": {
        "notice": "user => deposit index"
      },
      "toggleUnlockAll()": {
        "notice": "EMERGENCY ONLY"
      },
      "userInfo(address,uint256)": {
        "notice": "user => depositId => UserInfo"
      }
    },
    "notice": "Support locking PIKA to earn trading fee and token rewards. The longer the lock, the higher the weight the staker. The weight is also manifested as vePIKA balance.",
    "version": 1
  }
}