{
  "contractName": "PikaTokenGeneration",
  "abi": [
    {
      "inputs": [
        {
          "internalType": "address",
          "name": "_pika",
          "type": "address"
        },
        {
          "internalType": "address",
          "name": "_owner",
          "type": "address"
        },
        {
          "internalType": "uint256",
          "name": "_saleWhitelistStart",
          "type": "uint256"
        },
        {
          "internalType": "uint256",
          "name": "_saleStart",
          "type": "uint256"
        },
        {
          "internalType": "uint256",
          "name": "_saleClose",
          "type": "uint256"
        },
        {
          "internalType": "uint256",
          "name": "_maxDepositsWhitelist",
          "type": "uint256"
        },
        {
          "internalType": "uint256",
          "name": "_pikaTokensAllocated",
          "type": "uint256"
        },
        {
          "internalType": "uint256",
          "name": "_whitelistMaxDeposit1",
          "type": "uint256"
        },
        {
          "internalType": "uint256",
          "name": "_whitelistMaxDeposit2",
          "type": "uint256"
        },
        {
          "internalType": "uint256",
          "name": "_whitelistMaxDeposit3",
          "type": "uint256"
        },
        {
          "internalType": "bytes32",
          "name": "_merkleRoot",
          "type": "bytes32"
        }
      ],
      "stateMutability": "nonpayable",
      "type": "constructor"
    },
    {
      "anonymous": false,
      "inputs": [
        {
          "indexed": true,
          "internalType": "address",
          "name": "claimer",
          "type": "address"
        },
        {
          "indexed": true,
          "internalType": "address",
          "name": "beneficiary",
          "type": "address"
        },
        {
          "indexed": false,
          "internalType": "uint256",
          "name": "amount",
          "type": "uint256"
        }
      ],
      "name": "EthRefundClaim",
      "type": "event"
    },
    {
      "anonymous": false,
      "inputs": [
        {
          "indexed": true,
          "internalType": "address",
          "name": "claimer",
          "type": "address"
        },
        {
          "indexed": true,
          "internalType": "address",
          "name": "beneficiary",
          "type": "address"
        },
        {
          "indexed": false,
          "internalType": "uint256",
          "name": "amount",
          "type": "uint256"
        }
      ],
      "name": "TokenClaim",
      "type": "event"
    },
    {
      "anonymous": false,
      "inputs": [
        {
          "indexed": true,
          "internalType": "address",
          "name": "purchaser",
          "type": "address"
        },
        {
          "indexed": true,
          "internalType": "address",
          "name": "beneficiary",
          "type": "address"
        },
        {
          "indexed": true,
          "internalType": "bool",
          "name": "isWhitelistDeposit",
          "type": "bool"
        },
        {
          "indexed": false,
          "internalType": "uint256",
          "name": "value",
          "type": "uint256"
        },
        {
          "indexed": false,
          "internalType": "uint256",
          "name": "time",
          "type": "uint256"
        }
      ],
      "name": "TokenDeposit",
      "type": "event"
    },
    {
      "anonymous": false,
      "inputs": [
        {
          "indexed": false,
          "internalType": "uint256",
          "name": "amount",
          "type": "uint256"
        }
      ],
      "name": "WithdrawEth",
      "type": "event"
    },
    {
      "anonymous": false,
      "inputs": [
        {
          "indexed": false,
          "internalType": "uint256",
          "name": "amount",
          "type": "uint256"
        }
      ],
      "name": "WithdrawPika",
      "type": "event"
    },
    {
      "inputs": [
        {
          "internalType": "address",
          "name": "",
          "type": "address"
        }
      ],
      "name": "deposits",
      "outputs": [
        {
          "internalType": "uint256",
          "name": "",
          "type": "uint256"
        }
      ],
      "stateMutability": "view",
      "type": "function"
    },
    {
      "inputs": [
        {
          "internalType": "address",
          "name": "",
          "type": "address"
        }
      ],
      "name": "depositsWhitelist",
      "outputs": [
        {
          "internalType": "uint256",
          "name": "",
          "type": "uint256"
        }
      ],
      "stateMutability": "view",
      "type": "function"
    },
    {
      "inputs": [],
      "name": "maxDepositsWhitelist",
      "outputs": [
        {
          "internalType": "uint256",
          "name": "",
          "type": "uint256"
        }
      ],
      "stateMutability": "view",
      "type": "function"
    },
    {
      "inputs": [],
      "name": "merkleRoot",
      "outputs": [
        {
          "internalType": "bytes32",
          "name": "",
          "type": "bytes32"
        }
      ],
      "stateMutability": "view",
      "type": "function"
    },
    {
      "inputs": [],
      "name": "owner",
      "outputs": [
        {
          "internalType": "address",
          "name": "",
          "type": "address"
        }
      ],
      "stateMutability": "view",
      "type": "function"
    },
    {
      "inputs": [],
      "name": "pika",
      "outputs": [
        {
          "internalType": "contract IERC20",
          "name": "",
          "type": "address"
        }
      ],
      "stateMutability": "view",
      "type": "function"
    },
    {
      "inputs": [],
      "name": "pikaTokensAllocated",
      "outputs": [
        {
          "internalType": "uint256",
          "name": "",
          "type": "uint256"
        }
      ],
      "stateMutability": "view",
      "type": "function"
    },
    {
      "inputs": [],
      "name": "pikaTokensAllocatedWhitelist",
      "outputs": [
        {
          "internalType": "uint256",
          "name": "",
          "type": "uint256"
        }
      ],
      "stateMutability": "view",
      "type": "function"
    },
    {
      "inputs": [],
      "name": "saleClose",
      "outputs": [
        {
          "internalType": "uint256",
          "name": "",
          "type": "uint256"
        }
      ],
      "stateMutability": "view",
      "type": "function"
    },
    {
      "inputs": [],
      "name": "saleStart",
      "outputs": [
        {
          "internalType": "uint256",
          "name": "",
          "type": "uint256"
        }
      ],
      "stateMutability": "view",
      "type": "function"
    },
    {
      "inputs": [],
      "name": "saleWhitelistStart",
      "outputs": [
        {
          "internalType": "uint256",
          "name": "",
          "type": "uint256"
        }
      ],
      "stateMutability": "view",
      "type": "function"
    },
    {
      "inputs": [],
      "name": "weiDeposited",
      "outputs": [
        {
          "internalType": "uint256",
          "name": "",
          "type": "uint256"
        }
      ],
      "stateMutability": "view",
      "type": "function"
    },
    {
      "inputs": [],
      "name": "weiDepositedWhitelist",
      "outputs": [
        {
          "internalType": "uint256",
          "name": "",
          "type": "uint256"
        }
      ],
      "stateMutability": "view",
      "type": "function"
    },
    {
      "inputs": [],
      "name": "whitelistMaxDeposit1",
      "outputs": [
        {
          "internalType": "uint256",
          "name": "",
          "type": "uint256"
        }
      ],
      "stateMutability": "view",
      "type": "function"
    },
    {
      "inputs": [],
      "name": "whitelistMaxDeposit2",
      "outputs": [
        {
          "internalType": "uint256",
          "name": "",
          "type": "uint256"
        }
      ],
      "stateMutability": "view",
      "type": "function"
    },
    {
      "inputs": [],
      "name": "whitelistMaxDeposit3",
      "outputs": [
        {
          "internalType": "uint256",
          "name": "",
          "type": "uint256"
        }
      ],
      "stateMutability": "view",
      "type": "function"
    },
    {
      "stateMutability": "payable",
      "type": "receive"
    },
    {
      "inputs": [
        {
          "internalType": "address",
          "name": "beneficiary",
          "type": "address"
        },
        {
          "internalType": "bytes32[]",
          "name": "merkleProof",
          "type": "bytes32[]"
        }
      ],
      "name": "depositForWhitelistedAddress",
      "outputs": [],
      "stateMutability": "payable",
      "type": "function"
    },
    {
      "inputs": [
        {
          "internalType": "address",
          "name": "beneficiary",
          "type": "address"
        }
      ],
      "name": "deposit",
      "outputs": [],
      "stateMutability": "payable",
      "type": "function"
    },
    {
      "inputs": [
        {
          "internalType": "address",
          "name": "beneficiary",
          "type": "address"
        }
      ],
      "name": "claim",
      "outputs": [
        {
          "internalType": "uint256",
          "name": "",
          "type": "uint256"
        }
      ],
      "stateMutability": "nonpayable",
      "type": "function"
    },
    {
      "inputs": [],
      "name": "withdraw",
      "outputs": [],
      "stateMutability": "nonpayable",
      "type": "function"
    },
    {
      "inputs": [],
      "name": "withdrawUnsoldPika",
      "outputs": [],
      "stateMutability": "nonpayable",
      "type": "function"
    },
    {
      "inputs": [],
      "name": "getUnsoldPika",
      "outputs": [
        {
          "internalType": "uint256",
          "name": "",
          "type": "uint256"
        }
      ],
      "stateMutability": "view",
      "type": "function"
    },
    {
      "inputs": [
        {
          "internalType": "address",
          "name": "beneficiary",
          "type": "address"
        }
      ],
      "name": "claimAmountPika",
      "outputs": [
        {
          "internalType": "uint256",
          "name": "",
          "type": "uint256"
        }
      ],
      "stateMutability": "view",
      "type": "function"
    },
    {
      "inputs": [
        {
          "internalType": "address",
          "name": "beneficiary",
          "type": "address"
        },
        {
          "internalType": "uint256",
          "name": "whitelistMaxDeposit",
          "type": "uint256"
        }
      ],
      "name": "depositableLeftWhitelist",
      "outputs": [
        {
          "internalType": "uint256",
          "name": "",
          "type": "uint256"
        }
      ],
      "stateMutability": "view",
      "type": "function"
    },
    {
      "inputs": [
        {
          "internalType": "address",
          "name": "beneficiary",
          "type": "address"
        },
        {
          "internalType": "bytes32[]",
          "name": "merkleProof",
          "type": "bytes32[]"
        }
      ],
      "name": "verifyAndGetTierAmount",
      "outputs": [
        {
          "internalType": "uint256",
          "name": "",
          "type": "uint256"
        }
      ],
      "stateMutability": "nonpayable",
      "type": "function"
    },
    {
      "inputs": [],
      "name": "getCurrentPikaPrice",
      "outputs": [
        {
          "internalType": "uint256",
          "name": "",
          "type": "uint256"
        }
      ],
      "stateMutability": "view",
      "type": "function"
    }
  ],
  "bytecode": "0x60806040523480156200001157600080fd5b5060405162001cce38038062001cce833981016040819052620000349162000351565b60016000556001600160a01b038a16620000955760405162461bcd60e51b815260206004820152601560248201527f696e76616c6964206f776e65722061646472657373000000000000000000000060448201526064015b60405180910390fd5b6001600160a01b038b16620000ed5760405162461bcd60e51b815260206004820152601560248201527f696e76616c696420746f6b656e2061646472657373000000000000000000000060448201526064016200008c565b876005541115620001415760405162461bcd60e51b815260206004820152601a60248201527f696e76616c69642073616c6557686974656c697374537461727400000000000060448201526064016200008c565b42881015620001875760405162461bcd60e51b81526020600482015260116024820152701a5b9d985b1a59081cd85b1954dd185c9d607a1b60448201526064016200008c565b878711620001cc5760405162461bcd60e51b8152602060048201526011602482015270696e76616c69642073616c65436c6f736560781b60448201526064016200008c565b600086116200021e5760405162461bcd60e51b815260206004820152601c60248201527f696e76616c6964206d61784465706f7369747357686974656c6973740000000060448201526064016200008c565b60008511620002705760405162461bcd60e51b815260206004820152601b60248201527f696e76616c69642070696b61546f6b656e73416c6c6f6361746564000000000060448201526064016200008c565b600180546001600160a01b03199081166001600160a01b038e81169190911790925560028054909116918c1691909117905560058990556006889055600787905560088690556009859055620002ee6064620002da87603262000311602090811b620011d017901c565b6200032660201b620011dc1790919060201c565b600a55600b93909355600c91909155600d55600e55506200043495505050505050565b60006200031f828462000406565b9392505050565b60006200031f8284620003e3565b80516001600160a01b03811681146200034c57600080fd5b919050565b60008060008060008060008060008060006101608c8e0312156200037457600080fd5b6200037f8c62000334565b9a506200038f60208d0162000334565b995060408c0151985060608c0151975060808c0151965060a08c0151955060c08c0151945060e08c015193506101008c015192506101208c015191506101408c015190509295989b509295989b9093969950565b6000826200040157634e487b7160e01b600052601260045260246000fd5b500490565b60008160001904831182151516156200042f57634e487b7160e01b600052601160045260246000fd5b500290565b61188a80620004446000396000f3fe6080604052600436106101855760003560e01c8063a83c5e01116100d1578063d6207c421161008a578063f340fa0111610064578063f340fa0114610538578063f7758c991461054b578063f8da25591461055e578063fc7e286d1461057e57600080fd5b8063d6207c42146104f6578063e24bdb421461050c578063e8d133b31461052257600080fd5b8063a83c5e011461046a578063ab0bcc4114610480578063b546fbf914610496578063bc5f86b8146104b6578063c3c5574a146104cb578063d4fe57cf146104e157600080fd5b80633ccfd60b1161013e578063562143c511610118578063562143c5146103d957806365302f68146104065780638da5cb5b1461041c578063a1a21cf21461045457600080fd5b80633ccfd60b146103995780634e6f9a6b146103ae57806355817f40146103c357600080fd5b806316e2f1bc146102e45780631e83409a1461030d578063222e019d1461032d57806323523774146103435780632eb4a7ab14610363578063383e6cb31461037957600080fd5b366102df573332146101b25760405162461bcd60e51b81526004016101a990611722565b60405180910390fd5b6101ba6105ab565b33806101d85760405162461bcd60e51b81526004016101a9906116f9565b4260065411156101fa5760405162461bcd60e51b81526004016101a9906116c2565b60075442111561023e5760405162461bcd60e51b815260206004820152600f60248201526e1cd85b19481a185cc818db1bdcd959608a1b60448201526064016101a9565b6001600160a01b0381166000908152601060205260409020546102619034610605565b6001600160a01b0382166000908152601060205260409020556004546102879034610605565b600455604080513481524260208201526000916001600160a01b0384169133917f8f88289d3d792578d28e0626f5b2d4fcbac8a33d6cc2941af00087ceb45e74eb910160405180910390a4506102dd6001600055565b005b600080fd5b3480156102f057600080fd5b506102fa600d5481565b6040519081526020015b60405180910390f35b34801561031957600080fd5b506102fa610328366004611564565b610618565b34801561033957600080fd5b506102fa600a5481565b34801561034f57600080fd5b506102fa61035e366004611605565b610769565b34801561036f57600080fd5b506102fa600e5481565b34801561038557600080fd5b506102fa61039436600461157f565b61078d565b3480156103a557600080fd5b506102dd610948565b3480156103ba57600080fd5b506102fa610a04565b3480156103cf57600080fd5b506102fa600b5481565b3480156103e557600080fd5b506102fa6103f4366004611564565b600f6020526000908152604090205481565b34801561041257600080fd5b506102fa60045481565b34801561042857600080fd5b5060025461043c906001600160a01b031681565b6040516001600160a01b039091168152602001610304565b34801561046057600080fd5b506102fa60085481565b34801561047657600080fd5b506102fa60095481565b34801561048c57600080fd5b506102fa60065481565b3480156104a257600080fd5b5060015461043c906001600160a01b031681565b3480156104c257600080fd5b506102dd610ae9565b3480156104d757600080fd5b506102fa60055481565b3480156104ed57600080fd5b506102fa610b97565b34801561050257600080fd5b506102fa60075481565b34801561051857600080fd5b506102fa60035481565b34801561052e57600080fd5b506102fa600c5481565b6102dd610546366004611564565b610c8a565b6102dd61055936600461157f565b610dde565b34801561056a57600080fd5b506102fa610579366004611564565b6110bc565b34801561058a57600080fd5b506102fa610599366004611564565b60106020526000908152604090205481565b600260005414156105fe5760405162461bcd60e51b815260206004820152601f60248201527f5265656e7472616e637947756172643a207265656e7472616e742063616c6c0060448201526064016101a9565b6002600055565b6000610611828461176d565b9392505050565b60006106226105ab565b6001600160a01b0382166000908152600f60209081526040808320546010909252822054610650919061176d565b1161068a5760405162461bcd60e51b815260206004820152600a6024820152691b9bc819195c1bdcda5d60b21b60448201526064016101a9565b60075442116106d45760405162461bcd60e51b81526020600482015260166024820152751cd85b19481a185cdb89dd0818db1bdcd959081e595d60521b60448201526064016101a9565b60006106df836110bc565b6001600160a01b038085166000908152600f602090815260408083208390556010909152812055600154919250610718911684836111e8565b6040518181526001600160a01b0384169033907fe08b397913fb308a6f799d3059933c86ebc9c03957a83af3e932ea54e979e52a9060200160405180910390a390506107646001600055565b919050565b6001600160a01b0382166000908152600f602052604081205461061190839061123a565b60008084600b546040516020016107a5929190611651565b6040516020818303038152906040528051906020012090506107fe84848080602002602001604051908101604052809392919081815260200183836020028082843760009201919091525050600e549150849050611246565b1561080d575050600b54610611565b600085600c54604051602001610824929190611651565b60405160208183030381529060405280519060200120905061087d85858080602002602001604051908101604052809392919081815260200183836020028082843760009201919091525050600e549150849050611246565b1561088e57600c5492505050610611565b600086600d546040516020016108a5929190611651565b6040516020818303038152906040528051906020012090506108fe86868080602002602001604051908101604052809392919081815260200183836020028082843760009201919091525050600e549150849050611246565b1561091057600d549350505050610611565b60405162461bcd60e51b815260206004820152600d60248201526c34b73b30b634b210383937b7b360991b60448201526064016101a9565b6002546001600160a01b0316331461099c5760405162461bcd60e51b815260206004820152601760248201527631b0b63632b91034b9903737ba103a34329037bbb732b960491b60448201526064016101a9565b604051303190339082156108fc029083906000818181858888f193505050501580156109cc573d6000803e3d6000fd5b506040518181527fb2a3fd05447b0260cac7f8db72bfb10790a24739428c6d3abe439e09fcac37f9906020015b60405180910390a150565b600080610a30600a54610a2a670de0b6b3a76400006008546111d090919063ffffffff16565b906111dc565b90506006544211610a4057919050565b6000610a6b600854610a2a610a6260035460085461123a90919063ffffffff16565b600a54906111d0565b90506000610a8482600a5461123a90919063ffffffff16565b90506000610a9d8260095461123a90919063ffffffff16565b90506000610ace82610a2a670de0b6b3a7640000610ac860035460045461123a90919063ffffffff16565b906111d0565b9050848111610add5784610adf565b805b9550505050505090565b6002546001600160a01b03163314610b3d5760405162461bcd60e51b815260206004820152601760248201527631b0b63632b91034b9903737ba103a34329037bbb732b960491b60448201526064016101a9565b6000610b47610b97565b600254600154919250610b67916001600160a01b039081169116836111e8565b6040518181527fa36c9e0aa3e5177bc1555585ebb2ab10fca7ac211e4564e890c7331ea105cbd0906020016109f9565b60006007544211610bdf5760405162461bcd60e51b81526020600482015260126024820152711cd85b19481a185cc81b9bdd08195b99195960721b60448201526064016101a9565b6000610c01600854610a2a610a6260035460085461123a90919063ffffffff16565b90506000610c1a82600a5461123a90919063ffffffff16565b90506000610c338260095461123a90919063ffffffff16565b90506000610c4e60035460045461123a90919063ffffffff16565b90506000610c6b600354610a2a84876111d090919063ffffffff16565b9050828110610c805760009550505050505090565b610adf838261123a565b333214610ca95760405162461bcd60e51b81526004016101a990611722565b610cb16105ab565b6001600160a01b038116610cd75760405162461bcd60e51b81526004016101a9906116f9565b426006541115610cf95760405162461bcd60e51b81526004016101a9906116c2565b600754421115610d3d5760405162461bcd60e51b815260206004820152600f60248201526e1cd85b19481a185cc818db1bdcd959608a1b60448201526064016101a9565b6001600160a01b038116600090815260106020526040902054610d609034610605565b6001600160a01b038216600090815260106020526040902055600454610d869034610605565b600455604080513481524260208201526000916001600160a01b0384169133917f8f88289d3d792578d28e0626f5b2d4fcbac8a33d6cc2941af00087ceb45e74eb910160405180910390a4610ddb6001600055565b50565b610de66105ab565b6001600160a01b038316610e0c5760405162461bcd60e51b81526004016101a9906116f9565b6001600160a01b0383163314610e645760405162461bcd60e51b815260206004820152601e60248201527f62656e6566696369617279206e6f74206d6573736167652073656e646572000060448201526064016101a9565b60003411610eb45760405162461bcd60e51b815260206004820152601b60248201527f6d757374206465706f7369742067726561746572207468616e2030000000000060448201526064016101a9565b60085434600354610ec5919061176d565b1115610f225760405162461bcd60e51b815260206004820152602660248201527f6d6178696d756d206465706f7369747320666f722077686974656c6973742072604482015265195858da195960d21b60648201526084016101a9565b426005541115610f445760405162461bcd60e51b81526004016101a9906116c2565b600654421115610f965760405162461bcd60e51b815260206004820152601960248201527f77686974656c6973742073616c652068617320636c6f7365640000000000000060448201526064016101a9565b6000610fa384848461078d565b9050610faf8482610769565b3411156110085760405162461bcd60e51b815260206004820152602160248201527f757365722077686974656c69737420616c6c6f636174696f6e207573656420756044820152600760fc1b60648201526084016101a9565b6001600160a01b0384166000908152600f602052604090205461102b9034610605565b6001600160a01b0385166000908152600f60205260409020556003546110519034610605565b6003556004546110619034610605565b600455604080513481524260208201526001916001600160a01b0387169133917f8f88289d3d792578d28e0626f5b2d4fcbac8a33d6cc2941af00087ceb45e74eb910160405180910390a4506110b76001600055565b505050565b6001600160a01b0381166000908152600f602090815260408083205460109092528220546110ea8183610605565b6110f8575060009392505050565b600061111a600854610a2a610a6260035460085461123a90919063ffffffff16565b9050600061113382600a5461123a90919063ffffffff16565b9050600061114c8260095461123a90919063ffffffff16565b9050600061116760035460045461123a90919063ffffffff16565b9050600086156111855760035461118290610a2a868a6111d0565b90505b85156111c45760006111b461119e84610a2a878b6111d0565b6003546111af90610a2a898c6111d0565b61125c565b90506111c08282610605565b9150505b98975050505050505050565b600061061182846117a7565b60006106118284611785565b604080516001600160a01b038416602482015260448082018490528251808303909101815260649091019091526020810180516001600160e01b031663a9059cbb60e01b1790526110b7908490611272565b600061061182846117c6565b6000826112538584611344565b14949350505050565b600081831061126b5781610611565b5090919050565b60006112c7826040518060400160405280602081526020017f5361666545524332303a206c6f772d6c6576656c2063616c6c206661696c6564815250856001600160a01b03166113919092919063ffffffff16565b8051909150156110b757808060200190518101906112e5919061162f565b6110b75760405162461bcd60e51b815260206004820152602a60248201527f5361666545524332303a204552433230206f7065726174696f6e20646964206e6044820152691bdd081cdd58d8d9595960b21b60648201526084016101a9565b600081815b845181101561138957611375828683815181106113685761136861183e565b60200260200101516113a8565b9150806113818161180d565b915050611349565b509392505050565b60606113a084846000856113d7565b949350505050565b60008183106113c4576000828152602084905260409020610611565b6000838152602083905260409020610611565b6060824710156114385760405162461bcd60e51b815260206004820152602660248201527f416464726573733a20696e73756666696369656e742062616c616e636520666f6044820152651c8818d85b1b60d21b60648201526084016101a9565b600080866001600160a01b031685876040516114549190611673565b60006040518083038185875af1925050503d8060008114611491576040519150601f19603f3d011682016040523d82523d6000602084013e611496565b606091505b50915091506114a7878383876114b2565b979650505050505050565b6060831561151e578251611517576001600160a01b0385163b6115175760405162461bcd60e51b815260206004820152601d60248201527f416464726573733a2063616c6c20746f206e6f6e2d636f6e747261637400000060448201526064016101a9565b50816113a0565b6113a083838151156115335781518083602001fd5b8060405162461bcd60e51b81526004016101a9919061168f565b80356001600160a01b038116811461076457600080fd5b60006020828403121561157657600080fd5b6106118261154d565b60008060006040848603121561159457600080fd5b61159d8461154d565b9250602084013567ffffffffffffffff808211156115ba57600080fd5b818601915086601f8301126115ce57600080fd5b8135818111156115dd57600080fd5b8760208260051b85010111156115f257600080fd5b6020830194508093505050509250925092565b6000806040838503121561161857600080fd5b6116218361154d565b946020939093013593505050565b60006020828403121561164157600080fd5b8151801515811461061157600080fd5b60609290921b6bffffffffffffffffffffffff19168252601482015260340190565b600082516116858184602087016117dd565b9190910192915050565b60208152600082518060208401526116ae8160408501602087016117dd565b601f01601f19169190910160400192915050565b60208082526017908201527f73616c65206861736e2774207374617274656420796574000000000000000000604082015260600190565b6020808252600f908201526e696e76616c6964206164647265737360881b604082015260600190565b6020808252602b908201527f436f6e74726163747320617265206e6f7420616c6c6f77656420746f20736e6960408201526a7065207468652073616c6560a81b606082015260800190565b6000821982111561178057611780611828565b500190565b6000826117a257634e487b7160e01b600052601260045260246000fd5b500490565b60008160001904831182151516156117c1576117c1611828565b500290565b6000828210156117d8576117d8611828565b500390565b60005b838110156117f85781810151838201526020016117e0565b83811115611807576000848401525b50505050565b600060001982141561182157611821611828565b5060010190565b634e487b7160e01b600052601160045260246000fd5b634e487b7160e01b600052603260045260246000fdfea2646970667358221220d59289d82afe3cad7c46b049280a7c6b36ad32e5948df1344ca234b039f024a364736f6c63430008070033",
  "immutableReferences": {},
  "source": "pragma solidity ^0.8.0;\n\nimport \"@openzeppelin/contracts/token/ERC20/IERC20.sol\";\nimport \"@openzeppelin/contracts/token/ERC20/utils/SafeERC20.sol\";\nimport \"@openzeppelin/contracts/utils/math/SafeMath.sol\";\nimport \"@openzeppelin/contracts/utils/math/Math.sol\";\nimport \"@openzeppelin/contracts/utils/cryptography/MerkleProof.sol\";\nimport  \"@openzeppelin/contracts/security/ReentrancyGuard.sol\";\n\n/// @title Pika token generation contract(adapted from Jones Dao token generation contract)\n/// Phase 1: whitelisted address can get Pika with fixed price with a maximum ETH size per address\n/// Phase 2: any address can contribute any amount of ETH. The final price of the phase is decided by\n/// (total ETH contributed for this phase / total Pika tokens for this phase)\ncontract PikaTokenGeneration is ReentrancyGuard {\n    using SafeMath for uint256;\n    using Math for uint256;\n    using SafeERC20 for IERC20;\n\n    // Pika Token\n    IERC20 public pika;\n    // Withdrawer\n    address public owner;\n    // Keeps track of ETH deposited during whitelist phase\n    uint256 public weiDepositedWhitelist;\n    // Keeps track of ETH deposited\n    uint256 public weiDeposited;\n    // Time when the token sale starts for whitelisted address\n    uint256 public saleWhitelistStart;\n    // Time when the token sale starts\n    uint256 public saleStart;\n    // Time when the token sale closes\n    uint256 public saleClose;\n    // Max cap on wei raised during whitelist\n    uint256 public maxDepositsWhitelist;\n    // Pika Tokens allocated to this contract\n    uint256 public pikaTokensAllocated;\n    // Pika Tokens allocated to whitelist\n    uint256 public pikaTokensAllocatedWhitelist;\n    // Max ETH that can be deposited by tier 1 whitelist address\n    uint256 public whitelistMaxDeposit1;\n    // Max ETH that can be deposited by tier 2 whitelist address\n    uint256 public whitelistMaxDeposit2;\n    // Max ETH that can be deposited by tier 3 whitelist address\n    uint256 public whitelistMaxDeposit3;\n    // Merkleroot of whitelisted addresses\n    bytes32 public merkleRoot;\n    // Amount each whitelisted user deposited\n    mapping(address => uint256) public depositsWhitelist;\n    // Amount each user deposited\n    mapping(address => uint256) public deposits;\n\n    event TokenDeposit(\n        address indexed purchaser,\n        address indexed beneficiary,\n        bool indexed isWhitelistDeposit,\n        uint256 value,\n        uint256 time\n    );\n    event TokenClaim(\n        address indexed claimer,\n        address indexed beneficiary,\n        uint256 amount\n    );\n    event EthRefundClaim(\n        address indexed claimer,\n        address indexed beneficiary,\n        uint256 amount\n    );\n    event WithdrawEth(uint256 amount);\n    event WithdrawPika(uint256 amount);\n\n    /// @param _pika Pika\n    /// @param _owner withdrawer\n    /// @param _saleWhitelistStart time when the token sale starts for whitelisted addresses\n    /// @param _saleStart time when the token sale starts\n    /// @param _saleClose time when the token sale closes\n    /// @param _maxDepositsWhitelist max cap on wei raised during whitelist\n    /// @param _pikaTokensAllocated Pika tokens allocated to this contract\n    /// @param _whitelistMaxDeposit1 max deposit that can be done via the whitelist deposit fn for tier 1 whitelist address\n    /// @param _whitelistMaxDeposit2 max deposit that can be done via the whitelist deposit fn for tier 2 whitelist address\n    /// @param _whitelistMaxDeposit3 max deposit that can be done via the whitelist deposit fn for tier 3 whitelist address\n    /// @param _merkleRoot the merkle root of all the whitelisted addresses\n    constructor(\n        address _pika,\n        address _owner,\n        uint256 _saleWhitelistStart,\n        uint256 _saleStart,\n        uint256 _saleClose,\n        uint256 _maxDepositsWhitelist,\n        uint256 _pikaTokensAllocated,\n        uint256 _whitelistMaxDeposit1,\n        uint256 _whitelistMaxDeposit2,\n        uint256 _whitelistMaxDeposit3,\n        bytes32 _merkleRoot\n    ) {\n        require(_owner != address(0), \"invalid owner address\");\n        require(_pika != address(0), \"invalid token address\");\n        require(saleWhitelistStart <= _saleStart, \"invalid saleWhitelistStart\");\n        require(_saleStart >= block.timestamp, \"invalid saleStart\");\n        require(_saleClose > _saleStart, \"invalid saleClose\");\n        require(_maxDepositsWhitelist > 0, \"invalid maxDepositsWhitelist\");\n        require(_pikaTokensAllocated > 0, \"invalid pikaTokensAllocated\");\n\n        pika = IERC20(_pika);\n        owner = _owner;\n        saleWhitelistStart = _saleWhitelistStart;\n        saleStart = _saleStart;\n        saleClose = _saleClose;\n        maxDepositsWhitelist = _maxDepositsWhitelist;\n        pikaTokensAllocated = _pikaTokensAllocated;\n        pikaTokensAllocatedWhitelist = pikaTokensAllocated.mul(50).div(100); // 50% of PikaTokensAllocated\n        whitelistMaxDeposit1 = _whitelistMaxDeposit1;\n        whitelistMaxDeposit2 = _whitelistMaxDeposit2;\n        whitelistMaxDeposit3 = _whitelistMaxDeposit3;\n        merkleRoot = _merkleRoot;\n    }\n\n    /// Deposit fallback\n    /// @dev must be equivalent to deposit(address beneficiary)\n    receive() external payable isEligibleSender nonReentrant {\n        address beneficiary = msg.sender;\n        require(beneficiary != address(0), \"invalid address\");\n        require(saleStart <= block.timestamp, \"sale hasn't started yet\");\n        require(block.timestamp <= saleClose, \"sale has closed\");\n\n        deposits[beneficiary] = deposits[beneficiary].add(msg.value);\n        weiDeposited = weiDeposited.add(msg.value);\n        emit TokenDeposit(\n            msg.sender,\n            beneficiary,\n            false,\n            msg.value,\n            block.timestamp\n        );\n    }\n\n    /// Deposit for whitelisted address\n    /// @param beneficiary will be able to claim tokens after saleClose\n    /// @param merkleProof the merkle proof\n    function depositForWhitelistedAddress(\n        address beneficiary,\n        bytes32[] calldata merkleProof\n    ) external payable nonReentrant {\n        require(beneficiary != address(0), \"invalid address\");\n        require(beneficiary == msg.sender, \"beneficiary not message sender\");\n        require(msg.value > 0, \"must deposit greater than 0\");\n        require((weiDepositedWhitelist + msg.value) <= maxDepositsWhitelist, \"maximum deposits for whitelist reached\");\n        require(saleWhitelistStart <= block.timestamp, \"sale hasn't started yet\");\n        require(block.timestamp <= saleStart, \"whitelist sale has closed\");\n\n        // Verify the merkle proof.\n        uint256 whitelistMaxDeposit = verifyAndGetTierAmount(beneficiary, merkleProof);\n        require(msg.value <= depositableLeftWhitelist(beneficiary, whitelistMaxDeposit), \"user whitelist allocation used up\");\n\n        // Add user deposit to depositsWhitelist\n        depositsWhitelist[beneficiary] = depositsWhitelist[beneficiary].add(\n            msg.value\n        );\n\n        weiDepositedWhitelist = weiDepositedWhitelist.add(msg.value);\n        weiDeposited = weiDeposited.add(msg.value);\n\n        emit TokenDeposit(\n            msg.sender,\n            beneficiary,\n            true,\n            msg.value,\n            block.timestamp\n        );\n    }\n\n    /// Deposit\n    /// @param beneficiary will be able to claim tokens after saleClose\n    /// @dev must be equivalent to receive()\n    function deposit(address beneficiary) public payable isEligibleSender nonReentrant {\n        require(beneficiary != address(0), \"invalid address\");\n        require(saleStart <= block.timestamp, \"sale hasn't started yet\");\n        require(block.timestamp <= saleClose, \"sale has closed\");\n\n        deposits[beneficiary] = deposits[beneficiary].add(msg.value);\n        weiDeposited = weiDeposited.add(msg.value);\n        emit TokenDeposit(\n            msg.sender,\n            beneficiary,\n            false,\n            msg.value,\n            block.timestamp\n        );\n    }\n\n    /// Claim\n    /// @param beneficiary receives the tokens they claimed\n    /// @dev claim calculation must be equivalent to claimAmount(address beneficiary)\n    function claim(address beneficiary) external nonReentrant returns (uint256) {\n        require(\n            deposits[beneficiary] + depositsWhitelist[beneficiary] > 0,\n            \"no deposit\"\n        );\n        require(block.timestamp > saleClose, \"sale hasn't closed yet\");\n\n        // total Pika allocated * user share in the ETH deposited\n        uint256 beneficiaryClaim = claimAmountPika(beneficiary);\n        depositsWhitelist[beneficiary] = 0;\n        deposits[beneficiary] = 0;\n\n        pika.safeTransfer(beneficiary, beneficiaryClaim);\n\n        emit TokenClaim(msg.sender, beneficiary, beneficiaryClaim);\n\n        return beneficiaryClaim;\n    }\n\n    /// @dev Withdraws eth deposited into the contract. Only owner can call this.\n    function withdraw() external {\n        require(owner == msg.sender, \"caller is not the owner\");\n        uint256 ethBalance = payable(address(this)).balance;\n        payable(msg.sender).transfer(ethBalance);\n\n        emit WithdrawEth(ethBalance);\n    }\n\n    /// @dev Withdraws unsold PIKA tokens(if any). Only owner can call this.\n    function withdrawUnsoldPika() external {\n        require(owner == msg.sender, \"caller is not the owner\");\n        uint256 unsoldAmount = getUnsoldPika();\n        pika.safeTransfer(owner, unsoldAmount);\n\n        emit WithdrawPika(unsoldAmount);\n    }\n\n    function getUnsoldPika() public view returns(uint256) {\n        require(block.timestamp > saleClose, \"sale has not ended\");\n        // amount of Pika unsold during whitelist sale\n        uint256 unsoldWlPika = pikaTokensAllocatedWhitelist\n        .mul((maxDepositsWhitelist.sub(weiDepositedWhitelist)))\n        .div(maxDepositsWhitelist);\n\n        // amount of Pika tokens allocated to whitelist sale\n        uint256 pikaForWl = pikaTokensAllocatedWhitelist.sub(unsoldWlPika);\n\n        // amount of Pika tokens allocated to public sale\n        uint256 pikaForPublic = pikaTokensAllocated.sub(pikaForWl);\n\n        // total wei deposited during the public sale\n        uint256 totalDepoPublic = weiDeposited.sub(weiDepositedWhitelist);\n\n        // the amount of Pika sold in public if it is sold at the whitelist price\n        uint256 pikaSoldPublicAtWhitelistPrice = pikaForWl.mul(totalDepoPublic).div(weiDepositedWhitelist);\n\n        // if the amount is larger than pikaForPublic, it means the actual price in public phase is higher than\n        // whitelist price and therefore all the PIKA tokens are sold out.\n        if (pikaSoldPublicAtWhitelistPrice >= pikaForPublic) {\n            return 0;\n        }\n        return pikaForPublic.sub(pikaSoldPublicAtWhitelistPrice);\n    }\n\n    /// View beneficiary's claimable token amount\n    /// @param beneficiary address to view claimable token amount of\n    function claimAmountPika(address beneficiary) public view returns (uint256) {\n        // wei deposited during whitelist sale by beneficiary\n        uint256 userDepoWl = depositsWhitelist[beneficiary];\n\n        // wei deposited during public sale by beneficiary\n        uint256 userDepoPub = deposits[beneficiary];\n\n        if (userDepoPub.add(userDepoWl) == 0) {\n            return 0;\n        }\n\n        // amount of Pika unsold during whitelist sale\n        uint256 unsoldWlPika = pikaTokensAllocatedWhitelist\n        .mul((maxDepositsWhitelist.sub(weiDepositedWhitelist)))\n        .div(maxDepositsWhitelist);\n\n        // amount of Pika tokens allocated to whitelist sale\n        uint256 pikaForWl = pikaTokensAllocatedWhitelist.sub(unsoldWlPika);\n\n        // amount of Pika tokens allocated to public sale\n        uint256 pikaForPublic = pikaTokensAllocated.sub(pikaForWl);\n\n        // total wei deposited during the public sale\n        uint256 totalDepoPublic = weiDeposited.sub(weiDepositedWhitelist);\n\n        uint256 userClaimablePika = 0;\n\n        if (userDepoWl > 0) {\n            userClaimablePika = pikaForWl.mul(userDepoWl).div(weiDepositedWhitelist);\n        }\n        if (userDepoPub > 0) {\n            uint256 userClaimablePikaPublic = Math.min(pikaForPublic.mul(userDepoPub).div(totalDepoPublic),\n                pikaForWl.mul(userDepoPub).div(weiDepositedWhitelist));\n            userClaimablePika = userClaimablePika.add(userClaimablePikaPublic);\n        }\n        return userClaimablePika;\n    }\n\n    /// View leftover depositable eth for whitelisted user\n    /// @param beneficiary user address\n    /// @param whitelistMaxDeposit max deposit amount for user address\n    function depositableLeftWhitelist(address beneficiary, uint256 whitelistMaxDeposit) public view returns (uint256) {\n        return whitelistMaxDeposit.sub(depositsWhitelist[beneficiary]);\n    }\n\n    function verifyAndGetTierAmount(address beneficiary, bytes32[] calldata merkleProof) public returns(uint256) {\n        bytes32 node1 = keccak256(abi.encodePacked(beneficiary, whitelistMaxDeposit1));\n        if (MerkleProof.verify(merkleProof, merkleRoot, node1)) {\n            return whitelistMaxDeposit1;\n        }\n        bytes32 node2 = keccak256(abi.encodePacked(beneficiary, whitelistMaxDeposit2));\n        if (MerkleProof.verify(merkleProof, merkleRoot, node2)) {\n            return whitelistMaxDeposit2;\n        }\n        bytes32 node3 = keccak256(abi.encodePacked(beneficiary, whitelistMaxDeposit3));\n        if (MerkleProof.verify(merkleProof, merkleRoot, node3)) {\n            return whitelistMaxDeposit3;\n        }\n        revert(\"invalid proof\");\n    }\n\n    function getCurrentPikaPrice() external view returns(uint256) {\n        uint256 minPrice = maxDepositsWhitelist.mul(1e18).div(pikaTokensAllocatedWhitelist);\n        if (block.timestamp <= saleStart) {\n            return minPrice;\n        }\n        // amount of Pika unsold during whitelist sale\n        uint256 unsoldWlPika = pikaTokensAllocatedWhitelist\n        .mul((maxDepositsWhitelist.sub(weiDepositedWhitelist)))\n        .div(maxDepositsWhitelist);\n        // amount of Pika tokens allocated to whitelist sale\n        uint256 pikaForWl = pikaTokensAllocatedWhitelist.sub(unsoldWlPika);\n\n        // amount of Pika tokens allocated to public sale\n        uint256 pikaForPublic = pikaTokensAllocated.sub(pikaForWl);\n        uint256 priceForPublic = (weiDeposited.sub(weiDepositedWhitelist)).mul(1e18).div(pikaForPublic);\n        return priceForPublic > minPrice ? priceForPublic : minPrice;\n    }\n\n    // Modifier is eligible sender modifier\n    modifier isEligibleSender() {\n        require(msg.sender == tx.origin, \"Contracts are not allowed to snipe the sale\");\n        _;\n    }\n}",
  "sourcePath": "/Users/me/workspace/PikaPerpV2/contracts/token/PikaTokenGeneration.sol",
  "compiler": {
    "name": "solc",
    "version": "0.8.7+commit.e28d00a7.Emscripten.clang"
  },
  "schemaVersion": "3.4.11",
  "updatedAt": "2023-01-14T09:54:29.116Z",
  "devdoc": {
    "kind": "dev",
    "methods": {
      "claim(address)": {
        "details": "claim calculation must be equivalent to claimAmount(address beneficiary)",
        "params": {
          "beneficiary": "receives the tokens they claimed"
        }
      },
      "claimAmountPika(address)": {
        "params": {
          "beneficiary": "address to view claimable token amount of"
        }
      },
      "constructor": {
        "params": {
          "_maxDepositsWhitelist": "max cap on wei raised during whitelist",
          "_merkleRoot": "the merkle root of all the whitelisted addresses",
          "_owner": "withdrawer",
          "_pika": "Pika",
          "_pikaTokensAllocated": "Pika tokens allocated to this contract",
          "_saleClose": "time when the token sale closes",
          "_saleStart": "time when the token sale starts",
          "_saleWhitelistStart": "time when the token sale starts for whitelisted addresses",
          "_whitelistMaxDeposit1": "max deposit that can be done via the whitelist deposit fn for tier 1 whitelist address",
          "_whitelistMaxDeposit2": "max deposit that can be done via the whitelist deposit fn for tier 2 whitelist address",
          "_whitelistMaxDeposit3": "max deposit that can be done via the whitelist deposit fn for tier 3 whitelist address"
        }
      },
      "deposit(address)": {
        "details": "must be equivalent to receive()",
        "params": {
          "beneficiary": "will be able to claim tokens after saleClose"
        }
      },
      "depositForWhitelistedAddress(address,bytes32[])": {
        "params": {
          "beneficiary": "will be able to claim tokens after saleClose",
          "merkleProof": "the merkle proof"
        }
      },
      "depositableLeftWhitelist(address,uint256)": {
        "params": {
          "beneficiary": "user address",
          "whitelistMaxDeposit": "max deposit amount for user address"
        }
      },
      "withdraw()": {
        "details": "Withdraws eth deposited into the contract. Only owner can call this."
      },
      "withdrawUnsoldPika()": {
        "details": "Withdraws unsold PIKA tokens(if any). Only owner can call this."
      }
    },
    "title": "Pika token generation contract(adapted from Jones Dao token generation contract) Phase 1: whitelisted address can get Pika with fixed price with a maximum ETH size per address Phase 2: any address can contribute any amount of ETH. The final price of the phase is decided by (total ETH contributed for this phase / total Pika tokens for this phase)",
    "version": 1
  },
  "userdoc": {
    "kind": "user",
    "methods": {
      "claim(address)": {
        "notice": "Claim"
      },
      "claimAmountPika(address)": {
        "notice": "View beneficiary's claimable token amount"
      },
      "deposit(address)": {
        "notice": "Deposit"
      },
      "depositForWhitelistedAddress(address,bytes32[])": {
        "notice": "Deposit for whitelisted address"
      },
      "depositableLeftWhitelist(address,uint256)": {
        "notice": "View leftover depositable eth for whitelisted user"
      }
    },
    "version": 1
  }
}