{
  "contractName": "PositionManager",
  "abi": [
    {
      "inputs": [
        {
          "internalType": "address",
          "name": "_pikaPerp",
          "type": "address"
        },
        {
          "internalType": "address",
          "name": "_feeCalculator",
          "type": "address"
        },
        {
          "internalType": "address",
          "name": "_oracle",
          "type": "address"
        },
        {
          "internalType": "address",
          "name": "_collateralToken",
          "type": "address"
        },
        {
          "internalType": "uint256",
          "name": "_minExecutionFee",
          "type": "uint256"
        },
        {
          "internalType": "uint256",
          "name": "_tokenBase",
          "type": "uint256"
        }
      ],
      "stateMutability": "nonpayable",
      "type": "constructor"
    },
    {
      "anonymous": false,
      "inputs": [
        {
          "indexed": true,
          "internalType": "address",
          "name": "account",
          "type": "address"
        },
        {
          "indexed": false,
          "internalType": "uint256",
          "name": "productId",
          "type": "uint256"
        },
        {
          "indexed": false,
          "internalType": "uint256",
          "name": "margin",
          "type": "uint256"
        },
        {
          "indexed": false,
          "internalType": "bool",
          "name": "isLong",
          "type": "bool"
        },
        {
          "indexed": false,
          "internalType": "uint256",
          "name": "acceptablePrice",
          "type": "uint256"
        },
        {
          "indexed": false,
          "internalType": "uint256",
          "name": "executionFee",
          "type": "uint256"
        },
        {
          "indexed": false,
          "internalType": "uint256",
          "name": "index",
          "type": "uint256"
        },
        {
          "indexed": false,
          "internalType": "uint256",
          "name": "blockGap",
          "type": "uint256"
        },
        {
          "indexed": false,
          "internalType": "uint256",
          "name": "timeGap",
          "type": "uint256"
        }
      ],
      "name": "CancelClosePosition",
      "type": "event"
    },
    {
      "anonymous": false,
      "inputs": [
        {
          "indexed": true,
          "internalType": "address",
          "name": "account",
          "type": "address"
        },
        {
          "indexed": false,
          "internalType": "uint256",
          "name": "productId",
          "type": "uint256"
        },
        {
          "indexed": false,
          "internalType": "uint256",
          "name": "margin",
          "type": "uint256"
        },
        {
          "indexed": false,
          "internalType": "uint256",
          "name": "leverage",
          "type": "uint256"
        },
        {
          "indexed": false,
          "internalType": "uint256",
          "name": "tradeFee",
          "type": "uint256"
        },
        {
          "indexed": false,
          "internalType": "bool",
          "name": "isLong",
          "type": "bool"
        },
        {
          "indexed": false,
          "internalType": "uint256",
          "name": "acceptablePrice",
          "type": "uint256"
        },
        {
          "indexed": false,
          "internalType": "uint256",
          "name": "executionFee",
          "type": "uint256"
        },
        {
          "indexed": false,
          "internalType": "uint256",
          "name": "index",
          "type": "uint256"
        },
        {
          "indexed": false,
          "internalType": "uint256",
          "name": "blockGap",
          "type": "uint256"
        },
        {
          "indexed": false,
          "internalType": "uint256",
          "name": "timeGap",
          "type": "uint256"
        }
      ],
      "name": "CancelOpenPosition",
      "type": "event"
    },
    {
      "anonymous": false,
      "inputs": [
        {
          "indexed": true,
          "internalType": "address",
          "name": "account",
          "type": "address"
        },
        {
          "indexed": false,
          "internalType": "uint256",
          "name": "productId",
          "type": "uint256"
        },
        {
          "indexed": false,
          "internalType": "uint256",
          "name": "margin",
          "type": "uint256"
        },
        {
          "indexed": false,
          "internalType": "bool",
          "name": "isLong",
          "type": "bool"
        },
        {
          "indexed": false,
          "internalType": "uint256",
          "name": "acceptablePrice",
          "type": "uint256"
        },
        {
          "indexed": false,
          "internalType": "uint256",
          "name": "executionFee",
          "type": "uint256"
        },
        {
          "indexed": false,
          "internalType": "uint256",
          "name": "index",
          "type": "uint256"
        },
        {
          "indexed": false,
          "internalType": "uint256",
          "name": "blockNumber",
          "type": "uint256"
        },
        {
          "indexed": false,
          "internalType": "uint256",
          "name": "blockTime",
          "type": "uint256"
        }
      ],
      "name": "CreateClosePosition",
      "type": "event"
    },
    {
      "anonymous": false,
      "inputs": [
        {
          "indexed": true,
          "internalType": "address",
          "name": "account",
          "type": "address"
        },
        {
          "indexed": false,
          "internalType": "uint256",
          "name": "productId",
          "type": "uint256"
        },
        {
          "indexed": false,
          "internalType": "uint256",
          "name": "margin",
          "type": "uint256"
        },
        {
          "indexed": false,
          "internalType": "uint256",
          "name": "leverage",
          "type": "uint256"
        },
        {
          "indexed": false,
          "internalType": "uint256",
          "name": "tradeFee",
          "type": "uint256"
        },
        {
          "indexed": false,
          "internalType": "bool",
          "name": "isLong",
          "type": "bool"
        },
        {
          "indexed": false,
          "internalType": "uint256",
          "name": "acceptablePrice",
          "type": "uint256"
        },
        {
          "indexed": false,
          "internalType": "uint256",
          "name": "executionFee",
          "type": "uint256"
        },
        {
          "indexed": false,
          "internalType": "uint256",
          "name": "index",
          "type": "uint256"
        },
        {
          "indexed": false,
          "internalType": "uint256",
          "name": "blockNumber",
          "type": "uint256"
        },
        {
          "indexed": false,
          "internalType": "uint256",
          "name": "blockTime",
          "type": "uint256"
        },
        {
          "indexed": false,
          "internalType": "uint256",
          "name": "gasPrice",
          "type": "uint256"
        }
      ],
      "name": "CreateOpenPosition",
      "type": "event"
    },
    {
      "anonymous": false,
      "inputs": [
        {
          "indexed": true,
          "internalType": "address",
          "name": "account",
          "type": "address"
        },
        {
          "indexed": false,
          "internalType": "uint256",
          "name": "productId",
          "type": "uint256"
        },
        {
          "indexed": false,
          "internalType": "uint256",
          "name": "margin",
          "type": "uint256"
        },
        {
          "indexed": false,
          "internalType": "bool",
          "name": "isLong",
          "type": "bool"
        },
        {
          "indexed": false,
          "internalType": "uint256",
          "name": "acceptablePrice",
          "type": "uint256"
        },
        {
          "indexed": false,
          "internalType": "uint256",
          "name": "executionFee",
          "type": "uint256"
        },
        {
          "indexed": false,
          "internalType": "uint256",
          "name": "index",
          "type": "uint256"
        },
        {
          "indexed": false,
          "internalType": "uint256",
          "name": "blockGap",
          "type": "uint256"
        },
        {
          "indexed": false,
          "internalType": "uint256",
          "name": "timeGap",
          "type": "uint256"
        }
      ],
      "name": "ExecuteClosePosition",
      "type": "event"
    },
    {
      "anonymous": false,
      "inputs": [
        {
          "indexed": true,
          "internalType": "address",
          "name": "account",
          "type": "address"
        },
        {
          "indexed": false,
          "internalType": "uint256",
          "name": "index",
          "type": "uint256"
        },
        {
          "indexed": false,
          "internalType": "string",
          "name": "executionError",
          "type": "string"
        }
      ],
      "name": "ExecuteClosePositionError",
      "type": "event"
    },
    {
      "anonymous": false,
      "inputs": [
        {
          "indexed": true,
          "internalType": "address",
          "name": "account",
          "type": "address"
        },
        {
          "indexed": false,
          "internalType": "uint256",
          "name": "productId",
          "type": "uint256"
        },
        {
          "indexed": false,
          "internalType": "uint256",
          "name": "margin",
          "type": "uint256"
        },
        {
          "indexed": false,
          "internalType": "uint256",
          "name": "leverage",
          "type": "uint256"
        },
        {
          "indexed": false,
          "internalType": "uint256",
          "name": "tradeFee",
          "type": "uint256"
        },
        {
          "indexed": false,
          "internalType": "bool",
          "name": "isLong",
          "type": "bool"
        },
        {
          "indexed": false,
          "internalType": "uint256",
          "name": "acceptablePrice",
          "type": "uint256"
        },
        {
          "indexed": false,
          "internalType": "uint256",
          "name": "executionFee",
          "type": "uint256"
        },
        {
          "indexed": false,
          "internalType": "uint256",
          "name": "index",
          "type": "uint256"
        },
        {
          "indexed": false,
          "internalType": "uint256",
          "name": "blockGap",
          "type": "uint256"
        },
        {
          "indexed": false,
          "internalType": "uint256",
          "name": "timeGap",
          "type": "uint256"
        }
      ],
      "name": "ExecuteOpenPosition",
      "type": "event"
    },
    {
      "anonymous": false,
      "inputs": [
        {
          "indexed": true,
          "internalType": "address",
          "name": "account",
          "type": "address"
        },
        {
          "indexed": false,
          "internalType": "uint256",
          "name": "index",
          "type": "uint256"
        },
        {
          "indexed": false,
          "internalType": "string",
          "name": "executionError",
          "type": "string"
        }
      ],
      "name": "ExecuteOpenPositionError",
      "type": "event"
    },
    {
      "anonymous": false,
      "inputs": [
        {
          "indexed": false,
          "internalType": "address",
          "name": "admin",
          "type": "address"
        }
      ],
      "name": "SetAdmin",
      "type": "event"
    },
    {
      "anonymous": false,
      "inputs": [
        {
          "indexed": false,
          "internalType": "bool",
          "name": "allowPublicKeeper",
          "type": "bool"
        }
      ],
      "name": "SetAllowPublicKeeper",
      "type": "event"
    },
    {
      "anonymous": false,
      "inputs": [
        {
          "indexed": false,
          "internalType": "bool",
          "name": "allowUserCloseOnly",
          "type": "bool"
        }
      ],
      "name": "SetAllowUserCloseOnly",
      "type": "event"
    },
    {
      "anonymous": false,
      "inputs": [
        {
          "indexed": false,
          "internalType": "uint256",
          "name": "minBlockDelayPositionKeeper",
          "type": "uint256"
        },
        {
          "indexed": false,
          "internalType": "uint256",
          "name": "minBlockDelayPriceKeeper",
          "type": "uint256"
        },
        {
          "indexed": false,
          "internalType": "uint256",
          "name": "minTimeExecuteDelayPublic",
          "type": "uint256"
        },
        {
          "indexed": false,
          "internalType": "uint256",
          "name": "minTimeCancelDelayPublic",
          "type": "uint256"
        },
        {
          "indexed": false,
          "internalType": "uint256",
          "name": "maxTimeDelay",
          "type": "uint256"
        }
      ],
      "name": "SetDelayValues",
      "type": "event"
    },
    {
      "anonymous": false,
      "inputs": [
        {
          "indexed": false,
          "internalType": "bool",
          "name": "isUserCancelEnabled",
          "type": "bool"
        }
      ],
      "name": "SetIsUserCancelEnabled",
      "type": "event"
    },
    {
      "anonymous": false,
      "inputs": [
        {
          "indexed": false,
          "internalType": "bool",
          "name": "isUserExecuteEnabled",
          "type": "bool"
        }
      ],
      "name": "SetIsUserExecuteEnabled",
      "type": "event"
    },
    {
      "anonymous": false,
      "inputs": [
        {
          "indexed": false,
          "internalType": "uint256",
          "name": "minExecutionFee",
          "type": "uint256"
        }
      ],
      "name": "SetMinExecutionFee",
      "type": "event"
    },
    {
      "anonymous": false,
      "inputs": [
        {
          "indexed": true,
          "internalType": "address",
          "name": "account",
          "type": "address"
        },
        {
          "indexed": false,
          "internalType": "bool",
          "name": "isActive",
          "type": "bool"
        }
      ],
      "name": "SetPositionKeeper",
      "type": "event"
    },
    {
      "anonymous": false,
      "inputs": [
        {
          "indexed": true,
          "internalType": "address",
          "name": "account",
          "type": "address"
        },
        {
          "indexed": false,
          "internalType": "bool",
          "name": "isActive",
          "type": "bool"
        }
      ],
      "name": "SetPriceKeeper",
      "type": "event"
    },
    {
      "anonymous": false,
      "inputs": [
        {
          "indexed": false,
          "internalType": "uint256",
          "name": "increasePositionRequestKeysStart",
          "type": "uint256"
        },
        {
          "indexed": false,
          "internalType": "uint256",
          "name": "decreasePositionRequestKeysStart",
          "type": "uint256"
        }
      ],
      "name": "SetRequestKeysStartValues",
      "type": "event"
    },
    {
      "stateMutability": "payable",
      "type": "fallback"
    },
    {
      "inputs": [],
      "name": "BASE",
      "outputs": [
        {
          "internalType": "uint256",
          "name": "",
          "type": "uint256"
        }
      ],
      "stateMutability": "view",
      "type": "function"
    },
    {
      "inputs": [],
      "name": "FEE_BASE",
      "outputs": [
        {
          "internalType": "uint256",
          "name": "",
          "type": "uint256"
        }
      ],
      "stateMutability": "view",
      "type": "function"
    },
    {
      "inputs": [],
      "name": "admin",
      "outputs": [
        {
          "internalType": "address",
          "name": "",
          "type": "address"
        }
      ],
      "stateMutability": "view",
      "type": "function"
    },
    {
      "inputs": [],
      "name": "allowPublicKeeper",
      "outputs": [
        {
          "internalType": "bool",
          "name": "",
          "type": "bool"
        }
      ],
      "stateMutability": "view",
      "type": "function"
    },
    {
      "inputs": [],
      "name": "allowUserCloseOnly",
      "outputs": [
        {
          "internalType": "bool",
          "name": "",
          "type": "bool"
        }
      ],
      "stateMutability": "view",
      "type": "function"
    },
    {
      "inputs": [
        {
          "internalType": "uint256",
          "name": "",
          "type": "uint256"
        }
      ],
      "name": "closePositionRequestKeys",
      "outputs": [
        {
          "internalType": "bytes32",
          "name": "",
          "type": "bytes32"
        }
      ],
      "stateMutability": "view",
      "type": "function"
    },
    {
      "inputs": [],
      "name": "closePositionRequestKeysStart",
      "outputs": [
        {
          "internalType": "uint256",
          "name": "",
          "type": "uint256"
        }
      ],
      "stateMutability": "view",
      "type": "function"
    },
    {
      "inputs": [
        {
          "internalType": "bytes32",
          "name": "",
          "type": "bytes32"
        }
      ],
      "name": "closePositionRequests",
      "outputs": [
        {
          "internalType": "address",
          "name": "account",
          "type": "address"
        },
        {
          "internalType": "uint256",
          "name": "productId",
          "type": "uint256"
        },
        {
          "internalType": "uint256",
          "name": "margin",
          "type": "uint256"
        },
        {
          "internalType": "bool",
          "name": "isLong",
          "type": "bool"
        },
        {
          "internalType": "uint256",
          "name": "acceptablePrice",
          "type": "uint256"
        },
        {
          "internalType": "uint256",
          "name": "executionFee",
          "type": "uint256"
        },
        {
          "internalType": "uint256",
          "name": "index",
          "type": "uint256"
        },
        {
          "internalType": "uint256",
          "name": "blockNumber",
          "type": "uint256"
        },
        {
          "internalType": "uint256",
          "name": "blockTime",
          "type": "uint256"
        }
      ],
      "stateMutability": "view",
      "type": "function"
    },
    {
      "inputs": [
        {
          "internalType": "address",
          "name": "",
          "type": "address"
        }
      ],
      "name": "closePositionsIndex",
      "outputs": [
        {
          "internalType": "uint256",
          "name": "",
          "type": "uint256"
        }
      ],
      "stateMutability": "view",
      "type": "function"
    },
    {
      "inputs": [],
      "name": "collateralToken",
      "outputs": [
        {
          "internalType": "address",
          "name": "",
          "type": "address"
        }
      ],
      "stateMutability": "view",
      "type": "function"
    },
    {
      "inputs": [],
      "name": "feeCalculator",
      "outputs": [
        {
          "internalType": "address",
          "name": "",
          "type": "address"
        }
      ],
      "stateMutability": "view",
      "type": "function"
    },
    {
      "inputs": [],
      "name": "gov",
      "outputs": [
        {
          "internalType": "address",
          "name": "",
          "type": "address"
        }
      ],
      "stateMutability": "view",
      "type": "function"
    },
    {
      "inputs": [
        {
          "internalType": "address",
          "name": "",
          "type": "address"
        }
      ],
      "name": "isPositionKeeper",
      "outputs": [
        {
          "internalType": "bool",
          "name": "",
          "type": "bool"
        }
      ],
      "stateMutability": "view",
      "type": "function"
    },
    {
      "inputs": [
        {
          "internalType": "address",
          "name": "",
          "type": "address"
        }
      ],
      "name": "isPriceKeeper",
      "outputs": [
        {
          "internalType": "bool",
          "name": "",
          "type": "bool"
        }
      ],
      "stateMutability": "view",
      "type": "function"
    },
    {
      "inputs": [],
      "name": "isPriceKeeperCall",
      "outputs": [
        {
          "internalType": "bool",
          "name": "",
          "type": "bool"
        }
      ],
      "stateMutability": "view",
      "type": "function"
    },
    {
      "inputs": [],
      "name": "isUserCancelEnabled",
      "outputs": [
        {
          "internalType": "bool",
          "name": "",
          "type": "bool"
        }
      ],
      "stateMutability": "view",
      "type": "function"
    },
    {
      "inputs": [],
      "name": "isUserExecuteEnabled",
      "outputs": [
        {
          "internalType": "bool",
          "name": "",
          "type": "bool"
        }
      ],
      "stateMutability": "view",
      "type": "function"
    },
    {
      "inputs": [],
      "name": "maxTimeDelay",
      "outputs": [
        {
          "internalType": "uint256",
          "name": "",
          "type": "uint256"
        }
      ],
      "stateMutability": "view",
      "type": "function"
    },
    {
      "inputs": [],
      "name": "minBlockDelayPositionKeeper",
      "outputs": [
        {
          "internalType": "uint256",
          "name": "",
          "type": "uint256"
        }
      ],
      "stateMutability": "view",
      "type": "function"
    },
    {
      "inputs": [],
      "name": "minBlockDelayPriceKeeper",
      "outputs": [
        {
          "internalType": "uint256",
          "name": "",
          "type": "uint256"
        }
      ],
      "stateMutability": "view",
      "type": "function"
    },
    {
      "inputs": [],
      "name": "minExecutionFee",
      "outputs": [
        {
          "internalType": "uint256",
          "name": "",
          "type": "uint256"
        }
      ],
      "stateMutability": "view",
      "type": "function"
    },
    {
      "inputs": [],
      "name": "minTimeCancelDelayPublic",
      "outputs": [
        {
          "internalType": "uint256",
          "name": "",
          "type": "uint256"
        }
      ],
      "stateMutability": "view",
      "type": "function"
    },
    {
      "inputs": [],
      "name": "minTimeExecuteDelayPublic",
      "outputs": [
        {
          "internalType": "uint256",
          "name": "",
          "type": "uint256"
        }
      ],
      "stateMutability": "view",
      "type": "function"
    },
    {
      "inputs": [
        {
          "internalType": "uint256",
          "name": "",
          "type": "uint256"
        }
      ],
      "name": "openPositionRequestKeys",
      "outputs": [
        {
          "internalType": "bytes32",
          "name": "",
          "type": "bytes32"
        }
      ],
      "stateMutability": "view",
      "type": "function"
    },
    {
      "inputs": [],
      "name": "openPositionRequestKeysStart",
      "outputs": [
        {
          "internalType": "uint256",
          "name": "",
          "type": "uint256"
        }
      ],
      "stateMutability": "view",
      "type": "function"
    },
    {
      "inputs": [
        {
          "internalType": "bytes32",
          "name": "",
          "type": "bytes32"
        }
      ],
      "name": "openPositionRequests",
      "outputs": [
        {
          "internalType": "address",
          "name": "account",
          "type": "address"
        },
        {
          "internalType": "uint256",
          "name": "productId",
          "type": "uint256"
        },
        {
          "internalType": "uint256",
          "name": "margin",
          "type": "uint256"
        },
        {
          "internalType": "uint256",
          "name": "leverage",
          "type": "uint256"
        },
        {
          "internalType": "uint256",
          "name": "tradeFee",
          "type": "uint256"
        },
        {
          "internalType": "bool",
          "name": "isLong",
          "type": "bool"
        },
        {
          "internalType": "uint256",
          "name": "acceptablePrice",
          "type": "uint256"
        },
        {
          "internalType": "uint256",
          "name": "executionFee",
          "type": "uint256"
        },
        {
          "internalType": "uint256",
          "name": "index",
          "type": "uint256"
        },
        {
          "internalType": "uint256",
          "name": "blockNumber",
          "type": "uint256"
        },
        {
          "internalType": "uint256",
          "name": "blockTime",
          "type": "uint256"
        }
      ],
      "stateMutability": "view",
      "type": "function"
    },
    {
      "inputs": [
        {
          "internalType": "address",
          "name": "",
          "type": "address"
        }
      ],
      "name": "openPositionsIndex",
      "outputs": [
        {
          "internalType": "uint256",
          "name": "",
          "type": "uint256"
        }
      ],
      "stateMutability": "view",
      "type": "function"
    },
    {
      "inputs": [],
      "name": "oracle",
      "outputs": [
        {
          "internalType": "address",
          "name": "",
          "type": "address"
        }
      ],
      "stateMutability": "view",
      "type": "function"
    },
    {
      "inputs": [],
      "name": "pikaPerp",
      "outputs": [
        {
          "internalType": "address",
          "name": "",
          "type": "address"
        }
      ],
      "stateMutability": "view",
      "type": "function"
    },
    {
      "inputs": [
        {
          "internalType": "address",
          "name": "_gov",
          "type": "address"
        }
      ],
      "name": "setGov",
      "outputs": [],
      "stateMutability": "nonpayable",
      "type": "function"
    },
    {
      "inputs": [],
      "name": "tokenBase",
      "outputs": [
        {
          "internalType": "uint256",
          "name": "",
          "type": "uint256"
        }
      ],
      "stateMutability": "view",
      "type": "function"
    },
    {
      "stateMutability": "payable",
      "type": "receive"
    },
    {
      "inputs": [
        {
          "internalType": "address",
          "name": "_feeCalculator",
          "type": "address"
        }
      ],
      "name": "setFeeCalculator",
      "outputs": [],
      "stateMutability": "nonpayable",
      "type": "function"
    },
    {
      "inputs": [
        {
          "internalType": "address",
          "name": "_oracle",
          "type": "address"
        }
      ],
      "name": "setOracle",
      "outputs": [],
      "stateMutability": "nonpayable",
      "type": "function"
    },
    {
      "inputs": [
        {
          "internalType": "address",
          "name": "_account",
          "type": "address"
        },
        {
          "internalType": "bool",
          "name": "_isActive",
          "type": "bool"
        }
      ],
      "name": "setPositionKeeper",
      "outputs": [],
      "stateMutability": "nonpayable",
      "type": "function"
    },
    {
      "inputs": [
        {
          "internalType": "address",
          "name": "_account",
          "type": "address"
        },
        {
          "internalType": "bool",
          "name": "_isActive",
          "type": "bool"
        }
      ],
      "name": "setPriceKeeper",
      "outputs": [],
      "stateMutability": "nonpayable",
      "type": "function"
    },
    {
      "inputs": [
        {
          "internalType": "uint256",
          "name": "_minExecutionFee",
          "type": "uint256"
        }
      ],
      "name": "setMinExecutionFee",
      "outputs": [],
      "stateMutability": "nonpayable",
      "type": "function"
    },
    {
      "inputs": [
        {
          "internalType": "bool",
          "name": "_isUserExecuteEnabled",
          "type": "bool"
        }
      ],
      "name": "setIsUserExecuteEnabled",
      "outputs": [],
      "stateMutability": "nonpayable",
      "type": "function"
    },
    {
      "inputs": [
        {
          "internalType": "bool",
          "name": "_isUserCancelEnabled",
          "type": "bool"
        }
      ],
      "name": "setIsUserCancelEnabled",
      "outputs": [],
      "stateMutability": "nonpayable",
      "type": "function"
    },
    {
      "inputs": [
        {
          "internalType": "uint256",
          "name": "_minBlockDelayPositionKeeper",
          "type": "uint256"
        },
        {
          "internalType": "uint256",
          "name": "_minBlockDelayPriceKeeper",
          "type": "uint256"
        },
        {
          "internalType": "uint256",
          "name": "_minTimeExecuteDelayPublic",
          "type": "uint256"
        },
        {
          "internalType": "uint256",
          "name": "_minTimeCancelDelayPublic",
          "type": "uint256"
        },
        {
          "internalType": "uint256",
          "name": "_maxTimeDelay",
          "type": "uint256"
        }
      ],
      "name": "setDelayValues",
      "outputs": [],
      "stateMutability": "nonpayable",
      "type": "function"
    },
    {
      "inputs": [
        {
          "internalType": "uint256",
          "name": "_increasePositionRequestKeysStart",
          "type": "uint256"
        },
        {
          "internalType": "uint256",
          "name": "_decreasePositionRequestKeysStart",
          "type": "uint256"
        }
      ],
      "name": "setRequestKeysStartValues",
      "outputs": [],
      "stateMutability": "nonpayable",
      "type": "function"
    },
    {
      "inputs": [
        {
          "internalType": "bool",
          "name": "_allowPublicKeeper",
          "type": "bool"
        }
      ],
      "name": "setAllowPublicKeeper",
      "outputs": [],
      "stateMutability": "nonpayable",
      "type": "function"
    },
    {
      "inputs": [
        {
          "internalType": "bool",
          "name": "_allowUserCloseOnly",
          "type": "bool"
        }
      ],
      "name": "setAllowUserCloseOnly",
      "outputs": [],
      "stateMutability": "nonpayable",
      "type": "function"
    },
    {
      "inputs": [
        {
          "internalType": "address",
          "name": "_admin",
          "type": "address"
        }
      ],
      "name": "setAdmin",
      "outputs": [],
      "stateMutability": "nonpayable",
      "type": "function"
    },
    {
      "inputs": [
        {
          "internalType": "address[]",
          "name": "tokens",
          "type": "address[]"
        },
        {
          "internalType": "uint256[]",
          "name": "prices",
          "type": "uint256[]"
        },
        {
          "internalType": "uint256",
          "name": "n",
          "type": "uint256"
        },
        {
          "internalType": "address payable",
          "name": "_executionFeeReceiver",
          "type": "address"
        }
      ],
      "name": "executeNPositionsWithPrices",
      "outputs": [],
      "stateMutability": "nonpayable",
      "type": "function"
    },
    {
      "inputs": [
        {
          "internalType": "address[]",
          "name": "tokens",
          "type": "address[]"
        },
        {
          "internalType": "uint256[]",
          "name": "prices",
          "type": "uint256[]"
        },
        {
          "internalType": "uint256",
          "name": "_openEndIndex",
          "type": "uint256"
        },
        {
          "internalType": "uint256",
          "name": "_closeEndIndex",
          "type": "uint256"
        },
        {
          "internalType": "address payable",
          "name": "_executionFeeReceiver",
          "type": "address"
        }
      ],
      "name": "executePositionsWithPrices",
      "outputs": [],
      "stateMutability": "nonpayable",
      "type": "function"
    },
    {
      "inputs": [
        {
          "internalType": "uint256",
          "name": "n",
          "type": "uint256"
        },
        {
          "internalType": "address payable",
          "name": "_executionFeeReceiver",
          "type": "address"
        }
      ],
      "name": "executeNPositions",
      "outputs": [],
      "stateMutability": "nonpayable",
      "type": "function"
    },
    {
      "inputs": [
        {
          "internalType": "uint256",
          "name": "_openEndIndex",
          "type": "uint256"
        },
        {
          "internalType": "uint256",
          "name": "_closeEndIndex",
          "type": "uint256"
        },
        {
          "internalType": "address payable",
          "name": "_executionFeeReceiver",
          "type": "address"
        }
      ],
      "name": "executePositions",
      "outputs": [],
      "stateMutability": "nonpayable",
      "type": "function"
    },
    {
      "inputs": [
        {
          "internalType": "uint256",
          "name": "_endIndex",
          "type": "uint256"
        },
        {
          "internalType": "address payable",
          "name": "_executionFeeReceiver",
          "type": "address"
        }
      ],
      "name": "executeOpenPositions",
      "outputs": [],
      "stateMutability": "nonpayable",
      "type": "function"
    },
    {
      "inputs": [
        {
          "internalType": "uint256",
          "name": "_endIndex",
          "type": "uint256"
        },
        {
          "internalType": "address payable",
          "name": "_executionFeeReceiver",
          "type": "address"
        }
      ],
      "name": "executeClosePositions",
      "outputs": [],
      "stateMutability": "nonpayable",
      "type": "function"
    },
    {
      "inputs": [
        {
          "internalType": "uint256",
          "name": "_productId",
          "type": "uint256"
        },
        {
          "internalType": "uint256",
          "name": "_margin",
          "type": "uint256"
        },
        {
          "internalType": "uint256",
          "name": "_leverage",
          "type": "uint256"
        },
        {
          "internalType": "bool",
          "name": "_isLong",
          "type": "bool"
        },
        {
          "internalType": "uint256",
          "name": "_acceptablePrice",
          "type": "uint256"
        },
        {
          "internalType": "uint256",
          "name": "_executionFee",
          "type": "uint256"
        }
      ],
      "name": "createOpenPosition",
      "outputs": [],
      "stateMutability": "payable",
      "type": "function"
    },
    {
      "inputs": [
        {
          "internalType": "uint256",
          "name": "_productId",
          "type": "uint256"
        },
        {
          "internalType": "uint256",
          "name": "_margin",
          "type": "uint256"
        },
        {
          "internalType": "bool",
          "name": "_isLong",
          "type": "bool"
        },
        {
          "internalType": "uint256",
          "name": "_acceptablePrice",
          "type": "uint256"
        },
        {
          "internalType": "uint256",
          "name": "_executionFee",
          "type": "uint256"
        }
      ],
      "name": "createClosePosition",
      "outputs": [],
      "stateMutability": "payable",
      "type": "function"
    },
    {
      "inputs": [],
      "name": "getRequestQueueLengths",
      "outputs": [
        {
          "internalType": "uint256",
          "name": "",
          "type": "uint256"
        },
        {
          "internalType": "uint256",
          "name": "",
          "type": "uint256"
        },
        {
          "internalType": "uint256",
          "name": "",
          "type": "uint256"
        },
        {
          "internalType": "uint256",
          "name": "",
          "type": "uint256"
        }
      ],
      "stateMutability": "view",
      "type": "function"
    },
    {
      "inputs": [
        {
          "internalType": "bytes32",
          "name": "_key",
          "type": "bytes32"
        },
        {
          "internalType": "address payable",
          "name": "_executionFeeReceiver",
          "type": "address"
        }
      ],
      "name": "executeOpenPosition",
      "outputs": [
        {
          "internalType": "bool",
          "name": "",
          "type": "bool"
        }
      ],
      "stateMutability": "nonpayable",
      "type": "function"
    },
    {
      "inputs": [
        {
          "internalType": "bytes32",
          "name": "_key",
          "type": "bytes32"
        },
        {
          "internalType": "address payable",
          "name": "_executionFeeReceiver",
          "type": "address"
        }
      ],
      "name": "cancelOpenPosition",
      "outputs": [
        {
          "internalType": "bool",
          "name": "",
          "type": "bool"
        }
      ],
      "stateMutability": "nonpayable",
      "type": "function"
    },
    {
      "inputs": [
        {
          "internalType": "bytes32",
          "name": "_key",
          "type": "bytes32"
        },
        {
          "internalType": "address payable",
          "name": "_executionFeeReceiver",
          "type": "address"
        }
      ],
      "name": "executeClosePosition",
      "outputs": [
        {
          "internalType": "bool",
          "name": "",
          "type": "bool"
        }
      ],
      "stateMutability": "nonpayable",
      "type": "function"
    },
    {
      "inputs": [
        {
          "internalType": "bytes32",
          "name": "_key",
          "type": "bytes32"
        },
        {
          "internalType": "address payable",
          "name": "_executionFeeReceiver",
          "type": "address"
        }
      ],
      "name": "cancelClosePosition",
      "outputs": [
        {
          "internalType": "bool",
          "name": "",
          "type": "bool"
        }
      ],
      "stateMutability": "nonpayable",
      "type": "function"
    },
    {
      "inputs": [
        {
          "internalType": "address",
          "name": "_account",
          "type": "address"
        },
        {
          "internalType": "uint256",
          "name": "_index",
          "type": "uint256"
        }
      ],
      "name": "getRequestKey",
      "outputs": [
        {
          "internalType": "bytes32",
          "name": "",
          "type": "bytes32"
        }
      ],
      "stateMutability": "pure",
      "type": "function"
    },
    {
      "inputs": [
        {
          "internalType": "address",
          "name": "_account",
          "type": "address"
        },
        {
          "internalType": "uint256",
          "name": "_index",
          "type": "uint256"
        }
      ],
      "name": "getOpenPositionRequest",
      "outputs": [
        {
          "components": [
            {
              "internalType": "address",
              "name": "account",
              "type": "address"
            },
            {
              "internalType": "uint256",
              "name": "productId",
              "type": "uint256"
            },
            {
              "internalType": "uint256",
              "name": "margin",
              "type": "uint256"
            },
            {
              "internalType": "uint256",
              "name": "leverage",
              "type": "uint256"
            },
            {
              "internalType": "uint256",
              "name": "tradeFee",
              "type": "uint256"
            },
            {
              "internalType": "bool",
              "name": "isLong",
              "type": "bool"
            },
            {
              "internalType": "uint256",
              "name": "acceptablePrice",
              "type": "uint256"
            },
            {
              "internalType": "uint256",
              "name": "executionFee",
              "type": "uint256"
            },
            {
              "internalType": "uint256",
              "name": "index",
              "type": "uint256"
            },
            {
              "internalType": "uint256",
              "name": "blockNumber",
              "type": "uint256"
            },
            {
              "internalType": "uint256",
              "name": "blockTime",
              "type": "uint256"
            }
          ],
          "internalType": "struct PositionManager.OpenPositionRequest",
          "name": "",
          "type": "tuple"
        }
      ],
      "stateMutability": "view",
      "type": "function"
    },
    {
      "inputs": [
        {
          "internalType": "address",
          "name": "_account",
          "type": "address"
        },
        {
          "internalType": "uint256",
          "name": "_index",
          "type": "uint256"
        }
      ],
      "name": "getClosePositionRequest",
      "outputs": [
        {
          "components": [
            {
              "internalType": "address",
              "name": "account",
              "type": "address"
            },
            {
              "internalType": "uint256",
              "name": "productId",
              "type": "uint256"
            },
            {
              "internalType": "uint256",
              "name": "margin",
              "type": "uint256"
            },
            {
              "internalType": "bool",
              "name": "isLong",
              "type": "bool"
            },
            {
              "internalType": "uint256",
              "name": "acceptablePrice",
              "type": "uint256"
            },
            {
              "internalType": "uint256",
              "name": "executionFee",
              "type": "uint256"
            },
            {
              "internalType": "uint256",
              "name": "index",
              "type": "uint256"
            },
            {
              "internalType": "uint256",
              "name": "blockNumber",
              "type": "uint256"
            },
            {
              "internalType": "uint256",
              "name": "blockTime",
              "type": "uint256"
            }
          ],
          "internalType": "struct PositionManager.ClosePositionRequest",
          "name": "",
          "type": "tuple"
        }
      ],
      "stateMutability": "view",
      "type": "function"
    },
    {
      "inputs": [
        {
          "internalType": "bytes32",
          "name": "_key",
          "type": "bytes32"
        }
      ],
      "name": "getOpenPositionRequestFromKey",
      "outputs": [
        {
          "components": [
            {
              "internalType": "address",
              "name": "account",
              "type": "address"
            },
            {
              "internalType": "uint256",
              "name": "productId",
              "type": "uint256"
            },
            {
              "internalType": "uint256",
              "name": "margin",
              "type": "uint256"
            },
            {
              "internalType": "uint256",
              "name": "leverage",
              "type": "uint256"
            },
            {
              "internalType": "uint256",
              "name": "tradeFee",
              "type": "uint256"
            },
            {
              "internalType": "bool",
              "name": "isLong",
              "type": "bool"
            },
            {
              "internalType": "uint256",
              "name": "acceptablePrice",
              "type": "uint256"
            },
            {
              "internalType": "uint256",
              "name": "executionFee",
              "type": "uint256"
            },
            {
              "internalType": "uint256",
              "name": "index",
              "type": "uint256"
            },
            {
              "internalType": "uint256",
              "name": "blockNumber",
              "type": "uint256"
            },
            {
              "internalType": "uint256",
              "name": "blockTime",
              "type": "uint256"
            }
          ],
          "internalType": "struct PositionManager.OpenPositionRequest",
          "name": "",
          "type": "tuple"
        }
      ],
      "stateMutability": "view",
      "type": "function"
    },
    {
      "inputs": [
        {
          "internalType": "bytes32",
          "name": "_key",
          "type": "bytes32"
        }
      ],
      "name": "getClosePositionRequestFromKey",
      "outputs": [
        {
          "components": [
            {
              "internalType": "address",
              "name": "account",
              "type": "address"
            },
            {
              "internalType": "uint256",
              "name": "productId",
              "type": "uint256"
            },
            {
              "internalType": "uint256",
              "name": "margin",
              "type": "uint256"
            },
            {
              "internalType": "bool",
              "name": "isLong",
              "type": "bool"
            },
            {
              "internalType": "uint256",
              "name": "acceptablePrice",
              "type": "uint256"
            },
            {
              "internalType": "uint256",
              "name": "executionFee",
              "type": "uint256"
            },
            {
              "internalType": "uint256",
              "name": "index",
              "type": "uint256"
            },
            {
              "internalType": "uint256",
              "name": "blockNumber",
              "type": "uint256"
            },
            {
              "internalType": "uint256",
              "name": "blockTime",
              "type": "uint256"
            }
          ],
          "internalType": "struct PositionManager.ClosePositionRequest",
          "name": "",
          "type": "tuple"
        }
      ],
      "stateMutability": "view",
      "type": "function"
    },
    {
      "inputs": [],
      "name": "canPriceKeeperExecute",
      "outputs": [
        {
          "internalType": "bool",
          "name": "",
          "type": "bool"
        }
      ],
      "stateMutability": "view",
      "type": "function"
    },
    {
      "inputs": [],
      "name": "canPositionKeeperExecute",
      "outputs": [
        {
          "internalType": "bool",
          "name": "",
          "type": "bool"
        }
      ],
      "stateMutability": "view",
      "type": "function"
    }
  ],
  "bytecode": "0x60e0604052600b805464ffffffffff19166101011790553480156200002357600080fd5b5060405162004d2a38038062004d2a8339810160408190526200004691620000de565b60008054336001600160a01b0319918216811790925560018055606097881b6001600160601b03199081166080526003805483166001600160a01b03998a1617905560048054831697909816969096179096559290951b90921660a05260059190915560c0929092526002805490911690911790556200014d565b80516001600160a01b0381168114620000d957600080fd5b919050565b60008060008060008060c08789031215620000f857600080fd5b6200010387620000c1565b95506200011360208801620000c1565b94506200012360408801620000c1565b93506200013360608801620000c1565b92506080870151915060a087015190509295509295509295565b60805160601c60a05160601c60c051614b146200021660003960008181610c3a0152818161115e015281816111e10152818161122301528181611c8201528181611dd7015281816121400152612253015260008181610c060152818161112b015281816111af01528181611c2801528181611d6401528181611e280152818161211201526121920152600081816104560152818161156001528181611c4e01528181611d8601528181611db101528181611ea001528181613337015261384c0152614b146000f3fe60806040526004361061038c5760003560e01c80637adbf973116101da578063aaebd7d011610101578063cfad57a21161009a578063ecefc7051161006c578063ecefc70514610cfa578063f2cea6a514610d10578063f851a44014610d49578063fc2cee6214610d6957005b8063cfad57a214610c88578063e124e02914610ca8578063e6d6735a14610cc8578063ec342ad014610ce257005b8063b2016bd4116100d3578063b2016bd414610bf4578063b61daaee14610c28578063c64c0c4b14610c5c578063cb0269c914610c7257005b8063aaebd7d014610b74578063ab1903a814610b94578063ae366f5914610bb4578063b00eb9fe14610bd457005b80638bdfd88b116101735780639a45d557116101455780639a45d55714610a5e5780639d4512f814610a71578063a075540414610a91578063a3aad82e14610ab257005b80638bdfd88b146109de5780638c66d04f146109fe578063916f0e5414610a1e57806392a1984314610a3e57005b806382d143a9116101ac57806382d143a91461094e57806386a79ecd1461097e5780638a1823191461099e5780638af2bf57146109b157005b80637adbf973146108ce5780637dc0d1d0146108ee5780638052248c1461090e578063819e893f1461092e57005b806336eba48a116102be57806361d497941161025757806363ae21031161022957806363ae21031461086c578063672e92d814610882578063680df9c414610898578063704b6c02146108ae57005b806361d497941461072057806362b2ad00146107ff57806362f8a3fe1461081f578063634e89e81461083f57005b80634f4e0c61116102905780634f4e0c611461062e578063558041431461064e5780635662791b146106e05780635ac4f79e1461070057005b806336eba48a146105b35780633934eb5c146105e35780633b2c94fc146105f9578063496e85581461060e57005b80631ef34a84116103305780632b5b9dac116103025780632b5b9dac14610534578063308aa81f1461055357806334127d04146105735780633422ead11461059357005b80631ef34a84146104b257806320881d7a146104d25780632511e728146104e7578063299c9d091461050757005b806312d43a511161036957806312d43a511461040c5780631980cd35146104445780631b158651146104785780631d9db6251461049c57005b806305b81ddf146103955780630883ed02146103cc5780630e60c214146103ec57005b3661039357005b005b3480156103a157600080fd5b50600b546103b790640100000000900460ff1681565b60405190151581526020015b60405180910390f35b3480156103d857600080fd5b506103936103e73660046144db565b610d89565b3480156103f857600080fd5b5061039361040736600461452e565b610e04565b34801561041857600080fd5b5060005461042c906001600160a01b031681565b6040516001600160a01b0390911681526020016103c3565b34801561045057600080fd5b5061042c7f000000000000000000000000000000000000000000000000000000000000000081565b34801561048457600080fd5b5061048e60065481565b6040519081526020016103c3565b3480156104a857600080fd5b5061048e60075481565b3480156104be57600080fd5b506103936104cd366004614663565b610e81565b3480156104de57600080fd5b506103b7610f1a565b3480156104f357600080fd5b506103b761050236600461452e565b610fe0565b34801561051357600080fd5b5061048e6105223660046142ce565b60146020526000908152604090205481565b34801561054057600080fd5b50600b546103b790610100900460ff1681565b34801561055f57600080fd5b5061039361056e36600461456c565b611375565b34801561057f57600080fd5b506103b761058e36600461452e565b6113e6565b34801561059f57600080fd5b506103936105ae3660046142eb565b611692565b3480156105bf57600080fd5b506103b76105ce3660046142ce565b60106020526000908152604090205460ff1681565b3480156105ef57600080fd5b5061048e600f5481565b34801561060557600080fd5b506103b761171c565b34801561061a57600080fd5b5061048e610629366004614515565b611784565b34801561063a57600080fd5b5061039361064936600461458e565b6117a5565b34801561065a57600080fd5b5061066e610669366004614324565b6117be565b6040516103c3919081516001600160a01b0316815260208083015190820152604080830151908201526060808301511515908201526080808301519082015260a0828101519082015260c0808301519082015260e0808301519082015261010091820151918101919091526101200190565b3480156106ec57600080fd5b506103936106fb3660046144db565b61185d565b34801561070c57600080fd5b5061048e61071b366004614515565b6118d4565b34801561072c57600080fd5b506107a261073b366004614515565b601360205260009081526040902080546001820154600283015460038401546004850154600586015460068701546007880154600889015460098a0154600a909a01546001600160a01b0390991699979896979596949560ff90941694929391929091908b565b604080516001600160a01b03909c168c5260208c019a909a52988a01979097526060890195909552608088019390935290151560a087015260c086015260e0850152610100840152610120830152610140820152610160016103c3565b34801561080b57600080fd5b50600b546103b79062010000900460ff1681565b34801561082b57600080fd5b5061048e61083a366004614324565b6118e4565b34801561084b57600080fd5b5061085f61085a366004614324565b61192b565b6040516103c39190614823565b34801561087857600080fd5b5061048e60055481565b34801561088e57600080fd5b5061048e60095481565b3480156108a457600080fd5b5061048e60085481565b3480156108ba57600080fd5b506103936108c93660046142ce565b6119e0565b3480156108da57600080fd5b506103936108e93660046142ce565b611a80565b3480156108fa57600080fd5b5060045461042c906001600160a01b031681565b34801561091a57600080fd5b506103b761092936600461452e565b611acc565b34801561093a57600080fd5b5061066e610949366004614515565b611f8f565b34801561095a57600080fd5b506103b76109693660046142ce565b60116020526000908152604090205460ff1681565b34801561098a57600080fd5b506103936109993660046142eb565b61201e565b6103936109ac366004614610565b6120a0565b3480156109bd57600080fd5b5061048e6109cc3660046142ce565b60126020526000908152604090205481565b3480156109ea57600080fd5b506103936109f93660046144db565b61229e565b348015610a0a57600080fd5b50610393610a193660046142ce565b612311565b348015610a2a57600080fd5b50610393610a393660046143cf565b61235d565b348015610a4a57600080fd5b50610393610a5936600461452e565b61238a565b610393610a6c3660046145c7565b612671565b348015610a7d57600080fd5b50610393610a8c3660046144db565b612733565b348015610a9d57600080fd5b50600b546103b7906301000000900460ff1681565b348015610abe57600080fd5b50610b26610acd366004614515565b6015602052600090815260409020805460018201546002830154600384015460048501546005860154600687015460078801546008909801546001600160a01b03909716979596949560ff909416949293919290919089565b604080516001600160a01b03909a168a5260208a0198909852968801959095529215156060870152608086019190915260a085015260c084015260e0830152610100820152610120016103c3565b348015610b8057600080fd5b5061085f610b8f366004614515565b6127a8565b348015610ba057600080fd5b506103b7610baf36600461452e565b61284d565b348015610bc057600080fd5b50610393610bcf36600461452e565b6129ee565b348015610be057600080fd5b5060035461042c906001600160a01b031681565b348015610c0057600080fd5b5061042c7f000000000000000000000000000000000000000000000000000000000000000081565b348015610c3457600080fd5b5061048e7f000000000000000000000000000000000000000000000000000000000000000081565b348015610c6857600080fd5b5061048e600e5481565b348015610c7e57600080fd5b5061048e600a5481565b348015610c9457600080fd5b50610393610ca33660046142ce565b612cd5565b348015610cb457600080fd5b50610393610cc336600461444f565b612d49565b348015610cd457600080fd5b50600b546103b79060ff1681565b348015610cee57600080fd5b5061048e6305f5e10081565b348015610d0657600080fd5b5061048e61271081565b348015610d1c57600080fd5b50600e54600c54600f54600d546040805194855260208501939093529183015260608201526080016103c3565b348015610d5557600080fd5b5060025461042c906001600160a01b031681565b348015610d7557600080fd5b50610393610d84366004614515565b612e40565b6002546001600160a01b03163314610dbc5760405162461bcd60e51b8152600401610db390614770565b60405180910390fd5b600b805460ff19168215159081179091556040519081527f58331dcec30d19299d46fa051395268fc68ee71ed1771a9e7e4f6cdc358a2bf9906020015b60405180910390a150565b610e0c610f1a565b610e585760405162461bcd60e51b815260206004820152601f60248201527f506f736974696f6e4d616e616765723a2063616e6e6f742065786563757465006044820152606401610db3565b610e7d82600e54610e6991906148ec565b83600f54610e7791906148ec565b836117a5565b5050565b6002546001600160a01b03163314610eab5760405162461bcd60e51b8152600401610db390614770565b6006859055600784905560088390556009829055600a819055604080518681526020810186905290810184905260608101839052608081018290527fddef0184184217e8f3abf032279fba897b093f44c53d552ddc33c7f8fa5a8cb99060a00160405180910390a15050505050565b600c54600e54600091118015610f79575042610f7660065460136000600c600e5481548110610f4b57610f4b6149e6565b9060005260206000200154815260200190815260200160002060090154612e9f90919063ffffffff16565b11155b80610fdb5750600d54600f54108015610fdb575042610fd860065460156000600d600f5481548110610fad57610fad6149e6565b9060005260206000200154815260200190815260200160002060070154612e9f90919063ffffffff16565b11155b905090565b6000610fea612eb2565b60008381526013602090815260409182902082516101608101845281546001600160a01b03168082526001830154938201939093526002820154938101939093526003810154606084015260048101546080840152600581015460ff16151560a0840152600681015460c0840152600781015460e084015260088101546101008401526009810154610120840152600a0154610140830152611090576001915050611366565b60006110ab8261012001518361014001518460000151612f0c565b9050806110bd57600092505050611366565b600085815260136020526040812080546001600160a01b03191681556001810182905560028101829055600381018290556004810182905560058101805460ff1916905560068101829055600781018290556008810182905560098101829055600a01556001600160a01b037f000000000000000000000000000000000000000000000000000000000000000016611214576111d682600001516305f5e1007f00000000000000000000000000000000000000000000000000000000000000008560800151866040015161119191906148ec565b61119b9190614926565b6111a59190614904565b6001600160a01b037f0000000000000000000000000000000000000000000000000000000000000000169190613075565b61120f846305f5e1007f00000000000000000000000000000000000000000000000000000000000000008560e0015161119b9190614926565b611290565b61125682600001516305f5e1007f00000000000000000000000000000000000000000000000000000000000000008560800151866040015161119191906148ec565b6112906305f5e1008360e00151670de0b6b3a76400006112769190614926565b6112809190614904565b6001600160a01b03861690613132565b81600001516001600160a01b03167f8a7811729d375743691a44aa980ceddc3e670397b5047ed835683390094398ae83602001518460400151856060015186608001518760a001518860c001518960e001518a61010001516113008c61012001514361324b90919063ffffffff16565b6101408d015161131190429061324b565b604080519a8b5260208b0199909952978901969096526060880194909452911515608087015260a086015260c085015260e0840152610100830152610120820152610140015b60405180910390a26001925050505b61136f60018055565b92915050565b6002546001600160a01b0316331461139f5760405162461bcd60e51b8152600401610db390614770565b600e829055600f81905560408051838152602081018390527febb0f666150f4be5b60c45df8f3e49992510b0128027fe58eea6110f296493bc910160405180910390a15050565b60006113f0612eb2565b60008381526015602090815260409182902082516101208101845281546001600160a01b0316808252600183015493820193909352600282015493810193909352600381015460ff161515606084015260048101546080840152600581015460a0840152600681015460c0840152600781015460e084015260080154610100830152611480576001915050611366565b60006114ac8260e001518361010001518460000151856020015160008760600151158860800151613257565b9050806114be57600092505050611366565b600085815260156020908152604080832080546001600160a01b0319168155600181018490556002810184905560038101805460ff191690556004808201859055600582018590556006820185905560078201859055600890910193909355845191850151858201516060870151925163560fdef960e01b81526001600160a01b039485169581019590955260248501919091526044840152151560648301527f0000000000000000000000000000000000000000000000000000000000000000169063560fdef990608401600060405180830381600087803b1580156115a457600080fd5b505af11580156115b8573d6000803e3d6000fd5b505050506115dc6305f5e1008360a00151670de0b6b3a76400006112769190614926565b81600001516001600160a01b03167f2046b424b7127be8956b05668e8428ddce5e695b9e5f9958d304faf72cc5810483602001518460400151856060015186608001518760a001518860c001516116408a60e001514361324b90919063ffffffff16565b6101008b015161165190429061324b565b604080519889526020890197909752941515958701959095526060860192909252608085015260a084015260c083019190915260e082015261010001611357565b6002546001600160a01b031633146116bc5760405162461bcd60e51b8152600401610db390614770565b6001600160a01b038216600081815260106020908152604091829020805460ff191685151590811790915591519182527ffbabc02389290a451c6e600d05bf9887b99bfad39d8e1237e4e3df042e4941fe91015b60405180910390a25050565b600c54600e5460009111801561175057504261174d60075460136000600c600e5481548110610f4b57610f4b6149e6565b11155b80610fdb5750600d54600f54108015610fdb575042610fd860075460156000600d600f5481548110610fad57610fad6149e6565b600d818154811061179457600080fd5b600091825260209091200154905081565b6117af838261238a565b6117b982826129ee565b505050565b6117c6614128565b601560006117d485856118e4565b8152602080820192909252604090810160002081516101208101835281546001600160a01b03168152600182015493810193909352600281015491830191909152600381015460ff161515606083015260048101546080830152600581015460a0830152600681015460c0830152600781015460e0830152600801546101008201529392505050565b6002546001600160a01b031633146118875760405162461bcd60e51b8152600401610db390614770565b600b805482151563010000000263ff000000199091161790556040517f217940ceb1b67fc0fb0a06287af08fc84ced756bd618d9b5edb6e31e7f401dbc90610df990831515815260200190565b600c818154811061179457600080fd5b6040516bffffffffffffffffffffffff19606084901b1660208201526034810182905260009060540160405160208183030381529060405280519060200120905092915050565b61193361417f565b6013600061194185856118e4565b8152602080820192909252604090810160002081516101608101835281546001600160a01b031681526001820154938101939093526002810154918301919091526003810154606083015260048101546080830152600581015460ff16151560a0830152600681015460c0830152600781015460e083015260088101546101008301526009810154610120830152600a01546101408201529392505050565b6000546001600160a01b03163314611a325760405162461bcd60e51b815260206004820152601560248201527423b7bb32b93730b136329d103337b93134b23232b760591b6044820152606401610db3565b600280546001600160a01b0319166001600160a01b0383169081179091556040519081527f5a272403b402d892977df56625f4164ccaf70ca3863991c43ecfe76a6905b0a190602001610df9565b6002546001600160a01b03163314611aaa5760405162461bcd60e51b8152600401610db390614770565b600480546001600160a01b0319166001600160a01b0392909216919091179055565b6000611ad6612eb2565b60008381526013602090815260409182902082516101608101845281546001600160a01b03168082526001830154938201939093526002820154938101939093526003810154606084015260048101546080840152600581015460ff16151560a0840152600681015460c0840152600781015460e084015260088101546101008401526009810154610120840152600a0154610140830152611b7c576001915050611366565b6000611ba88261012001518361014001518460000151856020015160018760a001518860c00151613257565b905080611bba57600092505050611366565b600085815260136020526040812080546001600160a01b03191681556001810182905560028101829055600381018290556004810182905560058101805460ff1916905560068101829055600781018290556008810182905560098101829055600a01556001600160a01b037f000000000000000000000000000000000000000000000000000000000000000016611d57577f00000000000000000000000000000000000000000000000000000000000000006001600160a01b031663be73ca576305f5e1007f000000000000000000000000000000000000000000000000000000000000000085608001518660400151611cb591906148ec565b611cbf9190614926565b611cc99190614904565b8451602086015160408088015160a089015160608a0151925160e088901b6001600160e01b03191681526001600160a01b039095166004860152602485019390935260448401529015156064830152608482015260a4016000604051808303818588803b158015611d3957600080fd5b505af1158015611d4d573d6000803e3d6000fd5b5050505050611eff565b611dac6001600160a01b037f0000000000000000000000000000000000000000000000000000000000000000167f000000000000000000000000000000000000000000000000000000000000000060006136ee565b611e4f7f00000000000000000000000000000000000000000000000000000000000000006305f5e1007f000000000000000000000000000000000000000000000000000000000000000085608001518660400151611e0a91906148ec565b611e149190614926565b611e1e9190614904565b6001600160a01b037f00000000000000000000000000000000000000000000000000000000000000001691906136ee565b8151602083015160408085015160a08601516060870151925163be73ca5760e01b81526001600160a01b039586166004820152602481019490945260448401919091521515606483015260848201527f00000000000000000000000000000000000000000000000000000000000000009091169063be73ca579060a401600060405180830381600087803b158015611ee657600080fd5b505af1158015611efa573d6000803e3d6000fd5b505050505b611f1f6305f5e1008360e00151670de0b6b3a76400006112769190614926565b81600001516001600160a01b03167fc5b9318d477559e5a19fc064b667a7f44e91bd26a16bd850b8ca7e9fc9c2ad3783602001518460400151856060015186608001518760a001518860c001518960e001518a61010001516113008c61012001514361324b90919063ffffffff16565b611f97614128565b5060009081526015602090815260409182902082516101208101845281546001600160a01b03168152600182015492810192909252600281015492820192909252600382015460ff161515606082015260048201546080820152600582015460a0820152600682015460c0820152600782015460e082015260089091015461010082015290565b6002546001600160a01b031633146120485760405162461bcd60e51b8152600401610db390614770565b6001600160a01b038216600081815260116020908152604091829020805460ff191685151590811790915591519182527f4343ec942547dbb919dfcb9a1e0b07c8cc7e71e924253ea1716796ec1ca787f99101611710565b6120a8612eb2565b6005548110156120ca5760405162461bcd60e51b8152600401610db3906147a7565b60006120dc6305f5e100612710614926565b85876120e88a33613845565b6120f29190614926565b6120fc9190614926565b6121069190614904565b90506001600160a01b037f0000000000000000000000000000000000000000000000000000000000000000166121bd576121b86305f5e1007f00000000000000000000000000000000000000000000000000000000000000008361216a8a876148ec565b61217491906148ec565b61217e9190614926565b6121889190614904565b6001600160a01b037f0000000000000000000000000000000000000000000000000000000000000000169061399b565b61227c565b6305f5e1006121d483670de0b6b3a7640000614926565b6121de9190614904565b34146122495760405162461bcd60e51b815260206004820152603460248201527f506f736974696f6e4d616e616765723a20696e636f72726563742065786563756044820152731d1a5bdb88199959481d1c985b9cd9995c9c995960621b6064820152608401610db3565b61227c6305f5e1007f0000000000000000000000000000000000000000000000000000000000000000612174848a6148ec565b61228c3388888489898989613a6d565b5061229660018055565b505050505050565b6002546001600160a01b031633146122c85760405162461bcd60e51b8152600401610db390614770565b600b80548215156101000261ff00199091161790556040517faf6eef0b9d8e5b1d685fec937b1a6b2bc987f262d24ed1dcf7b327cd3b4c337690610df990831515815260200190565b6002546001600160a01b0316331461233b5760405162461bcd60e51b8152600401610db390614770565b600380546001600160a01b0319166001600160a01b0392909216919091179055565b612384848484600e5461237091906148ec565b85600f5461237e91906148ec565b85612d49565b50505050565b3360009081526010602052604090205460ff166123e95760405162461bcd60e51b815260206004820181905260248201527f506f736974696f6e4d616e616765723a2021706f736974696f6e4b65657065726044820152606401610db3565b600e54600c548082106123fc5750505050565b80841115612408578093505b83821015612669576000600c8381548110612425576124256149e6565b600091825260209091200154604051632014892360e21b8152600481018290526001600160a01b03861660248201529091503090638052248c90604401602060405180830381600087803b15801561247c57600080fd5b505af19250505080156124ac575060408051601f3d908101601f191682019092526124a9918101906144f8565b60015b61262a576124b8614a12565b806308c379a014156125c557506124cd614a2e565b806124d857506125c7565b600082815260136020526040908190205490516001600160a01b03909116907fcbcbe4acd0386acabd867b6d4bcf646526b9d0931e4dd69b059a54d9c282bb159061252690879085906148af565b60405180910390a26040516304a23ce560e31b8152600481018390526001600160a01b03861660248201523090632511e728906044015b602060405180830381600087803b15801561257757600080fd5b505af19250505080156125a7575060408051601f3d908101601f191682019092526125a4918101906144f8565b60015b6125b0576125bf565b806125bd57505050612669565b505b50612638565b505b3d8080156125f1576040519150601f19603f3d011682016040523d82523d6000602084013e6125f6565b606091505b506040516304a23ce560e31b8152600481018390526001600160a01b03861660248201523090632511e7289060440161255d565b80612636575050612669565b505b600c838154811061264b5761264b6149e6565b600091825260208220015582612660816149b5565b93505050612408565b50600e555050565b612679612eb2565b60055481101561269b5760405162461bcd60e51b8152600401610db3906147a7565b6305f5e1006126b282670de0b6b3a7640000614926565b6126bc9190614904565b34146127155760405162461bcd60e51b815260206004820152602260248201527f506f736974696f6e4d616e616765723a20696e76616c6964206d73672e76616c604482015261756560f01b6064820152608401610db3565b612723338686868686613c94565b61272c60018055565b5050505050565b6002546001600160a01b0316331461275d5760405162461bcd60e51b8152600401610db390614770565b600b8054821515620100000262ff0000199091161790556040517f478b69cbec0f3fcbb7c9f224df297d3385a199faf2dd4d917287d5dfc9daac2090610df990831515815260200190565b6127b061417f565b5060009081526013602090815260409182902082516101608101845281546001600160a01b031681526001820154928101929092526002810154928201929092526003820154606082015260048201546080820152600582015460ff16151560a0820152600682015460c0820152600782015460e082015260088201546101008201526009820154610120820152600a9091015461014082015290565b6000612857612eb2565b60008381526015602090815260409182902082516101208101845281546001600160a01b0316808252600183015493820193909352600282015493810193909352600381015460ff161515606084015260048101546080840152600581015460a0840152600681015460c0840152600781015460e0840152600801546101008301526128e7576001915050611366565b60006129018260e001518361010001518460000151612f0c565b90508061291357600092505050611366565b600085815260156020526040812080546001600160a01b0319168155600181018290556002810182905560038101805460ff19169055600481018290556005810182905560068101829055600781018290556008015560a082015161298a906305f5e1009061127690670de0b6b3a7640000614926565b81600001516001600160a01b03167fb7a6f1dcb51698329a59a7df64eb230274b899bb051fa6e29bcd0d85cc5e048283602001518460400151856060015186608001518760a001518860c001516116408a60e001514361324b90919063ffffffff16565b3360009081526010602052604090205460ff16612a4d5760405162461bcd60e51b815260206004820181905260248201527f506f736974696f6e4d616e616765723a2021706f736974696f6e4b65657065726044820152606401610db3565b600f54600d54808210612a605750505050565b80841115612a6c578093505b83821015612ccd576000600d8381548110612a8957612a896149e6565b600091825260209091200154604051630d049f4160e21b8152600481018290526001600160a01b038616602482015290915030906334127d0490604401602060405180830381600087803b158015612ae057600080fd5b505af1925050508015612b10575060408051601f3d908101601f19168201909252612b0d918101906144f8565b60015b612c8e57612b1c614a12565b806308c379a01415612c295750612b31614a2e565b80612b3c5750612c2b565b600082815260156020526040908190205490516001600160a01b03909116907f4d9305d9d9a1ba4872e8662ffc2378824f77df4194681e60ff1946f1533a153f90612b8a90879085906148af565b60405180910390a2604051631563207560e31b8152600481018390526001600160a01b0386166024820152309063ab1903a8906044015b602060405180830381600087803b158015612bdb57600080fd5b505af1925050508015612c0b575060408051601f3d908101601f19168201909252612c08918101906144f8565b60015b612c1457612c23565b80612c2157505050612ccd565b505b50612c9c565b505b3d808015612c55576040519150601f19603f3d011682016040523d82523d6000602084013e612c5a565b606091505b50604051631563207560e31b8152600481018390526001600160a01b0386166024820152309063ab1903a890604401612bc1565b80612c9a575050612ccd565b505b600d8381548110612caf57612caf6149e6565b600091825260208220015582612cc4816149b5565b93505050612a6c565b50600f555050565b6000546001600160a01b03163314612d275760405162461bcd60e51b815260206004820152601560248201527423b7bb32b93730b136329d103337b93134b23232b760591b6044820152606401610db3565b600080546001600160a01b0319166001600160a01b0392909216919091179055565b3360009081526011602052604090205460ff16612da85760405162461bcd60e51b815260206004820152601d60248201527f506f736974696f6e4d616e616765723a202170726963654b65657065720000006044820152606401610db3565b600b805464ff00000000191664010000000017905560048054604051634352fa9f60e01b81526001600160a01b0390911691634352fa9f91612dee9189918991016146e6565b600060405180830381600087803b158015612e0857600080fd5b505af1158015612e1c573d6000803e3d6000fd5b50505050612e2b8383836117a5565b5050600b805464ff0000000019169055505050565b6002546001600160a01b03163314612e6a5760405162461bcd60e51b8152600401610db390614770565b60058190556040518181527f52a8358457e20bbb36e4086b83fb0749599f1893fe4c35a876c46dc4886d12db90602001610df9565b6000612eab82846148ec565b9392505050565b60026001541415612f055760405162461bcd60e51b815260206004820152601f60248201527f5265656e7472616e637947756172643a207265656e7472616e742063616c6c006044820152606401610db3565b6002600155565b60008033301480612f2c57503360009081526010602052604090205460ff165b600b54909150610100900460ff16158015612f45575080155b15612f625760405162461bcd60e51b8152600401610db3906147ec565b8015612fb857600b54640100000000900460ff16612f975743612f9060065487612e9f90919063ffffffff16565b1115612fb0565b43612fad60075487612e9f90919063ffffffff16565b11155b915050612eab565b336001600160a01b03841614612fe05760405162461bcd60e51b8152600401610db3906147ec565b42612ff660095486612e9f90919063ffffffff16565b111561306a5760405162461bcd60e51b815260206004820152603a60248201527f506f736974696f6e4d616e616765723a206d696e2064656c6179206e6f74207960448201527f65742070617373656420666f722063616e63656c6c6174696f6e0000000000006064820152608401610db3565b506001949350505050565b80156117b9576001600160a01b03831661311e576000826001600160a01b03168260405160006040518083038185875af1925050503d80600081146130d6576040519150601f19603f3d011682016040523d82523d6000602084013e6130db565b606091505b50509050806123845760405162461bcd60e51b815260206004820152600f60248201526e151c985b9cd9995c8819985a5b1959608a1b6044820152606401610db3565b6117b96001600160a01b0384168383613e71565b804710156131825760405162461bcd60e51b815260206004820152601d60248201527f416464726573733a20696e73756666696369656e742062616c616e63650000006044820152606401610db3565b6000826001600160a01b03168260405160006040518083038185875af1925050503d80600081146131cf576040519150601f19603f3d011682016040523d82523d6000602084013e6131d4565b606091505b50509050806117b95760405162461bcd60e51b815260206004820152603a60248201527f416464726573733a20756e61626c6520746f2073656e642076616c75652c207260448201527f6563697069656e74206d617920686176652072657665727465640000000000006064820152608401610db3565b6000612eab8284614945565b60004261326f600a5489612e9f90919063ffffffff16565b116132c85760405162461bcd60e51b8152602060048201526024808201527f506f736974696f6e4d616e616765723a207265717565737420686173206578706044820152631a5c995960e21b6064820152608401610db3565b6000333014806132e757503360009081526010602052604090205460ff165b600b5490915060ff161580156132fb575080155b156133185760405162461bcd60e51b8152600401610db3906147ec565b80156135fa57604051632e76c56d60e21b8152600481018790526000907f00000000000000000000000000000000000000000000000000000000000000006001600160a01b03169063b9db15b4906024016101206040518083038186803b15801561338257600080fd5b505afa158015613396573d6000803e3d6000fd5b505050506040513d601f19601f820116820180604052508101906133ba9190614350565b5050505050505050905060008561345657600480546040516303b6b4bb60e51b81526001600160a01b0385811693820193909352600060248201529116906376d697609060440160206040518083038186803b15801561341957600080fd5b505afa15801561342d573d6000803e3d6000fd5b505050506040513d601f19601f820116820180604052508101906134519190614553565b6134dc565b600480546040516303b6b4bb60e51b81526001600160a01b0385811693820193909352600160248201529116906376d697609060440160206040518083038186803b1580156134a457600080fd5b505afa1580156134b8573d6000803e3d6000fd5b505050506040513d601f19601f820116820180604052508101906134dc9190614553565b9050851561354857848111156135435760405162461bcd60e51b815260206004820152602660248201527f506f736974696f6e4d616e616765723a2063757272656e7420707269636520746044820152656f6f206c6f7760d01b6064820152608401610db3565b6135a8565b848110156135a85760405162461bcd60e51b815260206004820152602760248201527f506f736974696f6e4d616e616765723a2063757272656e7420707269636520746044820152660dede40d0d2ced60cb1b6064820152608401610db3565b600b54640100000000900460ff166135d757436135d06006548d612e9f90919063ffffffff16565b11156135f0565b436135ed6007548d612e9f90919063ffffffff16565b11155b93505050506136e3565b8415806136115750600b546301000000900460ff16155b80156136375750336001600160a01b03881614806136375750600b5462010000900460ff165b6136535760405162461bcd60e51b8152600401610db3906147ec565b426136696008548a612e9f90919063ffffffff16565b11156136dd5760405162461bcd60e51b815260206004820152603760248201527f506f736974696f6e4d616e616765723a206d696e2064656c6179206e6f74207960448201527f65742070617373656420666f7220657865637574696f6e0000000000000000006064820152608401610db3565b60019150505b979650505050505050565b8015806137775750604051636eb1769f60e11b81523060048201526001600160a01b03838116602483015284169063dd62ed3e9060440160206040518083038186803b15801561373d57600080fd5b505afa158015613751573d6000803e3d6000fd5b505050506040513d601f19601f820116820180604052508101906137759190614553565b155b6137e25760405162461bcd60e51b815260206004820152603660248201527f5361666545524332303a20617070726f76652066726f6d206e6f6e2d7a65726f60448201527520746f206e6f6e2d7a65726f20616c6c6f77616e636560501b6064820152608401610db3565b6040516001600160a01b0383166024820152604481018290526117b990849063095ea7b360e01b906064015b60408051601f198184030181529190526020810180516001600160e01b03166001600160e01b031990931692909217909152613ea1565b60008060007f00000000000000000000000000000000000000000000000000000000000000006001600160a01b031663b9db15b4866040518263ffffffff1660e01b815260040161389891815260200190565b6101206040518083038186803b1580156138b157600080fd5b505afa1580156138c5573d6000803e3d6000fd5b505050506040513d601f19601f820116820180604052508101906138e99190614350565b50506003546040516333a3a92d60e11b81526001600160a01b03808a166004830152602482018890528d81166044830152336064830152989a50959850969096169550636747525a945050608490920191506139429050565b60206040518083038186803b15801561395a57600080fd5b505afa15801561396e573d6000803e3d6000fd5b505050506040513d601f19601f820116820180604052508101906139929190614553565b95945050505050565b8015610e7d576001600160a01b038216613a5857803410156139ff5760405162461bcd60e51b815260206004820152601a60248201527f556e6945524332303a206e6f7420656e6f7567682076616c75650000000000006044820152606401610db3565b80341115610e7d576000613a13348361324b565b604051909150600090339083908381818185875af1925050503d80600081146130d6576040519150601f19603f3d011682016040523d82523d6000602084013e6130db565b610e7d6001600160a01b038316333084613f73565b6001600160a01b038816600090815260126020526040812054613a91906001612e9f565b6001600160a01b038a1660008181526012602090815260408083208590558051610160810182529384529083018c905282018a9052606082018890526080820189905286151560a083015260c0820186905260e082018590526101008201839052436101208301524261014083015291925090613b0e8b846118e4565b6000818152601360209081526040808320865181546001600160a01b039182166001600160a01b031990911617825592870151600180830191909155828801516002830155606088015160038301556080880151600483015560a088015160058301805491151560ff1990921691909117905560c0880151600683015560e0880151600783015561010088015160088301556101208801516009830155610140880151600a90920191909155600c805491820181559093527fdf6966c971051c3d54ec59162606531493a51404a002842f56009d7e5cf4a8c790920183905590519192508c16907f0b78f1597afadf8fca2bae58d2b1fdf85ffd5a62a70b7c9e4212e02dd294ea5090613c7f908d908d908c908e908d908d908d908d90439042903a909a8b5260208b019990995260408a01979097526060890195909552921515608088015260a087019190915260c086015260e08501526101008401526101208301526101408201526101600190565b60405180910390a25050505050505050505050565b6001600160a01b038616600090815260146020526040812054613cb8906001612e9f565b6001600160a01b03881660008181526014602090815260408083208590558051610120810182529384529083018a9052820188905286151560608301526080820186905260a0820185905260c082018390524360e08301524261010083015291925090613d2589846118e4565b6000818152601560209081526040808320865181546001600160a01b0319166001600160a01b0391821617825592870151600180830191909155878301516002830155606088015160038301805460ff19169115159190911790556080880151600483015560a0880151600583015560c0880151600683015560e08801516007830155610100880151600890920191909155600d805491820181559093527fd7b6990105719101dabeb77144f2a3385c8033acd3af97e9423a695e81ad1eb590920183905590519192508a16907fec732ce54a7d63ca49bd10a7367c4477263625779b35852b0f0cf87dd2aacd7090613e5e908b908b908b908b908b908b9043904290978852602088019690965293151560408701526060860192909252608085015260a084015260c083015260e08201526101000190565b60405180910390a2505050505050505050565b6040516001600160a01b0383166024820152604481018290526117b990849063a9059cbb60e01b9060640161380e565b6000613ef6826040518060400160405280602081526020017f5361666545524332303a206c6f772d6c6576656c2063616c6c206661696c6564815250856001600160a01b0316613fab9092919063ffffffff16565b8051909150156117b95780806020019051810190613f1491906144f8565b6117b95760405162461bcd60e51b815260206004820152602a60248201527f5361666545524332303a204552433230206f7065726174696f6e20646964206e6044820152691bdd081cdd58d8d9595960b21b6064820152608401610db3565b6040516001600160a01b03808516602483015283166044820152606481018290526123849085906323b872dd60e01b9060840161380e565b6060613fba8484600085613fc2565b949350505050565b6060824710156140235760405162461bcd60e51b815260206004820152602660248201527f416464726573733a20696e73756666696369656e742062616c616e636520666f6044820152651c8818d85b1b60d21b6064820152608401610db3565b600080866001600160a01b0316858760405161403f91906146ca565b60006040518083038185875af1925050503d806000811461407c576040519150601f19603f3d011682016040523d82523d6000602084013e614081565b606091505b50915091506136e387838387606083156140f95782516140f2576001600160a01b0385163b6140f25760405162461bcd60e51b815260206004820152601d60248201527f416464726573733a2063616c6c20746f206e6f6e2d636f6e74726163740000006044820152606401610db3565b5081613fba565b613fba838381511561410e5781518083602001fd5b8060405162461bcd60e51b8152600401610db3919061475d565b60405180610120016040528060006001600160a01b03168152602001600081526020016000815260200160001515815260200160008152602001600081526020016000815260200160008152602001600081525090565b60405180610160016040528060006001600160a01b031681526020016000815260200160008152602001600081526020016000815260200160001515815260200160008152602001600081526020016000815260200160008152602001600081525090565b600082601f8301126141f557600080fd5b81356020614202826148c8565b60405161420f8282614988565b8381528281019150858301600585901b8701840188101561422f57600080fd5b60005b8581101561425757813561424581614ab8565b84529284019290840190600101614232565b5090979650505050505050565b600082601f83011261427557600080fd5b81356020614282826148c8565b60405161428f8282614988565b8381528281019150858301600585901b870184018810156142af57600080fd5b60005b85811015614257578135845292840192908401906001016142b2565b6000602082840312156142e057600080fd5b8135612eab81614ab8565b600080604083850312156142fe57600080fd5b823561430981614ab8565b9150602083013561431981614ad0565b809150509250929050565b6000806040838503121561433757600080fd5b823561434281614ab8565b946020939093013593505050565b60008060008060008060008060006101208a8c03121561436f57600080fd5b895161437a81614ab8565b8099505060208a0151975060408a0151965060608a015161439a81614ad0565b8096505060808a0151945060a08a0151935060c08a0151925060e08a015191506101008a015190509295985092959850929598565b600080600080608085870312156143e557600080fd5b843567ffffffffffffffff808211156143fd57600080fd5b614409888389016141e4565b9550602087013591508082111561441f57600080fd5b5061442c87828801614264565b93505060408501359150606085013561444481614ab8565b939692955090935050565b600080600080600060a0868803121561446757600080fd5b853567ffffffffffffffff8082111561447f57600080fd5b61448b89838a016141e4565b965060208801359150808211156144a157600080fd5b506144ae88828901614264565b945050604086013592506060860135915060808601356144cd81614ab8565b809150509295509295909350565b6000602082840312156144ed57600080fd5b8135612eab81614ad0565b60006020828403121561450a57600080fd5b8151612eab81614ad0565b60006020828403121561452757600080fd5b5035919050565b6000806040838503121561454157600080fd5b82359150602083013561431981614ab8565b60006020828403121561456557600080fd5b5051919050565b6000806040838503121561457f57600080fd5b50508035926020909101359150565b6000806000606084860312156145a357600080fd5b833592506020840135915060408401356145bc81614ab8565b809150509250925092565b600080600080600060a086880312156145df57600080fd5b853594506020860135935060408601356145f881614ad0565b94979396509394606081013594506080013592915050565b60008060008060008060c0878903121561462957600080fd5b863595506020870135945060408701359350606087013561464981614ad0565b9598949750929560808101359460a0909101359350915050565b600080600080600060a0868803121561467b57600080fd5b505083359560208501359550604085013594606081013594506080013592509050565b600081518084526146b681602086016020860161495c565b601f01601f19169290920160200192915050565b600082516146dc81846020870161495c565b9190910192915050565b604080825283519082018190526000906020906060840190828701845b828110156147285781516001600160a01b031684529284019290840190600101614703565b5050508381038285015284518082528583019183019060005b8181101561425757835183529284019291840191600101614741565b602081526000612eab602083018461469e565b60208082526017908201527f506f736974696f6e4d616e616765723a202161646d696e000000000000000000604082015260600190565b60208082526025908201527f506f736974696f6e4d616e616765723a20696e76616c696420657865637574696040820152646f6e46656560d81b606082015260800190565b6020808252601a908201527f506f736974696f6e4d616e616765723a20666f7262696464656e000000000000604082015260600190565b81516001600160a01b0316815261016081016020830151602083015260408301516040830152606083015160608301526080830151608083015260a083015161487060a084018215159052565b5060c083015160c083015260e083015160e083015261010080840151818401525061012080840151818401525061014080840151818401525092915050565b828152604060208201526000613fba604083018461469e565b600067ffffffffffffffff8211156148e2576148e26149fc565b5060051b60200190565b600082198211156148ff576148ff6149d0565b500190565b60008261492157634e487b7160e01b600052601260045260246000fd5b500490565b6000816000190483118215151615614940576149406149d0565b500290565b600082821015614957576149576149d0565b500390565b60005b8381101561497757818101518382015260200161495f565b838111156123845750506000910152565b601f8201601f1916810167ffffffffffffffff811182821017156149ae576149ae6149fc565b6040525050565b60006000198214156149c9576149c96149d0565b5060010190565b634e487b7160e01b600052601160045260246000fd5b634e487b7160e01b600052603260045260246000fd5b634e487b7160e01b600052604160045260246000fd5b600060033d1115614a2b5760046000803e5060005160e01c5b90565b600060443d1015614a3c5790565b6040516003193d81016004833e81513d67ffffffffffffffff8160248401118184111715614a6c57505050505090565b8285019150815181811115614a845750505050505090565b843d8701016020828501011115614a9e5750505050505090565b614aad60208286010187614988565b509095945050505050565b6001600160a01b0381168114614acd57600080fd5b50565b8015158114614acd57600080fdfea264697066735822122074bb9668fd8b90b4bb675ef797216291e3a22235c379abe3e164795bcebff3b464736f6c63430008070033",
  "immutableReferences": {
    "7753": [
      {
        "length": 32,
        "start": 1110
      },
      {
        "length": 32,
        "start": 5472
      },
      {
        "length": 32,
        "start": 7246
      },
      {
        "length": 32,
        "start": 7558
      },
      {
        "length": 32,
        "start": 7601
      },
      {
        "length": 32,
        "start": 7840
      },
      {
        "length": 32,
        "start": 13111
      },
      {
        "length": 32,
        "start": 14412
      }
    ],
    "7759": [
      {
        "length": 32,
        "start": 3078
      },
      {
        "length": 32,
        "start": 4395
      },
      {
        "length": 32,
        "start": 4527
      },
      {
        "length": 32,
        "start": 7208
      },
      {
        "length": 32,
        "start": 7524
      },
      {
        "length": 32,
        "start": 7720
      },
      {
        "length": 32,
        "start": 8466
      },
      {
        "length": 32,
        "start": 8594
      }
    ],
    "7798": [
      {
        "length": 32,
        "start": 3130
      },
      {
        "length": 32,
        "start": 4446
      },
      {
        "length": 32,
        "start": 4577
      },
      {
        "length": 32,
        "start": 4643
      },
      {
        "length": 32,
        "start": 7298
      },
      {
        "length": 32,
        "start": 7639
      },
      {
        "length": 32,
        "start": 8512
      },
      {
        "length": 32,
        "start": 8787
      }
    ]
  },
  "source": "// SPDX-License-Identifier: MIT\n\npragma solidity ^0.8.0;\n\nimport \"@openzeppelin/contracts/utils/math/SafeMath.sol\";\nimport \"@openzeppelin/contracts/token/ERC20/IERC20.sol\";\nimport \"@openzeppelin/contracts/token/ERC20/utils/SafeERC20.sol\";\nimport \"@openzeppelin/contracts/security/ReentrancyGuard.sol\";\nimport \"./IPikaPerp.sol\";\nimport '../lib/UniERC20.sol';\nimport \"./IPikaPerp.sol\";\nimport \"./PikaPerpV3.sol\";\nimport \"../access/Governable.sol\";\n\ncontract PositionManager is Governable, ReentrancyGuard {\n    using SafeMath for uint256;\n    using SafeERC20 for IERC20;\n    using UniERC20 for IERC20;\n    using Address for address payable;\n\n    struct OpenPositionRequest {\n        address account;\n        uint256 productId;\n        uint256 margin;\n        uint256 leverage;\n        uint256 tradeFee;\n        bool isLong;\n        uint256 acceptablePrice;\n        uint256 executionFee;\n        uint256 index;\n        uint256 blockNumber;\n        uint256 blockTime;\n    }\n\n    struct ClosePositionRequest {\n        address account;\n        uint256 productId;\n        uint256 margin;\n        bool isLong;\n        uint256 acceptablePrice;\n        uint256 executionFee;\n        uint256 index;\n        uint256 blockNumber;\n        uint256 blockTime;\n    }\n\n    address public admin;\n\n    address public immutable pikaPerp;\n    address public feeCalculator;\n    address public oracle;\n    address public immutable collateralToken;\n    uint256 public minExecutionFee;\n\n    uint256 public minBlockDelayPositionKeeper;\n    uint256 public minBlockDelayPriceKeeper;\n    uint256 public minTimeExecuteDelayPublic;\n    uint256 public minTimeCancelDelayPublic;\n    uint256 public maxTimeDelay;\n\n    bool public isUserExecuteEnabled = true;\n    bool public isUserCancelEnabled = true;\n    bool public allowPublicKeeper = false;\n    bool public allowUserCloseOnly = false;\n    bool public isPriceKeeperCall = false;\n\n    bytes32[] public openPositionRequestKeys;\n    bytes32[] public closePositionRequestKeys;\n\n    uint256 public openPositionRequestKeysStart;\n    uint256 public closePositionRequestKeysStart;\n\n    uint256 public immutable tokenBase;\n    uint256 public constant BASE = 1e8;\n    uint256 public constant FEE_BASE = 1e4;\n\n    mapping (address => bool) public isPositionKeeper;\n    mapping (address => bool) public isPriceKeeper;\n\n    mapping (address => uint256) public openPositionsIndex;\n    mapping (bytes32 => OpenPositionRequest) public openPositionRequests;\n\n    mapping (address => uint256) public closePositionsIndex;\n    mapping (bytes32 => ClosePositionRequest) public closePositionRequests;\n\n    event CreateOpenPosition(\n        address indexed account,\n        uint256 productId,\n        uint256 margin,\n        uint256 leverage,\n        uint256 tradeFee,\n        bool isLong,\n        uint256 acceptablePrice,\n        uint256 executionFee,\n        uint256 index,\n        uint256 blockNumber,\n        uint256 blockTime,\n        uint256 gasPrice\n    );\n\n    event ExecuteOpenPosition(\n        address indexed account,\n        uint256 productId,\n        uint256 margin,\n        uint256 leverage,\n        uint256 tradeFee,\n        bool isLong,\n        uint256 acceptablePrice,\n        uint256 executionFee,\n        uint256 index,\n        uint256 blockGap,\n        uint256 timeGap\n    );\n\n    event CancelOpenPosition(\n        address indexed account,\n        uint256 productId,\n        uint256 margin,\n        uint256 leverage,\n        uint256 tradeFee,\n        bool isLong,\n        uint256 acceptablePrice,\n        uint256 executionFee,\n        uint256 index,\n        uint256 blockGap,\n        uint256 timeGap\n    );\n\n    event CreateClosePosition(\n        address indexed account,\n        uint256 productId,\n        uint256 margin,\n        bool isLong,\n        uint256 acceptablePrice,\n        uint256 executionFee,\n        uint256 index,\n        uint256 blockNumber,\n        uint256 blockTime\n    );\n\n    event ExecuteClosePosition(\n        address indexed account,\n        uint256 productId,\n        uint256 margin,\n        bool isLong,\n        uint256 acceptablePrice,\n        uint256 executionFee,\n        uint256 index,\n        uint256 blockGap,\n        uint256 timeGap\n    );\n\n    event CancelClosePosition(\n        address indexed account,\n        uint256 productId,\n        uint256 margin,\n        bool isLong,\n        uint256 acceptablePrice,\n        uint256 executionFee,\n        uint256 index,\n        uint256 blockGap,\n        uint256 timeGap\n    );\n    event ExecuteOpenPositionError(address indexed account, uint256 index, string executionError);\n    event ExecuteClosePositionError(address indexed account, uint256 index, string executionError);\n    event SetPositionKeeper(address indexed account, bool isActive);\n    event SetPriceKeeper(address indexed account, bool isActive);\n    event SetMinExecutionFee(uint256 minExecutionFee);\n    event SetIsUserExecuteEnabled(bool isUserExecuteEnabled);\n    event SetIsUserCancelEnabled(bool isUserCancelEnabled);\n    event SetDelayValues(uint256 minBlockDelayPositionKeeper, uint256 minBlockDelayPriceKeeper, uint256 minTimeExecuteDelayPublic,\n        uint256 minTimeCancelDelayPublic, uint256 maxTimeDelay);\n    event SetRequestKeysStartValues(uint256 increasePositionRequestKeysStart, uint256 decreasePositionRequestKeysStart);\n    event SetAllowPublicKeeper(bool allowPublicKeeper);\n    event SetAllowUserCloseOnly(bool allowUserCloseOnly);\n    event SetAdmin(address admin);\n\n    modifier onlyPositionKeeper() {\n        require(isPositionKeeper[msg.sender], \"PositionManager: !positionKeeper\");\n        _;\n    }\n\n    modifier onlyPriceKeeper() {\n        require(isPriceKeeper[msg.sender], \"PositionManager: !priceKeeper\");\n        _;\n    }\n\n    modifier onlyAdmin() {\n        require(msg.sender == admin, \"PositionManager: !admin\");\n        _;\n    }\n\n    constructor(\n        address _pikaPerp,\n        address _feeCalculator,\n        address _oracle,\n        address _collateralToken,\n        uint256 _minExecutionFee,\n        uint256 _tokenBase\n    ) public {\n        pikaPerp = _pikaPerp;\n        feeCalculator = _feeCalculator;\n        oracle = _oracle;\n        collateralToken = _collateralToken;\n        minExecutionFee = _minExecutionFee;\n        tokenBase = _tokenBase;\n        admin = msg.sender;\n    }\n\n    function setFeeCalculator(address _feeCalculator) external onlyAdmin {\n        feeCalculator = _feeCalculator;\n    }\n\n    function setOracle(address _oracle) external onlyAdmin {\n        oracle = _oracle;\n    }\n\n    function setPositionKeeper(address _account, bool _isActive) external onlyAdmin {\n        isPositionKeeper[_account] = _isActive;\n        emit SetPositionKeeper(_account, _isActive);\n    }\n\n    function setPriceKeeper(address _account, bool _isActive) external onlyAdmin {\n        isPriceKeeper[_account] = _isActive;\n        emit SetPriceKeeper(_account, _isActive);\n    }\n\n    function setMinExecutionFee(uint256 _minExecutionFee) external onlyAdmin {\n        minExecutionFee = _minExecutionFee;\n        emit SetMinExecutionFee(_minExecutionFee);\n    }\n\n    function setIsUserExecuteEnabled(bool _isUserExecuteEnabled) external onlyAdmin {\n        isUserExecuteEnabled = _isUserExecuteEnabled;\n        emit SetIsUserExecuteEnabled(_isUserExecuteEnabled);\n    }\n\n    function setIsUserCancelEnabled(bool _isUserCancelEnabled) external onlyAdmin {\n        isUserCancelEnabled = _isUserCancelEnabled;\n        emit SetIsUserCancelEnabled(_isUserCancelEnabled);\n    }\n\n    function setDelayValues(\n        uint256 _minBlockDelayPositionKeeper,\n        uint256 _minBlockDelayPriceKeeper,\n        uint256 _minTimeExecuteDelayPublic,\n        uint256 _minTimeCancelDelayPublic,\n        uint256 _maxTimeDelay\n    ) external onlyAdmin {\n        minBlockDelayPositionKeeper = _minBlockDelayPositionKeeper;\n        minBlockDelayPriceKeeper = _minBlockDelayPriceKeeper;\n        minTimeExecuteDelayPublic = _minTimeExecuteDelayPublic;\n        minTimeCancelDelayPublic = _minTimeCancelDelayPublic;\n        maxTimeDelay = _maxTimeDelay;\n        emit SetDelayValues(_minBlockDelayPositionKeeper, _minBlockDelayPriceKeeper, _minTimeExecuteDelayPublic, _minTimeCancelDelayPublic, _maxTimeDelay);\n    }\n\n    function setRequestKeysStartValues(uint256 _increasePositionRequestKeysStart, uint256 _decreasePositionRequestKeysStart) external onlyAdmin {\n        openPositionRequestKeysStart = _increasePositionRequestKeysStart;\n        closePositionRequestKeysStart = _decreasePositionRequestKeysStart;\n\n        emit SetRequestKeysStartValues(_increasePositionRequestKeysStart, _decreasePositionRequestKeysStart);\n    }\n\n    function setAllowPublicKeeper(bool _allowPublicKeeper) external onlyAdmin {\n        allowPublicKeeper = _allowPublicKeeper;\n        emit SetAllowPublicKeeper(_allowPublicKeeper);\n    }\n\n    function setAllowUserCloseOnly(bool _allowUserCloseOnly) external onlyAdmin {\n        allowUserCloseOnly = _allowUserCloseOnly;\n        emit SetAllowUserCloseOnly(_allowUserCloseOnly);\n    }\n\n    function setAdmin(address _admin) external onlyGov {\n        admin = _admin;\n        emit SetAdmin(_admin);\n    }\n\n    function executeNPositionsWithPrices(\n        address[] memory tokens,\n        uint256[] memory prices,\n        uint256 n,\n        address payable _executionFeeReceiver\n    ) external {\n        executePositionsWithPrices(tokens, prices, openPositionRequestKeysStart + n, closePositionRequestKeysStart + n, _executionFeeReceiver);\n    }\n\n    function executePositionsWithPrices(\n        address[] memory tokens,\n        uint256[] memory prices,\n        uint256 _openEndIndex,\n        uint256 _closeEndIndex,\n        address payable _executionFeeReceiver\n    ) public onlyPriceKeeper {\n        isPriceKeeperCall = true;\n        IOracle(oracle).setPrices(tokens, prices);\n        executePositions(_openEndIndex, _closeEndIndex, _executionFeeReceiver);\n        isPriceKeeperCall = false;\n    }\n\n    function executeNPositions(uint256 n, address payable _executionFeeReceiver) external {\n        require(canPositionKeeperExecute(), \"PositionManager: cannot execute\");\n        executePositions(openPositionRequestKeysStart + n, closePositionRequestKeysStart + n, _executionFeeReceiver);\n    }\n\n    function executePositions(uint256 _openEndIndex, uint256 _closeEndIndex, address payable _executionFeeReceiver) public {\n        executeOpenPositions(_openEndIndex, _executionFeeReceiver);\n        executeClosePositions(_closeEndIndex, _executionFeeReceiver);\n    }\n\n    function executeOpenPositions(uint256 _endIndex, address payable _executionFeeReceiver) public onlyPositionKeeper {\n        uint256 index = openPositionRequestKeysStart;\n        uint256 length = openPositionRequestKeys.length;\n\n        if (index >= length) { return; }\n\n        if (_endIndex > length) {\n            _endIndex = length;\n        }\n\n        while (index < _endIndex) {\n            bytes32 key = openPositionRequestKeys[index];\n\n            // if the request was executed then delete the key from the array\n            // if the request was not executed then break from the loop, this can happen if the\n            // minimum number of blocks has not yet passed\n            // an error could be thrown if the request is too old or if the slippage is\n            // higher than what the user specified, or if there is insufficient liquidity for the position\n            // in case an error was thrown, cancel the request\n            try this.executeOpenPosition(key, _executionFeeReceiver) returns (bool _wasExecuted) {\n                if (!_wasExecuted) { break; }\n            } catch Error(string memory executionError) {\n                emit ExecuteOpenPositionError(openPositionRequests[key].account, index, executionError);\n                // wrap this call in a try catch to prevent invalid cancels from blocking the loop\n                try this.cancelOpenPosition(key, _executionFeeReceiver) returns (bool _wasCancelled) {\n                    if (!_wasCancelled) { break; }\n                } catch {}\n            } catch (bytes memory /*lowLevelData*/) {\n                // wrap this call in a try catch to prevent invalid cancels from blocking the loop\n                try this.cancelOpenPosition(key, _executionFeeReceiver) returns (bool _wasCancelled) {\n                    if (!_wasCancelled) { break; }\n                } catch {}\n            }\n\n            delete openPositionRequestKeys[index];\n            index++;\n        }\n\n        openPositionRequestKeysStart = index;\n    }\n\n    function executeClosePositions(uint256 _endIndex, address payable _executionFeeReceiver) public onlyPositionKeeper {\n        uint256 index = closePositionRequestKeysStart;\n        uint256 length = closePositionRequestKeys.length;\n\n        if (index >= length) { return; }\n\n        if (_endIndex > length) {\n            _endIndex = length;\n        }\n\n        while (index < _endIndex) {\n            bytes32 key = closePositionRequestKeys[index];\n\n            // if the request was executed then delete the key from the array\n            // if the request was not executed then break from the loop, this can happen if the\n            // minimum number of blocks has not yet passed\n            // an error could be thrown if the request is too old\n            // in case an error was thrown, cancel the request\n            try this.executeClosePosition(key, _executionFeeReceiver) returns (bool _wasExecuted) {\n                if (!_wasExecuted) { break; }\n            } catch Error(string memory executionError)  {\n                emit ExecuteClosePositionError(closePositionRequests[key].account, index, executionError);\n                // wrap this call in a try catch to prevent invalid cancels from blocking the loop\n                try this.cancelClosePosition(key, _executionFeeReceiver) returns (bool _wasCancelled) {\n                    if (!_wasCancelled) { break; }\n                } catch {}\n            } catch (bytes memory /*lowLevelData*/) {\n                // wrap this call in a try catch to prevent invalid cancels from blocking the loop\n                try this.cancelClosePosition(key, _executionFeeReceiver) returns (bool _wasCancelled) {\n                    if (!_wasCancelled) { break; }\n                } catch {}\n            }\n\n            delete closePositionRequestKeys[index];\n            index++;\n        }\n\n        closePositionRequestKeysStart = index;\n    }\n\n    function createOpenPosition(\n        uint256 _productId,\n        uint256 _margin,\n        uint256 _leverage,\n        bool _isLong,\n        uint256 _acceptablePrice,\n        uint256 _executionFee\n    ) external payable nonReentrant {\n        require(_executionFee >= minExecutionFee, \"PositionManager: invalid executionFee\");\n\n        uint256 tradeFee = getTradeFeeRate(_productId, msg.sender) * _margin * _leverage / (FEE_BASE * BASE);\n        if (IERC20(collateralToken).isETH()) {\n            IERC20(collateralToken).uniTransferFromSenderToThis((_executionFee + _margin + tradeFee) * tokenBase / BASE);\n        } else {\n            require(msg.value == _executionFee * 1e18 / BASE, \"PositionManager: incorrect execution fee transferred\");\n            IERC20(collateralToken).uniTransferFromSenderToThis((_margin + tradeFee) * tokenBase / BASE);\n        }\n\n        _createOpenPosition(\n            msg.sender,\n            _productId,\n            _margin,\n            tradeFee,\n            _leverage,\n            _isLong,\n            _acceptablePrice,\n            _executionFee\n        );\n    }\n\n    function createClosePosition(\n        uint256 _productId,\n        uint256 _margin,\n        bool _isLong,\n        uint256 _acceptablePrice,\n        uint256 _executionFee\n    ) external payable nonReentrant {\n        require(_executionFee >= minExecutionFee, \"PositionManager: invalid executionFee\");\n        require(msg.value == _executionFee * 1e18 / BASE, \"PositionManager: invalid msg.value\");\n\n        _createClosePosition(\n            msg.sender,\n            _productId,\n            _margin,\n            _isLong,\n            _acceptablePrice,\n            _executionFee\n        );\n    }\n\n    function getRequestQueueLengths() external view returns (uint256, uint256, uint256, uint256) {\n        return (\n        openPositionRequestKeysStart,\n        openPositionRequestKeys.length,\n        closePositionRequestKeysStart,\n        closePositionRequestKeys.length\n        );\n    }\n\n    function executeOpenPosition(bytes32 _key, address payable _executionFeeReceiver) public nonReentrant returns (bool) {\n        OpenPositionRequest memory request = openPositionRequests[_key];\n        // if the request was already executed or cancelled, return true so that the executeOpenPositions loop will continue executing the next request\n        if (request.account == address(0)) { return true; }\n\n        bool shouldExecute = _validateExecution(request.blockNumber, request.blockTime, request.account, request.productId, true, request.isLong, request.acceptablePrice);\n        if (!shouldExecute) { return false; }\n\n        delete openPositionRequests[_key];\n\n        if (IERC20(collateralToken).isETH()) {\n            IPikaPerp(pikaPerp).openPosition{value: (request.margin + request.tradeFee) * tokenBase / BASE }(request.account, request.productId, request.margin, request.isLong, request.leverage);\n        } else {\n            IERC20(collateralToken).safeApprove(pikaPerp, 0);\n            IERC20(collateralToken).safeApprove(pikaPerp, (request.margin + request.tradeFee) * tokenBase / BASE);\n            IPikaPerp(pikaPerp).openPosition(request.account, request.productId, request.margin, request.isLong, request.leverage);\n        }\n\n        _executionFeeReceiver.sendValue(request.executionFee * 1e18 / BASE);\n\n        emit ExecuteOpenPosition(\n            request.account,\n            request.productId,\n            request.margin,\n            request.leverage,\n            request.tradeFee,\n            request.isLong,\n            request.acceptablePrice,\n            request.executionFee,\n            request.index,\n            block.number.sub(request.blockNumber),\n            block.timestamp.sub(request.blockTime)\n        );\n\n        return true;\n    }\n\n    function cancelOpenPosition(bytes32 _key, address payable _executionFeeReceiver) public nonReentrant returns (bool) {\n        OpenPositionRequest memory request = openPositionRequests[_key];\n        // if the request was already executed or cancelled, return true so that the executeOpenePositions loop will continue executing the next request\n        if (request.account == address(0)) { return true; }\n\n        bool shouldCancel = _validateCancellation(request.blockNumber, request.blockTime, request.account);\n        if (!shouldCancel) { return false; }\n\n        delete openPositionRequests[_key];\n\n        if (IERC20(collateralToken).isETH()) {\n            IERC20(collateralToken).uniTransfer(request.account, (request.margin + request.tradeFee) * tokenBase / BASE);\n            IERC20(collateralToken).uniTransfer(_executionFeeReceiver, request.executionFee * tokenBase / BASE);\n        } else {\n            IERC20(collateralToken).uniTransfer(request.account, (request.margin + request.tradeFee) * tokenBase / BASE);\n            payable(_executionFeeReceiver).sendValue(request.executionFee * 1e18 / BASE);\n        }\n\n        emit CancelOpenPosition(\n            request.account,\n            request.productId,\n            request.margin,\n            request.leverage,\n            request.tradeFee,\n            request.isLong,\n            request.acceptablePrice,\n            request.executionFee,\n            request.index,\n            block.number.sub(request.blockNumber),\n            block.timestamp.sub(request.blockTime)\n        );\n\n        return true;\n    }\n\n    function executeClosePosition(bytes32 _key, address payable _executionFeeReceiver) public nonReentrant returns (bool) {\n        ClosePositionRequest memory request = closePositionRequests[_key];\n        // if the request was already executed or cancelled, return true so that the executeClosePositions loop will continue executing the next request\n        if (request.account == address(0)) { return true; }\n\n        bool shouldExecute = _validateExecution(request.blockNumber, request.blockTime, request.account, request.productId, false, !request.isLong, request.acceptablePrice);\n        if (!shouldExecute) { return false; }\n\n        delete closePositionRequests[_key];\n\n        IPikaPerp(pikaPerp).closePosition(request.account, request.productId, request.margin , request.isLong);\n\n        _executionFeeReceiver.sendValue(request.executionFee * 1e18 / BASE);\n\n        emit ExecuteClosePosition(\n            request.account,\n            request.productId,\n            request.margin,\n            request.isLong,\n            request.acceptablePrice,\n            request.executionFee,\n            request.index,\n            block.number.sub(request.blockNumber),\n            block.timestamp.sub(request.blockTime)\n        );\n\n        return true;\n    }\n\n    function cancelClosePosition(bytes32 _key, address payable _executionFeeReceiver) public nonReentrant returns (bool) {\n        ClosePositionRequest memory request = closePositionRequests[_key];\n        // if the request was already executed or cancelled, return true so that the executeClosePositions loop will continue executing the next request\n        if (request.account == address(0)) { return true; }\n\n        bool shouldCancel = _validateCancellation(request.blockNumber, request.blockTime, request.account);\n        if (!shouldCancel) { return false; }\n\n        delete closePositionRequests[_key];\n\n        _executionFeeReceiver.sendValue(request.executionFee * 1e18 / BASE);\n\n        emit CancelClosePosition(\n                request.account,\n                request.productId,\n                request.margin,\n                request.isLong,\n                request.acceptablePrice,\n                request.executionFee,\n                request.index,\n                block.number.sub(request.blockNumber),\n                block.timestamp.sub(request.blockTime)\n            );\n\n        return true;\n    }\n\n    function getRequestKey(address _account, uint256 _index) public pure returns (bytes32) {\n        return keccak256(abi.encodePacked(_account, _index));\n    }\n\n    function getOpenPositionRequest(address _account, uint256 _index) public view returns (OpenPositionRequest memory) {\n        return openPositionRequests[getRequestKey(_account, _index)];\n    }\n\n    function getClosePositionRequest(address _account, uint256 _index) public view returns (ClosePositionRequest memory) {\n        return closePositionRequests[getRequestKey(_account, _index)];\n    }\n\n    function getOpenPositionRequestFromKey(bytes32 _key) public view returns (OpenPositionRequest memory) {\n        return openPositionRequests[_key];\n    }\n\n    function getClosePositionRequestFromKey(bytes32 _key) public view returns (ClosePositionRequest memory) {\n        return closePositionRequests[_key];\n    }\n\n    function canPriceKeeperExecute() public view returns(bool) {\n        return (openPositionRequestKeysStart < openPositionRequestKeys.length &&\n        openPositionRequests[openPositionRequestKeys[openPositionRequestKeysStart]].blockNumber.add(minBlockDelayPriceKeeper) <= block.timestamp) ||\n        (closePositionRequestKeysStart < closePositionRequestKeys.length &&\n        closePositionRequests[closePositionRequestKeys[closePositionRequestKeysStart]].blockNumber.add(minBlockDelayPriceKeeper) <= block.timestamp);\n    }\n\n    function canPositionKeeperExecute() public view returns(bool) {\n        return (openPositionRequestKeysStart < openPositionRequestKeys.length &&\n            openPositionRequests[openPositionRequestKeys[openPositionRequestKeysStart]].blockNumber.add(minBlockDelayPositionKeeper) <= block.timestamp) ||\n            (closePositionRequestKeysStart < closePositionRequestKeys.length &&\n            closePositionRequests[closePositionRequestKeys[closePositionRequestKeysStart]].blockNumber.add(minBlockDelayPositionKeeper) <= block.timestamp);\n    }\n\n    function _validateExecution(uint256 _positionBlockNumber, uint256 _positionBlockTime, address _account,\n        uint256 _productId, bool _isOpen, bool _isLong, uint256 _acceptablePrice\n    ) internal view returns (bool) {\n        if (_positionBlockTime.add(maxTimeDelay) <= block.timestamp) {\n            revert(\"PositionManager: request has expired\");\n        }\n\n        bool isKeeperCall = msg.sender == address(this) || isPositionKeeper[msg.sender];\n\n        if (!isUserExecuteEnabled && !isKeeperCall) {\n            revert(\"PositionManager: forbidden\");\n        }\n\n        if (isKeeperCall) {\n            (address productToken,,,,,,,,) = IPikaPerp(pikaPerp).getProduct(_productId);\n            uint256 price = _isLong ? IOracle(oracle).getPrice(productToken, true) : IOracle(oracle).getPrice(productToken, false);\n            if (_isLong) {\n                require(price <= _acceptablePrice, \"PositionManager: current price too low\");\n            } else {\n                require(price >= _acceptablePrice, \"PositionManager: current price too high\");\n            }\n            return isPriceKeeperCall ? _positionBlockNumber.add(minBlockDelayPriceKeeper) <= block.number :\n                _positionBlockNumber.add(minBlockDelayPositionKeeper) <= block.number;\n        }\n\n        require((!_isOpen || !allowUserCloseOnly) && (msg.sender == _account || allowPublicKeeper), \"PositionManager: forbidden\");\n\n        require(_positionBlockTime.add(minTimeExecuteDelayPublic) <= block.timestamp, \"PositionManager: min delay not yet passed for execution\");\n\n        return true;\n    }\n\n    function _validateCancellation(uint256 _positionBlockNumber, uint256 _positionBlockTime, address _account) internal view returns (bool) {\n        bool isKeeperCall = msg.sender == address(this) || isPositionKeeper[msg.sender];\n\n        if (!isUserCancelEnabled && !isKeeperCall) {\n            revert(\"PositionManager: forbidden\");\n        }\n\n        if (isKeeperCall) {\n            return isPriceKeeperCall ? _positionBlockNumber.add(minBlockDelayPriceKeeper) <= block.number :\n            _positionBlockNumber.add(minBlockDelayPositionKeeper) <= block.number;\n        }\n\n        require(msg.sender == _account, \"PositionManager: forbidden\");\n\n        require(_positionBlockTime.add(minTimeCancelDelayPublic) <= block.timestamp, \"PositionManager: min delay not yet passed for cancellation\");\n\n        return true;\n    }\n\n    function _createOpenPosition(\n        address _account,\n        uint256 _productId,\n        uint256 _margin,\n        uint256 _tradeFee,\n        uint256 _leverage,\n        bool _isLong,\n        uint256 _acceptablePrice,\n        uint256 _executionFee\n    ) internal {\n        uint256 index = openPositionsIndex[_account].add(1);\n        openPositionsIndex[_account] = index;\n\n        OpenPositionRequest memory request = OpenPositionRequest(\n            _account,\n            _productId,\n            _margin,\n            _leverage,\n            _tradeFee,\n            _isLong,\n            _acceptablePrice,\n            _executionFee,\n            index,\n            block.number,\n            block.timestamp\n        );\n\n        bytes32 key = getRequestKey(_account, index);\n        openPositionRequests[key] = request;\n\n        openPositionRequestKeys.push(key);\n\n        emit CreateOpenPosition(\n            _account,\n            _productId,\n            _margin,\n            _leverage,\n            _tradeFee,\n            _isLong,\n            _acceptablePrice,\n            _executionFee,\n            index,\n            block.number,\n            block.timestamp,\n            tx.gasprice\n        );\n    }\n\n    function _createClosePosition(\n        address _account,\n        uint256 _productId,\n        uint256 _margin,\n        bool _isLong,\n        uint256 _acceptablePrice,\n        uint256 _executionFee\n    ) internal {\n        uint256 index = closePositionsIndex[_account].add(1);\n        closePositionsIndex[_account] = index;\n\n        ClosePositionRequest memory request = ClosePositionRequest(\n            _account,\n            _productId,\n            _margin,\n            _isLong,\n            _acceptablePrice,\n            _executionFee,\n            index,\n            block.number,\n            block.timestamp\n        );\n\n        bytes32 key = getRequestKey(_account, index);\n        closePositionRequests[key] = request;\n\n        closePositionRequestKeys.push(key);\n\n        emit CreateClosePosition(\n            _account,\n            _productId,\n            _margin,\n            _isLong,\n            _acceptablePrice,\n            _executionFee,\n            index,\n            block.number,\n            block.timestamp\n        );\n    }\n\n    function getTradeFeeRate(uint256 _productId, address _account) private returns(uint256) {\n        (address productToken,,uint256 fee,,,,,,) = IPikaPerp(pikaPerp).getProduct(_productId);\n        return IFeeCalculator(feeCalculator).getFee(productToken, fee, _account, msg.sender);\n    }\n\n    fallback() external payable {}\n    receive() external payable {}\n}",
  "sourcePath": "/Users/me/workspace/PikaPerpV2/contracts/perp/PositionManager.sol",
  "compiler": {
    "name": "solc",
    "version": "0.8.7+commit.e28d00a7.Emscripten.clang"
  },
  "schemaVersion": "3.4.11",
  "updatedAt": "2023-01-15T16:37:38.298Z",
  "devdoc": {
    "kind": "dev",
    "methods": {},
    "version": 1
  },
  "userdoc": {
    "kind": "user",
    "methods": {},
    "version": 1
  }
}