{
  "contractName": "TestPikaPerp",
  "abi": [
    {
      "inputs": [],
      "name": "distributePikaReward",
      "outputs": [
        {
          "internalType": "uint256",
          "name": "",
          "type": "uint256"
        }
      ],
      "stateMutability": "nonpayable",
      "type": "function"
    },
    {
      "inputs": [],
      "name": "getPendingPikaReward",
      "outputs": [
        {
          "internalType": "uint256",
          "name": "",
          "type": "uint256"
        }
      ],
      "stateMutability": "view",
      "type": "function"
    }
  ],
  "bytecode": "0x6080604052348015600f57600080fd5b50608f8061001e6000396000f3fe6080604052348015600f57600080fd5b506004361060325760003560e01c80631ea8c3a71460375780636e20c3b4146053575b600080fd5b670de0b6b3a76400005b60405190815260200160405180910390f35b6000604156fea2646970667358221220721e1e910a99a3af04efd62c44c5f33d6022e21d5e04bb93346b503af7a48b6764736f6c63430008070033",
  "immutableReferences": {},
  "source": "pragma solidity ^0.8.0;\n\ncontract TestPikaPerp {\n    function distributePikaReward() external returns(uint256) {\n        return 1000000000000000000;\n    }\n\n    function getPendingPikaReward() external view returns(uint256) {\n        return 0;\n    }\n}\n",
  "sourcePath": "/Users/me/workspace/PikaPerpV2/contracts/test/TestPikePerp.sol",
  "compiler": {
    "name": "solc",
    "version": "0.8.7+commit.e28d00a7.Emscripten.clang"
  },
  "schemaVersion": "3.4.11",
  "updatedAt": "2023-01-14T09:54:29.111Z",
  "devdoc": {
    "kind": "dev",
    "methods": {},
    "version": 1
  },
  "userdoc": {
    "kind": "user",
    "methods": {},
    "version": 1
  }
}