{
  "contractName": "VaultTokenRewardRouter",
  "abi": [
    {
      "inputs": [
        {
          "internalType": "address",
          "name": "_vaultTokenReward1",
          "type": "address"
        },
        {
          "internalType": "address",
          "name": "_vaultTokenReward2",
          "type": "address"
        }
      ],
      "stateMutability": "nonpayable",
      "type": "constructor"
    },
    {
      "anonymous": false,
      "inputs": [
        {
          "indexed": false,
          "internalType": "address",
          "name": "admin",
          "type": "address"
        }
      ],
      "name": "SetAdmin",
      "type": "event"
    },
    {
      "anonymous": false,
      "inputs": [
        {
          "indexed": false,
          "internalType": "address",
          "name": "vaultTokenReward1",
          "type": "address"
        },
        {
          "indexed": false,
          "internalType": "address",
          "name": "vaultTokenReward2",
          "type": "address"
        }
      ],
      "name": "SetVaultTokenRewards",
      "type": "event"
    },
    {
      "inputs": [],
      "name": "admin",
      "outputs": [
        {
          "internalType": "address",
          "name": "",
          "type": "address"
        }
      ],
      "stateMutability": "view",
      "type": "function"
    },
    {
      "inputs": [],
      "name": "gov",
      "outputs": [
        {
          "internalType": "address",
          "name": "",
          "type": "address"
        }
      ],
      "stateMutability": "view",
      "type": "function"
    },
    {
      "inputs": [
        {
          "internalType": "address",
          "name": "_gov",
          "type": "address"
        }
      ],
      "name": "setGov",
      "outputs": [],
      "stateMutability": "nonpayable",
      "type": "function"
    },
    {
      "inputs": [],
      "name": "vaultTokenReward1",
      "outputs": [
        {
          "internalType": "address",
          "name": "",
          "type": "address"
        }
      ],
      "stateMutability": "view",
      "type": "function"
    },
    {
      "inputs": [],
      "name": "vaultTokenReward2",
      "outputs": [
        {
          "internalType": "address",
          "name": "",
          "type": "address"
        }
      ],
      "stateMutability": "view",
      "type": "function"
    },
    {
      "inputs": [
        {
          "internalType": "address",
          "name": "account",
          "type": "address"
        }
      ],
      "name": "updateReward",
      "outputs": [],
      "stateMutability": "nonpayable",
      "type": "function"
    },
    {
      "inputs": [
        {
          "internalType": "address",
          "name": "_vaultTokenReward1",
          "type": "address"
        },
        {
          "internalType": "address",
          "name": "_vaultTokenReward2",
          "type": "address"
        }
      ],
      "name": "setVaultTokenRewards",
      "outputs": [],
      "stateMutability": "nonpayable",
      "type": "function"
    },
    {
      "inputs": [
        {
          "internalType": "address",
          "name": "_admin",
          "type": "address"
        }
      ],
      "name": "setAdmin",
      "outputs": [],
      "stateMutability": "nonpayable",
      "type": "function"
    }
  ],
  "bytecode": "0x608060405234801561001057600080fd5b5060405161057538038061057583398101604081905261002f91610097565b60008054336001600160a01b031991821681179092556001805482166001600160a01b0395861617905560028054821693909416929092179092556003805490911690911790556100ca565b80516001600160a01b038116811461009257600080fd5b919050565b600080604083850312156100aa57600080fd5b6100b38361007b565b91506100c16020840161007b565b90509250929050565b61049c806100d96000396000f3fe608060405234801561001057600080fd5b50600436106100885760003560e01c80636cbdeb681161005b5780636cbdeb68146100f7578063704b6c021461010a578063cfad57a21461011d578063f851a4401461013057600080fd5b806312d43a511461008d578063251c9666146100bc5780636189a076146100cf578063632447c9146100e2575b600080fd5b6000546100a0906001600160a01b031681565b6040516001600160a01b03909116815260200160405180910390f35b6002546100a0906001600160a01b031681565b6001546100a0906001600160a01b031681565b6100f56100f0366004610411565b610143565b005b6100f5610105366004610433565b610204565b6100f5610118366004610411565b6102db565b6100f561012b366004610411565b610381565b6003546100a0906001600160a01b031681565b60015460405163632447c960e01b81526001600160a01b0383811660048301529091169063632447c990602401600060405180830381600087803b15801561018a57600080fd5b505af115801561019e573d6000803e3d6000fd5b505060025460405163632447c960e01b81526001600160a01b038581166004830152909116925063632447c99150602401600060405180830381600087803b1580156101e957600080fd5b505af11580156101fd573d6000803e3d6000fd5b5050505050565b6003546001600160a01b0316331461026d5760405162461bcd60e51b815260206004820152602160248201527f5661756c74546f6b656e526577617264526f757465723a20666f7262696464656044820152603760f91b60648201526084015b60405180910390fd5b600180546001600160a01b038481166001600160a01b03199283168117909355600280549185169190921681179091556040805192835260208301919091527f24ee7795cf8d2e7dd31b72b32210b15df781541eef55933054d6ddfc7372a0f0910160405180910390a15050565b6000546001600160a01b0316331461032d5760405162461bcd60e51b815260206004820152601560248201527423b7bb32b93730b136329d103337b93134b23232b760591b6044820152606401610264565b600380546001600160a01b0319166001600160a01b0383169081179091556040519081527f5a272403b402d892977df56625f4164ccaf70ca3863991c43ecfe76a6905b0a19060200160405180910390a150565b6000546001600160a01b031633146103d35760405162461bcd60e51b815260206004820152601560248201527423b7bb32b93730b136329d103337b93134b23232b760591b6044820152606401610264565b600080546001600160a01b0319166001600160a01b0392909216919091179055565b80356001600160a01b038116811461040c57600080fd5b919050565b60006020828403121561042357600080fd5b61042c826103f5565b9392505050565b6000806040838503121561044657600080fd5b61044f836103f5565b915061045d602084016103f5565b9050925092905056fea2646970667358221220455fe9e37b054dc06586287cc36f23360f794e59dc14c779fc2d064aa1b63e1f64736f6c63430008070033",
  "immutableReferences": {},
  "source": "// SPDX-License-Identifier: MIT\npragma solidity ^0.8.0;\n\nimport '../staking/IVaultReward.sol';\nimport \"../access/Governable.sol\";\n\n// Router that allows two different tokens to distribute to vault depositors. Each token is handled by one VaultTokenReward contract.\n// PikaPerp contract's vaultTokenReward will be set to this router contract.\ncontract VaultTokenRewardRouter is Governable {\n\n    address public vaultTokenReward1;\n    address public vaultTokenReward2;\n    address public admin;\n\n    event SetVaultTokenRewards(address vaultTokenReward1, address vaultTokenReward2);\n    event SetAdmin(address admin);\n\n    constructor(address _vaultTokenReward1, address _vaultTokenReward2) public {\n        vaultTokenReward1 = _vaultTokenReward1;\n        vaultTokenReward2 = _vaultTokenReward2;\n        admin = msg.sender;\n    }\n\n    function updateReward(address account) public {\n        IVaultReward(vaultTokenReward1).updateReward(account);\n        IVaultReward(vaultTokenReward2).updateReward(account);\n    }\n\n    function setVaultTokenRewards(address _vaultTokenReward1, address _vaultTokenReward2) public onlyAdmin {\n        vaultTokenReward1 = _vaultTokenReward1;\n        vaultTokenReward2 = _vaultTokenReward2;\n        emit SetVaultTokenRewards(_vaultTokenReward1, _vaultTokenReward2);\n    }\n\n    function setAdmin(address _admin) external onlyGov {\n        admin = _admin;\n        emit SetAdmin(_admin);\n    }\n\n    modifier onlyAdmin() {\n        require(msg.sender == admin, \"VaultTokenRewardRouter: forbidden\");\n        _;\n    }\n}\n",
  "sourcePath": "/Users/me/workspace/PikaPerpV2/contracts/staking/VaultTokenRewardRouter.sol",
  "compiler": {
    "name": "solc",
    "version": "0.8.7+commit.e28d00a7.Emscripten.clang"
  },
  "schemaVersion": "3.4.11",
  "updatedAt": "2023-01-14T09:54:29.099Z",
  "devdoc": {
    "kind": "dev",
    "methods": {},
    "version": 1
  },
  "userdoc": {
    "kind": "user",
    "methods": {},
    "version": 1
  }
}