{
  "contractName": "VaultTokenReward",
  "abi": [
    {
      "inputs": [
        {
          "internalType": "address",
          "name": "_rewardsDistribution",
          "type": "address"
        },
        {
          "internalType": "address",
          "name": "_rewardsToken",
          "type": "address"
        },
        {
          "internalType": "address",
          "name": "_pikaPerp",
          "type": "address"
        }
      ],
      "stateMutability": "nonpayable",
      "type": "constructor"
    },
    {
      "anonymous": false,
      "inputs": [
        {
          "indexed": false,
          "internalType": "address",
          "name": "account",
          "type": "address"
        }
      ],
      "name": "Paused",
      "type": "event"
    },
    {
      "anonymous": false,
      "inputs": [
        {
          "indexed": false,
          "internalType": "address",
          "name": "token",
          "type": "address"
        },
        {
          "indexed": false,
          "internalType": "uint256",
          "name": "amount",
          "type": "uint256"
        }
      ],
      "name": "Recovered",
      "type": "event"
    },
    {
      "anonymous": false,
      "inputs": [
        {
          "indexed": false,
          "internalType": "uint256",
          "name": "reward",
          "type": "uint256"
        }
      ],
      "name": "RewardAdded",
      "type": "event"
    },
    {
      "anonymous": false,
      "inputs": [
        {
          "indexed": true,
          "internalType": "address",
          "name": "user",
          "type": "address"
        },
        {
          "indexed": false,
          "internalType": "uint256",
          "name": "reward",
          "type": "uint256"
        }
      ],
      "name": "RewardPaid",
      "type": "event"
    },
    {
      "anonymous": false,
      "inputs": [
        {
          "indexed": false,
          "internalType": "uint256",
          "name": "newDuration",
          "type": "uint256"
        }
      ],
      "name": "RewardsDurationUpdated",
      "type": "event"
    },
    {
      "anonymous": false,
      "inputs": [
        {
          "indexed": false,
          "internalType": "address",
          "name": "owner",
          "type": "address"
        }
      ],
      "name": "SetOwner",
      "type": "event"
    },
    {
      "anonymous": false,
      "inputs": [
        {
          "indexed": false,
          "internalType": "address",
          "name": "pikaPerp",
          "type": "address"
        }
      ],
      "name": "SetPikaPerp",
      "type": "event"
    },
    {
      "anonymous": false,
      "inputs": [
        {
          "indexed": true,
          "internalType": "address",
          "name": "user",
          "type": "address"
        },
        {
          "indexed": false,
          "internalType": "uint256",
          "name": "amount",
          "type": "uint256"
        }
      ],
      "name": "Staked",
      "type": "event"
    },
    {
      "anonymous": false,
      "inputs": [
        {
          "indexed": false,
          "internalType": "address",
          "name": "account",
          "type": "address"
        }
      ],
      "name": "Unpaused",
      "type": "event"
    },
    {
      "anonymous": false,
      "inputs": [
        {
          "indexed": true,
          "internalType": "address",
          "name": "user",
          "type": "address"
        },
        {
          "indexed": false,
          "internalType": "uint256",
          "name": "amount",
          "type": "uint256"
        }
      ],
      "name": "Withdrawn",
      "type": "event"
    },
    {
      "inputs": [],
      "name": "gov",
      "outputs": [
        {
          "internalType": "address",
          "name": "",
          "type": "address"
        }
      ],
      "stateMutability": "view",
      "type": "function"
    },
    {
      "inputs": [],
      "name": "lastUpdateTime",
      "outputs": [
        {
          "internalType": "uint256",
          "name": "",
          "type": "uint256"
        }
      ],
      "stateMutability": "view",
      "type": "function"
    },
    {
      "inputs": [],
      "name": "owner",
      "outputs": [
        {
          "internalType": "address",
          "name": "",
          "type": "address"
        }
      ],
      "stateMutability": "view",
      "type": "function"
    },
    {
      "inputs": [],
      "name": "paused",
      "outputs": [
        {
          "internalType": "bool",
          "name": "",
          "type": "bool"
        }
      ],
      "stateMutability": "view",
      "type": "function"
    },
    {
      "inputs": [],
      "name": "periodFinish",
      "outputs": [
        {
          "internalType": "uint256",
          "name": "",
          "type": "uint256"
        }
      ],
      "stateMutability": "view",
      "type": "function"
    },
    {
      "inputs": [],
      "name": "pikaPerp",
      "outputs": [
        {
          "internalType": "address",
          "name": "",
          "type": "address"
        }
      ],
      "stateMutability": "view",
      "type": "function"
    },
    {
      "inputs": [],
      "name": "rewardPerTokenStored",
      "outputs": [
        {
          "internalType": "uint256",
          "name": "",
          "type": "uint256"
        }
      ],
      "stateMutability": "view",
      "type": "function"
    },
    {
      "inputs": [],
      "name": "rewardRate",
      "outputs": [
        {
          "internalType": "uint256",
          "name": "",
          "type": "uint256"
        }
      ],
      "stateMutability": "view",
      "type": "function"
    },
    {
      "inputs": [
        {
          "internalType": "address",
          "name": "",
          "type": "address"
        }
      ],
      "name": "rewards",
      "outputs": [
        {
          "internalType": "uint256",
          "name": "",
          "type": "uint256"
        }
      ],
      "stateMutability": "view",
      "type": "function"
    },
    {
      "inputs": [],
      "name": "rewardsDistribution",
      "outputs": [
        {
          "internalType": "address",
          "name": "",
          "type": "address"
        }
      ],
      "stateMutability": "view",
      "type": "function"
    },
    {
      "inputs": [],
      "name": "rewardsDuration",
      "outputs": [
        {
          "internalType": "uint256",
          "name": "",
          "type": "uint256"
        }
      ],
      "stateMutability": "view",
      "type": "function"
    },
    {
      "inputs": [],
      "name": "rewardsToken",
      "outputs": [
        {
          "internalType": "contract IERC20",
          "name": "",
          "type": "address"
        }
      ],
      "stateMutability": "view",
      "type": "function"
    },
    {
      "inputs": [
        {
          "internalType": "address",
          "name": "_gov",
          "type": "address"
        }
      ],
      "name": "setGov",
      "outputs": [],
      "stateMutability": "nonpayable",
      "type": "function"
    },
    {
      "inputs": [],
      "name": "stakingToken",
      "outputs": [
        {
          "internalType": "contract IERC20",
          "name": "",
          "type": "address"
        }
      ],
      "stateMutability": "view",
      "type": "function"
    },
    {
      "inputs": [
        {
          "internalType": "address",
          "name": "",
          "type": "address"
        }
      ],
      "name": "userRewardPerTokenPaid",
      "outputs": [
        {
          "internalType": "uint256",
          "name": "",
          "type": "uint256"
        }
      ],
      "stateMutability": "view",
      "type": "function"
    },
    {
      "inputs": [
        {
          "internalType": "address",
          "name": "account",
          "type": "address"
        }
      ],
      "name": "balanceOf",
      "outputs": [
        {
          "internalType": "uint256",
          "name": "",
          "type": "uint256"
        }
      ],
      "stateMutability": "view",
      "type": "function"
    },
    {
      "inputs": [],
      "name": "lastTimeRewardApplicable",
      "outputs": [
        {
          "internalType": "uint256",
          "name": "",
          "type": "uint256"
        }
      ],
      "stateMutability": "view",
      "type": "function"
    },
    {
      "inputs": [],
      "name": "rewardPerToken",
      "outputs": [
        {
          "internalType": "uint256",
          "name": "",
          "type": "uint256"
        }
      ],
      "stateMutability": "view",
      "type": "function"
    },
    {
      "inputs": [
        {
          "internalType": "address",
          "name": "account",
          "type": "address"
        }
      ],
      "name": "earned",
      "outputs": [
        {
          "internalType": "uint256",
          "name": "",
          "type": "uint256"
        }
      ],
      "stateMutability": "view",
      "type": "function"
    },
    {
      "inputs": [],
      "name": "getRewardForDuration",
      "outputs": [
        {
          "internalType": "uint256",
          "name": "",
          "type": "uint256"
        }
      ],
      "stateMutability": "view",
      "type": "function"
    },
    {
      "inputs": [],
      "name": "getReward",
      "outputs": [],
      "stateMutability": "nonpayable",
      "type": "function"
    },
    {
      "inputs": [
        {
          "internalType": "uint256",
          "name": "reward",
          "type": "uint256"
        }
      ],
      "name": "notifyRewardAmount",
      "outputs": [],
      "stateMutability": "nonpayable",
      "type": "function"
    },
    {
      "inputs": [
        {
          "internalType": "address",
          "name": "tokenAddress",
          "type": "address"
        },
        {
          "internalType": "uint256",
          "name": "tokenAmount",
          "type": "uint256"
        }
      ],
      "name": "recoverERC20",
      "outputs": [],
      "stateMutability": "nonpayable",
      "type": "function"
    },
    {
      "inputs": [
        {
          "internalType": "uint256",
          "name": "_rewardsDuration",
          "type": "uint256"
        }
      ],
      "name": "setRewardsDuration",
      "outputs": [],
      "stateMutability": "nonpayable",
      "type": "function"
    },
    {
      "inputs": [
        {
          "internalType": "address",
          "name": "_owner",
          "type": "address"
        }
      ],
      "name": "setOwner",
      "outputs": [],
      "stateMutability": "nonpayable",
      "type": "function"
    },
    {
      "inputs": [
        {
          "internalType": "address",
          "name": "_pikaPerp",
          "type": "address"
        }
      ],
      "name": "setPikaPerp",
      "outputs": [],
      "stateMutability": "nonpayable",
      "type": "function"
    },
    {
      "inputs": [
        {
          "internalType": "address",
          "name": "account",
          "type": "address"
        }
      ],
      "name": "updateReward",
      "outputs": [],
      "stateMutability": "nonpayable",
      "type": "function"
    }
  ],
  "bytecode": "0x60806040526000600455600060055562278d0060065534801561002157600080fd5b50604051611296380380611296833981016040819052610040916100cb565b60008054336001600160a01b0319918216811790925560018055600280546009805484166001600160a01b039889161790556001600160a81b0319166101009587169590950294909417909355600b805484169290941691909117909255600a8054909116909117905561010e565b80516001600160a01b03811681146100c657600080fd5b919050565b6000806000606084860312156100e057600080fd5b6100e9846100af565b92506100f7602085016100af565b9150610105604085016100af565b90509250925092565b6111798061011d6000396000f3fe608060405234801561001057600080fd5b50600436106101a85760003560e01c806372f702f3116100f9578063c8f33c9111610097578063cfad57a211610071578063cfad57a214610362578063d1af0c7d14610375578063df136d651461038d578063ebe2b12b1461039657600080fd5b8063c8f33c911461033e578063cc1a378f14610347578063cd3daf9d1461035a57600080fd5b806380faa57d116100d357806380faa57d146102f05780638980f11f146102f85780638b8763471461030b5780638da5cb5b1461032b57600080fd5b806372f702f3146102c15780637b0a47ee146102d45780637faed202146102dd57600080fd5b8063386a9525116101665780633fc6df6e116101405780633fc6df6e146102725780635c975abb14610285578063632447c91461029b57806370a08231146102ae57600080fd5b8063386a95251461024e5780633c6b16ab146102575780633d18b9121461026a57600080fd5b80628cc262146101ad5780630700037d146101d357806312d43a51146101f357806313af40351461021e5780631980cd35146102335780631c1f78eb14610246575b600080fd5b6101c06101bb366004610f85565b61039f565b6040519081526020015b60405180910390f35b6101c06101e1366004610f85565b600d6020526000908152604090205481565b600054610206906001600160a01b031681565b6040516001600160a01b0390911681526020016101ca565b61023161022c366004610f85565b61048c565b005b600b54610206906001600160a01b031681565b6101c0610538565b6101c060065481565b610231610265366004610fec565b610556565b610231610766565b600954610206906001600160a01b031681565b60025460ff1660405190151581526020016101ca565b6102316102a9366004610f85565b6107fc565b6101c06102bc366004610f85565b610859565b600354610206906001600160a01b031681565b6101c060055481565b6102316102eb366004610f85565b610899565b6101c0610911565b610231610306366004610fa0565b610928565b6101c0610319366004610f85565b600c6020526000908152604090205481565b600a54610206906001600160a01b031681565b6101c060075481565b610231610355366004610fec565b610a13565b6101c0610b0f565b610231610370366004610f85565b610bae565b6002546102069061010090046001600160a01b031681565b6101c060085481565b6101c060045481565b6001600160a01b0381166000908152600d6020908152604080832054600c909252822054610486919061048090670de0b6b3a76400009061047a906103ec906103e6610b0f565b90610c22565b600b54604051634b3ab9c560e01b81526001600160a01b038a81166004830152610474926402540be40092911690634b3ab9c5906024015b60206040518083038186803b15801561043c57600080fd5b505afa158015610450573d6000803e3d6000fd5b505050506040513d601f19601f820116820180604052508101906104749190611005565b90610c35565b90610c41565b90610c4d565b92915050565b6000546001600160a01b031633146104e35760405162461bcd60e51b815260206004820152601560248201527423b7bb32b93730b136329d103337b93134b23232b760591b60448201526064015b60405180910390fd5b600a80546001600160a01b0319166001600160a01b0383169081179091556040519081527f167d3e9c1016ab80e58802ca9da10ce5c6a0f4debc46a2e7a2cd9e56899a4fb5906020015b60405180910390a150565b6000610551600654600554610c3590919063ffffffff16565b905090565b6009546001600160a01b031633146105c35760405162461bcd60e51b815260206004820152602a60248201527f43616c6c6572206973206e6f742052657761726473446973747269627574696f6044820152691b8818dbdb9d1c9858dd60b21b60648201526084016104da565b6105cd60006107fc565b60045442106105ec576006546105e4908290610c41565b60055561062f565b6004546000906105fc9042610c22565b9050600061061560055483610c3590919063ffffffff16565b6006549091506106299061047a8584610c4d565b60055550505b6002546040516370a0823160e01b815230600482015260009161010090046001600160a01b0316906370a082319060240160206040518083038186803b15801561067857600080fd5b505afa15801561068c573d6000803e3d6000fd5b505050506040513d601f19601f820116820180604052508101906106b09190611005565b90506106c760065482610c4190919063ffffffff16565b60055411156107185760405162461bcd60e51b815260206004820152601860248201527f50726f76696465642072657761726420746f6f2068696768000000000000000060448201526064016104da565b42600781905560065461072b9190610c4d565b6004556040518281527fde88a922e0d3b88b24e9623efeb464919c6bf9f66857a65e2bfcf2ce87a9433d906020015b60405180910390a15050565b61076e610c59565b610777336107fc565b336000908152600d602052604090205480156107f057336000818152600d60205260408120556002546107ba916101009091046001600160a01b03169083610cb3565b60405181815233907fe2403640ba68fed3a2f88b7557551d1993f84b99bb10ff833f0cf8db0c5e04869060200160405180910390a25b506107fa60018055565b565b610804610b0f565b60085561080f610911565b6007556001600160a01b038116156108565761082a8161039f565b6001600160a01b0382166000908152600d6020908152604080832093909355600854600c909152919020555b50565b600b54604051634b3ab9c560e01b81526001600160a01b038381166004830152600092610486926402540be4009290911690634b3ab9c590602401610424565b600a546001600160a01b031633146108c35760405162461bcd60e51b81526004016104da9061106d565b600b80546001600160a01b0319166001600160a01b0383169081179091556040519081527f98e18df8156a784a4d0c5d0564fa1e3692b8335e2ff96f255f15c6916d0532a29060200161052d565b60006004544210610923575060045490565b504290565b600a546001600160a01b031633146109525760405162461bcd60e51b81526004016104da9061106d565b6003546001600160a01b03838116911614156109ba5760405162461bcd60e51b815260206004820152602160248201527f43616e6e6f7420776974686472617720746865207374616b696e6720746f6b656044820152603760f91b60648201526084016104da565b600a546109d4906001600160a01b03848116911683610cb3565b604080516001600160a01b0384168152602081018390527f8c1256b8896378cd5044f80c202f9772b9d77dc85c8a6eb51967210b09bfaa28910161075a565b600a546001600160a01b03163314610a3d5760405162461bcd60e51b81526004016104da9061106d565b6004544211610ada5760405162461bcd60e51b815260206004820152605860248201527f50726576696f7573207265776172647320706572696f64206d7573742062652060448201527f636f6d706c657465206265666f7265206368616e67696e67207468652064757260648201527f6174696f6e20666f7220746865206e657720706572696f640000000000000000608482015260a4016104da565b60068190556040518181527ffb46ca5a5e06d4540d6387b930a7c978bce0db5f449ec6b3f5d07c6e1d44f2d39060200161052d565b600080610b696402540be400600b60009054906101000a90046001600160a01b03166001600160a01b0316633f06cd666040518163ffffffff1660e01b815260040160206040518083038186803b15801561043c57600080fd5b905080610b7857505060085490565b610ba8610b9f8261047a670de0b6b3a76400006104746005546104746007546103e6610911565b60085490610c4d565b91505090565b6000546001600160a01b03163314610c005760405162461bcd60e51b815260206004820152601560248201527423b7bb32b93730b136329d103337b93134b23232b760591b60448201526064016104da565b600080546001600160a01b0319166001600160a01b0392909216919091179055565b6000610c2e82846110e6565b9392505050565b6000610c2e82846110c7565b6000610c2e82846110a5565b6000610c2e828461108d565b60026001541415610cac5760405162461bcd60e51b815260206004820152601f60248201527f5265656e7472616e637947756172643a207265656e7472616e742063616c6c0060448201526064016104da565b6002600155565b604080516001600160a01b038416602482015260448082018490528251808303909101815260649091019091526020810180516001600160e01b031663a9059cbb60e01b179052610d05908490610d0a565b505050565b6000610d5f826040518060400160405280602081526020017f5361666545524332303a206c6f772d6c6576656c2063616c6c206661696c6564815250856001600160a01b0316610ddc9092919063ffffffff16565b805190915015610d055780806020019051810190610d7d9190610fca565b610d055760405162461bcd60e51b815260206004820152602a60248201527f5361666545524332303a204552433230206f7065726174696f6e20646964206e6044820152691bdd081cdd58d8d9595960b21b60648201526084016104da565b6060610deb8484600085610df3565b949350505050565b606082471015610e545760405162461bcd60e51b815260206004820152602660248201527f416464726573733a20696e73756666696369656e742062616c616e636520666f6044820152651c8818d85b1b60d21b60648201526084016104da565b600080866001600160a01b03168587604051610e70919061101e565b60006040518083038185875af1925050503d8060008114610ead576040519150601f19603f3d011682016040523d82523d6000602084013e610eb2565b606091505b5091509150610ec387838387610ece565b979650505050505050565b60608315610f3a578251610f33576001600160a01b0385163b610f335760405162461bcd60e51b815260206004820152601d60248201527f416464726573733a2063616c6c20746f206e6f6e2d636f6e747261637400000060448201526064016104da565b5081610deb565b610deb8383815115610f4f5781518083602001fd5b8060405162461bcd60e51b81526004016104da919061103a565b80356001600160a01b0381168114610f8057600080fd5b919050565b600060208284031215610f9757600080fd5b610c2e82610f69565b60008060408385031215610fb357600080fd5b610fbc83610f69565b946020939093013593505050565b600060208284031215610fdc57600080fd5b81518015158114610c2e57600080fd5b600060208284031215610ffe57600080fd5b5035919050565b60006020828403121561101757600080fd5b5051919050565b600082516110308184602087016110fd565b9190910192915050565b60208152600082518060208401526110598160408501602087016110fd565b601f01601f19169190910160400192915050565b60208082526006908201526510b7bbb732b960d11b604082015260600190565b600082198211156110a0576110a061112d565b500190565b6000826110c257634e487b7160e01b600052601260045260246000fd5b500490565b60008160001904831182151516156110e1576110e161112d565b500290565b6000828210156110f8576110f861112d565b500390565b60005b83811015611118578181015183820152602001611100565b83811115611127576000848401525b50505050565b634e487b7160e01b600052601160045260246000fdfea26469706673582212205e68f5c211aca5aaa848efce7933ccdc15da0d75c620ee5d8fc7aadd925781da64736f6c63430008070033",
  "immutableReferences": {},
  "source": "// SPDX-License-Identifier: MIT\npragma solidity ^0.8.0;\n\nimport \"@openzeppelin/contracts/utils/math/SafeMath.sol\";\nimport \"@openzeppelin/contracts/token/ERC20/IERC20.sol\";\nimport \"@openzeppelin/contracts/token/ERC20/utils/SafeERC20.sol\";\nimport \"@openzeppelin/contracts/security/ReentrancyGuard.sol\";\nimport \"@openzeppelin/contracts/security/Pausable.sol\";\nimport \"@openzeppelin/contracts/access/Ownable.sol\";\nimport \"../perp/IPikaPerp.sol\";\nimport \"../access/Governable.sol\";\n\n// PikaPerpV2 vault LPs can claim Pika token reward via this contract\n// adapted from https://github.com/Synthetixio/synthetix/edit/develop/contracts/StakingRewards.sol\ncontract VaultTokenReward is Governable, ReentrancyGuard, Pausable {\n    using SafeMath for uint256;\n    using SafeERC20 for IERC20;\n\n    /* ========== STATE VARIABLES ========== */\n\n    IERC20 public rewardsToken;\n    IERC20 public stakingToken;\n    uint256 public periodFinish = 0;\n    uint256 public rewardRate = 0;\n    uint256 public rewardsDuration = 30 days;\n    uint256 public lastUpdateTime;\n    uint256 public rewardPerTokenStored;\n    address public rewardsDistribution;\n    address public owner;\n    address public pikaPerp;\n\n    mapping(address => uint256) public userRewardPerTokenPaid;\n    mapping(address => uint256) public rewards;\n\n    mapping(address => uint256) private _balances;\n\n    event SetOwner(address owner);\n    event SetPikaPerp(address pikaPerp);\n\n    /* ========== CONSTRUCTOR ========== */\n\n    constructor(\n        address _rewardsDistribution,\n        address _rewardsToken,\n        address _pikaPerp\n    ) public {\n        rewardsDistribution = _rewardsDistribution;\n        rewardsToken = IERC20(_rewardsToken);\n        pikaPerp = _pikaPerp;\n        owner = msg.sender;\n    }\n\n    /* ========== VIEWS ========== */\n\n    function balanceOf(address account) external view returns (uint256) {\n        return IPikaPerp(pikaPerp).getShare(account).mul(1e10);\n    }\n\n    function lastTimeRewardApplicable() public view returns (uint256) {\n        return block.timestamp < periodFinish ? block.timestamp : periodFinish;\n    }\n\n    function rewardPerToken() public view returns (uint256) {\n        uint256 _totalSupply = IPikaPerp(pikaPerp).getTotalShare().mul(1e10);\n        if (_totalSupply == 0) {\n            return rewardPerTokenStored;\n        }\n        return rewardPerTokenStored.add(\n            lastTimeRewardApplicable().sub(lastUpdateTime).mul(rewardRate).mul(1e18).div(_totalSupply)\n        );\n    }\n\n    function earned(address account) public view returns (uint256) {\n        return IPikaPerp(pikaPerp).getShare(account).mul(1e10).mul(rewardPerToken().sub(userRewardPerTokenPaid[account])).div(1e18).add(rewards[account]);\n    }\n\n    function getRewardForDuration() external view returns (uint256) {\n        return rewardRate.mul(rewardsDuration);\n    }\n\n\n    /* ========== MUTATIVE FUNCTIONS ========== */\n\n    function getReward() public nonReentrant {\n        updateReward(msg.sender);\n        uint256 reward = rewards[msg.sender];\n        if (reward > 0) {\n            rewards[msg.sender] = 0;\n            rewardsToken.safeTransfer(msg.sender, reward);\n            emit RewardPaid(msg.sender, reward);\n        }\n    }\n\n    /* ========== RESTRICTED FUNCTIONS ========== */\n\n    function notifyRewardAmount(uint256 reward) external onlyRewardsDistribution {\n        updateReward(address(0));\n        if (block.timestamp >= periodFinish) {\n            rewardRate = reward.div(rewardsDuration);\n        } else {\n            uint256 remaining = periodFinish.sub(block.timestamp);\n            uint256 leftover = remaining.mul(rewardRate);\n            rewardRate = reward.add(leftover).div(rewardsDuration);\n        }\n\n        // Ensure the provided reward amount is not more than the balance in the contract.\n        // This keeps the reward rate in the right range, preventing overflows due to\n        // very high values of rewardRate in the earned and rewardsPerToken functions;\n        // Reward + leftover must be less than 2^256 / 10^18 to avoid overflow.\n        uint balance = rewardsToken.balanceOf(address(this));\n        require(rewardRate <= balance.div(rewardsDuration), \"Provided reward too high\");\n\n        lastUpdateTime = block.timestamp;\n        periodFinish = block.timestamp.add(rewardsDuration);\n        emit RewardAdded(reward);\n    }\n\n    // Added to support recovering LP Rewards from other systems such as BAL to be distributed to holders\n    function recoverERC20(address tokenAddress, uint256 tokenAmount) external onlyOwner {\n        require(tokenAddress != address(stakingToken), \"Cannot withdraw the staking token\");\n        IERC20(tokenAddress).safeTransfer(owner, tokenAmount);\n        emit Recovered(tokenAddress, tokenAmount);\n    }\n\n    function setRewardsDuration(uint256 _rewardsDuration) external onlyOwner {\n        require(\n            block.timestamp > periodFinish,\n            \"Previous rewards period must be complete before changing the duration for the new period\"\n        );\n        rewardsDuration = _rewardsDuration;\n        emit RewardsDurationUpdated(rewardsDuration);\n    }\n\n    function setOwner(address _owner) external onlyGov {\n        owner = _owner;\n        emit SetOwner(_owner);\n    }\n\n    function setPikaPerp(address _pikaPerp) external onlyOwner {\n        pikaPerp = _pikaPerp;\n        emit SetPikaPerp(_pikaPerp);\n    }\n\n    function updateReward(address account) public {\n        rewardPerTokenStored = rewardPerToken();\n        lastUpdateTime = lastTimeRewardApplicable();\n        if (account != address(0)) {\n            rewards[account] = earned(account);\n            userRewardPerTokenPaid[account] = rewardPerTokenStored;\n        }\n    }\n\n    /* ========== MODIFIERS ========== */\n\n    modifier onlyRewardsDistribution() {\n        require(msg.sender == rewardsDistribution, \"Caller is not RewardsDistribution contract\");\n        _;\n    }\n\n    modifier onlyOwner() {\n        require(msg.sender == owner, \"!owner\");\n        _;\n    }\n\n    /* ========== EVENTS ========== */\n\n    event RewardAdded(uint256 reward);\n    event Staked(address indexed user, uint256 amount);\n    event Withdrawn(address indexed user, uint256 amount);\n    event RewardPaid(address indexed user, uint256 reward);\n    event RewardsDurationUpdated(uint256 newDuration);\n    event Recovered(address token, uint256 amount);\n}\n",
  "sourcePath": "/Users/me/workspace/PikaPerpV2/contracts/staking/VaultTokenReward.sol",
  "compiler": {
    "name": "solc",
    "version": "0.8.7+commit.e28d00a7.Emscripten.clang"
  },
  "schemaVersion": "3.4.11",
  "updatedAt": "2023-01-14T09:54:29.094Z",
  "devdoc": {
    "kind": "dev",
    "methods": {
      "paused()": {
        "details": "Returns true if the contract is paused, and false otherwise."
      }
    },
    "version": 1
  },
  "userdoc": {
    "kind": "user",
    "methods": {},
    "version": 1
  }
}