{
  "contractName": "VaultFeeReward",
  "abi": [
    {
      "inputs": [
        {
          "internalType": "address",
          "name": "_pikaPerp",
          "type": "address"
        },
        {
          "internalType": "address",
          "name": "_rewardToken",
          "type": "address"
        },
        {
          "internalType": "uint256",
          "name": "_rewardTokenBase",
          "type": "uint256"
        }
      ],
      "stateMutability": "nonpayable",
      "type": "constructor"
    },
    {
      "anonymous": false,
      "inputs": [
        {
          "indexed": false,
          "internalType": "address",
          "name": "user",
          "type": "address"
        },
        {
          "indexed": false,
          "internalType": "address",
          "name": "rewardToken",
          "type": "address"
        },
        {
          "indexed": false,
          "internalType": "uint256",
          "name": "amount",
          "type": "uint256"
        }
      ],
      "name": "ClaimedReward",
      "type": "event"
    },
    {
      "anonymous": false,
      "inputs": [
        {
          "indexed": false,
          "internalType": "address",
          "name": "account",
          "type": "address"
        }
      ],
      "name": "Paused",
      "type": "event"
    },
    {
      "anonymous": false,
      "inputs": [
        {
          "indexed": false,
          "internalType": "address",
          "name": "user",
          "type": "address"
        },
        {
          "indexed": false,
          "internalType": "address",
          "name": "rewardToken",
          "type": "address"
        },
        {
          "indexed": false,
          "internalType": "uint256",
          "name": "amount",
          "type": "uint256"
        }
      ],
      "name": "Reinvested",
      "type": "event"
    },
    {
      "anonymous": false,
      "inputs": [
        {
          "indexed": false,
          "internalType": "address",
          "name": "owner",
          "type": "address"
        }
      ],
      "name": "SetOwner",
      "type": "event"
    },
    {
      "anonymous": false,
      "inputs": [
        {
          "indexed": false,
          "internalType": "address",
          "name": "pikaPerp",
          "type": "address"
        }
      ],
      "name": "SetPikaPerp",
      "type": "event"
    },
    {
      "anonymous": false,
      "inputs": [
        {
          "indexed": true,
          "internalType": "address",
          "name": "user",
          "type": "address"
        },
        {
          "indexed": false,
          "internalType": "uint256",
          "name": "amount",
          "type": "uint256"
        }
      ],
      "name": "Staked",
      "type": "event"
    },
    {
      "anonymous": false,
      "inputs": [
        {
          "indexed": false,
          "internalType": "address",
          "name": "account",
          "type": "address"
        }
      ],
      "name": "Unpaused",
      "type": "event"
    },
    {
      "anonymous": false,
      "inputs": [
        {
          "indexed": true,
          "internalType": "address",
          "name": "user",
          "type": "address"
        },
        {
          "indexed": false,
          "internalType": "uint256",
          "name": "amount",
          "type": "uint256"
        }
      ],
      "name": "Withdrawn",
      "type": "event"
    },
    {
      "stateMutability": "payable",
      "type": "fallback"
    },
    {
      "inputs": [],
      "name": "BASE",
      "outputs": [
        {
          "internalType": "uint256",
          "name": "",
          "type": "uint256"
        }
      ],
      "stateMutability": "view",
      "type": "function"
    },
    {
      "inputs": [],
      "name": "PRECISION",
      "outputs": [
        {
          "internalType": "uint256",
          "name": "",
          "type": "uint256"
        }
      ],
      "stateMutability": "view",
      "type": "function"
    },
    {
      "inputs": [],
      "name": "cumulativeRewardPerTokenStored",
      "outputs": [
        {
          "internalType": "uint256",
          "name": "",
          "type": "uint256"
        }
      ],
      "stateMutability": "view",
      "type": "function"
    },
    {
      "inputs": [],
      "name": "gov",
      "outputs": [
        {
          "internalType": "address",
          "name": "",
          "type": "address"
        }
      ],
      "stateMutability": "view",
      "type": "function"
    },
    {
      "inputs": [],
      "name": "owner",
      "outputs": [
        {
          "internalType": "address",
          "name": "",
          "type": "address"
        }
      ],
      "stateMutability": "view",
      "type": "function"
    },
    {
      "inputs": [],
      "name": "paused",
      "outputs": [
        {
          "internalType": "bool",
          "name": "",
          "type": "bool"
        }
      ],
      "stateMutability": "view",
      "type": "function"
    },
    {
      "inputs": [],
      "name": "pikaPerp",
      "outputs": [
        {
          "internalType": "address",
          "name": "",
          "type": "address"
        }
      ],
      "stateMutability": "view",
      "type": "function"
    },
    {
      "inputs": [],
      "name": "rewardToken",
      "outputs": [
        {
          "internalType": "address",
          "name": "",
          "type": "address"
        }
      ],
      "stateMutability": "view",
      "type": "function"
    },
    {
      "inputs": [],
      "name": "rewardTokenBase",
      "outputs": [
        {
          "internalType": "uint256",
          "name": "",
          "type": "uint256"
        }
      ],
      "stateMutability": "view",
      "type": "function"
    },
    {
      "inputs": [
        {
          "internalType": "address",
          "name": "_gov",
          "type": "address"
        }
      ],
      "name": "setGov",
      "outputs": [],
      "stateMutability": "nonpayable",
      "type": "function"
    },
    {
      "inputs": [],
      "name": "stakingToken",
      "outputs": [
        {
          "internalType": "address",
          "name": "",
          "type": "address"
        }
      ],
      "stateMutability": "view",
      "type": "function"
    },
    {
      "stateMutability": "payable",
      "type": "receive"
    },
    {
      "inputs": [
        {
          "internalType": "address",
          "name": "_owner",
          "type": "address"
        }
      ],
      "name": "setOwner",
      "outputs": [],
      "stateMutability": "nonpayable",
      "type": "function"
    },
    {
      "inputs": [
        {
          "internalType": "address",
          "name": "_pikaPerp",
          "type": "address"
        }
      ],
      "name": "setPikaPerp",
      "outputs": [],
      "stateMutability": "nonpayable",
      "type": "function"
    },
    {
      "inputs": [
        {
          "internalType": "address",
          "name": "account",
          "type": "address"
        }
      ],
      "name": "updateReward",
      "outputs": [],
      "stateMutability": "nonpayable",
      "type": "function"
    },
    {
      "inputs": [],
      "name": "claimReward",
      "outputs": [
        {
          "internalType": "uint256",
          "name": "rewardToSend",
          "type": "uint256"
        }
      ],
      "stateMutability": "nonpayable",
      "type": "function"
    },
    {
      "inputs": [],
      "name": "reinvest",
      "outputs": [
        {
          "internalType": "uint256",
          "name": "reinvestAmount",
          "type": "uint256"
        }
      ],
      "stateMutability": "nonpayable",
      "type": "function"
    },
    {
      "inputs": [
        {
          "internalType": "address",
          "name": "account",
          "type": "address"
        }
      ],
      "name": "getClaimableReward",
      "outputs": [
        {
          "internalType": "uint256",
          "name": "",
          "type": "uint256"
        }
      ],
      "stateMutability": "view",
      "type": "function"
    }
  ],
  "bytecode": "0x608060405234801561001057600080fd5b506040516113c93803806113c983398101604081905261002f916100ae565b60008054336001600160a01b0319918216811790925560018055600280546001600160a81b031916610100909302929092179091556003805482166001600160a01b039586161790556004805490911692909316919091179091556006556100ea565b80516001600160a01b03811681146100a957600080fd5b919050565b6000806000606084860312156100c357600080fd5b6100cc84610092565b92506100da60208501610092565b9150604084015190509250925092565b6112d0806100f96000396000f3fe6080604052600436106100f65760003560e01c8063835c28401161008f578063cfad57a211610061578063cfad57a214610299578063ec342ad0146102b9578063f7c618c1146102d1578063fa566f59146102f1578063fdb5a03e1461030757005b8063835c28401461022d5780638da5cb5b14610243578063aaf5eb6814610268578063b88a802f1461028457005b80635ff329af116100c85780635ff329af1461019f578063632447c9146101cd57806372f702f3146101ed5780637faed2021461020d57005b806312d43a51146100ff57806313af40351461013c5780631980cd351461015c5780635c975abb1461017c57005b366100fd57005b005b34801561010b57600080fd5b5060005461011f906001600160a01b031681565b6040516001600160a01b0390911681526020015b60405180910390f35b34801561014857600080fd5b506100fd61015736600461112a565b61031c565b34801561016857600080fd5b5060035461011f906001600160a01b031681565b34801561018857600080fd5b5060025460ff166040519015158152602001610133565b3480156101ab57600080fd5b506101bf6101ba36600461112a565b6103d0565b604051908152602001610133565b3480156101d957600080fd5b506100fd6101e836600461112a565b6105fe565b3480156101f957600080fd5b5060055461011f906001600160a01b031681565b34801561021957600080fd5b506100fd61022836600461112a565b610870565b34801561023957600080fd5b506101bf60075481565b34801561024f57600080fd5b5060025461011f9061010090046001600160a01b031681565b34801561027457600080fd5b506101bf670de0b6b3a764000081565b34801561029057600080fd5b506101bf610906565b3480156102a557600080fd5b506100fd6102b436600461112a565b610987565b3480156102c557600080fd5b506101bf6305f5e10081565b3480156102dd57600080fd5b5060045461011f906001600160a01b031681565b3480156102fd57600080fd5b506101bf60065481565b34801561031357600080fd5b506101bf6109fb565b6000546001600160a01b031633146103735760405162461bcd60e51b815260206004820152601560248201527423b7bb32b93730b136329d103337b93134b23232b760591b60448201526064015b60405180910390fd5b60028054610100600160a81b0319166101006001600160a01b038416908102919091179091556040519081527f167d3e9c1016ab80e58802ca9da10ce5c6a0f4debc46a2e7a2cd9e56899a4fb5906020015b60405180910390a150565b6001600160a01b038082166000908152600860209081526040808320546003548251631f8366b360e11b815292519495919486949190921692633f06cd669260048083019392829003018186803b15801561042a57600080fd5b505afa15801561043e573d6000803e3d6000fd5b505050506040513d601f19601f82011682018060405250810190610462919061117c565b905080610470575092915050565b60035460408051633ee1976360e01b815290516000926001600160a01b031691633ee19763916004808301926020929190829003018186803b1580156104b557600080fd5b505afa1580156104c9573d6000803e3d6000fd5b505050506040513d601f19601f820116820180604052508101906104ed919061117c565b9050600082610504670de0b6b3a76400008461121e565b61050e91906111fc565b60075461051b91906111e4565b90508061052c575091949350505050565b6001600160a01b038616600090815260096020526040902054670de0b6b3a764000090610559908361123d565b600354604051634b3ab9c560e01b81526001600160a01b038a8116600483015290911690634b3ab9c59060240160206040518083038186803b15801561059e57600080fd5b505afa1580156105b2573d6000803e3d6000fd5b505050506040513d601f19601f820116820180604052508101906105d6919061117c565b6105e0919061121e565b6105ea91906111fc565b6105f490856111e4565b9695505050505050565b6001600160a01b03811661060f5750565b6003546040805163fbb48bc160e01b815290516000926001600160a01b03169163fbb48bc191600480830192602092919082900301818787803b15801561065557600080fd5b505af1158015610669573d6000803e3d6000fd5b505050506040513d601f19601f8201168201806040525081019061068d919061117c565b90506000600360009054906101000a90046001600160a01b03166001600160a01b0316633f06cd666040518163ffffffff1660e01b815260040160206040518083038186803b1580156106df57600080fd5b505afa1580156106f3573d6000803e3d6000fd5b505050506040513d601f19601f82011682018060405250810190610717919061117c565b905080156107535780610732670de0b6b3a76400008461121e565b61073c91906111fc565b6007600082825461074d91906111e4565b90915550505b60075461075f57505050565b6001600160a01b038316600090815260096020526040902054600754670de0b6b3a76400009161078e9161123d565b600354604051634b3ab9c560e01b81526001600160a01b03878116600483015290911690634b3ab9c59060240160206040518083038186803b1580156107d357600080fd5b505afa1580156107e7573d6000803e3d6000fd5b505050506040513d601f19601f8201168201806040525081019061080b919061117c565b610815919061121e565b61081f91906111fc565b6001600160a01b038416600090815260086020526040812080549091906108479084906111e4565b90915550506007546001600160a01b039093166000908152600960205260409020929092555050565b60025461010090046001600160a01b031633146108b85760405162461bcd60e51b815260206004820152600660248201526510b7bbb732b960d11b604482015260640161036a565b600380546001600160a01b0319166001600160a01b0383169081179091556040519081527f98e18df8156a784a4d0c5d0564fa1e3692b8335e2ff96f255f15c6916d0532a2906020016103c5565b6000610911336105fe565b5033600090815260086020526040812080549190558015610984576109363382610bcb565b600454604080513381526001600160a01b03909216602083015281018290527faee3654837b73cc93e61b5d33f82d45b1df4dbe682913819f5ce40de23518e72906060015b60405180910390a15b90565b6000546001600160a01b031633146109d95760405162461bcd60e51b815260206004820152601560248201527423b7bb32b93730b136329d103337b93134b23232b760591b604482015260640161036a565b600080546001600160a01b0319166001600160a01b0392909216919091179055565b6000610a06336105fe565b5033600090815260086020526040812080549190558015610984576004546001600160a01b0316610abf576003546006546001600160a01b0390911690637acb7757908390610a596305f5e1008361121e565b610a6391906111fc565b6040516001600160e01b031960e085901b16815260048101919091523360248201526044016000604051808303818588803b158015610aa157600080fd5b505af1158015610ab5573d6000803e3d6000fd5b5050505050610b82565b600354600454610add916001600160a01b0391821691166000610c26565b600354600454610afa916001600160a01b03918216911683610c26565b6003546006546001600160a01b0390911690637acb775790610b206305f5e1008561121e565b610b2a91906111fc565b6040516001600160e01b031960e084901b1681526004810191909152336024820152604401600060405180830381600087803b158015610b6957600080fd5b505af1158015610b7d573d6000803e3d6000fd5b505050505b600454604080513381526001600160a01b03909216602083015281018290527f4844dc45b2b459bf9204daea29cb44b94bae90f243b1b8f3959c4d74b06344e49060600161097b565b801580610bdf57506001600160a01b038216155b15610be8575050565b6004546001600160a01b0316610c0f57610c0b6001600160a01b03831682610d82565b5050565b600454610c0b906001600160a01b03168383610e9b565b801580610caf5750604051636eb1769f60e11b81523060048201526001600160a01b03838116602483015284169063dd62ed3e9060440160206040518083038186803b158015610c7557600080fd5b505afa158015610c89573d6000803e3d6000fd5b505050506040513d601f19601f82011682018060405250810190610cad919061117c565b155b610d1a5760405162461bcd60e51b815260206004820152603660248201527f5361666545524332303a20617070726f76652066726f6d206e6f6e2d7a65726f60448201527520746f206e6f6e2d7a65726f20616c6c6f77616e636560501b606482015260840161036a565b6040516001600160a01b038316602482015260448101829052610d7d90849063095ea7b360e01b906064015b60408051601f198184030181529190526020810180516001600160e01b03166001600160e01b031990931692909217909152610ecb565b505050565b80471015610dd25760405162461bcd60e51b815260206004820152601d60248201527f416464726573733a20696e73756666696369656e742062616c616e6365000000604482015260640161036a565b6000826001600160a01b03168260405160006040518083038185875af1925050503d8060008114610e1f576040519150601f19603f3d011682016040523d82523d6000602084013e610e24565b606091505b5050905080610d7d5760405162461bcd60e51b815260206004820152603a60248201527f416464726573733a20756e61626c6520746f2073656e642076616c75652c207260448201527f6563697069656e74206d61792068617665207265766572746564000000000000606482015260840161036a565b6040516001600160a01b038316602482015260448101829052610d7d90849063a9059cbb60e01b90606401610d46565b6000610f20826040518060400160405280602081526020017f5361666545524332303a206c6f772d6c6576656c2063616c6c206661696c6564815250856001600160a01b0316610f9d9092919063ffffffff16565b805190915015610d7d5780806020019051810190610f3e919061115a565b610d7d5760405162461bcd60e51b815260206004820152602a60248201527f5361666545524332303a204552433230206f7065726174696f6e20646964206e6044820152691bdd081cdd58d8d9595960b21b606482015260840161036a565b6060610fac8484600085610fb4565b949350505050565b6060824710156110155760405162461bcd60e51b815260206004820152602660248201527f416464726573733a20696e73756666696369656e742062616c616e636520666f6044820152651c8818d85b1b60d21b606482015260840161036a565b600080866001600160a01b031685876040516110319190611195565b60006040518083038185875af1925050503d806000811461106e576040519150601f19603f3d011682016040523d82523d6000602084013e611073565b606091505b50915091506110848783838761108f565b979650505050505050565b606083156110fb5782516110f4576001600160a01b0385163b6110f45760405162461bcd60e51b815260206004820152601d60248201527f416464726573733a2063616c6c20746f206e6f6e2d636f6e7472616374000000604482015260640161036a565b5081610fac565b610fac83838151156111105781518083602001fd5b8060405162461bcd60e51b815260040161036a91906111b1565b60006020828403121561113c57600080fd5b81356001600160a01b038116811461115357600080fd5b9392505050565b60006020828403121561116c57600080fd5b8151801515811461115357600080fd5b60006020828403121561118e57600080fd5b5051919050565b600082516111a7818460208701611254565b9190910192915050565b60208152600082518060208401526111d0816040850160208701611254565b601f01601f19169190910160400192915050565b600082198211156111f7576111f7611284565b500190565b60008261121957634e487b7160e01b600052601260045260246000fd5b500490565b600081600019048311821515161561123857611238611284565b500290565b60008282101561124f5761124f611284565b500390565b60005b8381101561126f578181015183820152602001611257565b8381111561127e576000848401525b50505050565b634e487b7160e01b600052601160045260246000fdfea2646970667358221220dcf624444bf6460bab7be84bcc5ece04ffe1ff6928908f82e7f16801dd5d5ff964736f6c63430008070033",
  "immutableReferences": {},
  "source": "// SPDX-License-Identifier: MIT\npragma solidity ^0.8.0;\n\nimport \"@openzeppelin/contracts/token/ERC20/IERC20.sol\";\nimport \"@openzeppelin/contracts/token/ERC20/utils/SafeERC20.sol\";\nimport \"@openzeppelin/contracts/utils/Address.sol\";\nimport \"@openzeppelin/contracts/security/Pausable.sol\";\nimport \"@openzeppelin/contracts/security/ReentrancyGuard.sol\";\nimport \"../perp/IPikaPerp.sol\";\nimport \"../access/Governable.sol\";\n\n/** @title VePika\n    @notice PikaPerp vault LPs can claim part of platform fee via this contract\n    adapted from https://github.com/Synthetixio/synthetix/edit/develop/contracts/StakingRewards.sol\n */\ncontract VaultFeeReward is Governable, ReentrancyGuard, Pausable {\n\n    using SafeERC20 for IERC20;\n    using Address for address payable;\n\n    address public owner;\n    address public pikaPerp;\n    address public rewardToken;\n    address public stakingToken;\n    uint256 public rewardTokenBase;\n\n    uint256 public cumulativeRewardPerTokenStored;\n\n    mapping(address => uint256) private claimableReward;\n    mapping(address => uint256) private previousRewardPerToken;\n\n    uint256 public constant PRECISION = 10**18;\n    uint256 public constant BASE = 10**8;\n\n    event SetOwner(address owner);\n    event SetPikaPerp(address pikaPerp);\n    event ClaimedReward(\n        address user,\n        address rewardToken,\n        uint256 amount\n    );\n    event Reinvested(\n        address user,\n        address rewardToken,\n        uint256 amount\n    );\n    event Staked(address indexed user, uint256 amount);\n    event Withdrawn(address indexed user, uint256 amount);\n\n    constructor(address _pikaPerp, address _rewardToken, uint256 _rewardTokenBase) {\n        owner = msg.sender;\n        pikaPerp = _pikaPerp;\n        rewardToken = _rewardToken;\n        rewardTokenBase = _rewardTokenBase;\n    }\n\n    // Governance methods\n\n    function setOwner(address _owner) external onlyGov {\n        owner = _owner;\n        emit SetOwner(_owner);\n    }\n\n    function setPikaPerp(address _pikaPerp) external onlyOwner {\n        pikaPerp = _pikaPerp;\n        emit SetPikaPerp(_pikaPerp);\n    }\n\n    // Methods\n\n    function updateReward(address account) public {\n        if (account == address(0)) return;\n        uint256 vaultReward = IPikaPerp(pikaPerp).distributeVaultReward();\n        uint256 supply = IPikaPerp(pikaPerp).getTotalShare();\n        if (supply > 0) {\n            cumulativeRewardPerTokenStored += vaultReward * PRECISION / supply;\n        }\n        if (cumulativeRewardPerTokenStored == 0) return;\n\n        claimableReward[account] += IPikaPerp(pikaPerp).getShare(account) * (cumulativeRewardPerTokenStored - previousRewardPerToken[account]) / PRECISION;\n        previousRewardPerToken[account] = cumulativeRewardPerTokenStored;\n    }\n\n    function claimReward() public returns(uint256 rewardToSend) {\n        updateReward(msg.sender);\n        rewardToSend = claimableReward[msg.sender];\n        claimableReward[msg.sender] = 0;\n\n        if (rewardToSend > 0) {\n            _transferOut(msg.sender, rewardToSend);\n            emit ClaimedReward(\n                msg.sender,\n                rewardToken,\n                rewardToSend\n            );\n        }\n    }\n\n    function reinvest() external returns (uint256 reinvestAmount){\n        updateReward(msg.sender);\n        reinvestAmount = claimableReward[msg.sender];\n        claimableReward[msg.sender] = 0;\n        if (reinvestAmount > 0) {\n            if (rewardToken == address(0)) {\n                IPikaPerp(pikaPerp).stake{value: reinvestAmount}(reinvestAmount * BASE / rewardTokenBase, msg.sender);\n            } else {\n                IERC20(rewardToken).safeApprove(pikaPerp, 0);\n                IERC20(rewardToken).safeApprove(pikaPerp, reinvestAmount);\n                IPikaPerp(pikaPerp).stake(reinvestAmount * BASE / rewardTokenBase, msg.sender);\n            }\n\n            emit Reinvested(\n                msg.sender,\n                rewardToken,\n                reinvestAmount\n            );\n        }\n    }\n\n    function getClaimableReward(address account) external view returns(uint256) {\n        uint256 currentClaimableReward = claimableReward[account];\n        uint256 supply = IPikaPerp(pikaPerp).getTotalShare();\n        if (supply == 0) return currentClaimableReward;\n\n        uint256 _pendingReward = IPikaPerp(pikaPerp).getPendingVaultReward();\n        uint256 _rewardPerTokenStored = cumulativeRewardPerTokenStored + _pendingReward * PRECISION / supply;\n        if (_rewardPerTokenStored == 0) return currentClaimableReward;\n\n        return currentClaimableReward + IPikaPerp(pikaPerp).getShare(account) * (_rewardPerTokenStored - previousRewardPerToken[account]) / PRECISION;\n    }\n\n    fallback() external payable {}\n    receive() external payable {}\n\n    // Utils\n\n    function _transferOut(address to, uint256 amount) internal {\n        if (amount == 0 || to == address(0)) return;\n        if (rewardToken == address(0)) {\n            payable(to).sendValue(amount);\n        } else {\n            IERC20(rewardToken).safeTransfer(to, amount);\n        }\n    }\n\n    modifier onlyOwner() {\n        require(msg.sender == owner, \"!owner\");\n        _;\n    }\n}\n",
  "sourcePath": "/Users/me/workspace/PikaPerpV2/contracts/staking/VaultFeeReward.sol",
  "compiler": {
    "name": "solc",
    "version": "0.8.7+commit.e28d00a7.Emscripten.clang"
  },
  "schemaVersion": "3.4.11",
  "updatedAt": "2023-01-14T09:54:29.090Z",
  "devdoc": {
    "kind": "dev",
    "methods": {
      "paused()": {
        "details": "Returns true if the contract is paused, and false otherwise."
      }
    },
    "title": "VePika",
    "version": 1
  },
  "userdoc": {
    "kind": "user",
    "methods": {},
    "notice": "PikaPerp vault LPs can claim part of platform fee via this contract adapted from https://github.com/Synthetixio/synthetix/edit/develop/contracts/StakingRewards.sol",
    "version": 1
  }
}