{
  "contractName": "VePikaTokenReward",
  "abi": [
    {
      "inputs": [
        {
          "internalType": "address",
          "name": "veToken_",
          "type": "address"
        },
        {
          "internalType": "address",
          "name": "rewardToken_",
          "type": "address"
        },
        {
          "internalType": "address",
          "name": "pikaMine_",
          "type": "address"
        }
      ],
      "stateMutability": "nonpayable",
      "type": "constructor"
    },
    {
      "anonymous": false,
      "inputs": [
        {
          "indexed": false,
          "internalType": "uint256",
          "name": "reward",
          "type": "uint256"
        }
      ],
      "name": "RewardAdded",
      "type": "event"
    },
    {
      "anonymous": false,
      "inputs": [
        {
          "indexed": false,
          "internalType": "uint256",
          "name": "newDuration",
          "type": "uint256"
        }
      ],
      "name": "RewardDurationUpdated",
      "type": "event"
    },
    {
      "anonymous": false,
      "inputs": [
        {
          "indexed": true,
          "internalType": "address",
          "name": "user",
          "type": "address"
        },
        {
          "indexed": false,
          "internalType": "uint256",
          "name": "reward",
          "type": "uint256"
        }
      ],
      "name": "RewardPaid",
      "type": "event"
    },
    {
      "anonymous": false,
      "inputs": [
        {
          "indexed": false,
          "internalType": "address",
          "name": "admin",
          "type": "address"
        }
      ],
      "name": "UpdatedAdmin",
      "type": "event"
    },
    {
      "inputs": [],
      "name": "admin",
      "outputs": [
        {
          "internalType": "address",
          "name": "",
          "type": "address"
        }
      ],
      "stateMutability": "view",
      "type": "function"
    },
    {
      "inputs": [],
      "name": "currentRewards",
      "outputs": [
        {
          "internalType": "uint256",
          "name": "",
          "type": "uint256"
        }
      ],
      "stateMutability": "view",
      "type": "function"
    },
    {
      "inputs": [],
      "name": "duration",
      "outputs": [
        {
          "internalType": "uint256",
          "name": "",
          "type": "uint256"
        }
      ],
      "stateMutability": "view",
      "type": "function"
    },
    {
      "inputs": [],
      "name": "gov",
      "outputs": [
        {
          "internalType": "address",
          "name": "",
          "type": "address"
        }
      ],
      "stateMutability": "view",
      "type": "function"
    },
    {
      "inputs": [],
      "name": "historicalRewards",
      "outputs": [
        {
          "internalType": "uint256",
          "name": "",
          "type": "uint256"
        }
      ],
      "stateMutability": "view",
      "type": "function"
    },
    {
      "inputs": [],
      "name": "lastUpdateTime",
      "outputs": [
        {
          "internalType": "uint256",
          "name": "",
          "type": "uint256"
        }
      ],
      "stateMutability": "view",
      "type": "function"
    },
    {
      "inputs": [],
      "name": "periodFinish",
      "outputs": [
        {
          "internalType": "uint256",
          "name": "",
          "type": "uint256"
        }
      ],
      "stateMutability": "view",
      "type": "function"
    },
    {
      "inputs": [],
      "name": "pikaMine",
      "outputs": [
        {
          "internalType": "contract PikaMine",
          "name": "",
          "type": "address"
        }
      ],
      "stateMutability": "view",
      "type": "function"
    },
    {
      "inputs": [],
      "name": "rewardPerTokenStored",
      "outputs": [
        {
          "internalType": "uint256",
          "name": "",
          "type": "uint256"
        }
      ],
      "stateMutability": "view",
      "type": "function"
    },
    {
      "inputs": [],
      "name": "rewardRate",
      "outputs": [
        {
          "internalType": "uint256",
          "name": "",
          "type": "uint256"
        }
      ],
      "stateMutability": "view",
      "type": "function"
    },
    {
      "inputs": [],
      "name": "rewardToken",
      "outputs": [
        {
          "internalType": "contract IERC20",
          "name": "",
          "type": "address"
        }
      ],
      "stateMutability": "view",
      "type": "function"
    },
    {
      "inputs": [
        {
          "internalType": "address",
          "name": "",
          "type": "address"
        }
      ],
      "name": "rewards",
      "outputs": [
        {
          "internalType": "uint256",
          "name": "",
          "type": "uint256"
        }
      ],
      "stateMutability": "view",
      "type": "function"
    },
    {
      "inputs": [
        {
          "internalType": "address",
          "name": "_gov",
          "type": "address"
        }
      ],
      "name": "setGov",
      "outputs": [],
      "stateMutability": "nonpayable",
      "type": "function"
    },
    {
      "inputs": [
        {
          "internalType": "address",
          "name": "",
          "type": "address"
        }
      ],
      "name": "userRewardPerTokenPaid",
      "outputs": [
        {
          "internalType": "uint256",
          "name": "",
          "type": "uint256"
        }
      ],
      "stateMutability": "view",
      "type": "function"
    },
    {
      "inputs": [],
      "name": "veToken",
      "outputs": [
        {
          "internalType": "contract IERC20",
          "name": "",
          "type": "address"
        }
      ],
      "stateMutability": "view",
      "type": "function"
    },
    {
      "inputs": [],
      "name": "lastTimeRewardApplicable",
      "outputs": [
        {
          "internalType": "uint256",
          "name": "",
          "type": "uint256"
        }
      ],
      "stateMutability": "view",
      "type": "function"
    },
    {
      "inputs": [],
      "name": "rewardPerToken",
      "outputs": [
        {
          "internalType": "uint256",
          "name": "",
          "type": "uint256"
        }
      ],
      "stateMutability": "view",
      "type": "function"
    },
    {
      "inputs": [
        {
          "internalType": "address",
          "name": "account",
          "type": "address"
        }
      ],
      "name": "earned",
      "outputs": [
        {
          "internalType": "uint256",
          "name": "",
          "type": "uint256"
        }
      ],
      "stateMutability": "view",
      "type": "function"
    },
    {
      "inputs": [
        {
          "internalType": "address",
          "name": "_account",
          "type": "address"
        }
      ],
      "name": "updateReward",
      "outputs": [
        {
          "internalType": "bool",
          "name": "",
          "type": "bool"
        }
      ],
      "stateMutability": "nonpayable",
      "type": "function"
    },
    {
      "inputs": [],
      "name": "getReward",
      "outputs": [],
      "stateMutability": "nonpayable",
      "type": "function"
    },
    {
      "inputs": [
        {
          "internalType": "uint256",
          "name": "_amount",
          "type": "uint256"
        }
      ],
      "name": "queueNewRewards",
      "outputs": [
        {
          "internalType": "bool",
          "name": "",
          "type": "bool"
        }
      ],
      "stateMutability": "nonpayable",
      "type": "function"
    },
    {
      "inputs": [
        {
          "internalType": "uint256",
          "name": "_duration",
          "type": "uint256"
        }
      ],
      "name": "setDuration",
      "outputs": [],
      "stateMutability": "nonpayable",
      "type": "function"
    },
    {
      "inputs": [
        {
          "internalType": "address",
          "name": "_admin",
          "type": "address"
        }
      ],
      "name": "setAdmin",
      "outputs": [
        {
          "internalType": "bool",
          "name": "",
          "type": "bool"
        }
      ],
      "stateMutability": "nonpayable",
      "type": "function"
    },
    {
      "inputs": [
        {
          "internalType": "address",
          "name": "_token",
          "type": "address"
        }
      ],
      "name": "sweep",
      "outputs": [
        {
          "internalType": "bool",
          "name": "",
          "type": "bool"
        }
      ],
      "stateMutability": "nonpayable",
      "type": "function"
    }
  ],
  "bytecode": "0x608060405262278d00600555600060065560006007556000600a556000600b5534801561002b57600080fd5b5060405161124138038061124183398101604081905261004a916100c6565b60008054336001600160a01b03199182168117909255600180556003805482166001600160a01b03968716179055600280548216948616949094179093556004805484169290941691909117909255600c80549091169091179055610109565b80516001600160a01b03811681146100c157600080fd5b919050565b6000806000606084860312156100db57600080fd5b6100e4846100aa565b92506100f2602085016100aa565b9150610100604085016100aa565b90509250925092565b611129806101186000396000f3fe608060405234801561001057600080fd5b50600436106101575760003560e01c806380faa57d116100c3578063cfad57a21161007c578063cfad57a2146102b6578063df136d65146102c9578063ebe2b12b146102d2578063f6be71d1146102db578063f7c618c1146102ee578063f851a4401461030157600080fd5b806380faa57d146102615780638b87634714610269578063901a7d5314610289578063bfd4cfbe14610292578063c8f33c91146102a5578063cd3daf9d146102ae57600080fd5b80633b92eb23116101155780633b92eb23146102025780633d18b91214610215578063590a41f51461021f578063632447c914610232578063704b6c02146102455780637b0a47ee1461025857600080fd5b80628cc2621461015c57806301681a62146101825780630700037d146101a55780630fb5a6b4146101c557806312d43a51146101ce578063262d3d6d146101f9575b600080fd5b61016f61016a366004610f50565b610314565b6040519081526020015b60405180910390f35b610195610190366004610f50565b610325565b6040519015158152602001610179565b61016f6101b3366004610f50565b600e6020526000908152604090205481565b61016f60055481565b6000546101e1906001600160a01b031681565b6040516001600160a01b039091168152602001610179565b61016f600b5481565b6003546101e1906001600160a01b031681565b61021d6104b9565b005b61019561022d366004610f9b565b6104d5565b610195610240366004610f50565b610556565b610195610253366004610f50565b6105e6565b61016f60075481565b61016f6106d4565b61016f610277366004610f50565b600d6020526000908152604090205481565b61016f600a5481565b6004546101e1906001600160a01b031681565b61016f60085481565b61016f6106e7565b61021d6102c4366004610f50565b6107d1565b61016f60095481565b61016f60065481565b61021d6102e9366004610f9b565b610845565b6002546101e1906001600160a01b031681565b600c546101e1906001600160a01b031681565b600061031f826108ef565b92915050565b600c546000906001600160a01b0316331461035b5760405162461bcd60e51b81526004016103529061101c565b60405180910390fd5b6002546001600160a01b0383811691161415806103ed57506004805460408051638380edb760e01b815290516001600160a01b0390921692638380edb7928282019260209290829003018186803b1580156103b557600080fd5b505afa1580156103c9573d6000803e3d6000fd5b505050506040513d601f19601f820116820180604052508101906103ed9190610f79565b6104285760405162461bcd60e51b815260206004820152600c60248201526b10b932bbb0b9322a37b5b2b760a11b6044820152606401610352565b600c546040516370a0823160e01b81523060048201526104b19184916001600160a01b03918216918316906370a082319060240160206040518083038186803b15801561047457600080fd5b505afa158015610488573d6000803e3d6000fd5b505050506040513d601f19601f820116820180604052508101906104ac9190610fb4565b6109ca565b506001919050565b6104c1610a32565b6104ca33610a8c565b6104d360018055565b565b600c546000906001600160a01b031633146105025760405162461bcd60e51b81526004016103529061101c565b816105355760405162461bcd60e51b815260206004820152600360248201526203d3d360ec1b6044820152606401610352565b60025461054d906001600160a01b0316333085610b7b565b6104b182610bb9565b6000816105616106e7565b60095561056c6106d4565b6008556001600160a01b038116156105b357610587816108ef565b6001600160a01b0382166000908152600e6020908152604080832093909355600954600d909152919020555b6004546001600160a01b031633146105dd5760405162461bcd60e51b81526004016103529061101c565b50600192915050565b600080546001600160a01b031633146106395760405162461bcd60e51b815260206004820152601560248201527423b7bb32b93730b136329d103337b93134b23232b760591b6044820152606401610352565b6001600160a01b03821661067b5760405162461bcd60e51b815260206004820152600960248201526830206164647265737360b81b6044820152606401610352565b600c80546001600160a01b0319166001600160a01b0384169081179091556040519081527ffce52dd00c7849a7f2602c1f189745238d6a2db16fabf54376ce24cc2fa3d57f9060200160405180910390a1506001919050565b60006106e242600654610cd9565b905090565b600080600360009054906101000a90046001600160a01b03166001600160a01b03166318160ddd6040518163ffffffff1660e01b815260040160206040518083038186803b15801561073857600080fd5b505afa15801561074c573d6000803e3d6000fd5b505050506040513d601f19601f820116820180604052508101906107709190610fb4565b90508061077f57505060095490565b8060075460085461078e6106d4565b610798919061109a565b6107a2919061107b565b6107b490670de0b6b3a764000061107b565b6107be9190611059565b6009546107cb9190611041565b91505090565b6000546001600160a01b031633146108235760405162461bcd60e51b815260206004820152601560248201527423b7bb32b93730b136329d103337b93134b23232b760591b6044820152606401610352565b600080546001600160a01b0319166001600160a01b0392909216919091179055565b600c546001600160a01b0316331461086f5760405162461bcd60e51b81526004016103529061101c565b6006544210156108b45760405162461bcd60e51b815260206004820152601060248201526f139bdd08199a5b9a5cda1959081e595d60821b6044820152606401610352565b60058190556040518181527ffeece2f615b2fecca6c26deadea49416a6ba6b52b2cd2613065fd6a787cf12409060200160405180910390a150565b6001600160a01b0381166000908152600e6020908152604080832054600d909252822054670de0b6b3a7640000906109256106e7565b61092f919061109a565b6003546040516370a0823160e01b81526001600160a01b038781166004830152909116906370a082319060240160206040518083038186803b15801561097457600080fd5b505afa158015610988573d6000803e3d6000fd5b505050506040513d601f19601f820116820180604052508101906109ac9190610fb4565b6109b6919061107b565b6109c09190611059565b61031f9190611041565b6040516001600160a01b038316602482015260448101829052610a2d90849063a9059cbb60e01b906064015b60408051601f198184030181529190526020810180516001600160e01b03166001600160e01b031990931692909217909152610cf1565b505050565b60026001541415610a855760405162461bcd60e51b815260206004820152601f60248201527f5265656e7472616e637947756172643a207265656e7472616e742063616c6c006044820152606401610352565b6002600155565b80610a956106e7565b600955610aa06106d4565b6008556001600160a01b03811615610ae757610abb816108ef565b6001600160a01b0382166000908152600e6020908152604080832093909355600954600d909152919020555b6001600160a01b0382166000908152600e602052604090205480610b0a57505050565b6001600160a01b038084166000908152600e6020526040812055600254610b33911684836109ca565b826001600160a01b03167fe2403640ba68fed3a2f88b7557551d1993f84b99bb10ff833f0cf8db0c5e048682604051610b6e91815260200190565b60405180910390a2505050565b6040516001600160a01b0380851660248301528316604482015260648101829052610bb39085906323b872dd60e01b906084016109f6565b50505050565b6000610bc36106e7565b600955610bce6106d4565b6008556001600160a01b03811615610c1557610be9816108ef565b6001600160a01b0382166000908152600e6020908152604080832093909355600954600d909152919020555b81600b54610c239190611041565b600b556006544210610c4457600554610c3c9083611059565b600755610c88565b600042600654610c54919061109a565b9050600060075482610c66919061107b565b9050610c728185611041565b935060055484610c829190611059565b60075550505b600a829055426008819055600554610c9f91611041565b6006556040518281527fde88a922e0d3b88b24e9623efeb464919c6bf9f66857a65e2bfcf2ce87a9433d9060200160405180910390a15050565b6000818310610ce85781610cea565b825b9392505050565b6000610d46826040518060400160405280602081526020017f5361666545524332303a206c6f772d6c6576656c2063616c6c206661696c6564815250856001600160a01b0316610dc39092919063ffffffff16565b805190915015610a2d5780806020019051810190610d649190610f79565b610a2d5760405162461bcd60e51b815260206004820152602a60248201527f5361666545524332303a204552433230206f7065726174696f6e20646964206e6044820152691bdd081cdd58d8d9595960b21b6064820152608401610352565b6060610dd28484600085610dda565b949350505050565b606082471015610e3b5760405162461bcd60e51b815260206004820152602660248201527f416464726573733a20696e73756666696369656e742062616c616e636520666f6044820152651c8818d85b1b60d21b6064820152608401610352565b600080866001600160a01b03168587604051610e579190610fcd565b60006040518083038185875af1925050503d8060008114610e94576040519150601f19603f3d011682016040523d82523d6000602084013e610e99565b606091505b5091509150610eaa87838387610eb5565b979650505050505050565b60608315610f21578251610f1a576001600160a01b0385163b610f1a5760405162461bcd60e51b815260206004820152601d60248201527f416464726573733a2063616c6c20746f206e6f6e2d636f6e74726163740000006044820152606401610352565b5081610dd2565b610dd28383815115610f365781518083602001fd5b8060405162461bcd60e51b81526004016103529190610fe9565b600060208284031215610f6257600080fd5b81356001600160a01b0381168114610cea57600080fd5b600060208284031215610f8b57600080fd5b81518015158114610cea57600080fd5b600060208284031215610fad57600080fd5b5035919050565b600060208284031215610fc657600080fd5b5051919050565b60008251610fdf8184602087016110b1565b9190910192915050565b60208152600082518060208401526110088160408501602087016110b1565b601f01601f19169190910160400192915050565b6020808252600b908201526a08585d5d1a1bdc9a5e995960aa1b604082015260600190565b60008219821115611054576110546110dd565b500190565b60008261107657634e487b7160e01b600052601260045260246000fd5b500490565b6000816000190483118215151615611095576110956110dd565b500290565b6000828210156110ac576110ac6110dd565b500390565b60005b838110156110cc5781810151838201526020016110b4565b83811115610bb35750506000910152565b634e487b7160e01b600052601160045260246000fdfea2646970667358221220b0573744cef053f9ac7ac11eda984f66339d4a3e19105b140f7ab5c88deea3db64736f6c63430008070033",
  "immutableReferences": {},
  "source": "// SPDX-License-Identifier: MIT\npragma solidity ^0.8.0;\n\nimport \"@openzeppelin/contracts/token/ERC20/IERC20.sol\";\nimport \"@openzeppelin/contracts/token/ERC20/utils/SafeERC20.sol\";\nimport \"@openzeppelin/contracts/utils/math/Math.sol\";\nimport \"@openzeppelin/contracts/security/ReentrancyGuard.sol\";\nimport '../staking/PikaMine.sol';\nimport \"../access/Governable.sol\";\n\n/** @title VePikaTokenReward\n    @notice Contract to distribute token rewards for vePIKA holders. Adapted from: https://github.com/ribbon-finance/governance/blob/main/contracts/rbn-staking/VeRBNRewards.sol\n */\n\ncontract VePikaTokenReward is Governable, ReentrancyGuard {\n    using SafeERC20 for IERC20;\n\n    IERC20 public rewardToken; // immutable are breaking coverage software should be added back after.\n    IERC20 public veToken; // immutable\n    PikaMine public pikaMine;\n    uint256 public duration = 30 days;\n    uint256 public periodFinish = 0;\n    uint256 public rewardRate = 0;\n    uint256 public lastUpdateTime;\n    uint256 public rewardPerTokenStored;\n    uint256 public currentRewards = 0;\n    uint256 public historicalRewards = 0;\n    address public admin;\n    mapping(address => uint256) public userRewardPerTokenPaid;\n    mapping(address => uint256) public rewards;\n\n    event RewardDurationUpdated(uint256 newDuration);\n    event RewardAdded(uint256 reward);\n    event RewardPaid(address indexed user, uint256 reward);\n    event UpdatedAdmin(address admin);\n\n    constructor(\n        address veToken_,\n        address rewardToken_,\n        address pikaMine_\n    ) {\n        veToken = IERC20(veToken_);\n        rewardToken = IERC20(rewardToken_);\n        pikaMine = PikaMine(pikaMine_);\n        admin = msg.sender;\n    }\n\n    modifier _updateReward(address account) {\n        rewardPerTokenStored = rewardPerToken();\n        lastUpdateTime = lastTimeRewardApplicable();\n        if (account != address(0)) {\n            rewards[account] = _earnedReward(account);\n            userRewardPerTokenPaid[account] = rewardPerTokenStored;\n        }\n        _;\n    }\n\n    /**\n     *  @return timestamp until rewards are distributed\n     */\n    function lastTimeRewardApplicable() public view returns (uint256) {\n        return Math.min(block.timestamp, periodFinish);\n    }\n\n    /** @notice reward per token deposited\n     *  @dev gives the total amount of rewards distributed since inception of the pool per vault token\n     *  @return rewardPerToken\n     */\n    function rewardPerToken() public view returns (uint256) {\n        uint256 supply = veToken.totalSupply();\n        if (supply == 0) {\n            return rewardPerTokenStored;\n        }\n        return\n        rewardPerTokenStored +\n        (((lastTimeRewardApplicable() - lastUpdateTime) *\n        rewardRate *\n        1e18) / supply);\n    }\n\n    function _earnedReward(address account) internal view returns (uint256) {\n        return (veToken.balanceOf(account) * (rewardPerToken() - userRewardPerTokenPaid[account])) / 1e18 + rewards[account];\n    }\n\n    /** @notice earning for an account\n     *  @return amount of tokens earned\n     */\n    function earned(address account) external view returns (uint256) {\n        return _earnedReward(account);\n    }\n\n    /** @notice use to update rewards on vePIKA balance changes.\n        @dev called by vePIKA\n     *  @return true\n     */\n    function updateReward(address _account)\n    external\n    _updateReward(_account)\n    returns (bool)\n    {\n        require(msg.sender == address(pikaMine), \"!authorized\");\n\n        return true;\n    }\n\n    /**\n     * @notice\n     *  Get rewards\n     */\n    function getReward() external nonReentrant {\n        _getReward(msg.sender);\n    }\n\n    function _getReward(address _account)\n    internal\n    _updateReward(_account)\n    {\n        uint256 reward = rewards[_account];\n        if (reward == 0) return;\n        rewards[_account] = 0;\n        SafeERC20.safeTransfer(rewardToken, _account, reward);\n\n        emit RewardPaid(_account, reward);\n    }\n\n    /**\n     * @notice\n     * Add new rewards to be distributed over the duration\n     * @dev Trigger rewardRate recalculation using _amount\n     * @param _amount token to add to rewards\n     * @return true\n     */\n    function queueNewRewards(uint256 _amount) external returns (bool) {\n        require(msg.sender == admin, \"!authorized\");\n        require(_amount != 0, \"==0\");\n        IERC20(rewardToken).safeTransferFrom(\n            msg.sender,\n            address(this),\n            _amount\n        );\n        _notifyRewardAmount(_amount);\n        return true;\n    }\n\n    function _notifyRewardAmount(uint256 reward)\n    internal\n    _updateReward(address(0))\n    {\n        historicalRewards = historicalRewards + reward;\n        if (block.timestamp >= periodFinish) {\n            rewardRate = reward / duration;\n        } else {\n            uint256 remaining = periodFinish - block.timestamp;\n            uint256 leftover = remaining * rewardRate;\n            reward = reward + leftover;\n            rewardRate = reward / duration;\n        }\n        currentRewards = reward;\n        lastUpdateTime = block.timestamp;\n        periodFinish = block.timestamp + duration;\n        emit RewardAdded(reward);\n    }\n\n    function setDuration(uint256 _duration) external {\n        require(msg.sender == admin, \"!authorized\");\n        require(block.timestamp >= periodFinish, \"Not finished yet\");\n        duration = _duration;\n        emit RewardDurationUpdated(_duration);\n    }\n\n    function setAdmin(address _admin) external onlyGov returns (bool) {\n        require(_admin != address(0), \"0 address\");\n        admin = _admin;\n        emit UpdatedAdmin(_admin);\n        return true;\n    }\n\n    function sweep(address _token) external returns (bool) {\n        require(msg.sender == admin, \"!authorized\");\n        require(\n            _token != address(rewardToken) || pikaMine.isUnlocked(),\n            \"!rewardToken\"\n        );\n\n        SafeERC20.safeTransfer(\n            IERC20(_token),\n            admin,\n            IERC20(_token).balanceOf(address(this))\n        );\n        return true;\n    }\n}",
  "sourcePath": "/Users/me/workspace/PikaPerpV2/contracts/staking/VePikaTokenReward.sol",
  "compiler": {
    "name": "solc",
    "version": "0.8.7+commit.e28d00a7.Emscripten.clang"
  },
  "schemaVersion": "3.4.11",
  "updatedAt": "2023-01-14T09:54:29.106Z",
  "devdoc": {
    "kind": "dev",
    "methods": {
      "earned(address)": {
        "returns": {
          "_0": "amount of tokens earned"
        }
      },
      "lastTimeRewardApplicable()": {
        "returns": {
          "_0": "timestamp until rewards are distributed"
        }
      },
      "queueNewRewards(uint256)": {
        "details": "Trigger rewardRate recalculation using _amount",
        "params": {
          "_amount": "token to add to rewards"
        },
        "returns": {
          "_0": "true"
        }
      },
      "rewardPerToken()": {
        "details": "gives the total amount of rewards distributed since inception of the pool per vault token",
        "returns": {
          "_0": "rewardPerToken"
        }
      },
      "updateReward(address)": {
        "details": "called by vePIKA",
        "returns": {
          "_0": "true"
        }
      }
    },
    "title": "VePikaTokenReward",
    "version": 1
  },
  "userdoc": {
    "kind": "user",
    "methods": {
      "earned(address)": {
        "notice": "earning for an account"
      },
      "getReward()": {
        "notice": "Get rewards"
      },
      "queueNewRewards(uint256)": {
        "notice": "Add new rewards to be distributed over the duration"
      },
      "rewardPerToken()": {
        "notice": "reward per token deposited"
      },
      "updateReward(address)": {
        "notice": "use to update rewards on vePIKA balance changes."
      }
    },
    "notice": "Contract to distribute token rewards for vePIKA holders. Adapted from: https://github.com/ribbon-finance/governance/blob/main/contracts/rbn-staking/VeRBNRewards.sol",
    "version": 1
  }
}