{
  "contractName": "VePika",
  "abi": [
    {
      "inputs": [
        {
          "internalType": "address",
          "name": "_pikaMine",
          "type": "address"
        }
      ],
      "stateMutability": "nonpayable",
      "type": "constructor"
    },
    {
      "anonymous": false,
      "inputs": [
        {
          "indexed": true,
          "internalType": "address",
          "name": "owner",
          "type": "address"
        },
        {
          "indexed": true,
          "internalType": "address",
          "name": "spender",
          "type": "address"
        },
        {
          "indexed": false,
          "internalType": "uint256",
          "name": "value",
          "type": "uint256"
        }
      ],
      "name": "Approval",
      "type": "event"
    },
    {
      "anonymous": false,
      "inputs": [
        {
          "indexed": true,
          "internalType": "address",
          "name": "from",
          "type": "address"
        },
        {
          "indexed": true,
          "internalType": "address",
          "name": "to",
          "type": "address"
        },
        {
          "indexed": false,
          "internalType": "uint256",
          "name": "value",
          "type": "uint256"
        }
      ],
      "name": "Transfer",
      "type": "event"
    },
    {
      "inputs": [
        {
          "internalType": "address",
          "name": "owner",
          "type": "address"
        },
        {
          "internalType": "address",
          "name": "spender",
          "type": "address"
        }
      ],
      "name": "allowance",
      "outputs": [
        {
          "internalType": "uint256",
          "name": "",
          "type": "uint256"
        }
      ],
      "stateMutability": "view",
      "type": "function"
    },
    {
      "inputs": [
        {
          "internalType": "address",
          "name": "spender",
          "type": "address"
        },
        {
          "internalType": "uint256",
          "name": "amount",
          "type": "uint256"
        }
      ],
      "name": "approve",
      "outputs": [
        {
          "internalType": "bool",
          "name": "",
          "type": "bool"
        }
      ],
      "stateMutability": "nonpayable",
      "type": "function"
    },
    {
      "inputs": [],
      "name": "decimals",
      "outputs": [
        {
          "internalType": "uint8",
          "name": "",
          "type": "uint8"
        }
      ],
      "stateMutability": "view",
      "type": "function"
    },
    {
      "inputs": [
        {
          "internalType": "address",
          "name": "spender",
          "type": "address"
        },
        {
          "internalType": "uint256",
          "name": "subtractedValue",
          "type": "uint256"
        }
      ],
      "name": "decreaseAllowance",
      "outputs": [
        {
          "internalType": "bool",
          "name": "",
          "type": "bool"
        }
      ],
      "stateMutability": "nonpayable",
      "type": "function"
    },
    {
      "inputs": [
        {
          "internalType": "address",
          "name": "spender",
          "type": "address"
        },
        {
          "internalType": "uint256",
          "name": "addedValue",
          "type": "uint256"
        }
      ],
      "name": "increaseAllowance",
      "outputs": [
        {
          "internalType": "bool",
          "name": "",
          "type": "bool"
        }
      ],
      "stateMutability": "nonpayable",
      "type": "function"
    },
    {
      "inputs": [],
      "name": "name",
      "outputs": [
        {
          "internalType": "string",
          "name": "",
          "type": "string"
        }
      ],
      "stateMutability": "view",
      "type": "function"
    },
    {
      "inputs": [],
      "name": "pikaMine",
      "outputs": [
        {
          "internalType": "contract PikaMine",
          "name": "",
          "type": "address"
        }
      ],
      "stateMutability": "view",
      "type": "function"
    },
    {
      "inputs": [],
      "name": "symbol",
      "outputs": [
        {
          "internalType": "string",
          "name": "",
          "type": "string"
        }
      ],
      "stateMutability": "view",
      "type": "function"
    },
    {
      "inputs": [
        {
          "internalType": "address",
          "name": "to",
          "type": "address"
        },
        {
          "internalType": "uint256",
          "name": "amount",
          "type": "uint256"
        }
      ],
      "name": "transfer",
      "outputs": [
        {
          "internalType": "bool",
          "name": "",
          "type": "bool"
        }
      ],
      "stateMutability": "nonpayable",
      "type": "function"
    },
    {
      "inputs": [
        {
          "internalType": "address",
          "name": "from",
          "type": "address"
        },
        {
          "internalType": "address",
          "name": "to",
          "type": "address"
        },
        {
          "internalType": "uint256",
          "name": "amount",
          "type": "uint256"
        }
      ],
      "name": "transferFrom",
      "outputs": [
        {
          "internalType": "bool",
          "name": "",
          "type": "bool"
        }
      ],
      "stateMutability": "nonpayable",
      "type": "function"
    },
    {
      "inputs": [],
      "name": "totalSupply",
      "outputs": [
        {
          "internalType": "uint256",
          "name": "",
          "type": "uint256"
        }
      ],
      "stateMutability": "view",
      "type": "function"
    },
    {
      "inputs": [
        {
          "internalType": "address",
          "name": "_account",
          "type": "address"
        }
      ],
      "name": "balanceOf",
      "outputs": [
        {
          "internalType": "uint256",
          "name": "",
          "type": "uint256"
        }
      ],
      "stateMutability": "view",
      "type": "function"
    }
  ],
  "bytecode": "0x60806040523480156200001157600080fd5b5060405162000fd338038062000fd3833981016040819052620000349162000172565b6040805180820182526012815271566f746520457363726f7765642050696b6160701b602080830191825283518085019094526006845265766550494b4160d01b9084015281519192916200008c91600391620000cc565b508051620000a2906004906020840190620000cc565b5050600580546001600160a01b0319166001600160a01b03939093169290921790915550620001e1565b828054620000da90620001a4565b90600052602060002090601f016020900481019282620000fe576000855562000149565b82601f106200011957805160ff191683800117855562000149565b8280016001018555821562000149579182015b82811115620001495782518255916020019190600101906200012c565b50620001579291506200015b565b5090565b5b808211156200015757600081556001016200015c565b6000602082840312156200018557600080fd5b81516001600160a01b03811681146200019d57600080fd5b9392505050565b600181811c90821680620001b957607f821691505b60208210811415620001db57634e487b7160e01b600052602260045260246000fd5b50919050565b610de280620001f16000396000f3fe608060405234801561001057600080fd5b50600436106100b45760003560e01c806370a082311161007157806370a082311461014557806395d89b4114610158578063a457c2d714610160578063a9059cbb14610173578063bfd4cfbe14610186578063dd62ed3e146101b157600080fd5b806306fdde03146100b9578063095ea7b3146100d757806318160ddd146100fa57806323b872dd14610110578063313ce567146101235780633950935114610132575b600080fd5b6100c16101c4565b6040516100ce9190610c66565b60405180910390f35b6100ea6100e5366004610acd565b610256565b60405190151581526020016100ce565b61010261026e565b6040519081526020016100ce565b6100ea61011e366004610a91565b6102f0565b604051601281526020016100ce565b6100ea610140366004610acd565b610314565b610102610153366004610a3c565b610336565b6100c16105d0565b6100ea61016e366004610acd565b6105df565b6100ea610181366004610acd565b61065f565b600554610199906001600160a01b031681565b6040516001600160a01b0390911681526020016100ce565b6101026101bf366004610a5e565b61066d565b6060600380546101d390610d14565b80601f01602080910402602001604051908101604052809291908181526020018280546101ff90610d14565b801561024c5780601f106102215761010080835404028352916020019161024c565b820191906000526020600020905b81548152906001019060200180831161022f57829003601f168201915b5050505050905090565b600033610264818585610698565b5060019392505050565b6005546040805163bc168ecb60e01b815290516000926001600160a01b03169163bc168ecb916004808301926020929190829003018186803b1580156102b357600080fd5b505afa1580156102c7573d6000803e3d6000fd5b505050506040513d601f19601f820116820180604052508101906102eb9190610bbc565b905090565b6000336102fe8582856107bc565b610309858585610836565b506001949350505050565b600033610264818585610327838361066d565b6103319190610cbb565b610698565b6005546040516306ea08bd60e11b81526001600160a01b0383811660048301526000928392839290911690630dd4117a9060240160006040518083038186803b15801561038257600080fd5b505afa158015610396573d6000803e3d6000fd5b505050506040513d6000823e601f3d908101601f191682016040526103be9190810190610af7565b805190915060005b818110156105c65760008382815181106103e2576103e2610d80565b60209081029190910101516005546040516321ce919d60e01b81526001600160a01b038a8116600483015260248201849052929350600092839216906321ce919d9060440160806040518083038186803b15801561043f57600080fd5b505afa158015610453573d6000803e3d6000fd5b505050506040513d601f19601f820116820180604052508101906104779190610bf9565b600554604051630293519f60e21b81529496509094506000936001600160a01b039091169250630a4d467c91506104b2908590600401610c3e565b604080518083038186803b1580156104c957600080fd5b505afa1580156104dd573d6000803e3d6000fd5b505050506040513d601f19601f820116820180604052508101906105019190610bd5565b5090506000600560009054906101000a90046001600160a01b03166001600160a01b031663c2ee3a086040518163ffffffff1660e01b815260040160206040518083038186803b15801561055457600080fd5b505afa158015610568573d6000803e3d6000fd5b505050506040513d601f19601f8201168201806040525081019061058c9190610bbc565b6105968386610cf5565b6105a09190610cd3565b90506105ac818a610cbb565b9850505050505080806105be90610d4f565b9150506103c6565b5091949350505050565b6060600480546101d390610d14565b600033816105ed828661066d565b9050838110156106525760405162461bcd60e51b815260206004820152602560248201527f45524332303a2064656372656173656420616c6c6f77616e63652062656c6f77604482015264207a65726f60d81b60648201526084015b60405180910390fd5b6103098286868403610698565b600033610264818585610836565b6001600160a01b03918216600090815260016020908152604080832093909416825291909152205490565b6001600160a01b0383166106fa5760405162461bcd60e51b8152602060048201526024808201527f45524332303a20617070726f76652066726f6d20746865207a65726f206164646044820152637265737360e01b6064820152608401610649565b6001600160a01b03821661075b5760405162461bcd60e51b815260206004820152602260248201527f45524332303a20617070726f766520746f20746865207a65726f206164647265604482015261737360f01b6064820152608401610649565b6001600160a01b0383811660008181526001602090815260408083209487168084529482529182902085905590518481527f8c5be1e5ebec7d5bd14f71427d1e84f3dd0314c0f7b2291e5b200ac8c7c3b925910160405180910390a3505050565b60006107c8848461066d565b9050600019811461083057818110156108235760405162461bcd60e51b815260206004820152601d60248201527f45524332303a20696e73756666696369656e7420616c6c6f77616e63650000006044820152606401610649565b6108308484848403610698565b50505050565b6001600160a01b03831661089a5760405162461bcd60e51b815260206004820152602560248201527f45524332303a207472616e736665722066726f6d20746865207a65726f206164604482015264647265737360d81b6064820152608401610649565b6001600160a01b0382166108fc5760405162461bcd60e51b815260206004820152602360248201527f45524332303a207472616e7366657220746f20746865207a65726f206164647260448201526265737360e81b6064820152608401610649565b6109078383836109e5565b6001600160a01b0383166000908152602081905260409020548181101561097f5760405162461bcd60e51b815260206004820152602660248201527f45524332303a207472616e7366657220616d6f756e7420657863656564732062604482015265616c616e636560d01b6064820152608401610649565b6001600160a01b03848116600081815260208181526040808320878703905593871680835291849020805487019055925185815290927fddf252ad1be2c89b69c2b068fc378daa952ba7f163c4a11628f55a4df523b3ef910160405180910390a3610830565b60405162461bcd60e51b815260206004820152601060248201526f4e6f6e2d7472616e7366657261626c6560801b6044820152606401610649565b80356001600160a01b0381168114610a3757600080fd5b919050565b600060208284031215610a4e57600080fd5b610a5782610a20565b9392505050565b60008060408385031215610a7157600080fd5b610a7a83610a20565b9150610a8860208401610a20565b90509250929050565b600080600060608486031215610aa657600080fd5b610aaf84610a20565b9250610abd60208501610a20565b9150604084013590509250925092565b60008060408385031215610ae057600080fd5b610ae983610a20565b946020939093013593505050565b60006020808385031215610b0a57600080fd5b825167ffffffffffffffff80821115610b2257600080fd5b818501915085601f830112610b3657600080fd5b815181811115610b4857610b48610d96565b8060051b604051601f19603f83011681018181108582111715610b6d57610b6d610d96565b604052828152858101935084860182860187018a1015610b8c57600080fd5b600095505b83861015610baf578051855260019590950194938601938601610b91565b5098975050505050505050565b600060208284031215610bce57600080fd5b5051919050565b60008060408385031215610be857600080fd5b505080516020909101519092909150565b60008060008060808587031215610c0f57600080fd5b845193506020850151925060408501519150606085015160068110610c3357600080fd5b939692955090935050565b6020810160068310610c6057634e487b7160e01b600052602160045260246000fd5b91905290565b600060208083528351808285015260005b81811015610c9357858101830151858201604001528201610c77565b81811115610ca5576000604083870101525b50601f01601f1916929092016040019392505050565b60008219821115610cce57610cce610d6a565b500190565b600082610cf057634e487b7160e01b600052601260045260246000fd5b500490565b6000816000190483118215151615610d0f57610d0f610d6a565b500290565b600181811c90821680610d2857607f821691505b60208210811415610d4957634e487b7160e01b600052602260045260246000fd5b50919050565b6000600019821415610d6357610d63610d6a565b5060010190565b634e487b7160e01b600052601160045260246000fd5b634e487b7160e01b600052603260045260246000fd5b634e487b7160e01b600052604160045260246000fdfea2646970667358221220c015ea50b31bc339184b22e7ae39b4fa7d2d3d675f0e6ff0f38cf0dd8a237a1664736f6c63430008070033",
  "immutableReferences": {},
  "source": "// SPDX-License-Identifier: MIT\npragma solidity ^0.8.0;\n\nimport '@openzeppelin/contracts/token/ERC20/ERC20.sol';\nimport '@openzeppelin/contracts/token/ERC20/utils/SafeERC20.sol';\nimport '@openzeppelin/contracts/access/Ownable.sol';\nimport '@openzeppelin/contracts/utils/math/SafeCast.sol';\nimport '../staking/PikaMine.sol';\n\n/** @title VePika\n    @notice Vote escrowed non-transferable token\n */\ncontract VePika is ERC20 {\n    PikaMine public pikaMine;\n\n    constructor(address _pikaMine) ERC20(\"Vote Escrowed Pika\", \"vePIKA\") {\n        pikaMine = PikaMine(_pikaMine);\n    }\n\n    function totalSupply() public view override returns (uint256) {\n        return pikaMine.totalLpToken();\n    }\n\n    function balanceOf(address _account) public view override returns (uint256) {\n        uint256 accountBalance = 0;\n        uint256[] memory allUserDepositIds = pikaMine.getAllUserDepositIds(_account);\n        uint256 len = allUserDepositIds.length;\n        for (uint256 i = 0; i < len; i++) {\n            uint256 depositId = allUserDepositIds[i];\n            (uint256 depositAmount,,,PikaMine.Lock lock) = pikaMine.userInfo(_account, depositId);\n            (uint256 lockBoost, ) = pikaMine.getLockBoost(lock);\n            uint256 lpAmount = depositAmount * lockBoost / pikaMine.ONE();\n            accountBalance += lpAmount;\n        }\n        return accountBalance;\n    }\n\n    function _beforeTokenTransfer(\n        address from,\n        address to,\n        uint256 amount\n    ) internal pure override {\n        revert(\"Non-transferable\");\n    }\n}",
  "sourcePath": "/Users/me/workspace/PikaPerpV2/contracts/token/VePika.sol",
  "compiler": {
    "name": "solc",
    "version": "0.8.7+commit.e28d00a7.Emscripten.clang"
  },
  "schemaVersion": "3.4.11",
  "updatedAt": "2023-01-14T09:54:29.125Z",
  "devdoc": {
    "kind": "dev",
    "methods": {
      "allowance(address,address)": {
        "details": "See {IERC20-allowance}."
      },
      "approve(address,uint256)": {
        "details": "See {IERC20-approve}. NOTE: If `amount` is the maximum `uint256`, the allowance is not updated on `transferFrom`. This is semantically equivalent to an infinite approval. Requirements: - `spender` cannot be the zero address."
      },
      "decimals()": {
        "details": "Returns the number of decimals used to get its user representation. For example, if `decimals` equals `2`, a balance of `505` tokens should be displayed to a user as `5.05` (`505 / 10 ** 2`). Tokens usually opt for a value of 18, imitating the relationship between Ether and Wei. This is the value {ERC20} uses, unless this function is overridden; NOTE: This information is only used for _display_ purposes: it in no way affects any of the arithmetic of the contract, including {IERC20-balanceOf} and {IERC20-transfer}."
      },
      "decreaseAllowance(address,uint256)": {
        "details": "Atomically decreases the allowance granted to `spender` by the caller. This is an alternative to {approve} that can be used as a mitigation for problems described in {IERC20-approve}. Emits an {Approval} event indicating the updated allowance. Requirements: - `spender` cannot be the zero address. - `spender` must have allowance for the caller of at least `subtractedValue`."
      },
      "increaseAllowance(address,uint256)": {
        "details": "Atomically increases the allowance granted to `spender` by the caller. This is an alternative to {approve} that can be used as a mitigation for problems described in {IERC20-approve}. Emits an {Approval} event indicating the updated allowance. Requirements: - `spender` cannot be the zero address."
      },
      "name()": {
        "details": "Returns the name of the token."
      },
      "symbol()": {
        "details": "Returns the symbol of the token, usually a shorter version of the name."
      },
      "totalSupply()": {
        "details": "See {IERC20-totalSupply}."
      },
      "transfer(address,uint256)": {
        "details": "See {IERC20-transfer}. Requirements: - `to` cannot be the zero address. - the caller must have a balance of at least `amount`."
      },
      "transferFrom(address,address,uint256)": {
        "details": "See {IERC20-transferFrom}. Emits an {Approval} event indicating the updated allowance. This is not required by the EIP. See the note at the beginning of {ERC20}. NOTE: Does not update the allowance if the current allowance is the maximum `uint256`. Requirements: - `from` and `to` cannot be the zero address. - `from` must have a balance of at least `amount`. - the caller must have allowance for ``from``'s tokens of at least `amount`."
      }
    },
    "title": "VePika",
    "version": 1
  },
  "userdoc": {
    "kind": "user",
    "methods": {},
    "notice": "Vote escrowed non-transferable token",
    "version": 1
  }
}