{
  "contractName": "VePikaFeeReward",
  "abi": [
    {
      "inputs": [
        {
          "internalType": "address",
          "name": "_veToken",
          "type": "address"
        },
        {
          "internalType": "address",
          "name": "_rewardToken",
          "type": "address"
        }
      ],
      "stateMutability": "nonpayable",
      "type": "constructor"
    },
    {
      "anonymous": false,
      "inputs": [
        {
          "indexed": false,
          "internalType": "address",
          "name": "user",
          "type": "address"
        },
        {
          "indexed": false,
          "internalType": "address",
          "name": "rewardToken",
          "type": "address"
        },
        {
          "indexed": false,
          "internalType": "uint256",
          "name": "amount",
          "type": "uint256"
        }
      ],
      "name": "ClaimedReward",
      "type": "event"
    },
    {
      "anonymous": false,
      "inputs": [
        {
          "indexed": false,
          "internalType": "address",
          "name": "account",
          "type": "address"
        }
      ],
      "name": "Paused",
      "type": "event"
    },
    {
      "anonymous": false,
      "inputs": [
        {
          "indexed": false,
          "internalType": "address",
          "name": "owner",
          "type": "address"
        }
      ],
      "name": "SetOwner",
      "type": "event"
    },
    {
      "anonymous": false,
      "inputs": [
        {
          "indexed": false,
          "internalType": "address",
          "name": "pikaPerp",
          "type": "address"
        }
      ],
      "name": "SetPikaPerp",
      "type": "event"
    },
    {
      "anonymous": false,
      "inputs": [
        {
          "indexed": false,
          "internalType": "address",
          "name": "account",
          "type": "address"
        }
      ],
      "name": "Unpaused",
      "type": "event"
    },
    {
      "stateMutability": "payable",
      "type": "fallback"
    },
    {
      "inputs": [],
      "name": "PRECISION",
      "outputs": [
        {
          "internalType": "uint256",
          "name": "",
          "type": "uint256"
        }
      ],
      "stateMutability": "view",
      "type": "function"
    },
    {
      "inputs": [],
      "name": "cumulativeRewardPerTokenStored",
      "outputs": [
        {
          "internalType": "uint256",
          "name": "",
          "type": "uint256"
        }
      ],
      "stateMutability": "view",
      "type": "function"
    },
    {
      "inputs": [],
      "name": "gov",
      "outputs": [
        {
          "internalType": "address",
          "name": "",
          "type": "address"
        }
      ],
      "stateMutability": "view",
      "type": "function"
    },
    {
      "inputs": [],
      "name": "owner",
      "outputs": [
        {
          "internalType": "address",
          "name": "",
          "type": "address"
        }
      ],
      "stateMutability": "view",
      "type": "function"
    },
    {
      "inputs": [],
      "name": "paused",
      "outputs": [
        {
          "internalType": "bool",
          "name": "",
          "type": "bool"
        }
      ],
      "stateMutability": "view",
      "type": "function"
    },
    {
      "inputs": [],
      "name": "pikaPerp",
      "outputs": [
        {
          "internalType": "address",
          "name": "",
          "type": "address"
        }
      ],
      "stateMutability": "view",
      "type": "function"
    },
    {
      "inputs": [],
      "name": "rewardToken",
      "outputs": [
        {
          "internalType": "address",
          "name": "",
          "type": "address"
        }
      ],
      "stateMutability": "view",
      "type": "function"
    },
    {
      "inputs": [
        {
          "internalType": "address",
          "name": "_gov",
          "type": "address"
        }
      ],
      "name": "setGov",
      "outputs": [],
      "stateMutability": "nonpayable",
      "type": "function"
    },
    {
      "inputs": [],
      "name": "veToken",
      "outputs": [
        {
          "internalType": "contract IERC20",
          "name": "",
          "type": "address"
        }
      ],
      "stateMutability": "view",
      "type": "function"
    },
    {
      "stateMutability": "payable",
      "type": "receive"
    },
    {
      "inputs": [],
      "name": "totalSupply",
      "outputs": [
        {
          "internalType": "uint256",
          "name": "",
          "type": "uint256"
        }
      ],
      "stateMutability": "view",
      "type": "function"
    },
    {
      "inputs": [
        {
          "internalType": "address",
          "name": "account",
          "type": "address"
        }
      ],
      "name": "balanceOf",
      "outputs": [
        {
          "internalType": "uint256",
          "name": "",
          "type": "uint256"
        }
      ],
      "stateMutability": "view",
      "type": "function"
    },
    {
      "inputs": [
        {
          "internalType": "address",
          "name": "_owner",
          "type": "address"
        }
      ],
      "name": "setOwner",
      "outputs": [],
      "stateMutability": "nonpayable",
      "type": "function"
    },
    {
      "inputs": [
        {
          "internalType": "address",
          "name": "_pikaPerp",
          "type": "address"
        }
      ],
      "name": "setPikaPerp",
      "outputs": [],
      "stateMutability": "nonpayable",
      "type": "function"
    },
    {
      "inputs": [
        {
          "internalType": "address",
          "name": "account",
          "type": "address"
        }
      ],
      "name": "updateReward",
      "outputs": [],
      "stateMutability": "nonpayable",
      "type": "function"
    },
    {
      "inputs": [],
      "name": "claimReward",
      "outputs": [],
      "stateMutability": "nonpayable",
      "type": "function"
    },
    {
      "inputs": [
        {
          "internalType": "address",
          "name": "account",
          "type": "address"
        }
      ],
      "name": "getClaimableReward",
      "outputs": [
        {
          "internalType": "uint256",
          "name": "",
          "type": "uint256"
        }
      ],
      "stateMutability": "view",
      "type": "function"
    }
  ],
  "bytecode": "0x608060405234801561001057600080fd5b5060405161118238038061118283398101604081905261002f916100a7565b60008054336001600160a01b0319918216811790925560018055600280546001600160a81b031916610100909302929092179091556005805482166001600160a01b0394851617905560048054909116919092161790556100da565b80516001600160a01b03811681146100a257600080fd5b919050565b600080604083850312156100ba57600080fd5b6100c38361008b565b91506100d16020840161008b565b90509250929050565b611099806100e96000396000f3fe6080604052600436106100eb5760003560e01c806370a0823111610084578063aaf5eb6811610056578063aaf5eb6814610292578063b88a802f146102ae578063cfad57a2146102c3578063f7c618c1146102e357005b806370a08231146102175780637faed20214610237578063835c2840146102575780638da5cb5b1461026d57005b80633b92eb23116100bd5780633b92eb23146101945780635c975abb146101b45780635ff329af146101d7578063632447c9146101f757005b806312d43a51146100f457806313af40351461013157806318160ddd146101515780631980cd351461017457005b366100f257005b005b34801561010057600080fd5b50600054610114906001600160a01b031681565b6040516001600160a01b0390911681526020015b60405180910390f35b34801561013d57600080fd5b506100f261014c366004610ef3565b610303565b34801561015d57600080fd5b506101666103b7565b604051908152602001610128565b34801561018057600080fd5b50600354610114906001600160a01b031681565b3480156101a057600080fd5b50600554610114906001600160a01b031681565b3480156101c057600080fd5b5060025460ff166040519015158152602001610128565b3480156101e357600080fd5b506101666101f2366004610ef3565b610439565b34801561020357600080fd5b506100f2610212366004610ef3565b610667565b34801561022357600080fd5b50610166610232366004610ef3565b6108d9565b34801561024357600080fd5b506100f2610252366004610ef3565b61095d565b34801561026357600080fd5b5061016660065481565b34801561027957600080fd5b506002546101149061010090046001600160a01b031681565b34801561029e57600080fd5b50610166670de0b6b3a764000081565b3480156102ba57600080fd5b506100f26109f3565b3480156102cf57600080fd5b506100f26102de366004610ef3565b610a6c565b3480156102ef57600080fd5b50600454610114906001600160a01b031681565b6000546001600160a01b0316331461035a5760405162461bcd60e51b815260206004820152601560248201527423b7bb32b93730b136329d103337b93134b23232b760591b60448201526064015b60405180910390fd5b60028054610100600160a81b0319166101006001600160a01b038416908102919091179091556040519081527f167d3e9c1016ab80e58802ca9da10ce5c6a0f4debc46a2e7a2cd9e56899a4fb5906020015b60405180910390a150565b600554604080516318160ddd60e01b815290516000926001600160a01b0316916318160ddd916004808301926020929190829003018186803b1580156103fc57600080fd5b505afa158015610410573d6000803e3d6000fd5b505050506040513d601f19601f820116820180604052508101906104349190610f45565b905090565b6001600160a01b0380821660009081526007602090815260408083205460055482516318160ddd60e01b8152925194959194869491909216926318160ddd9260048083019392829003018186803b15801561049357600080fd5b505afa1580156104a7573d6000803e3d6000fd5b505050506040513d601f19601f820116820180604052508101906104cb9190610f45565b9050806104d9575092915050565b60035460408051631b8830ed60e21b815290516000926001600160a01b031691636e20c3b4916004808301926020929190829003018186803b15801561051e57600080fd5b505afa158015610532573d6000803e3d6000fd5b505050506040513d601f19601f820116820180604052508101906105569190610f45565b905060008261056d670de0b6b3a764000084610fe7565b6105779190610fc5565b6006546105849190610fad565b905080610595575091949350505050565b6001600160a01b038616600090815260086020526040902054670de0b6b3a7640000906105c29083611006565b6005546040516370a0823160e01b81526001600160a01b038a81166004830152909116906370a082319060240160206040518083038186803b15801561060757600080fd5b505afa15801561061b573d6000803e3d6000fd5b505050506040513d601f19601f8201168201806040525081019061063f9190610f45565b6106499190610fe7565b6106539190610fc5565b61065d9085610fad565b9695505050505050565b6001600160a01b0381166106785750565b60035460408051631ea8c3a760e01b815290516000926001600160a01b031691631ea8c3a791600480830192602092919082900301818787803b1580156106be57600080fd5b505af11580156106d2573d6000803e3d6000fd5b505050506040513d601f19601f820116820180604052508101906106f69190610f45565b90506000600560009054906101000a90046001600160a01b03166001600160a01b03166318160ddd6040518163ffffffff1660e01b815260040160206040518083038186803b15801561074857600080fd5b505afa15801561075c573d6000803e3d6000fd5b505050506040513d601f19601f820116820180604052508101906107809190610f45565b905080156107bc578061079b670de0b6b3a764000084610fe7565b6107a59190610fc5565b600660008282546107b69190610fad565b90915550505b6006546107c857505050565b6001600160a01b038316600090815260086020526040902054600654670de0b6b3a7640000916107f791611006565b6005546040516370a0823160e01b81526001600160a01b038781166004830152909116906370a082319060240160206040518083038186803b15801561083c57600080fd5b505afa158015610850573d6000803e3d6000fd5b505050506040513d601f19601f820116820180604052508101906108749190610f45565b61087e9190610fe7565b6108889190610fc5565b6001600160a01b038416600090815260076020526040812080549091906108b0908490610fad565b90915550506006546001600160a01b039093166000908152600860205260409020929092555050565b6005546040516370a0823160e01b81526001600160a01b03838116600483015260009216906370a082319060240160206040518083038186803b15801561091f57600080fd5b505afa158015610933573d6000803e3d6000fd5b505050506040513d601f19601f820116820180604052508101906109579190610f45565b92915050565b60025461010090046001600160a01b031633146109a55760405162461bcd60e51b815260206004820152600660248201526510b7bbb732b960d11b6044820152606401610351565b600380546001600160a01b0319166001600160a01b0383169081179091556040519081527f98e18df8156a784a4d0c5d0564fa1e3692b8335e2ff96f255f15c6916d0532a2906020016103ac565b6109fc33610667565b33600090815260076020526040812080549190558015610a6957610a203382610ae0565b600454604080513381526001600160a01b03909216602083015281018290527faee3654837b73cc93e61b5d33f82d45b1df4dbe682913819f5ce40de23518e72906060016103ac565b50565b6000546001600160a01b03163314610abe5760405162461bcd60e51b815260206004820152601560248201527423b7bb32b93730b136329d103337b93134b23232b760591b6044820152606401610351565b600080546001600160a01b0319166001600160a01b0392909216919091179055565b801580610af457506001600160a01b038216155b15610afd575050565b6004546001600160a01b0316610b2457610b206001600160a01b03831682610b3b565b5050565b600454610b20906001600160a01b03168383610c59565b80471015610b8b5760405162461bcd60e51b815260206004820152601d60248201527f416464726573733a20696e73756666696369656e742062616c616e63650000006044820152606401610351565b6000826001600160a01b03168260405160006040518083038185875af1925050503d8060008114610bd8576040519150601f19603f3d011682016040523d82523d6000602084013e610bdd565b606091505b5050905080610c545760405162461bcd60e51b815260206004820152603a60248201527f416464726573733a20756e61626c6520746f2073656e642076616c75652c207260448201527f6563697069656e74206d617920686176652072657665727465640000000000006064820152608401610351565b505050565b604080516001600160a01b03848116602483015260448083018590528351808403909101815260649092018352602080830180516001600160e01b031663a9059cbb60e01b17905283518085019094528084527f5361666545524332303a206c6f772d6c6576656c2063616c6c206661696c656490840152610c5492869291600091610ce9918516908490610d66565b805190915015610c545780806020019051810190610d079190610f23565b610c545760405162461bcd60e51b815260206004820152602a60248201527f5361666545524332303a204552433230206f7065726174696f6e20646964206e6044820152691bdd081cdd58d8d9595960b21b6064820152608401610351565b6060610d758484600085610d7d565b949350505050565b606082471015610dde5760405162461bcd60e51b815260206004820152602660248201527f416464726573733a20696e73756666696369656e742062616c616e636520666f6044820152651c8818d85b1b60d21b6064820152608401610351565b600080866001600160a01b03168587604051610dfa9190610f5e565b60006040518083038185875af1925050503d8060008114610e37576040519150601f19603f3d011682016040523d82523d6000602084013e610e3c565b606091505b5091509150610e4d87838387610e58565b979650505050505050565b60608315610ec4578251610ebd576001600160a01b0385163b610ebd5760405162461bcd60e51b815260206004820152601d60248201527f416464726573733a2063616c6c20746f206e6f6e2d636f6e74726163740000006044820152606401610351565b5081610d75565b610d758383815115610ed95781518083602001fd5b8060405162461bcd60e51b81526004016103519190610f7a565b600060208284031215610f0557600080fd5b81356001600160a01b0381168114610f1c57600080fd5b9392505050565b600060208284031215610f3557600080fd5b81518015158114610f1c57600080fd5b600060208284031215610f5757600080fd5b5051919050565b60008251610f7081846020870161101d565b9190910192915050565b6020815260008251806020840152610f9981604085016020870161101d565b601f01601f19169190910160400192915050565b60008219821115610fc057610fc061104d565b500190565b600082610fe257634e487b7160e01b600052601260045260246000fd5b500490565b60008160001904831182151516156110015761100161104d565b500290565b6000828210156110185761101861104d565b500390565b60005b83811015611038578181015183820152602001611020565b83811115611047576000848401525b50505050565b634e487b7160e01b600052601160045260246000fdfea2646970667358221220659eaafdebfa3bfb7e72c705c39ddd4daadead0138d2427b870ef52e986c799f64736f6c63430008070033",
  "immutableReferences": {},
  "source": "// SPDX-License-Identifier: MIT\npragma solidity ^0.8.0;\n\nimport \"@openzeppelin/contracts/token/ERC20/IERC20.sol\";\nimport \"@openzeppelin/contracts/token/ERC20/utils/SafeERC20.sol\";\nimport \"@openzeppelin/contracts/utils/Address.sol\";\nimport \"@openzeppelin/contracts/security/Pausable.sol\";\nimport \"@openzeppelin/contracts/security/ReentrancyGuard.sol\";\nimport \"../perp/IPikaPerp.sol\";\nimport \"../access/Governable.sol\";\n\n/** @title VePikaFeeReward\n    @notice Contract to distribute trading fee reward to vePIKA holders.\n */\ncontract VePikaFeeReward is Governable, ReentrancyGuard, Pausable {\n\n    using SafeERC20 for IERC20;\n    using Address for address payable;\n\n    address public owner;\n    address public pikaPerp;\n    address public rewardToken;\n    IERC20 public veToken; // immutable\n\n    uint256 public cumulativeRewardPerTokenStored;\n\n    mapping(address => uint256) private claimableReward;\n    mapping(address => uint256) private previousRewardPerToken;\n\n    uint256 public constant PRECISION = 10**18;\n    event SetOwner(address owner);\n    event SetPikaPerp(address pikaPerp);\n    event ClaimedReward(\n        address user,\n        address rewardToken,\n        uint256 amount\n    );\n\n    constructor(address _veToken, address _rewardToken) {\n        owner = msg.sender;\n        veToken = IERC20(_veToken);\n        rewardToken = _rewardToken;\n    }\n\n    // Views methods\n\n    function totalSupply() external view returns (uint256) {\n        return veToken.totalSupply();\n    }\n\n    function balanceOf(address account) external view returns (uint256) {\n        return veToken.balanceOf(account);\n    }\n\n    // Governance methods\n\n    function setOwner(address _owner) external onlyGov {\n        owner = _owner;\n        emit SetOwner(_owner);\n    }\n\n    function setPikaPerp(address _pikaPerp) external onlyOwner {\n        pikaPerp = _pikaPerp;\n        emit SetPikaPerp(_pikaPerp);\n    }\n\n    // Methods\n\n    function updateReward(address account) public {\n        if (account == address(0)) return;\n        uint256 pikaReward = IPikaPerp(pikaPerp).distributePikaReward();\n        uint256 _totalSupply = veToken.totalSupply();\n        if (_totalSupply > 0) {\n            cumulativeRewardPerTokenStored += pikaReward * PRECISION / _totalSupply;\n        }\n        if (cumulativeRewardPerTokenStored == 0) return;\n        claimableReward[account] += veToken.balanceOf(account) * (cumulativeRewardPerTokenStored - previousRewardPerToken[account]) / PRECISION;\n        previousRewardPerToken[account] = cumulativeRewardPerTokenStored;\n    }\n\n    function claimReward() external {\n        updateReward(msg.sender);\n        uint256 rewardToSend = claimableReward[msg.sender];\n        claimableReward[msg.sender] = 0;\n        if (rewardToSend > 0) {\n            _transferOut(msg.sender, rewardToSend);\n            emit ClaimedReward(\n                msg.sender,\n                rewardToken,\n                rewardToSend\n            );\n        }\n    }\n\n    function getClaimableReward(address account) external view returns(uint256) {\n        uint256 currentClaimableReward = claimableReward[account];\n        uint256 totalSupply = veToken.totalSupply();\n        if (totalSupply == 0) return currentClaimableReward;\n\n        uint256 _pendingReward = IPikaPerp(pikaPerp).getPendingPikaReward();\n        uint256 _rewardPerTokenStored = cumulativeRewardPerTokenStored + _pendingReward * PRECISION / totalSupply;\n        if (_rewardPerTokenStored == 0) return currentClaimableReward;\n        return currentClaimableReward + veToken.balanceOf(account) * (_rewardPerTokenStored - previousRewardPerToken[account]) / PRECISION;\n    }\n\n    fallback() external payable {}\n    receive() external payable {}\n\n    // Utils\n\n    function _transferOut(address to, uint256 amount) internal {\n        if (amount == 0 || to == address(0)) return;\n        if (rewardToken == address(0)) {\n            payable(to).sendValue(amount);\n        } else {\n            IERC20(rewardToken).safeTransfer(to, amount);\n        }\n    }\n\n    modifier onlyOwner() {\n        require(msg.sender == owner, \"!owner\");\n        _;\n    }\n}\n",
  "sourcePath": "/Users/me/workspace/PikaPerpV2/contracts/staking/VePikaFeeReward.sol",
  "compiler": {
    "name": "solc",
    "version": "0.8.7+commit.e28d00a7.Emscripten.clang"
  },
  "schemaVersion": "3.4.11",
  "updatedAt": "2023-01-14T09:54:29.101Z",
  "devdoc": {
    "kind": "dev",
    "methods": {
      "paused()": {
        "details": "Returns true if the contract is paused, and false otherwise."
      }
    },
    "title": "VePikaFeeReward",
    "version": 1
  },
  "userdoc": {
    "kind": "user",
    "methods": {},
    "notice": "Contract to distribute trading fee reward to vePIKA holders.",
    "version": 1
  }
}