{
  "contractName": "Vester",
  "abi": [
    {
      "inputs": [
        {
          "internalType": "address",
          "name": "_esPika",
          "type": "address"
        },
        {
          "internalType": "address",
          "name": "_pika",
          "type": "address"
        },
        {
          "internalType": "address",
          "name": "_treasury",
          "type": "address"
        }
      ],
      "stateMutability": "nonpayable",
      "type": "constructor"
    },
    {
      "anonymous": false,
      "inputs": [
        {
          "indexed": true,
          "internalType": "address",
          "name": "user",
          "type": "address"
        },
        {
          "indexed": false,
          "internalType": "uint256",
          "name": "depositId",
          "type": "uint256"
        },
        {
          "indexed": false,
          "internalType": "uint256",
          "name": "amountClaimed",
          "type": "uint256"
        },
        {
          "indexed": false,
          "internalType": "uint256",
          "name": "claimFee",
          "type": "uint256"
        }
      ],
      "name": "Claim",
      "type": "event"
    },
    {
      "anonymous": false,
      "inputs": [
        {
          "indexed": true,
          "internalType": "address",
          "name": "user",
          "type": "address"
        },
        {
          "indexed": false,
          "internalType": "uint256",
          "name": "depositId",
          "type": "uint256"
        },
        {
          "indexed": false,
          "internalType": "uint256",
          "name": "amount",
          "type": "uint256"
        }
      ],
      "name": "Deposit",
      "type": "event"
    },
    {
      "anonymous": false,
      "inputs": [
        {
          "indexed": true,
          "internalType": "address",
          "name": "previousOwner",
          "type": "address"
        },
        {
          "indexed": true,
          "internalType": "address",
          "name": "newOwner",
          "type": "address"
        }
      ],
      "name": "OwnershipTransferred",
      "type": "event"
    },
    {
      "anonymous": false,
      "inputs": [
        {
          "indexed": true,
          "internalType": "address",
          "name": "user",
          "type": "address"
        },
        {
          "indexed": false,
          "internalType": "uint256",
          "name": "depositId",
          "type": "uint256"
        },
        {
          "indexed": false,
          "internalType": "uint256",
          "name": "amount",
          "type": "uint256"
        }
      ],
      "name": "Withdraw",
      "type": "event"
    },
    {
      "inputs": [],
      "name": "FEE_BASE",
      "outputs": [
        {
          "internalType": "uint256",
          "name": "",
          "type": "uint256"
        }
      ],
      "stateMutability": "view",
      "type": "function"
    },
    {
      "inputs": [
        {
          "internalType": "address",
          "name": "",
          "type": "address"
        }
      ],
      "name": "currentId",
      "outputs": [
        {
          "internalType": "uint256",
          "name": "",
          "type": "uint256"
        }
      ],
      "stateMutability": "view",
      "type": "function"
    },
    {
      "inputs": [],
      "name": "esPika",
      "outputs": [
        {
          "internalType": "address",
          "name": "",
          "type": "address"
        }
      ],
      "stateMutability": "view",
      "type": "function"
    },
    {
      "inputs": [],
      "name": "initialClaimFee",
      "outputs": [
        {
          "internalType": "uint256",
          "name": "",
          "type": "uint256"
        }
      ],
      "stateMutability": "view",
      "type": "function"
    },
    {
      "inputs": [],
      "name": "owner",
      "outputs": [
        {
          "internalType": "address",
          "name": "",
          "type": "address"
        }
      ],
      "stateMutability": "view",
      "type": "function"
    },
    {
      "inputs": [],
      "name": "pika",
      "outputs": [
        {
          "internalType": "address",
          "name": "",
          "type": "address"
        }
      ],
      "stateMutability": "view",
      "type": "function"
    },
    {
      "inputs": [],
      "name": "renounceOwnership",
      "outputs": [],
      "stateMutability": "nonpayable",
      "type": "function"
    },
    {
      "inputs": [],
      "name": "totalClaimFee",
      "outputs": [
        {
          "internalType": "uint256",
          "name": "",
          "type": "uint256"
        }
      ],
      "stateMutability": "view",
      "type": "function"
    },
    {
      "inputs": [],
      "name": "totalEsPikaDeposit",
      "outputs": [
        {
          "internalType": "uint256",
          "name": "",
          "type": "uint256"
        }
      ],
      "stateMutability": "view",
      "type": "function"
    },
    {
      "inputs": [],
      "name": "totalPikaClaimed",
      "outputs": [
        {
          "internalType": "uint256",
          "name": "",
          "type": "uint256"
        }
      ],
      "stateMutability": "view",
      "type": "function"
    },
    {
      "inputs": [
        {
          "internalType": "address",
          "name": "newOwner",
          "type": "address"
        }
      ],
      "name": "transferOwnership",
      "outputs": [],
      "stateMutability": "nonpayable",
      "type": "function"
    },
    {
      "inputs": [],
      "name": "treasury",
      "outputs": [
        {
          "internalType": "address",
          "name": "",
          "type": "address"
        }
      ],
      "stateMutability": "view",
      "type": "function"
    },
    {
      "inputs": [
        {
          "internalType": "address",
          "name": "",
          "type": "address"
        },
        {
          "internalType": "uint256",
          "name": "",
          "type": "uint256"
        }
      ],
      "name": "userInfo",
      "outputs": [
        {
          "internalType": "uint256",
          "name": "depositAmount",
          "type": "uint256"
        },
        {
          "internalType": "uint256",
          "name": "vestedUntil",
          "type": "uint256"
        },
        {
          "internalType": "uint256",
          "name": "vestingStartTime",
          "type": "uint256"
        }
      ],
      "stateMutability": "view",
      "type": "function"
    },
    {
      "inputs": [],
      "name": "vestingPeriod",
      "outputs": [
        {
          "internalType": "uint256",
          "name": "",
          "type": "uint256"
        }
      ],
      "stateMutability": "view",
      "type": "function"
    },
    {
      "inputs": [
        {
          "internalType": "uint256",
          "name": "_amount",
          "type": "uint256"
        }
      ],
      "name": "deposit",
      "outputs": [],
      "stateMutability": "nonpayable",
      "type": "function"
    },
    {
      "inputs": [
        {
          "internalType": "uint256",
          "name": "_amount",
          "type": "uint256"
        },
        {
          "internalType": "uint256",
          "name": "_depositId",
          "type": "uint256"
        }
      ],
      "name": "withdraw",
      "outputs": [],
      "stateMutability": "nonpayable",
      "type": "function"
    },
    {
      "inputs": [
        {
          "internalType": "uint256",
          "name": "_depositId",
          "type": "uint256"
        }
      ],
      "name": "claim",
      "outputs": [],
      "stateMutability": "nonpayable",
      "type": "function"
    },
    {
      "inputs": [],
      "name": "claimAll",
      "outputs": [],
      "stateMutability": "nonpayable",
      "type": "function"
    },
    {
      "inputs": [
        {
          "internalType": "address",
          "name": "_account",
          "type": "address"
        },
        {
          "internalType": "uint256",
          "name": "_depositId",
          "type": "uint256"
        }
      ],
      "name": "claimable",
      "outputs": [
        {
          "internalType": "uint256",
          "name": "",
          "type": "uint256"
        }
      ],
      "stateMutability": "view",
      "type": "function"
    },
    {
      "inputs": [
        {
          "internalType": "address",
          "name": "_account",
          "type": "address"
        }
      ],
      "name": "claimableAll",
      "outputs": [
        {
          "internalType": "uint256",
          "name": "claimableAmount",
          "type": "uint256"
        }
      ],
      "stateMutability": "view",
      "type": "function"
    },
    {
      "inputs": [
        {
          "internalType": "address",
          "name": "_account",
          "type": "address"
        },
        {
          "internalType": "uint256",
          "name": "_depositId",
          "type": "uint256"
        }
      ],
      "name": "unvested",
      "outputs": [
        {
          "internalType": "uint256",
          "name": "",
          "type": "uint256"
        }
      ],
      "stateMutability": "view",
      "type": "function"
    },
    {
      "inputs": [
        {
          "internalType": "address",
          "name": "_account",
          "type": "address"
        }
      ],
      "name": "unvestedAll",
      "outputs": [
        {
          "internalType": "uint256",
          "name": "",
          "type": "uint256"
        }
      ],
      "stateMutability": "view",
      "type": "function"
    },
    {
      "inputs": [
        {
          "internalType": "address",
          "name": "_account",
          "type": "address"
        },
        {
          "internalType": "uint256",
          "name": "_depositId",
          "type": "uint256"
        }
      ],
      "name": "deposited",
      "outputs": [
        {
          "internalType": "uint256",
          "name": "",
          "type": "uint256"
        }
      ],
      "stateMutability": "view",
      "type": "function"
    },
    {
      "inputs": [
        {
          "internalType": "address",
          "name": "_account",
          "type": "address"
        }
      ],
      "name": "depositedAll",
      "outputs": [
        {
          "internalType": "uint256",
          "name": "depositedAllAmount",
          "type": "uint256"
        }
      ],
      "stateMutability": "view",
      "type": "function"
    },
    {
      "inputs": [
        {
          "internalType": "address",
          "name": "_user",
          "type": "address"
        }
      ],
      "name": "getAllUserDepositIds",
      "outputs": [
        {
          "internalType": "uint256[]",
          "name": "",
          "type": "uint256[]"
        }
      ],
      "stateMutability": "view",
      "type": "function"
    },
    {
      "inputs": [
        {
          "internalType": "address",
          "name": "_treasury",
          "type": "address"
        }
      ],
      "name": "setTreasury",
      "outputs": [],
      "stateMutability": "nonpayable",
      "type": "function"
    }
  ],
  "bytecode": "0x60806040526301e13380600455611f406005553480156200001f57600080fd5b50604051620013cc380380620013cc8339810160408190526200004291620000fd565b6200004d3362000090565b600180546001600160a01b039485166001600160a01b03199182161790915560028054938516938216939093179092556003805491909316911617905562000147565b600080546001600160a01b038381166001600160a01b0319831681178455604051919092169283917f8be0079c531659141344cd1fd0a4f28419497f9722a3daafe3b4186f6b6457e09190a35050565b80516001600160a01b0381168114620000f857600080fd5b919050565b6000806000606084860312156200011357600080fd5b6200011e84620000e0565b92506200012e60208501620000e0565b91506200013e60408501620000e0565b90509250925092565b61127580620001576000396000f3fe608060405234801561001057600080fd5b506004361061018e5760003560e01c80637313ee5a116100de578063b59e364811610097578063d1058e5911610071578063d1058e5914610383578063ecefc7051461038b578063f0f4426014610394578063f2fde38b146103a757600080fd5b8063b59e364814610354578063b6b55f2514610367578063c899eb901461037a57600080fd5b80637313ee5a146103025780638da5cb5b1461030b578063976f8eaa1461031c5780639f5ea9291461032f578063aa0a8b0e14610338578063b546fbf91461034157600080fd5b80635aacb6f31161014b57806361bc90a41161012557806361bc90a4146102cb57806361d027b3146102d4578063688e89c1146102e7578063715018a6146102fa57600080fd5b80635aacb6f31461027a5780635bfb61f41461028d57806360efe334146102b857600080fd5b80630dd4117a146101935780630ee118e7146101bc57806321ce919d146101dd5780632299b8fa14610232578063379607f514610252578063441a3e7014610267575b600080fd5b6101a66101a1366004611027565b6103ba565b6040516101b391906110e5565b60405180910390f35b6101cf6101ca366004611027565b6103e4565b6040519081526020016101b3565b6102176101eb366004611042565b600a60209081526000928352604080842090915290825290208054600182015460029092015490919083565b604080519384526020840192909252908201526060016101b3565b6101cf610240366004611027565b600c6020526000908152604090205481565b61026561026036600461108e565b61046d565b005b6102656102753660046110a7565b6105c1565b6101cf610288366004611027565b6106ba565b6001546102a0906001600160a01b031681565b6040516001600160a01b0390911681526020016101b3565b6101cf6102c6366004611042565b61073f565b6101cf60085481565b6003546102a0906001600160a01b031681565b6101cf6102f5366004611042565b610827565b61026561084f565b6101cf60045481565b6000546001600160a01b03166102a0565b6101cf61032a366004611027565b610863565b6101cf60065481565b6101cf60075481565b6002546102a0906001600160a01b031681565b6101cf610362366004611042565b6108e1565b61026561037536600461108e565b61094a565b6101cf60055481565b6102656109dc565b6101cf61271081565b6102656103a2366004611027565b610a3a565b6102656103b5366004611027565b610a64565b6001600160a01b0381166000908152600b602052604090206060906103de90610add565b92915050565b6001600160a01b0381166000908152600b602052604081208190819061040990610af1565b905060005b81811015610464576001600160a01b0385166000908152600b602052604081206104389083610afb565b905061044486826108e1565b61044e908561115c565b935050808061045c906111f8565b91505061040e565b50909392505050565b336000818152600a60209081526040808320858452909152812091610492908461073f565b90508061049e57505050565b81546000906104ae9083906111b5565b6001548454604051630852cd8d60e31b815260048101919091529192506001600160a01b0316906342966c6890602401600060405180830381600087803b1580156104f857600080fd5b505af115801561050c573d6000803e3d6000fd5b505050508160076000828254610522919061115c565b92505081905550806008600082825461053b919061115c565b90915550506000835560025461055b906001600160a01b03163384610b07565b600354600254610578916001600160a01b03918216911683610b07565b604080518581526020810184905290810182905233907f45c072aa05b9853b5a993de7a28bc332ee01404a628cec1a23ce0f659f842ef19060600160405180910390a250505050565b336000908152600a60209081526040808320848452909152902080546106245760405162461bcd60e51b81526020600482015260136024820152726e6f7468696e6720746f20776974686472617760681b60448201526064015b60405180910390fd5b805483111561063257805492505b826006600082825461064491906111b5565b909155505080548390829060009061065d9084906111b5565b9091555050600154610679906001600160a01b03163385610b07565b604080518381526020810185905233917ff279e6a1f5e320cca91135676d9cb6e44ca8a08c0b88342bcdb1144f6511b56891015b60405180910390a2505050565b6001600160a01b0381166000908152600b6020526040812081906106dd90610af1565b905060005b81811015610738576001600160a01b0384166000908152600b6020526040812061070c9083610afb565b9050610718858261073f565b610722908561115c565b9350508080610730906111f8565b9150506106e2565b5050919050565b6001600160a01b0382166000908152600a6020908152604080832084845282528083208151606081018352815480825260018301549482019490945260029091015491810191909152906107975760009150506103de565b806020015142101561081f576004546107b290612710611196565b60408201516107c190426111b5565b60055483516107d09190611196565b6107da9190611196565b6107e49190611174565b6127106005546127106107f791906111b5565b83516108039190611196565b61080d9190611174565b610817919061115c565b9150506103de565b519392505050565b6001600160a01b03919091166000908152600a60209081526040808320938352929052205490565b610857610b6f565b6108616000610bc9565b565b6001600160a01b0381166000908152600b60205260408120819061088690610af1565b905060005b81811015610738576001600160a01b0384166000908152600b602052604081206108b59083610afb565b90506108c18582610827565b6108cb908561115c565b93505080806108d9906111f8565b91505061088b565b6001600160a01b0382166000908152600a602090815260408083208484528252808320815160608101835281548152600182015493810193909352600201549082015261092e848461073f565b6109388585610827565b61094291906111b5565b949350505050565b600154610962906001600160a01b0316333084610c19565b60008061096e33610c57565b915091508260066000828254610984919061115c565b9091555050828255600454610999904261115c565b6001830155426002830155604080518281526020810185905233917f90890809c654f11d6e72a28fa60149770a0d11ec6c92319d6ceb2bb0a4ea1a1591016106ad565b336000908152600b602052604081206109f490610add565b905060005b8151811015610a3657610a24828281518110610a1757610a17611229565b602002602001015161046d565b80610a2e816111f8565b9150506109f9565b5050565b610a42610b6f565b600380546001600160a01b0319166001600160a01b0392909216919091179055565b610a6c610b6f565b6001600160a01b038116610ad15760405162461bcd60e51b815260206004820152602660248201527f4f776e61626c653a206e6577206f776e657220697320746865207a65726f206160448201526564647265737360d01b606482015260840161061b565b610ada81610bc9565b50565b60606000610aea83610cd3565b9392505050565b60006103de825490565b6000610aea8383610d2f565b6040516001600160a01b038316602482015260448101829052610b6a90849063a9059cbb60e01b906064015b60408051601f198184030181529190526020810180516001600160e01b03166001600160e01b031990931692909217909152610d59565b505050565b6000546001600160a01b031633146108615760405162461bcd60e51b815260206004820181905260248201527f4f776e61626c653a2063616c6c6572206973206e6f7420746865206f776e6572604482015260640161061b565b600080546001600160a01b038381166001600160a01b0319831681178455604051919092169283917f8be0079c531659141344cd1fd0a4f28419497f9722a3daafe3b4186f6b6457e09190a35050565b6040516001600160a01b0380851660248301528316604482015260648101829052610c519085906323b872dd60e01b90608401610b33565b50505050565b6001600160a01b0381166000908152600c6020526040812080548291908290610c7f906111f8565b91829055506001600160a01b0384166000908152600b60205260409020909150610ca99082610e2b565b506001600160a01b039092166000908152600a602090815260408083208584529091529020929050565b606081600001805480602002602001604051908101604052809291908181526020018280548015610d2357602002820191906000526020600020905b815481526020019060010190808311610d0f575b50505050509050919050565b6000826000018281548110610d4657610d46611229565b9060005260206000200154905092915050565b6000610dae826040518060400160405280602081526020017f5361666545524332303a206c6f772d6c6576656c2063616c6c206661696c6564815250856001600160a01b0316610e379092919063ffffffff16565b805190915015610b6a5780806020019051810190610dcc919061106c565b610b6a5760405162461bcd60e51b815260206004820152602a60248201527f5361666545524332303a204552433230206f7065726174696f6e20646964206e6044820152691bdd081cdd58d8d9595960b21b606482015260840161061b565b6000610aea8383610e46565b60606109428484600085610e95565b6000818152600183016020526040812054610e8d575081546001818101845560008481526020808220909301849055845484825282860190935260409020919091556103de565b5060006103de565b606082471015610ef65760405162461bcd60e51b815260206004820152602660248201527f416464726573733a20696e73756666696369656e742062616c616e636520666f6044820152651c8818d85b1b60d21b606482015260840161061b565b600080866001600160a01b03168587604051610f1291906110c9565b60006040518083038185875af1925050503d8060008114610f4f576040519150601f19603f3d011682016040523d82523d6000602084013e610f54565b606091505b5091509150610f6587838387610f70565b979650505050505050565b60608315610fdc578251610fd5576001600160a01b0385163b610fd55760405162461bcd60e51b815260206004820152601d60248201527f416464726573733a2063616c6c20746f206e6f6e2d636f6e7472616374000000604482015260640161061b565b5081610942565b6109428383815115610ff15781518083602001fd5b8060405162461bcd60e51b815260040161061b9190611129565b80356001600160a01b038116811461102257600080fd5b919050565b60006020828403121561103957600080fd5b610aea8261100b565b6000806040838503121561105557600080fd5b61105e8361100b565b946020939093013593505050565b60006020828403121561107e57600080fd5b81518015158114610aea57600080fd5b6000602082840312156110a057600080fd5b5035919050565b600080604083850312156110ba57600080fd5b50508035926020909101359150565b600082516110db8184602087016111cc565b9190910192915050565b6020808252825182820181905260009190848201906040850190845b8181101561111d57835183529284019291840191600101611101565b50909695505050505050565b60208152600082518060208401526111488160408501602087016111cc565b601f01601f19169190910160400192915050565b6000821982111561116f5761116f611213565b500190565b60008261119157634e487b7160e01b600052601260045260246000fd5b500490565b60008160001904831182151516156111b0576111b0611213565b500290565b6000828210156111c7576111c7611213565b500390565b60005b838110156111e75781810151838201526020016111cf565b83811115610c515750506000910152565b600060001982141561120c5761120c611213565b5060010190565b634e487b7160e01b600052601160045260246000fd5b634e487b7160e01b600052603260045260246000fdfea2646970667358221220bc3ab1ab014665a02a0bbbea474b509cfbe220122609dae4dd0b4bac0253602264736f6c63430008070033",
  "immutableReferences": {},
  "source": "pragma solidity ^0.8.0;\n\nimport \"@openzeppelin/contracts/token/ERC20/IERC20.sol\";\nimport \"@openzeppelin/contracts/token/ERC20/utils/SafeERC20.sol\";\nimport \"@openzeppelin/contracts/token/ERC20/ERC20.sol\";\nimport \"@openzeppelin/contracts/access/Ownable.sol\";\nimport \"@openzeppelin/contracts/utils/structs/EnumerableSet.sol\";\nimport \"./IPika.sol\";\n\n/**\n * @title Vester\n * @notice Support vesting esPIKA to PIKA token. A high fee is attached for short term claimer and the fee decreases linearly to reward long term claimer.\n */\ncontract Vester is Ownable {\n    using SafeERC20 for IERC20;\n    using EnumerableSet for EnumerableSet.UintSet;\n\n    struct UserInfo {\n        uint256 depositAmount;\n        uint256 vestedUntil;\n        uint256 vestingStartTime;\n    }\n\n    address public esPika;\n    address public pika;\n    address public treasury;\n    uint256 public vestingPeriod = 365 days;\n    uint256 public initialClaimFee = 8000; // 80%\n    uint256 public totalEsPikaDeposit;\n    uint256 public totalPikaClaimed;\n    uint256 public totalClaimFee;\n    mapping(address => uint256) private _balances;\n\n    uint256 public constant FEE_BASE = 10000;\n\n    /// @notice user => depositId => UserInfo\n    mapping (address => mapping (uint256 => UserInfo)) public userInfo;\n    /// @notice user => depositId[]\n    mapping (address => EnumerableSet.UintSet) private allUserDepositIds;\n    /// @notice user => deposit index\n    mapping (address => uint256) public currentId;\n\n    event Deposit(address indexed user, uint256 depositId, uint256 amount);\n    event Withdraw(address indexed user, uint256 depositId, uint256 amount);\n    event Claim(address indexed user, uint256 depositId, uint256 amountClaimed, uint256 claimFee);\n\n    constructor(\n        address _esPika,\n        address _pika,\n        address _treasury\n    ) public {\n        esPika = _esPika;\n        pika = _pika;\n        treasury = _treasury;\n    }\n\n    /** @notice Deposit esPIKA for vesting.\n     */\n    function deposit(uint256 _amount) external {\n        IERC20(esPika).safeTransferFrom(msg.sender, address(this), _amount);\n        (UserInfo storage user, uint256 depositId) = _addDeposit(msg.sender);\n        totalEsPikaDeposit += _amount;\n        user.depositAmount = _amount;\n        user.vestedUntil = block.timestamp + vestingPeriod;\n        user.vestingStartTime = block.timestamp;\n        emit Deposit(msg.sender, depositId, _amount);\n    }\n\n    /**\n     * @notice Withdraw the deposited esPIKA. The vesting is reset for the withdrawn amount.\n     */\n    function withdraw(uint256 _amount, uint256 _depositId) external {\n        UserInfo storage user = userInfo[msg.sender][_depositId];\n        require (user.depositAmount > 0, \"nothing to withdraw\");\n        if(user.depositAmount < _amount) {\n            _amount = user.depositAmount;\n        }\n        totalEsPikaDeposit -= _amount;\n        user.depositAmount -= _amount;\n        IERC20(esPika).safeTransfer(msg.sender, _amount);\n        emit Withdraw(msg.sender, _depositId, _amount);\n    }\n\n    /**\n     * @notice Claim PIKA token from vesting. If the vesting is not completed, it is attached a fee,\n     * which decreases linearly to 0 at the vesting completion time. The deposited esPIKA token is burned and\n     * the fee is transferred to the treasury.\n     */\n    function claim(uint256 _depositId) public {\n        UserInfo storage user = userInfo[msg.sender][_depositId];\n        uint256 amountToClaim = claimable(msg.sender, _depositId);\n        if (amountToClaim == 0) {\n            return;\n        }\n        uint256 claimFee = user.depositAmount - amountToClaim;\n        IPika(esPika).burn(user.depositAmount);\n        totalPikaClaimed += amountToClaim;\n        totalClaimFee += claimFee;\n        user.depositAmount = 0;\n        IERC20(pika).safeTransfer(msg.sender, amountToClaim);\n        IERC20(pika).safeTransfer(treasury, claimFee);\n\n        emit Claim(msg.sender, _depositId, amountToClaim, claimFee);\n    }\n\n    function claimAll() external {\n        uint256[] memory depositIds = allUserDepositIds[msg.sender].values();\n        for (uint256 i = 0; i < depositIds.length; i++) {\n            claim(depositIds[i]);\n        }\n    }\n\n    function claimable(address _account, uint256 _depositId) public view returns(uint256) {\n        UserInfo memory user = userInfo[_account][_depositId];\n        if (user.depositAmount == 0) {\n            return 0;\n        }\n        if (block.timestamp < user.vestedUntil) {\n            return user.depositAmount * (FEE_BASE - initialClaimFee) / FEE_BASE +\n                user.depositAmount * initialClaimFee * (block.timestamp - user.vestingStartTime) / (FEE_BASE * vestingPeriod);\n        }\n        return user.depositAmount;\n    }\n\n    function claimableAll(address _account) external view returns(uint256 claimableAmount) {\n        claimableAmount = 0;\n        uint256 len = allUserDepositIds[_account].length();\n        for (uint256 i = 0; i < len; i++) {\n            uint256 depositId = allUserDepositIds[_account].at(i);\n            claimableAmount += claimable(_account, depositId);\n        }\n    }\n\n    function unvested(address _account, uint256 _depositId) public view returns(uint256) {\n        UserInfo memory user = userInfo[_account][_depositId];\n        return deposited(_account, _depositId) - claimable(_account, _depositId);\n    }\n\n    function unvestedAll(address _account) view external returns(uint256) {\n        uint256 unvestedAllAmount = 0;\n        uint256 len = allUserDepositIds[_account].length();\n        for (uint256 i = 0; i < len; i++) {\n            uint256 depositId = allUserDepositIds[_account].at(i);\n            unvestedAllAmount += unvested(_account, depositId);\n        }\n        return unvestedAllAmount;\n    }\n\n    function deposited(address _account, uint256 _depositId) public view returns(uint256) {\n        return userInfo[_account][_depositId].depositAmount;\n    }\n\n    function depositedAll(address _account) external view returns(uint256 depositedAllAmount) {\n        depositedAllAmount = 0;\n        uint256 len = allUserDepositIds[_account].length();\n        for (uint256 i = 0; i < len; i++) {\n            uint256 depositId = allUserDepositIds[_account].at(i);\n            depositedAllAmount += deposited(_account, depositId);\n        }\n    }\n\n    function getAllUserDepositIds(address _user) public view returns (uint256[] memory) {\n        return allUserDepositIds[_user].values();\n    }\n\n    function _addDeposit(address _user) internal virtual returns (UserInfo storage user, uint256 newDepositId) {\n        // start depositId from 1\n        newDepositId = ++currentId[_user];\n        allUserDepositIds[_user].add(newDepositId);\n        user = userInfo[_user][newDepositId];\n    }\n\n    function setTreasury(address _treasury) external onlyOwner {\n        treasury = _treasury;\n    }\n}\n",
  "sourcePath": "/Users/me/workspace/PikaPerpV2/contracts/token/Vester.sol",
  "compiler": {
    "name": "solc",
    "version": "0.8.7+commit.e28d00a7.Emscripten.clang"
  },
  "schemaVersion": "3.4.11",
  "updatedAt": "2023-01-14T09:54:29.128Z",
  "devdoc": {
    "kind": "dev",
    "methods": {
      "owner()": {
        "details": "Returns the address of the current owner."
      },
      "renounceOwnership()": {
        "details": "Leaves the contract without owner. It will not be possible to call `onlyOwner` functions anymore. Can only be called by the current owner. NOTE: Renouncing ownership will leave the contract without an owner, thereby removing any functionality that is only available to the owner."
      },
      "transferOwnership(address)": {
        "details": "Transfers ownership of the contract to a new account (`newOwner`). Can only be called by the current owner."
      }
    },
    "title": "Vester",
    "version": 1
  },
  "userdoc": {
    "kind": "user",
    "methods": {
      "claim(uint256)": {
        "notice": "Claim PIKA token from vesting. If the vesting is not completed, it is attached a fee, which decreases linearly to 0 at the vesting completion time. The deposited esPIKA token is burned and the fee is transferred to the treasury."
      },
      "currentId(address)": {
        "notice": "user => deposit index"
      },
      "deposit(uint256)": {
        "notice": "Deposit esPIKA for vesting."
      },
      "userInfo(address,uint256)": {
        "notice": "user => depositId => UserInfo"
      },
      "withdraw(uint256,uint256)": {
        "notice": "Withdraw the deposited esPIKA. The vesting is reset for the withdrawn amount."
      }
    },
    "notice": "Support vesting esPIKA to PIKA token. A high fee is attached for short term claimer and the fee decreases linearly to reward long term claimer.",
    "version": 1
  }
}